:20D000002DE9F04F0F460446ADF1240D0CF0BCFAB54D2068286060686860A068A860B348EE
:20D020008047B34829680160B24CC46069684160A968816004F1C0010161AF488047AF48E9
:20D040002968016069684160A968816004F11801C16004F5DA7404618FB397F820008DF829
:20D06000000097F821608DF80160684604F092FC786A08B1CC490160B86A08B1D249016022
:20D08000D2483978017079784170B9787E688170F9784660C170BC688460FA6AC261FB6870
:20D0A000C3603969016179694161B969FE698161306800B9C748C649486000274F70C64C4B
:20D0C000C6495020621C04F110030EF029FF002700B10127381C0BD005200CF071FC0C2735
:20D0E0000820ADF800002968ADF802706846884768688047BA4E8046002004A90422707006
:20D10000074637700CF0B7FF04984FF0080BB0F5801F0CD020B90DF05DFA0DF046F908E00A
:20D120000DF01EF90DF037F90420708001E00DF051FA3846A060AB4EB7600CF098FA706085
:20D14000A948394641800126067014200EF0C6FEFF21142260620CF011FDE01CFF210322A8
:20D160000CF00CFD14200EF0B9FEA04F38603868002114220CF002FD00200AF08BF9304634
:20D180000CF0CCF89A480188FF2906D1022101807822001D00210CF0F1FC032004F0FCFBF2
:20D1A000042002F004F8052007F0D8F9062003F0B6F8072003F0B0FA8E4E86F800B006F1E4
:20D1C000280002F053F90DF04EFD60360520102132460DF060F838B10020C0F10F01401CC2
:20D1E00006F8011B1028F8DB83480926002106AA05AB067010200EF093FE606A9DF81810D3
:20D2000041729DF81810C1740A3029689DF81820761E00F8012BF9D1ADF800B01420ADF821
:20D220000200684688471526ADF800B00198ADF8026029686061684688470198A968801E28
:20D24000A06140468847206A0CF08EFE08B10CF052FEB9460CF01DFB079020B10CF083FA6D
:20D260004FF0FF300790002629E0626A9DF806C0A7F10C080A203146521E12F8013F9C456B
:20D2800004D0401E01F10101F7D116E05FFA81FABAF1FF0F11D098F804000CF03BFE98F8E3
:20D2A0000610012903D0022908BFB87000E03870504639460CF058FD01E00CF01CFE072035
:20D2C000ADF800B02968ADF8020068468847029F0028CAD0D9F800007700C35B83B9761CAD
:20D2E000F6B20A2EF8DB2AE0F8420020014C01102C4F002010C4010001500010E848002098
:20D300000A2E1CDA68688047D9F80010002231F80780CA53A9688847384850F826202670F4
:20D320004146304690470646FF20207068688047D9F800107A5A16437E52A96888470CF0CD
:20D34000A8FA07460798B8421BD0686807B92C4FA169B94238BF0F1C80470646E369ADF824
:20D3600000B01C20ADF802002968019368468847216A3846491C21620CF010FEA9683046F6
:20D380008847A168206989B9D9F800000A260027C35B23B120690CF08FFDD9F80000761E5A
:20D3A00007F10207F4D103E0E5BD01000CF084FD0A20ADF802004FF0FF37ADF800B0296878
:20D3C00001976846884745E711BE0100B04400204C460020BF99010054460020459F01007E
:20D3E00004470020EC42002000470020044300207C46002008470020B0420020E8C3010097
:20D400008EC2F5280CF0C0B800BF00BF04F0C2BA00BF00BF0EF084BD00BF00BF0CF0D0BA7C
:20D4200000BF00BF0CF027BE00BF00BF0DF0D2B800BF00BF0CF0B9BF00BF00BF0CF090BFCD
:20D4400000BF00BF0CF0A7BF00BF00BF0CF00FB900BF00BF0EF042BD00BF00BF0CF08EBB6C
:20D4600000BF00BF0AF016B800BF00BF0BF056BF00BF00BF04F090BA00BF00BF01F097BE58
:20D4800000BF00BF07F06AB800BF00BF02F047BF00BF00BF03F040B900BF00BF01F0E6BF01
:20D4A00000BF00BF0DF0DFBB00BF00BF0CF0F3BE00BF00BF0CF058BD00BF00BF0CF01BBD4B
:20D4C00000BF00BF0CF0E5B900BF00BF0CF04BB900BF00BF0CF01EBD00BF00BF0CF044BCE7
:14D4E00000BF00BF0CF05ABD00BF00BF0CF0E4BC00BF00BF0F
:20D4F4006E490860704780B5002200920B4601226B4900F0BAF802BD80B50A88172A05DBE8
:20D51400002200920B4603226649F2E7022002BD38B50D460446A878012818BF02280DD1B2
:20D53400288800281CBF6868002807D002210CF0C8FA00902B4605225B4931E0022032BD86
:20D5540038B500F01EF81CBF6868002806D000F036F800902B460722544921E0022032BD24
:20D5740038B500F00EF81CBF6868002807D002210CF0A7FA00902B4609224D4910E0022076
:20D5940032BD0D46044628880028704738B500F024F808B100F013F800902B460B224549F3
:20D5B400204600F062F832BD38B500F016F808B100F005F800902B460D223F49F0E7012176
:20D5D4000CF07FBA38B500F008F808B1FFF7F7FF00902B460F223949E2E70D460446686896
:20D5F400704738B5FFF7CDFF1CBF6868002807D002210CF066FA00902B4611223049CFE725
:20D61400022032BD80B5002100910023132270E738B50D460446A86810B105210CF051FA87
:20D6340000902B4617222749BAE780B500210091002319225DE738B5FFF7CFFF10B103216C
:20D654000CF03FFA00902B461B2209E038B5FFF7C4FF10B103210CF034FA00902B461D2265
:20D674001949204600F049FA32BDF8B504460698009015461E46204600F03FFA07000AD157
:20D6940006480268100006D0012D04BF3078451CE9B2204690473846F2BD00006041002018
:20D6B4003BD7000077D70000A9D7000061D80000EFD800002FD90000A9D90000E3D9000030
:20D6D400E9D9000051DA0000C5DA0000F8B505460C46AF892FB3AA68167830060FD50D2F50
:20D6F4001FDB0C3FBFB2D01900903B466888012105F04AF9002814BF0220012000E00020DE
:20D714002070B00900F00100607006F03F00A070781EA08080B208B1A868401CA060002079
:20D73400F2BD0120F2BD0A7802704A8842704A88120A8270097918E104290AD10178117081
:20D754008378417801EB03215180C0781071002070470420704705E0022B00D1D5E00420F9
:20D77400704700BF0A8802700988090A417002207047022906D10178407801EB002010801E
:20D794000020704704207047E6E0042B00D1F4E0042070478A7802708878098801280CBF55
:20D7B400042012204843401C80B2704710B50B001CD00378491E012B89B207D14B0801EB13
:20D7D40093739B08B1EB830410D108E0022B0DD1122391FBF3F3122404FB131131B999B260
:20D7F40021B110F8011B917013800FE1042010BD10B50C46022200F047F8001D611D0CF0A9
:20D81400B5F92089801D80B210BD70B51E46062E144619DB049D2078617800EB0120288030
:20D834000222A078E17800EB01206880211D02202871681D0CF09AF9B01F288180B200B1E3
:20D85400A01DE860002070BD042070BD08888004000C70474B0801EB93739B08B1EB830330
:20D8740003D1890801D011809AE00420704710B50C4600F009F8611D2279001D0CF076F9CF
:20D894002079001D80B210BD218801702188090A4170618881706188090AC170704710B5B5
:20D8B400029C062B104612D1022121714278017801EB02212180C278817801EB0221618091
:20D8D400011D2279601D0CF051F9002010BD142B08BF1021E9D0042010BD7CE010B50B00BE
:20D8F4000BD003785380491E022B89B205DB91FBF3F403FB141101B986E0042010BD31E77D
:20D91400022B00D101E0042070471078517800EB01200099088000207047088870473CE081
:20D9340010B5022B0FDB029C207261721078517800EB01202080981E608080B200B1901CD2
:20D954006060002010BD042010BDB2E009B9002070470420704700BF0A8802700A88120A9E
:20D9740042704A8882704988090AC17004207047042B00D101E00420704700981178537885
:20D9940001EB032101809178D27801EB02214180002070470888704700BF118001B9002077
:20D9B40050600020704788884004000C704703EBD3704008B3EB400007D15908022904DB1B
:20D9D400009881800260002070470420704708887047E2E700BF4A8809880270514389B213
:20D9F400481C80B2704710B50B000BD003785380491E042B89B205DB91FBF3F403FB141186
:20DA140001B901E0042010BD1480401C5060002010BD14E010B5042B0EDB00F062F8D47872
:20DA3400917801EB04214180191F818089B201B1111D8160002010BD042010BD00BF0A8893
:20DA540002700A88120A42704A8882704A88120AC2708888001D80B2704710B5042913DB06
:20DA740003784478091F03EB04231380C4788378918003EB042389B2002914BF001D0020BA
:20DA940090605380002010BD042010BD0978017001207047012B04D100991078087000204D
:20DAB40070470420704709B9002070470420704700BF0A8802700A88120A42704888801CBD
:20DAD40080B2704710B5022B09DB00F00AF8991E418089B201B1911C4160002010BD0420BD
:20DAF40010BD02981178547801EB04210180704709B900207047042070472DE9F04784B018
:20DB140080460C9D0C4691469A4655B9172004F0C7FB0126050005D11324204604B0BDE886
:20DB3400F08700262846012700F8019B14B15146A047471C5FEA09600DD51021404604F025
:20DB5400A4FCD8B9BFB2EA193946284604F0CFFE044668B90C370420ADF800000195ADF8AC
:20DB740008706946404603F05AFE00280446D4D0002ED2D028460BF0D1FFCEE71924F7E7AA
:20DB940030B5022918BF102985B00446154603D1022B18BF102B01D0002017E00A469A4250
:20DBB40003D129460CF02BF810E01029694606D1284600F00DF810226946204604E000F0C2
:20DBD40007F81022694628460CF019F805B030BD38B504000D4618BF002D0BD010220FF2DE
:20DBF400A80128460BF0C2FF2078287360786873012032BD002032BD30B504460D0018BF26
:20DC1400002C85B014D01022214668460BF0AEFF68460021818110220FF26C010BF0EFFF62
:20DC3400012805D1207B2870607B6870012000E0002005B030BD38B504464FF6FE70844278
:20DC54000D460BD0172D09DB03F086FE2946884204D32046BDE8344004F045BC012032BD4F
:20DC740080B54FF6FE71884205D004F04AFC010005D1172002BDBDE8014003F06DBE02BD3E
:20DC94007047002070470000FB349B5F800000800010000000000000282808DA4FF6FF72C1
:20DCB400914204D0CA4A22F810100020704702207047282803DAC64931F8100070474FF63A
:20DCD400FF70704770B504460D46C24E1C22002130460BF049FF347775770EF0B3F90100DE
:20DCF4000EBF012100211220317070BD10B5B94CE160A060102200210BF074FF012801D139
:20DD1400A0680CE010BD10B5B24C6060102200210BF068FF012801D1606800E010BDBDE8E1
:20DD34001040102104F093BDAA48406870472DE9FC41A84D0446002695F81E80042C0F4651
:20DD540024DA2878032818BF102054D101F094FA28B900F047F910B900F046F908B1122047
:20DD740049E0012C18BF022C1DD1BFB10622002168460BF0F9FE00F040F838B90622FF218C
:20DD940068460BF0F1FE00F038F808B1022032E00622394668460BF0E9FE0BE006216846D3
:20DDB40004F055FD06E0032C04D16868694604F00BFC0646884FAC77042138780BF02CFD66
:20DDD400002028849EB9ACB1684600F05BF8064668B9032C0ED11D20FFF76BFF288448B101
:20DDF40038784EF6602204210BF02EFD02E00EB185F81E803046BDE8F681062269463846AB
:20DE14000BF0FDBE70B5044600252000714E05D121B1062206F110000BF0A8FE307801287C
:20DE34000CD10125200004D10220307007F0F4FD04E000203070204600F0A8F8284670BDF7
:20DE540038B50024E0B10578624A290006D14178837801EB0321D182C0781076107802285C
:20DE74000ED10124280006D103201070117ED08A03F06CFD01E000201070284600F086F846
:20DE9400204632BD10B5534CA17F81B10146062204F124000BF06AFEA07F04F1240100F04F
:20DEB40008F804F12400BDE810400EF0CFB8002010BD79B102000DD04A79012808BF42F0E0
:20DED400C00006D002F03F0203284A7102D142F0400048717047010018BF012108467047CB
:20DEF40070B53C4D0446287FFF2815D00A200BF049FE060010D0D020307074700820B07055
:20DF14000622A87FF07005F12401301D0BF02EFE287F31460BF01EFFE87F01280FD12F4892
:20DF3400006818B18068010018BF8047BDE87040294800784EF6602204210BF085BC70BD83
:20DF54002448806870472348C068006870472148C1680A68521C0A60007FFF281CBF4FF450
:20DF740080410BF03BBF70471A48807F704738B50446184D05F110000EF06CF805F11000FE
:20DF94001CB9A97F09B105F1240032BD70B5114D0446287FFF2819D00E200BF0F3FD06000A
:20DFB40014D0D020307074700020B070062205F11001F01C0BF0DAFDE88A70813146287E28
:20DFD4003073287FBDE870400BF0C4BE70BD00003443002008430020C0430020C443002098
:20DFF40004F00EBB264800E02648006800B101207047010001D0172801DBFF2801D101209C
:20E014007047002070472DE9F04D0D4693460024BBF1200F80461F462C7003DB0020BDE876
:20E03400F08D0419E0B25845F8D2E4B23E5D641C002EF3D0E4B231198B45EFDB17F804A06A
:20E054005046FFF7D6FF641C0028E7D0701EC2452870E6D1E4B23819E1E70B490A78104330
:20E074000870704708490A7832EA0000087006D10648006818B14068010018BF0047704722
:20E0940068410020644100206C410020744100202DE9F04104468846122740464FF6FE716A
:20E0B40088421646DFF89C5908D1A86950B30268100027D041462046904720E04FF6FF7183
:20E0D400884212D1A86938B10268100004D0414620469047070005D03146204600F0E0FAF0
:20E0F40007000FD12C706E700CE004F0A0F948B10078A04205D1314640460DF0AFFF074614
:20E1140000E003273846BDE8F08110B5044684B000F072F808B9022029E02088012104F006
:20E13400B4F908B9142022E0208804F0BFF9042812D1DFF8100981894FF6FF72914218BF6A
:20E15400112014D12188818161888180A188C180E188018121894181002002900190208953
:20E174000090E388A2886188208807F0C1FC04B010BD30B5044685B02088402104F085F9C1
:20E19400002836D02088ADF8040000F035F8002500281CBFA07A002807D10021684600F0CE
:20E1B400D4F9A07AF0B102251CE091208DF800008DF803503E208DF80100012106208DF8E1
:20E1D4000200A088ADF808006088ADF80600E088ADF80A002089ADF80C008DF803506846CA
:20E1F40000F0B3F920880022402104F0ECF8284600E0122005B030BD2389E288A188608823
:20E2140007F08ABB70B50C46DFF83C180978022918BF0129154601D1122070BD0DB90220EB
:20E2340070BD04F004F9060001D1142070BD1CB1307940F0020030711022294606F118007A
:20E254000BF094FC2869B062002070BDF8B506000C4601D10220F2BD308804F0E8F80500F6
:20E2740001D11420F2BDDFF8E0070078022818BF012803D0A87C082802D10CB11220F2BDDD
:20E29400DFF8C077786908B11120F2BDB0200DF01BFE786108B91320F2BDB02200F0C8FAFC
:20E2B400786931884180A022311D001D0BF05EFC796902200870A87C7969328808280CBF36
:20E2D400012000200B1DDFF88417097804F0B2FE06461CB12146284605F0C5F8300018BF83
:20E2F40000F05BFA3046F2BD38B504460D4604F09EF808B9142032BD8DF8005069462046BE
:20E3140004F0E5FF32BD38B50022A0B101230624E4B2051915F8015C303D0A2D0BD203FBD7
:20E3340005220A256B43641EE5B2002DF0D11046BDE8344001E0022032BD30B505460C46DB
:20E3540085B0204604F073F808B9122019E0DFF80007854228BF022013D21022002168462F
:20E374000BF002FC280A8DF801008DF80050280C8DF802002146280E8DF80300684604F081
:20E39400A0FE05B030BD2DE9F0418046DFF8B8060078022814BF0128122082B00C461546D8
:20E3B4001E462FD00EB902202CE0404604F03FF8070008BF142025D0F86A08B10DF095FD9F
:20E3D4001C2130460BF0FBFD0100F96208BF132018D0B87C08280AD1089840B1887E0090DF
:20E3F40001F112030A8A404605F068F800E00020397941F004010CB141F002010DB141F0CB
:20E4140020013971BDE8F6812DE9F0410D4604F00EF804001FD0A56200F007FA0546C0B2C5
:20E4340000B92578A66A94F8058010200BF0AAFB070010D0D0203870062200207870A11D14
:20E454000920B87087F80380381D0BF08FFBFE603946E8B21EE0BDE8F0812DE9F04104465F
:20E474000D4690461F460E200BF08CFB06000FD0D020307006220020707041460C20B070DA
:20E49400B580B01D0BF072FB37733146204601E0BDE8F081BDE8F0410BF05CBCF0B50C00E6
:20E4B40087B050D0A079DFF89C65002830690CBF0825042508B9DFF89C050778042D08D15C
:20E4D400DFF89405006820B1416808001CBF00208847207D059004F10803608A04903946D5
:20E4F400208A0390E08902900195A0880090E279E07800F071F8E07880B9172004900122F7
:20E51400E089039002950020019004F108000090E379A188384603F009FFE070306908B176
:20E5340000F056F9307801000DD0717800F0B8F848B1E378312B04D0A2883178184600F0D4
:20E5540079F80020307007B0F0BD10B5044684B0A08851B1002102910191A18900916389B8
:20E574002289E18807F06FFA1FBD04B0BDE810403B2107F06ABA70B504460026A08803F067
:20E5940056FF18B10678A08803F003FFDFF8B4542878010007D0864205D1697800F080F870
:20E5B40048B100202870300005D0A379A288A078314600F03FF8686908B100F0EEF8A0880D
:20E5D40003F074FF042802BFA088A989884204BF4FF6FF70A88170BD2DE9F0410646884682
:20E5F40017461C4616200BF0CDFA050020D0D02028706E700520A870EF702CB106222146ED
:20E61400281D0BF0B3FA04E006220021281D0BF0ABFA069868812946079828730898E881AE
:20E63400099828820A9868820B982875404631E7BDE8F081F8B504460D4616461F460820C8
:20E654000BF0A0FA48B1D02101704470062181708680877101462846EDE0F1BD2DE9F04175
:20E6740005460E46174698460C200BF08BFA040014D0304603F0DBFE08B9DFF8D8030078EB
:20E69400D021217065700721A170E570A680E780A4F80880069961812146FBE6BDE8F081F1
:20E6B40010B50C4603F0D8FE28B140882146BDE810400DF0D3BC122010BD2DE9F84F074634
:20E6D400894692461C46484603F0B1FE5FEA000B1EBFDFF87053696900295CD051F8A42FDF
:20E6F400182002B134208A6802B1143004B11C30496801B1173080B20BF044FA06004AD0A8
:20E71400182200F095F800F090F85FEA000808BF9BF80080D020307077700A20B070A6F82C
:20E73400049086F806A006F118076969D1F8A40040B1B7603846D1F8A41000F11C071C2263
:20E754000BF014FA6969D1F8AC0040B1F7603846D1F8AC1000F1140714220BF007FA3CB1DF
:20E774003761384600F11C071C2221460BF0FEF96869D0F8A81031B177611722D0F8A81000
:20E7940038460BF0F3F931465FFA88F00BF0E2FABDE8F14F01E0BDE8F18F10B5A94C606973
:20E7B400A8B1D0F8A40008B10DF09FFB6069D0F8A80008B10DF099FB6069D0F8AC0008B1B7
:20E7D4000DF093FB60690DF090FB0020606110BD10B59C4C206940B10DF087FB0020206154
:20E7F4000420BDE81040FFF73DBC10BDF8B504460D46284603F01BFE060015D000F015F884
:20E81400070008BF377806200BF0BCF906000BD0062200F00DF8D020307074700E20B070D1
:20E83400B5803146F8B206E0F1BD2620FFF741BA00210BF099B9BDE8F4400BF08BBA2DE906
:20E85400F84305460E4617469846304603F0EFFD5FEA00091ED010200BF094F9040019D055
:20E874001022FFF7E5FFFFF7E0FF08B999F80000D021217065700F21A170A680277284F87E
:20E894000980C0B20899A1720999E1720A99E160214631E0BDE8F1832DE9F84304468846E2
:20E8B400914603F0C4FD070024D014200BF06AF905001FD0FFF7B9FF060008BF3E78D02017
:20E8D4002870062200206870B91D0B20A870E81C0BF04CF96C8118F00101C5F8109018BFE4
:20E8F40001212973F0B218F0020118BF01216973294601E0BDE8F183BDE8F4430BF02ABAA0
:20E914002DE9F14F90460D469946404603F08FFD07000A9EDDF82CA0DDF830B00D9C45D0BD
:20E934009DF80000002841D1387940F010005FEA49714CBF40F0020000F0FD005FEA097113
:20E954004CBF40F0200000F0DF00002E08BFBAF1000F08D1BBF1000F08BF002C03D100F07F
:20E97400FB00387122E040F0040038713CB12069B8621022214607F118000BF0F7F83EB1EE
:20E9940035B9F86A08B10DF0B0FA1C2130460AE0BAF1000F0AD0012D08D1F86A08B10DF063
:20E9B400A4FA1C2150460BF00AFBF862254D6869002842D086B1D0F8A40028B91C200DF03E
:20E9D40083FA6969C1F8A4006869D0F8A40018B11C2231460BF0CAF8BBF1000F11D0686992
:20E9F400D0F8A80028B917200DF06EFA6969C1F8A8006869D0F8A80018B1172259460BF006
:20EA1400B5F88CB16869D0F8AC0028B914200DF05BFA6969C1F8AC006869D0F8AC0018B107
:20EA3400142221460BF0A2F89DF8000053464A46414601B0BDE8F04F3FE6BDE8F18F07491C
:20EA5400086070478443002025430020C043002040420F0024430020C443002070410020E1
:20EA740070B5DFF80466054630680C4608B1112070BD00F0E7F801D1122070BDDFF8EC0508
:20EA9400806800281CBF0078002801D1102070BD0C200DF019FA306040B30120FFF7DDFAFB
:20EAB400306805700021306841700A222146801C0BF05CF800F0CFF9040002D000F0B4FA21
:20EAD40015E0DFF8AC050078032810D11D20FFF7F0F8DFF8A015088048B1DFF89C05007809
:20EAF4004EF6602204210AF0AFFE00E01324204670BDF8B50C46DFF8841509781546052254
:20EB140011421E4627D0012CDFF8601502D18F680FB301E0CF68F7B1202D02DA2A0002D049
:20EB34000EB90220F2BD08701F220021781C0BF01BF82A463146781C0BF018F83D7028460C
:20EB540024B1791CBDE8F4400DF08CBA791CBDE8F4400DF08BBA1220F2BD38B5DFF8084579
:20EB7400216809B9122032BD0978814201D0032032BDDFF80455287802210AF04DFEDFF8DF
:20EB9400EC1400204880042128780AF045FEDFF8E414002008800320216848700020BDE8D7
:20EBB40032400DF067BAF8B5044600F04BF801D11220F2BD1CB12078FFF71BFA08B9022081
:20EBD400F2BD6078801C202823DA207800F0AEF908B11820F2BDDFF894546B680021002215
:20EBF40002E0B61C71181B685BB15E68767828B9C9B27718BF1C202FF3DB0120B61CB218E1
:20EC1400F1E7D0B238B16078D2B28018801C202801DB0B20F2BD08200DF056F906000FD0B6
:20EC3400082200F087F8686830B100E0084601680029FBD1066000E06E6074600020F2BD33
:20EC54001320F2BDDFF83404007805210842704780B500F027F801D1002002BD00F066F9CC
:20EC740000B1406802BD10B500F01CF801D1002010BDDFF8F8335968002201E00A46096859
:20EC940069B14C6824788442F8D14C680868002A14BF1060586008460DF027F900E00024AF
:20ECB400204610BDDFF8D4130978052211427047DFF8C80300780521084218BF00F043B950
:20ECD4001220704770B5DFF8A443A06818B10DF00CF90020A060E06818B10DF006F9002034
:20ECF400E0600521DFF89453287808421CD004F1100000F0AEFB287800260521084211D051
:20ED140000F077F9A06060B100F013F800F071F9E06010B100F00DF804E0A0680DF0E5F85D
:20ED3400A6601326304670BD002000F092FB002070BD202200210AF017BF2DE9F047828869
:20ED5400DFF82463DFF82453316842F20607D31B4FF0010805D09B1E012B60D99B1E0FD058
:20ED74000BE08068007841B1020003D1012048700DF080F901006BD038E04FF0000867E03B
:20ED9400806807780029F8D04878BD4C012833D100F058F9DFF8E092B0B10120FEF789FF88
:20EDB4008246BAF1420F0AD399F800004EF6602202210AF049FDAAF13C00688010E04FF4F2
:20EDD4007A7000FB0AFA02E0FEF773FF8246BAF1000F05D099F80000524602210AF0FFFC55
:20EDF400316802204870207818B9384600F004F92EE0002020702BE0207848BB03200AF037
:20EE1400C1FE48B1D02101704770042181700146306800780AF09EFF00F006F918E080683A
:20EE34000778287842F208018A420CBF01260026FF280DD004200AF0A5FE010008D0D020F0
:20EE540008704F7002208870CE7028780AF082FF4046BDE8F087F0B5834F386885B070B3E3
:20EE7400847800F009FA28B10A20FEF722FF05460B200DE000F0E6F828B10620FEF719FF39
:20EE94000546072004E00820FEF713FF05460920FEF70FFF064676480078FFF71CF8396835
:20EEB400CA7A039203468A7A029228460A1D01922246C978009131460DF0E0F800E00120D5
:20EED40005B0F0BD38B5014667486B4D02682878664C01291ED161880B0002D0684B1B7840
:20EEF40023B112B31078BDE8324036E63C29A8BFA1F13C000CDA02210AF08EFC60884FF458
:20EF14007A7101FB00F2287802210AF068FC0020608031BD4AB159490978490705D502218A
:20EF34000AF07AFC002060807CE031BD4F49496800E0096829B14A6812788242F9D1084677
:20EF5400704700207047F8B54C48007800240521084201D11220F2BD444DA86810B900F0B5
:20EF740048F8A860E86810B900F043F8E860A86800281CBFE968002901D11320F2BDFFF772
:20EF9400D8FEE868FFF7D5FE6E6812E09B1C50185918401C117071684978491C01707168F0
:20EFB40009784170801C71684A7849680AF0DEFD3668AA6896B13CB97068117843785F18CF
:20EFD400BF1C202FE2DB01247368E9685B780A789B1C88189A18401C0A70DCE71078511CF9
:20EFF4000DF040F8E868411C00780DF03FF80020F2BD20200CF068BF38B51B4D044628680E
:20F0140078B103200AF0BEFD48B1D02101704470032181700146286800780AF09BFE04B120
:20F0340000E031BDBDE8314010B50F4C206840B10CF05BFF002020600120BDE81040FFF73D
:20F0540011B810BD80B50948806858B10278431C69460120FEF7D7FF20B10078C00701D535
:20F07400012002BD002002BD68410020A04300202643002028430020C04300202543002032
:20F094002743002038B504460D4603F0D0F9A0B1807C042801D0122032BD3748006808B181
:20F0B40090F899502946684603F0FDFB334B6A460221204605F0B4FD32BD142032BD80B51F
:20F0D4002F480078400707D52E48FFF7B8FC2E494FF6FF70088001BDBDE802400020FFF77C
:20F0F400AEBC7CB5012403280D4610D042F21301884204D04FF6FF7188421ED02AE0A87861
:20F114000C2818BF112826D100F027F823E0E878A9881D4E1A2804BF33889942F4D06A8940
:20F1340000922B89EA88FFF799FAA8883188884211D14FF6FF7030800DE068790024122855
:20F1540009D1ADF80040297968886A4602F09FFB012400E00024204676BD38B50A4C208861
:20F174004FF6FF75A84205D008490A78084902F0A1FB258031BD000098430020634B010014
:20F1940025430020BC43002090430020C043002088430020B2494870704710B5B04C2070F8
:20F1B4000AF0ECF82078BDE81040052102F022BB7CB5AB4D28780C46210419D50AF02FFD87
:20F1D400060084F4004411D000F058F858B93078A22806BFA34800786878FF2803D031463C
:20F1F4000AF0B8FD02E030460AF0E1FC204676BDE10709D5A86820B1416808001CBF002031
:20F21400884784F0010076BDA10709D5686820B1416808001CBF0120884784F0020076BD17
:20F23400610727D5904E31880A001DD0481E308080B2E0B9FEF7D6FE48B18C4901200870B7
:20F25400686820B1416808001CBF01208847FEF76BFD694603F0B8F96846FEF713FE1D20DC
:20F27400FEF727FD308002E004210AF0D5FA84F0040076BD002076BD03F01EB938B50278B2
:20F294000124912A4FF6FF7102D0A22A76D07BE04278052A49D00E2A04D00F2A48D03E2ABF
:20F2B40069D071E082886E4941F20905531B2DD040F6F9755B1B2FD0DB1E31D05B1E08D0DF
:20F2D4009B1E022B05D9DB1E012B15D9DB1E08D05AE04968002958D009680A0055D08847C7
:20F2F40050E06349096800294FD04B6819004CD0014642F20E003CE08968002945D00B6836
:20F31400190042D00146104698473BE08068411C0078FEF777FD35E08068FEF791FD31E060
:20F3340080680078FEF7DCFD2FE0FFF724F92CE0828842F20D05531B13D09B1F02D09B1F76
:20F354000FD021E04B4B1B888B420AD04A490968D9B10A68110018D0014642F2130090477B
:20F3740010E04349096881B14B6819000DD001461046984706E000F00AF803E0024640886A
:20F3940000F04BF8044600E00024204632BD70B505460124A8780128014611D0022806D07D
:20F3B400032811D0062815D00A2809D032E02C48806880B3416808002DD0284688472AE079
:20F3D4002946FFF76BF826E0A8882A4600F025F8044620E00E200AF0D5FB06001BD0A8883B
:20F3F4000122402102F0EFFFD02030703146E87870701120B070A888B080E888F08028890C
:20F41400308168897081A889B081164800780AF0A1FC00E00024204670BD70B50C4615460D
:20F4340003F044F80126042804D11348006858B1026803E00E48006830B14268100003D01C
:20F454002946204690470646304670BD0449886070470349486070470849086070470000F6
:20F47400C04300202443002028430020274300209C43002090430020704100207441002021
:20F49400F8B5144600250E46C24FC34B40B1012815D0042818D006281ED0072822D02CE05D
:20F4B400162928DA1622002107F10C000AF05CFB3246214607F10C000AF058FB1EE0022EEB
:20F4D40019D12088388119E0082E14D138462146082209F0C4FF11E0012E0CD1DA6903F1BA
:20F4F400280104E0012E06D1DA6B03F14801207800F03DF802E0182500E002252846F2BD63
:20F5140010B50B460024A34920B1012808D0042809D00DE015220C3118460AF027FB08E017
:20F534000889188005E01846082209F098FF00E00224204610BD7047002070470146002063
:20F55400C90706D50FF2582393481022072101F01CB9704701460020C90704D58E4840890F
:20F57400002101F03DB970478C490860704710B50B7884074CBF43F0020303F0FD030406B1
:20F594004CBF43F0800303F07F0304074CBF43F0080303F0F70384064CBF43F0200303F002
:20F5B400DF030B70AA21084203D0107840F00C0003E018B9107800F0F300107010BD2DE9AC
:20F5D400F0410F461546387802281E464FF000085ED1786801784078069C01EB002080B291
:20F5F40021001CBFB0F5285F0B2056D14FF42851401A08D0401E1AD0401E28D0401E1ED0A5
:20F61400401E2AD044E0F8680AF0D7FC079A80B2031B9342B8BF021B92B21019162803DA4B
:20F634003280F86801190EE04FF00D0834E0F8680088022131802870000A68702CE00620CC
:20F6540030800622F96828460AF090FA24E001203080F868007828701EE0F868B0B108213E
:20F674003180018829700188090A69704188A9704188090AE970818829718188090A69717E
:20F69400C188A971C088000AE87105E0308003E0A6F800804FF001084046BDE8F0812DE9B8
:20F6B400FC4B0E46804630780027022891461D466BD17068017840780A9CDFF8E0B001EB64
:20F6D400002080B24FF42851401A06D0401E29D0401E4CD0401E38D057E0F0680AF06DFCAF
:20F6F40080B2A04204D32919162903DB0D274DE007274BE0F3682A46494618190AF036FA3D
:20F714002C19F068A4B2C4F11602002120440AF02BFADBF80000002838D00268100035D0EF
:20F73400002121E07CBB022DE0D199F8000099F8011000EB0120F1680880DBF8000028B3AE
:20F754000268100022D001210EE0E4B9062DCDD1F068062249460AF009FADBF80000A8B173
:20F774000268100012D00321404690470EE054B9012DBBD199F80000010013BF0128F168FD
:20F794000870802702E00B2700E001273846BDE8F68B0000D0430020F44300207841002013
:20F7B400D3F50000B3F600000000000070B5DFF8A85A2878062460430CF086FBDFF89C1A4F
:20F7D400086008B9132070BD0020FF2206E03380401C0023F270B2703371C0B22B7898421C
:20F7F4000ADA0B6804FB00F61E4400280CBF4FF6FE734FF6FF73EAE70FF2C14000F062FDC5
:20F814000FF68510FDF76CFE0FF6C51002F07FFD002070BD70B50446208868B160680378D4
:20F83400426800F079F948B9606803784268DFF8300A00F073F908B9022070BDA078C01F46
:20F854000A2801D3182070BDDFF8185A2888010004D02188C0F58030884201DA012070BD5A
:20F874000C200CF031FB060001D1132070BD002008E06268298880B202EB0012401C518106
:20F89400491C298081B222889142F2D30020306008222146301D0AF069F9686810B96E6080
:20F8B40004E0084601680029FBD10660002070BD38B502460846DFF8AC194C68002301E01A
:20F8D4002346246894B1A5686D899542F8D12268002B0CBF4A601A6018B10822211D0AF068
:20F8F40045F920460CF001FB002032BD012032BDDFF874190870704710B50446104614220B
:20F91400114203D000F013F9012204E04A0608D500F00DF9002201462046BDE8104002F0D1
:20F93400F6BDC80701D4022010BD002010BD70B505460E46B0061C4609D5104600F0F7F891
:20F9540001462846BDE87040012202F0E0BD8820064210D0104600F0EAF8014606F0080298
:20F97400284602F0D4FD010009D0617A41B1217A012904D070BDB00701D4032070BD0020D9
:20F9940070BD7CB50446002000900D460223DFF8DC284FF6FF71012000F02CF8060026D0C2
:20F9B400002304221D21204600F0C2FD0190E0B170890199ADF800002B460420ADF8020001
:20F9D400002201200870002001994870FF20019988700199C8706946204600F00AF9040057
:20F9F40006D001980AF09AF802E0152400E00124204676BD2DE9F0478146DFF86808446838
:20FA14008A4690461E4600E02468FCB1002700E07F1CA188B8B28842F6D2A068BFB200EB84
:20FA340007156889484528BF8245F1D33EB12978686833464246FEF7A3F80028E8D0089835
:20FA540010B1A16849890180284600E00020BDE8F087F0B5DFF80C28546800E02468E4B17E
:20FA7400A5686E89B042F9DBA788BA199042F5DA4FF0000C01E003F1010C1FFA8CF2BA4245
:20FA9400ECD21FFA8CF305EB0312B2F80AE08645F1D101B10E801046F0BD0020F0BD2DE9B0
:20FAB400FC4104460027ADF804704FF6FF786089404515461E4608D001AA0092401C237876
:20FAD400626880B2FFF796FF07462378626800F023F830B923786268DFF8840700F01EF818
:20FAF40008B160890CE023786268DFF8840700F015F858B11FB1BDF80400A84203D02846E3
:20FB140000F0D2F803E07889404400E0608906B130803846BDE8F681DFF858070221FEF797
:20FB34002FB880B500F0F2FA00B1008802BD80B500F0ECFA08B1807802BD102002BD70B532
:20FB5400012982B00446154616D0032918D0052925D0072927D0092929D00B292BD00D29BC
:20FB74002DD00F292FD0112931D0132933D0172934D0192936D039E02946FDF7B4FC33E0F8
:20FB940001F0EAFEADF8000069462046FDF7B4FC06002CD12988204600F076FC27E0294628
:20FBB400FDF7B6FC20E02946FDF7CAFC1CE02946FDF7D6FC18E02946FDF7E8FC14E029468F
:20FBD400FDF7F2FC10E02946FDF7FCFC0CE02946FDF707FD08E0FDF715FD05E02946FDF75B
:20FBF40017FD01E0FDF721FD064600E00226304676BD2DE9FC410E46054617461C4601A992
:20FC140000F091FA804638BB380014D00020ADF8000069463088FFF71CFF012FBDF800005E
:20FC340018BF0027FFF783FF01463A46284602F06EFC804680B931462846FDF707FD804607
:20FC540050B9019DFF2C07D0AB1C1E2229460FF2555000F0FBFBEC704046BDE8F6817CB5B6
:20FC74000D460446164601A900F05DFA17281AD0300014D00020ADF8000069462888FFF72F
:20FC9400E8FE012EBDF8000018BF0026FFF74FFF01463246204602F03AFC010003D12946B4
:20FCB4002046FDF7C8FC76BD10B50446FFF739FF01001CBF611E0C18A0B210BD2DE9F043BB
:20FCD4000D4689B08146A87800261E28174614D1484600F03CFA06001EBFB078FE28FF28E3
:20FCF40022D0002000900022AB78F078494600F082FB304600F040FA16E0122804BF687832
:20FD1400012813D0484600F022FA06000ED0327910000BD0100607D4A978484600F0C7FB5D
:20FD3400307940F080003071002069E0DFF838452078FF2812D0A878811E17290ED200F088
:20FD54008AF958B1A87800F0B3F938B1287810B96878012804D1A878122801D006204FE097
:20FD7400A87800F078F9844602A80090AB88AA6869782878E0470028804640D1A87800F0EE
:20FD940097F9024602A9484690478046D8B9AB78042B34D002A8009000222078494600F047
:20FDB4002AFB804658BBA97802A800F097FB08B100203870A878122804BF697801291ED04D
:20FDD400EEB130711BE06878C8B9A8788DF800008DF804806946A878042818BF0628BDF810
:20FDF4000800ADF802004846FDF77DFB28B16B4601221621484600F03DFB4FF000084046DF
:20FE140009B0BDE8F083002070472DE9FE430D46804628886988814201D3010001D101208A
:20FE34006DE00021ADF8041002914FF6FF7900E0401C0021009100236988002280B2FFF7EB
:20FE5400D9FD070037D0BDF80400002838D16B464A460521404600F06BFB040001D1112076
:20FE74004DE002943878022806D101208DF80600BDF80000860827E002208DF80600122124
:20FE9400BDF8000090FBF1F63878102813D1788904F8010B102200F034F81034BDF8040007
:20FEB400401CADF80400B1B2BDF80400884202D278894845BCD1BDF8040080B90A201EE03A
:20FED4009DF806000128DFD138780228F3D1788904F8010B022200F014F8A41CDEE701A9A4
:20FEF4004046FDF715FB48B101AB05221621404600F0C0FA10B1029809F010FE0020BDE80A
:20FF1400FE837889000A04F8010B2046796809F02DBE10B582B04C880888844201D3020017
:20FF340001D1012016BD00F016F808B90A2016BD002016BD10B582B04C880888844201D343
:20FF5400020001D1012016BD00F005F808B90A2016BD002016BD002200924A1D0B79214621
:20FF740048E510B5044682B0084669460088FFF770FD08B9012016BD017ABDF800202046AC
:20FF9400FFF7BAFC16BD70B582B006460D46002401E0641CA4B2A888844229DA286810F86C
:20FFB400142000EB44006946407802EB002080B2FFF74FFD50B9286810F81410017028681C
:20FFD40000EB440149784170012076BD017ABDF800203046FFF790FC0100DAD0296811F88A
:0CFFF40014200A70296801EB44025278C6
:020000040001F9
:200000004A7076BD002076BD10B50C4682B020886188814200D308B9012016BD23799A48FD
:20002000621DFFF785FD08B9102016BD00200090237961882088621DFFF7E6FC08B90A20E6
:2000400016BD002016BD38B504460D4669462888FFF709FD08B9012032BD017ABDF80020D4
:200060002B462046FFF76DFC32BD022814D0042814D0062814D008281AD00A2812D00C28C9
:2000800012D00E2812D0102812D0122812D0162812D0182812D013E07C4870477C48704705
:2000A0007C4870477C4870477C4870477C4870477C4870477C4870477C4870477C48704768
:2000C00000207047022814D0042814D0062814D0082814D00A2818BF0C2812D00E2812D0CE
:2000E000102812D0122818BF162810D0182810D012E07048704770487047704870477048A0
:200100007047704870477048704770487047704870470FF2090070470020704700207047FD
:200120005549496800E0096829B18A6852898242F9D1081D70470020704710B50C4600F030
:2001400010F860B104B120608078FE2801D1172010BDFF2801D1002010BD162010BD022052
:2001600010BD10B5424A1268002100E0491C3F4C2478CBB2A34207D2C9B206234B43D45ABF
:200180008442F3D1D01810BD002010BD10B50446A01C00F06DF9FF20E07010BD10B50C46BF
:2001A000FFF7DFFF30B101794A1C944204BF01F08001017110BD000010B582B004001EBF88
:2001C000A078FF28FE280BD0002000901E232188E078172200F019F9FE20A070FF20E07015
:2001E00013BD000070B504464FF6FE70844282B037D008004FF6FF760AD12046FFF7B1FF65
:2002000078BB3046FFF7ADFF05002AD0048073BD012906D12046FFF7A4FF050021D02E803C
:200220000BE002291DD10121204602F038F9C0B92046FFF796FF050013D0A878FF280ED098
:20024000FE2807D0002000901E23E8781422214600F0DBF82846FFF799FFFF20A87000209D
:20026000287173BD04480088704700006D4100207C410020C806010064440020CF430020B6
:2002800000070100D0060100C40601006DD700009FD700001FD8000015D9000085D90000B7
:2002A000C3D90000B3D8000035D9000029DA0000A9DA00001BFE00001FFE000027FF000027
:2002C00049FF000077FF00009BFF0000090001004700010070477047824908607047814952
:2002E00048607047804908707047032290FBF2F080B201F00DBB0178B02904BF4178002933
:200300000CD10179122903D1417C012906D101E01B2903D14088012101F017BB704710B597
:20032000724C607002F0E6F8401C20700421607801F06AFABDE81040FFF742BA38B50C46FB
:20034000200411D56948407809F073FC050008D02878A02804BF284600F008F8284609F0F5
:2003600030FC84F4004032BD002032BD30B587B0044601208DF8000001A92046FDF7B0F9E2
:2003800005002AD19DF806105648C9070AD54368180005D060886A4601A9984705461CE065
:2003A00006251AE00368180006D060886A4601A99847050001D110E006259DF8050060B9F9
:2003C0009DF806008DF810008DF814500020ADF8120004A96088FDF790F89DF8000000285F
:2003E0001EBFA068002809F0A3FB45B99DF80600122806BF9DF8051001291B2803D06088EF
:20040000012101F0A2FA07B030BD2DE9F0410446FF2C0D46164698461FD0202009F0BCFB61
:20042000070018D0B02038707E707D8087F80480069929B1182207F1080009F0A1FB04E03B
:20044000182207F1080009F099FB3946204609F08BFC002002E0132000E00220BDE8F08123
:2004600010B54FF47A746243BDE8104009F0D8BE10B504001EBF2078FF28FE2803D009F006
:2004800062FEFF20207010BD80B5009313460A46014615480078FFF7B8FF02BD30B583B06F
:2004A00004460D46FDF7D1FB50B901A80090ADF804507F230C48007800222146FFF7A5FF13
:2004C00037BD00B583B07E238DF804108DF8052001A900910022014603480078FFF795FF6B
:2004E00007BD0000804100206C4400206D410020052923D006291BD0072918BF09291DD058
:200500000B2918BF0D2919D00E2913D00F291CBF1129122912D0162918BF17290CD01B29B7
:2005200018BF1D290AD0522918BFD22906D007E0C0687047006870478068704740687047BE
:200540000020704770B5052914461D4616D0062912D0092918BF112910D0122912D016293E
:2005600018BF17290CD01B2918BF1D290AD0522918BFD22906D007E0072606E0022604E024
:20058000052602E0032600E001264FF6FF72944203D1FDF76FFB841B02E0D22908BF0C34DD
:2005A000301980B201F086FE38B105B12C807142BDE8704009B209F08EBA70BD80B5FFF7A4
:2005C00097FF18B1BDE8024009F0B2BA01BD00000022022970D10178407801EB002080B2B5
:2005E0004FF4C051401A2CD0401E2DD040F6FF71401A2CD0401E2DD0401E2ED0401E2FD0E6
:20060000FD3830D0401E31D0401E32D0401E33D0401E34D0401E35D0401E36D0401E37D0F7
:20062000401E38D0F83839D0401E3AD0401E3ED0401E39D0401E3DD0401E08BF0FF2C0028D
:200640003AE00FF2780237E00FF2740234E00FF2740231E00FF270022EE00FF270022BE0DC
:200660000FF26C0228E00FF26C0225E00FF2680222E00FF268021FE00FF264021CE00FF254
:20068000640219E00FF2600216E00FF2780213E00FF2740210E00FF274020DE00FF24C021A
:2006A0000AE00FF24C0207E00FF24C0204E00FF2440201E00FF24402104670470018000053
:2006C0000118000000280000012800000228000003280000002900000129000002290000DD
:2006E000032900000429000005290000002A0000012A0000022A0000032A0000042A000097
:20070000052A0000062900000729000008290000DFF8F81C0870704738B5DFF8F44CDFF825
:20072000F45C20762878C0000BF0D8FBE061C8B1002108E04FF6FF7220F8312000EBC10314
:2007400000225A60491C2A789142F3DB052000F015F9207EFFF7D6F8BDE83240DFF8E40CB2
:2007600001F0DFBD31BD38B50C46200415D5DFF81C0D007E09F05DFA05000BD02878B0288B
:2007800005D1284600F06DF908B100F0EDF8284609F017FA84F4004032BD002032BD7CB5D2
:2007A00006001C460DD0ADF800108DF8022001966846FFF739F805001AD1CCB17689300090
:2007C00001D1022514E00C200BF088FB08B913250EE00021016086808460DFF8B41C0A6816
:2007E00012B9086004E00A4611680029FBD11060284676BD30B50C46DFF8941C054608689A
:2008000083B0002201E00246006898B18388AB42F9D10368002A0CBF0B6013600BF06FFB44
:2008200069462846FFF74EF8010002D10CB1019921603EBD01203EBD70B550BB012926D14B
:20084000DFF8CC0BC169002300E05B1CDFF8C44B2478A34217DA31F833404FF6FF75AC42AB
:20086000F3D0002400E0641C467EE5B2B542ECD201EBC305E4B26D680C266643AD5B002DF2
:20088000F1D0012070BD1078BDE8704076E0182070BD022070BD0022002803BFDFF8EC0B88
:2008A000407E08700222104670472DE9F047DFF8E45B0746287982B088469A46461C914667
:2008C000ADF800A00121384601F0E9FD182408B9142047E069888F4201BF287908282989FF
:2008E0008A453ED153464A464146384600F0BEFA2989DFF8987B491C29816A460146284634
:2009000000F039FA04001BD016281BD0182828D06878142814D0F1B23846FFF74FFE28795F
:2009200038703C713946BDF8000078806888FCF7E4FD08B10126162400F016F800F019F859
:20094000162C0ED168883B46F2B21621FFF79CFD18B1F1B23846FFF731FE00F005F800F0AF
:2009600008F82046BDE8F687297905F10800FFF725BE20220021284609F000B92DE9F843A2
:20098000DFF88C7A0446002078760C25F869DFF8846A406805FB04F870B10BF0B0FA002041
:2009A00006E0F969C0B201EBC00100224A60401C3278C1B29142F4D3307808FB00F080B224
:2009C0000BF08CFA5FEA000928D0307808FB00F20021484609F0D2F800200FE0516805FB75
:2009E0000CF34FF0000E21F803E019440CF1010CC1F808E0A445F1DBC144401C3278C1B274
:200A0000914208D2F969C0B201EBC0024FF0000CC2F80490EEE77C76002000E01320BDE86F
:200A2000F28301460020C90705D5002310220121DFF8640CB3E6704701460020C90704D512
:200A4000DFF8540C40890021D4E67047DFF8401A096821B18A888242FAD188687047002028
:200A600070472DE9F04186B004460020ADF8100001208DF81200DFF89859286A38B900F030
:200A800075FF0BF02BFA0028286200F0E0801822FFF770FF2079461C02284FF6FF7817D059
:200AA00006282CD008282FD00A2833D00C2857D00E2800F08B80102800F08D80122800F0BD
:200AC0008F80162800F09380182800F09780BBE000F04CFF288029466088FCF717FD00287B
:200AE0002189288804D0814228BF01462980A0E0814228BF01466088FFF7D0FCA4E004A9E2
:200B0000204600F0AEF87DE004AA0021204600F032F977E000F0A0F8070052D0608805AB8C
:200B200042460B21FFF70EFD03006B6024D02079BDF81620039000953946BDF814000290B8
:200B40000020019000F041FA070004D160882946FCF726FD29E0162F686808BF00272BE059
:200B600000F07AF807002CD0608805AB42460D21FFF7E8FC686020B92089ADF810001127B1
:200B800045E02179BDF8162003910346BDF814100291618901910095394600F016FA0700CB
:200BA00006D160882946FCF709FD002841D12AE0162F686808BF002708F0BAFF380001D10C
:200BC00021E001272089ADF810001CE004A9204600F089F916E004A9204600F004FA11E025
:200BE0000DF1120204A9204600F09FFA0AE00DF1120204A9204600F0D9FA03E004A920467F
:200C000000F042FB0746380011D0162F11D0607814280CD0207928702F712946BDF8100026
:200C200068806088FCF769FC08B1012601E0162F0AD160882B46F2B21621FFF725FC18B197
:200C4000F1B22846FFF7BAFC2046FFF754FB9DF8120006B0BDE8F08120890DF11601FEF706
:200C600002BF2DE9FA47044686B06088DFF8A057FDF700F880460DF112000090237B61894C
:200C8000208904F10D02FEF7BFFE002781464FF0FF0AB9F1000F5BD009E0BDF81030435466
:200CA000BDF81000696892B2000A8854571CBFB2A8F1050087424BDA207903900026A8F119
:200CC000070080B20290019605F11A0000902B6ABDF812206088494600F0E4FB002802BF67
:200CE0006A8B208A904214D1296A606908F091FF78B1686858B900F06AF90721FFF722FC21
:200D0000686020B9069920890880112030E0B9F80A60BDF81220618904AB4846FEF7C9FE3C
:200D2000002E8146B5D06868C655781C6A6880B231121154411C4A1C6868B9F1000F89B287
:200D4000ABD100F801A092B2686800F802A0571CB8B248B13F04B80C288029466088FCF701
:200D6000F9FB28B1162003E00699208908800A2008B0BDE8F0872DE9F047044686B060880A
:200D80000D469046FCF776FFDFF80867801EB4421FFA80F907D020222146304608F0F0FE7A
:200DA00001E0401C3081A9F10200DFF8E076398988423ADB002D38D104A80090337B7189C1
:200DC000308906F10D02FEF71FFE5FEA000A2CD0BAF80A00BDF8102030819AF8081060880F
:200DE000FEF794FD054600BB20793B6ABDF8102003905146A9F1020080B200F0EDF800F087
:200E0000E4F80546162D01D100202CE068B9BAF80A307A8B396A608800F028F8054620B999
:200E200030894FF6FF718842BBD13889010014D0798890FBF1F0388006F108003179FFF784
:200E4000BDFB20220021304608F098FE60883946FCF790FB38B1162005E005B90A253089E4
:200E6000A8F80000284606B0BDE8F0872DE9F8468246894615461E46FCF7FCFEDFF80C46D2
:200E80000746208990B900F0A3F809215046FFF759FB606008B9112023E0A81C60803A1FCC
:200EA000208901466B189A4206D203E06088A91C8842F4D0012014E0401C20816068465479
:200EC0002089411C2181310A62681154606823892A464946184408F053FE2089281820815E
:200EE0000020BDE8F2862DE9F047044686B06088DFF81C750D46FCF7BDFE0026A0F10109D6
:200F0000A0F1010814E03888798B0346C9188845BCBFA9EB0000788378687A8B396A18449A
:200F200008F02EFE3888798B0818761C3880B6B2A0898642BCBF3888404534DAA06810F828
:200F4000162000EB460004A9407802EB002080B2FEF789FD010009D14FF0010A00F02BF8D3
:200F6000786808B108F0E4FD50467CE72079BDF8102003901FFA89F000F02EF83B6A00F0B8
:200F800024F800288246E9D178680028BBD100F01EF80F21FFF7D6FA00287860B3D100F087
:200FA0000AF81120E1E760883946FCF715FB0028DBD01620D9E7A06810F8161000EB46009C
:200FC000407801EB00202880704760886AE2608800234FF6FF72704702900020019007F107
:200FE0001A00009070472DE9F047044686B06088DFF81C548946FCF73DFE059004F10D02FE
:2010000004A80090237B61892089FEF7FDFC0026B24607464FF0FF0810E0696801F8068084
:2010200080B2696801F80080461C68686A8B296AB6B2801908F0A4FD688B8619B6B2FFB136
:20104000BDF81020397A6088FEF760FC5FEA000A13D12079BDF81020039039460598801FBC
:2010600080B202900020019005F11A0000902B6AFFF7ABFF5FEA000A10D07889A9F8000051
:20108000002E48D0688896FBF0F0288029466088FCF7B1FA002847D0162045E07EB9FFF745
:2010A00096FF1121FFF74EFA686020B97889A9F80000112038E0688B001D688009E0688BCB
:2010C0006988021D9142DDD10599891F80198142D8DB69687889885579896A68701C80B2E9
:2010E000090A1154461CBDF8102061890DF112033846FEF7DEFC0746701C002FB6B28CD01B
:201100006A68BDF81210915580B2BDF812106A68090A115488E75FEA0A002089A9F80000E1
:2011200008BF4FF00A0A50469DE6FEB504460D462089164602A9FEF796FC07002ED0387A3E
:2011400080060BD5BDF8080000F0A6F903000BD06088122239469847070020D1607C002889
:2011600014BF5220207901E00E2718E00190002000906389E2682189608800F08FFA0700FA
:2011800007D1607C68B96088FCF746FA48B11620FEBD162F03D10027377002E001272089DB
:2011A0002880607C00B100273846FEBD2DE9F041044682B00D4660889046012101F06FF94B
:2011C000002718B9142060700E205BE020896946FEF749FC060051D0307A80060BD5BDF82C
:2011E000000000F059F9030013D06088122231469847070043D16688304600F00DF928B9FF
:201200004FF6FF7000F008F9A0B306800021804E02E00E2733E0491C737ECAB29A4229D28E
:201220004268C9B20C234B4313441A88002AF2D10C2204F10801184608F0A2FC002088F826
:2012400000000C2204F10801304608F099FCA289608800231721FFF775F9B06060B1A28941
:20126000216908F08DFC60883146FCF7DBF940B1162007E0092702E0112700E00127208934
:2012800028803846BDE8F6812DE9F043044683B06088894600F0C0F800265FEA00084CD054
:2012A000207A012845D1414604F1080000F051F8A0B1D8F804701820019078880090BB8867
:2012C000BA683988608800F0E9F90646162E02D10020B8602DE060B3388828E000270EE0D9
:2012E000019068880090AB88AA68608800F0D6F90646162E18D10020A8607F1CFFB2444878
:20130000407E874215DAD8F804100C227A430A44154629880B000CD07B1C83421DBF9089F6
:20132000002816201820DBE7002EE6D02888A9F80000404600F088F82EB96088FCF77FF9F0
:2013400020B1162003E0162E08BF00263046BDE8FE832DE9F84F0C460020002700264FF07B
:201360000C0B2B490DE0984202BFBCF8025093B2AB4224D1BCF80430DF19BFB29A1892B2E6
:20138000761C4B7E9E420FDA63680BFB06FC9C44BCF8003043B10028E5D1BCF80470BCF8E4
:2013A00002201846BA18EAE7022E2BDB38004FF0000904D008F0A3FB5FEA000801D10020A7
:2013C00021E0CA4618E00BFB0AF14518A96859B1AA8808EB090008F0D3FBA88848441FFAC2
:2013E00080F9A86808F0A4FBBAF1000F02D00C22FFF7C0FA0AF1010AB2456068E3DBC0F828
:20140000088087800120BDE8F28F00006D440020884100200442002010B51C4AD26900214F
:2014200000E0491CDFF8C8432478CBB2A34207D2C9B232F831308342F3D102EBC10010BDA4
:20144000002010BD4917010070B5044600250BE0B06808B108F06CFB0C220021304608F0D2
:201460008DFB002030806D1C0849497EE8B2884207D26068EDB20C216943461830880028B8
:20148000E6D14FF6FF70208070BD000088410020AC410020B041002080B5FFF7D7FA00B160
:2014A000806802BD2DE9FE4F0D468046287AC00693461E464FF0000A0CD55846FFF7ECFFBB
:2014C000030000F0E4800A222946404698470028824649D128780C9F0D9CDDF838900228F0
:2014E00016D100F018F94FF42051401A012810D9801E3AD0401E14D0FD3876D0401E00F031
:201500007D80401E6AD0401E6FD0401E00F09180A7E0002C2AD1E8680178398002784168E7
:2015200083E0002C22D1012038800021E868007830706889401C80B2FEF795FA398860B1F2
:201540000278921C51183980418971704189090AB17002784168F01C68E0081D388004221E
:201560000021701C08F00AFB93E0002C62D1E8680488042038803470200A70700DF1020188
:201580002046FEF770FA05001ED0EC68BDF802204FF6FF786B464146FEF78BFA40B92B785E
:2015A0006A6894480221FCF7F5FA08B9ADF80080207802280AD161680222301D08F0E0FAE9
:2015C0003888801C388001E0ADF80040BDF80000B070BDF80000000AF0705AE054BBE868A4
:2015E000016840460AF016FD02E01CBBE8680088022139803070000A70704AE0E86808F086
:20160000E6FC82B2A242B8BF4FF0070A41DB944208BF002206D009EB04019142B2BF4A468B
:20162000121B92B23A80E9682144304608F0A8FA2FE014B14FF00B0A2BE0E8680721398055
:2016400001783170417871704188B1704188090AF17001793171C1887171C088000AB071F5
:2016600017E05846FFF7F2F900281CBFD0F800C0BCF1000F0BD00F980290CDF804900094AC
:201680003B46324629464046E047824601E04FF00E0A5046BDE8FE8F704400202DE9FE4342
:2016A0008046894617461E4602A94846FEF7DBF905002CD0BDF80800FFF7C8F900281CBF5A
:2016C000D0F804C0BCF1000F1FD00A980B9C0090019433463A4629464046E0470646B8B993
:2016E000FE2C15D02878022812D100F014F842F6021188420CD13878797800EB012082B25F
:201700004946404600F058F802E00E2600E001263046BDE8FE8368680178407801EB0020AE
:2017200080B27047704700207047E0B58DF808200223120A8DF80920FE220192002200929A
:2017400002AAFFF7ABFF0EBD7CB50129044605D0022930D1012100F0A2FE60BB2046FFF7A3
:201760005BFE08B1FFF770FE01A800904FF6FF750223214A29460120FEF746F90BE0F0686A
:20178000016820460AF04EFCBDF80420002329463046FEF78EF90600F1D1184D6888A042DA
:2017A00009D12879411CC9B21548FEF707FFFFF7DBF8FFF7DEF873BDF8B5124F04463878B1
:2017C000FF280D46164611D00A2008F0E5F968B1B12101704480002141700171C580068122
:2017E00001463878BDE8F44008F0BEBAF1BD000004420020C8060100DC060100B0410020D2
:20180000884100206D4400200A4610B5052A18BF042A03D0062A18BF072A08D10C24554B11
:2018200062431A4422F8301D9070002010BD022010BD38B50D4604462888052818BF0428F8
:2018400003D0062818BF072801D1686808B9022032BD0121204600F022FE08B9142032BD91
:201860004FF6FE7084420ED0204600F054FE2989884208D22888062803D13F480088884288
:2018800001D21B2032BD3D48007800282946204603D0BDE8344000F095BABDE8344000F01D
:2018A00047BA80B5364B009313460A4601212CE0E0B5019200230522009202930A46314BA2
:2018C0000A2100F0CBF90EBD70B50D4684B004461646EB88AA886988288804F027F858B1AA
:2018E000002002900196042000902A46264B1221204600F0B3F900E0182004B070BD80B5A7
:20190000224B009313460A46132100F0D9F902BD38B504461E480129017011D11648008869
:20192000051DADB201200AF0B7FB94FBF5F082B2284601B0BDE83040002300210AF0B0BBD4
:20194000BDE8324000200AF0A7BB03B510480078012881B003D102AA01A90AF0A5FB07BD8A
:20196000054A001F10800548017070470248008870470000D04100206E4400208244002082
:20198000C51E0100B51F0100431F0100A91F01006F4100207047000010B59D4C207000F0AD
:2019A00099FC302200219B4808F0E8F89A4960780978081860700006000D0AF08FFA6060E2
:2019C00088B161780A01002108F0D8F800206278C1B2914208D26168C0B201EB0011FF228E
:2019E0004A72401CF3E76070207807F0D4FCBDE810400FF2292000F094BC30B50C462004EC
:201A000089B0834D0CD5287808F013F9050004D000F02AF8284608F0D4F884F4004021E062
:201A2000E0071ED500F097F930B1A878B0B12878012108F0DDF911E0A97808001CBFE87805
:201A4000FF280BD08DF80810652302A901910022002100914FF6FF7100F035FB84F0010004
:201A600000E0002009B030BD3EB504462078902849D16078132815D10020654A06E0A36860
:201A8000C0B233F8103059189170401CA5789178C3B2AB42F3D3002935D01078012108F07D
:201AA000A7F937BD65882146684600F0E0F90199F9B1BDF80000052804D16946284600F0BF
:201AC00026F818E004281CBF0628072813D10C2250495043084430F8301D61B180786A46D3
:201AE000294600F0CEFA30B9BDF8000004280AD005E0012803D1A06808B108F019F801214D
:201B00002846FFF722FF37BD4149C8707047F0B50E4689B0044630890025042844DB716855
:201B200002A800F091F8BDF80A20182A63DA3189101D814235D19DF80800C00736D570682D
:201B4000071D9DF8090000F015FB06002CD035719DF8080001280BD0132821D13078042879
:201B600022D1BDF80A20394603A800F01EFA05E0BDF80A20394603A800F0C3F90546304606
:201B800000F017FB03A80190002000902A469DF80830307A214600F096FA304600F0E3FA46
:201BA00015B1204600F033FB09B0F0BD9DF80800122817D17068011D03A800F0D8F905004F
:201BC000EED1144881890029EAD003A9019100229DF809109DF80830807B0091214600F03F
:201BE00072FADDE79DF80910ADF800506A462046FFF757FED4E70120ADF800001720ADF854
:201C000002006A469DF809102046FFF74AFECBE780440020D04100200442002010B5044684
:201C20004FF6FE7084420ED0012906D002290AD10121204600F033FC28B92046BDE8104064
:201C4000002100F0E5BA10BD0A7802704A7842708A78C97802EB0121418070472DE9FC4182
:201C60000D4616461F460A9A0999044601AB00F051FA804608BB0199089808703346DFF84E
:201C800018060178491CCAB2002A06BF012101220A460170294601980271009701980279B1
:201CA000204600F00DF8804620B901981E2100F076FA02E0019800F056FA4046BDE8F68195
:201CC0002DE9F041044684B00E4617469846172000F0F0FA050026D00A9A100003D0414696
:201CE000281D904700E00020010A2E70E9706F70A8700521001DADF80800ADF80010019594
:201D00006946DFF8980500780028204602D000F059F801E000F00CF80446200004D0284606
:201D200007F006FF00E01324204604B0BDE8F08110B50B88DFF868250C2463431A44303A06
:201D4000536833B94B685360098950811181002010BD162010BD80B5052000F00FF858B92F
:201D6000062000F00BF838B9042000F007F818B9072000F003F800B1012002BD0C2210B5DF
:201D8000DFF81C1542431144A1F1300484B06168A9B1DFF8082512787AB1ADF80000019154
:201DA00069462089ADF80800608900F00BF810B1606807F0BDFE00206060012000E0002006
:201DC00004B010BD70B50D4604462889010004D0DFF8D0140988814201D21B2070BD686820
:201DE000042107F078FE0646288930702889000A70702888B0702888000AF0702889051D5C
:201E00004FF6FE70844213D10C2007F0C5FE01000CD0902008704C8002200871CD808E60D8
:201E2000DFF88404007807F09FFF18E0132070BD3346AAB2002120460AF03AF9010007D07D
:201E400002280ED0072810D012280CD01F280DD1DFF8480401780A001CBF491E01700020B7
:201E600070BD142070BD022070BD042070BD38B50446002060600879022821D1CA88042A00
:201E80001EDB886801784378C57801EB0321837889B203EB05230D1D95429BB210D1052B2D
:201EA00018BF042B03D0062B18BF072B08D1218123806FF0030107F00EFE6060002032BDBC
:201EC000012032BD0B88037002220B881B0A43700B88012B06D14A88827004224988090AF9
:201EE000C1700CE0022B0AD14A8882704A88120AC2708A88027106228988090A4171104600
:201F00007047022A1BDB0A784B7802EB032202800288012A05D18A78C97802EB0121418071
:201F20000BE0022A09D18A78CB7802EB032242800A79497902EB012181800020704701204A
:201F400070470A8802700A88120A42704A8882704A88120AC2708A8802718A88120A42711C
:201F6000CA888271C988090AC17108207047082A18D10A784B7802EB0322028011F8022F79
:201F80004B7802EB0322428011F8022F4B7802EB0322828011F8022F497802EB0121C1804E
:201FA000002070470120704705E0022A00D10EE00120704700BF0A8802700988090A4170B2
:201FC00002207047022A00D101E0012070470A78497802EB012101800020704780B54B88C0
:201FE00000F8013B04224B881B0A00F8013B0B8800F8013B0B881B0A00F8013B0B8873B9E9
:202000004B88022B04D1496808F00AF8082206E0032B04D10822091D07F0B2FD0C221046B3
:2020200002BD10B50446042A084628DB0178437801EB0321618010F8021F437801EB03213A
:202040002180801C21880B0013D16188022906D1082A14D1042107F0CAFF60600DE00329EB
:2020600008BF0C2A0BD101460822201D07F088FD03E0012908BF042A01D1002010BD01207B
:2020800010BDF8B504460D461646102007F084FD070016D0A02038707D80002078702EB1EC
:2020A0000C223146381D07F06BFD04E00C220021381D07F063FD3946204607F055FE002099
:2020C000F2BD0120F2BD2DE9F04180460D4616461F46202007F060FD040019D0A22020708D
:2020E00066706580069820716771079929B1182204F1080007F044FD04E0182204F108001A
:2021000007F03CFD21464046BDE8F04107F02CBEBDE8F08170B51E0004460D4621D00121E2
:2021200000F0BDF9D8B161480078002100E0491CC9B2814211DA5E4B1B6803EB01125388B8
:20214000002BF4D10020107001F14000508022B1D48015723260002070BD152070BD1420CA
:2021600070BD012070BD10B504461022002107F005FD23E0002200E0521C4C4909788A4234
:202180000BDA4B49096801EB02114B88002BF3D00B798342F0D108467047002070474FF46C
:2021A0007A724A4300F1090301460FF2190008F037B810B50446607A07F0C5FFFF206072CC
:2021C00010BD000010B504001CBF6088002807D01721204600F005F82046BDE81040C2E718
:2021E00010BD1CB50446207804280FD10020019000900A46E188207A1323FFF764FFE188C7
:2022000002B0BDE81040122205202EE013BD072170B50446002539BB18E025480068EDB2C4
:2022200000EB0516307800281CBF707AFF280CD0F088A04209D13046FFF7BBFF14213046FB
:20224000FFF7CFFF3046FFF78EFF6D1C17490978E8B28842E1D30425FF222146284600F030
:2022600004F86D1C082DF7DB70BD10B50C240C4B60431844A0F13004608988420AD160683F
:2022800040B1FF2A1CBF0178914203D107F050FC0020606010BD00000042002082440020F1
:2022A000D04100206E44002080440020814400208444002080B5001D80B209F0FDFE28B119
:2022C000BDE804406FF0030107F005BC02BD70470020704738B5BF4C00220021204605F017
:2022E0002EFB20783025684309F0F8FD6060B8B100210AE005FB01F202444FF6FF73538038
:20230000491C00231371D362C9B222789142F1DB0020002104EB8002401C0C289160F9DBC1
:2023200031BD0021AB4A02EB8102936813B9906000207047491CC9B20C29F3DB13207047CE
:202340002DE9F04106460C4617469846204600F078F808B1112024E04FF6FF7000F071F89C
:2023600005001DD085F8058006220699A81D07F007FC0622002105F10C0007F0FFFB6C80BB
:202380002F712E700020E86200210898A8740998A8820A98E882204600F007F9002000E08B
:2023A0001520BDE8F08110B500F04BF8040012D06088012100F0F9F8E06A08B109F09FFD71
:2023C00030220021204607F0D9FB4FF6FF7060800020207110BD022010BD38B50C461546BE
:2023E00000F02FF858B10179002D14BF2143A14301710221408800F0D8F8002032BD15209A
:2024000032BD38B50C4600F01CF8050017D028792070062268796070A91DA01C07F0B0FB70
:20242000062205F10C0104F1080007F0A9FBA87CA073A88A2082E88A6082002032BD01204A
:2024400032BD10B50022634B00E0521C1C78D1B2A14209D25968D2B23024544321444C886C
:202460008442F2D1084610BD002010BDF0B5594B5C6800224FF6FF7700E0521C19788A4236
:202480000BDA302101FB02F561194E88BE42F4D0655D8542F1D10846F0BD0020F0BD10B527
:2024A0000C464FF6FE71884206D0FFF7CAFF00281CBF0079204201D0012010BD002010BD2D
:2024C00080B5FFF7BEFF00B1807C02BD10B500200021404A08E05368C9B230244C432344B0
:2024E0001B7903B1401C491C1478CBB2A342F2D3C0B210BD37480078704710B50C46FFF726
:20250000A0FF00281CBFC18AA14202D0C482002010BD012010BD80B5FFF793FF00B1C08A40
:2025200002BD70B505460C461646FFF78AFF28B94FF6FE70854220D0142070BD0179C06AEF
:2025400010B9CA0605D416E001F01202102A00D18EB9CA0601D40F2070BD20B1807EA0420A
:2025600001D20C2070BD1C48007800281CBF01F02200222801D0052070BD002070BD70B55E
:20258000040011D00026134D0BE068683021714308444FF6FF724188914218BFA047761C22
:2025A000F6B228788642F0DB70BD70B504460D460026084800EB86008268100002D029462F
:2025C00020469047761C0C2EF3DB70BD0249087070470000044200200142002038B50400C3
:2025E0000D4618BF002D01D1022032BD0321684600F037F900F030F82A466946204600F022
:2026000079F8040004D103226946E81C07F0B8FA204632BD30B504000D4618BF002D83B027
:2026200001D102203EBD0322E91C684607F0A8FA00F012F801AA6946204600F05BF801003C
:2026400009D10322294601A807F0E3FA012801D100203EBD01203EBD9DF8021001F03F0185
:2026600041F040018DF80210704730B50C46002818BF002C8DB0154600D00DB9022011E0F7
:202680000146102200F033F81022214604A807F014FB00F05DF80446102208A9284607F084
:2026A0000CFB20460DB030BD80B52020FBF70BFB40B10246DFF85C090078BDE8084001219A
:2026C00007F097B801BDDFF84C090078012107F0ADB870B58CB000F020F800F006F8280A4B
:2026E0008DF81E008DF81F50ABE010222146684607F0E3BA70B58CB000F00FF8FFF7F5FF9B
:20270000032229460DF11D0007F0D7FA00F020F8044603220DF12D0198E004460D4616462E
:2027200030220021684607F029BA70B58CB0FFF7F4FFFFF7DAFF00F08FF800F009F89DF888
:202740002F109DF82E2001EB022131800CB070BD6846D0E0F0B595B005460C4616461F4608
:202760003022002108A807F009FA1022294608A807F0A3FA10220021684607F0FFF907223E
:202780003146FFF7B4FF072239460DF1070007F094FA1C9901B101218DF80E101A9901B156
:2027A00001218DF80F101022002104A807F0E6F91B99062205A807F080FA1D9906220DF1A8
:2027C0001A0007F07AFA102221460CA807F075FA69460CA800F01AF808A800F08CF80446EE
:2027E000102210A90CA807F0CBF904A90CA800F00DF808A800F07FF805461E98102210A926
:2028000007F05BFA45EA040015B0F0BD10B51022037811F8014B6340521E00F8013BF7D1F1
:2028200010BD70B50C468CB0154601461E461022FFF75DFF0822214604A807F03EFA00F032
:202840000BF8FFF785FF0446102208A9304607F034FA20460CB070BD0822294606A807F0A6
:202860002CBA70B504460D4600260BE007F01AF9F6B2010AA155761CF1B2A94202D2F6B250
:20288000A055761CF0B2A842F0D370BD00688208920000F0030102F004021143C208D200D5
:2028A00002F0080211430209120102F010021143400941EA4010C0B270470268920841EA36
:2028C000820222F004038A0802F0010243EA820222F00803CA0802F0010243EAC20222F03C
:2028E000F0030A0902F0010243EA0212490942EA41110160704700F1200200F1100109F0A6
:20290000DFBB2DE9F0470700144614BF002C022088B089463FD009F10405A8B209F0DEFA0A
:20292000060036D0FBF719FB80464A463946301D07F0C3F986F803804FEA1827B7704FEAD7
:20294000184986F801904FEA186A86F800A0FBF701FB0146102203A807F0AFF908200090C5
:2029600001ABAAB2314603A800F083F805000DD184F80080677084F8029084F803A00822B5
:2029800001A9201D07F099F9FBF7EBFA00F06EF800E01325284608B0BDE8F0872DE9F04FEB
:2029A00089B015001CBF129F002F80460E469A4615D0FFF746FD040008BF142055D0387822
:2029C000797800EB0120B97800EB0140F97800EB0169A06A484504D310F1010F01D0022065
:2029E00043E026B12079800758BF01203DD50822002101A807F0C2F80AF1040B1FFA8BF030
:202A000009F06CFA060008BF13202ED052462946301D07F052F904223946304607F04DF96B
:202A2000102204F1180105A807F047F90820009001AB1FFA8BF2314605A800F01AF805004D
:202A400010D1082201A903A807F037F90822391D03A807F0DEF8012811BF012549464046C3
:202A6000FBF7DCFC00F002F82846F0E1304609F046BA2DE9FA4F834685B0924600F0F2F9E4
:202A8000814600F0EFF9B9F1000F804608BF132400F0BF80B8F1000F08BF132400F0B7800E
:202AA00000F0E0F9064600F0DDF905460EB9132434E00DB913242FE01022002107F05EF832
:202AC000324629465846FFF71AFF040024D130780FF26457000604D44946304600F0B1F889
:202AE00008E02946304600F0ACF84A463946284600F09DF899F80000000604D441464846EF
:202B000000F09FF808E02946484600F09AF842463946284600F08BF8FFF7A8FF0DB100F094
:202B2000F9F8200073D100F09DF9054600F09AF906460DB9132467E00EB9132462E0514685
:202B400001F10F00C21000EB12700003001403D14FF0000A00220AE0CA0801EB1272120998
:202B6000A1EB0212521E9241D20FA0F1010A4FEA0A10059B80B2184422B13246494600F0AA
:202B800056F818E0CA0801EB12721209A1EB02110022C9B28A42B8BF835C02DB0CBF8023E9
:202BA00000230DF80230521C102AF3DB32464146684600F03CF810220021284606F0DEFFE0
:202BC00000270BE00598390189B201446A46284600F02DF800F027F804467F1C3FB25745D8
:202BE00001DA2000EED020000CD16A463146284600F01DF800F017F80446109A0698294685
:202C000006F0BEFF00F086F80EB1FFF72FFF00F021F9B8F1000F1CBF404609F070F92046C5
:202C200007B0BDE8F08F2A466946584667E630B50023C45CCD5C6C40D4545B1C102BF8DB05
:202C400030BD10B500220F23C45C42EA4402CA54C25CD2095B1EF7D510BD2DE9FC475FEA11
:202C600000080E4618BF002E174604D0002F1CBF0A9C002C01D102204AE0412009F02EF947
:202C8000050010D000F0EEF85FEA000908BF284607D000F0E7F85FEA000A06D100F03AF800
:202CA000484609F02CF9132032E041220021284606F064FF10220021484606F05FFF202261
:202CC0004146284606F0F9FF05F1200820223146404606F0F2FF012201A908F1200006F0F1
:202CE000ECFF10223946504606F0E7FF102000904B464122294600F095F91022494600F074
:202D0000B6F800F007F800F0A5F800F01DF90020BDE8F687284609F0F2B82DE9F64F87B09E
:202D200004464FF48070ADF804001D4603A80FF2F821102206F09DFBB7480290002C1CBFED
:202D4000079800280AD00898002818BF002D05D0129E002E1CBF139F002F01D1022076E04D
:202D6000352009F0BBF85FEA000B1ED0202009F0B5F85FEA000808BF584614D000F072F836
:202D80005FEA000904D1584609F0B9F840460AE000F068F85FEA000A09D1584609F0AFF899
:202DA00000F0D5F8484609F0AAF813204FE020220021404606F0E2FE102203A9484606F0AA
:202DC0007CFF00F04AF8102000905346202259464846FFF74EFE5C46002004F8010B04224C
:202DE00002A9204606F069FF241D0799102200F03EF810340899102200F039F8103400F0BF
:202E000034F8E41D0722314600F031F8022201A9E01D06F052FF10200090434600F000F988
:202E200001208BF8000008F110031020009000F0F7F82022414600F08EF8584609F05FF816
:202E400000F085F800F006F800F07EF8002009B0BDE8F08F484609F052B8202221465846DC
:202E600006F02BBF102009F039B807222946204606F023BF2DE9FD4F0F46002818BF002F9D
:202E800082B011D0002A18BF002B0DD00E9C002C1CBF0F9D002D07D0109E002E1CBFDDF829
:202EA00044B0BBF1000F01D102204AE0412009F015F85FEA000810D0FFF7D4FF5FEA000992
:202EC00008BF404607D0FFF7CDFF5FEA000A06D100F03DF8484609F012F8132031E01022B6
:202EE0003946404606F0E9FE08F11007039900F031F81037049900F02DF81037032221465F
:202F000000F029F8FC1CFFF7B0FF07223146E01D06F0D3FE02991022504606F0CEFE10202A
:202F200000904B464122414600F07CF810224946FFF795FF00F00BF8FFF78CFF00F004F877
:202F4000002005B0BDE8F08F504608F0D8BF404608F0D5BF1022384606F0AFBE2DE9F84FD1
:202F60005FEA000B0C4618BF002C15461E4605D0002D18BF002E01D00A9F0FB9022047E057
:202F8000502008F0ABFF5FEA000810D0FFF76AFF5FEA000908BF404607D0FFF763FF5FEA78
:202FA000000A06D1FFF7D3FF484608F0A8FF13202EE020225946404606F07FFE08F1200BFC
:202FC000FFF74BFF102231460BF1200006F075FE10222946504606F070FE102000904B4697
:202FE0005022414600F01EF8042209F10C01FFF7B2FF38680949094AB0FBF1F102FB11001E
:203000003860FFF7A4FFFFF725FFFFF79DFF0020BDE8F28FA0440020656C746240420F0051
:2030200035225946504624E5BE83605ADB0B376038A5F5AA9183886C0000000000000000FF
:2030400000000000000000872DE9F047DFF83C6C04460025706C884692461F46A94608B11F
:20306000112036E06FB12120FAF72DFE97F89C10814206D32220FAF726FE97F89C10884259
:2030800001D2022025E07C2008F028FF706408B913201EE07C22002106F070FD716C4D70F9
:2030A000706C0470706C80F80280706CA0F806A08766C56605711CB100F018FA0546A94639
:2030C000716C01204870B9F1000F18BF00F062FD2846BDE8F08770B5DFF8B05B6B6C82B0C1
:2030E000002443B11A79022A18BF032A05D0042A18BF062A01D0122076BDDE888E4201D0AE
:20310000022076BD062A12D1006840B11878002819BFE86CC068A86C4069804748E00C200A
:203120008DF800006946D88800F0DBF840E00146102203F1080006F023FD686C1021283030
:20314000FFF78FFB686CC178090716D580F87040686C00F1180100F1700600913278816856
:20316000D14001F0010100F1280241F080037068B1682030FFF771FD06E000F1180200F1F5
:203180002801083000F02CF9686C417802781AB103290DD1022107E0042902D102214170FF
:2031A00006E0032904D10521417000F0B7F90446204676BDDFF8D41AC8647047DFF8CC1A69
:2031C00088647047DFF8C42A526C02B9704780B5D288824208BF012908D100F0DBFC012052
:2031E00000F04FFBBDE8014000F06EBD01BD172000F0FFBC70B592B0044600208DF800009E
:20320000A0680578691E0D2948D8DFE801F007071014181C2024282C3034383C01A901F023
:2032200072FB122832D106218DF800102EE001A901F0DCFB2AE001A901F0F4FB26E001A964
:2032400001F003FC22E001A901F017FC1EE001A901F030FC1AE001A901F056FC16E001A982
:2032600001F05DFC12E001A901F070FC0EE001A901F085FC0AE001A901F09BFC06E001A955
:2032800001F0B8FC02E001A901F0CAFCD8B96088FFF7D7F8052628B9082612E007208DF830
:2032A000000013E0827CDFF8E419082A0CBFC96C896C31B10B68190003D001AA29469847E8
:2032C00006468DF800609DF8000020B16088694600F007F803E00B2D18BFFFF7E5F912B049
:2032E00070BD38B50C46DFF8A8392246022101F0A1FC0546207800F07CFC284632BD70B5C4
:20330000DFF888490646606C00280D463FD0C188B1423CD14178062930D1017811B3816E05
:20332000D1F89810C26ECB0704D5137BDB0748BF072113D4C1F34003002B1FBFD368C3F3CA
:203340004003002B092109D1C1F3800100291EBFD168C1F38001002902D00B21417007E093
:20336000E06C00E0A06C18B14068010018BF8047606C4078122818D1002005E0112906D148
:20338000280018BF3225284600F033FC0DE0280007D13046FFF755F818B1017941F010011F
:2033A000017131462846FBF72BFA012070BD10B5DFF8D848606C90B1007800280CBFA06C11
:2033C000E06C18B14068010018BF8047606C4078122804D1BDE81040002000F00ABC10BD66
:2033E0002DE9F34FDFF8A468706C8DB0904608B912203FE0C088FFF724F8050008BF142037
:2034000038D009A800F021FC706C017871B1D0F86CA0FAF7B3FD040018BF012400F0B8F959
:203420006F7909AE814605F1060B0DE0C66EFAF7A5FD070018BF012700F0AAF96C790DF1EF
:20344000240A834605F1060907A9504601F004FA05A9304601F0FCF9CDF81080CDF80CB05B
:203460000297CDF8049000940E990D9805AB07AAFFF770F90FB0BDE8F08F70B5DFF80C5877
:203480000446A86C86B000281CBF006800280E461CD030788DF8040070788DF8050002A878
:2034A000B178FFF70AFAF078AB6C8DF80C0001AA7068049001211B6820469847010005D002
:2034C0008DF8000069466088FFF70BFF06B070BD38B5DFF8B847E46C34B1A5682C0003D0E9
:2034E000049C0094A84732BD022032BD1FB500F011F980B1684600F0A8FB616CC8880978CB
:20350000002914BFDFF88C37DFF88C376A46072101F090FB00E0012004B010BD1FB500F0E1
:2035200004F8606CDFF8743712E0DFF86047606C00F118011022684606F022BB1FB500F084
:20354000E9F800F12801FFF7F5FF606CDFF8503700F02AF904B010BD38B5DFF83057044633
:20356000686C806F2022214606F00AFB04F12001686C806FBDE838402022203006F000BBAB
:2035800010B500F0C7F890B0406F20220021203006F032FB08B1012017E0606C406F00F1B5
:2035A00020012022684606F0EBFA606C406F00F14001202208A806F0E3FA606CDFF8E436F0
:2035C000C0886A46412101F035FB10B010BD70B5DFF8B8460546606C8EB0406F0E4620224F
:2035E0000021603006F008FBB8B91C2008F076FC616C886588B102A904A800F08FF860B930
:2036000006A8019004AB02A800903246606C406F29466030FFF781FB08B108201AE0606C77
:20362000806D102206A906F0ABFA606C406F10220AA9803006F0A4FA606C806D0021018220
:203640000822123006F09AFA00F0EEFA616C896D887600200EB070BD2DE9F041DFF82C7610
:2036600004468AB0786C0D46904604AE7BB1816E09788DF81010816E49787170816E91F8BD
:203680009510B17000F118060078A0B910E0C06E001DFFF7FBF8796CCA6E12788DF8102004
:2036A000CA6E52787270B07001F13806087810B107A905A801E005A907A800F02FF80100E2
:2036C0000ED1039605A80290434607A801902A4604A800902146786C406F8030FFF7CAFB59
:2036E0000AB0BDE8F08110B500F014F888B1806F08B108F004FC402008F0F0FB616C886761
:20370000486F08B108F0FBFB902008F0E7FB616C486710BDDFF87445606C7047F8B5DFF8E1
:203720006C650546706CC0880C46FEF78AFE070001D11420F2BD706C007890B100F028F819
:2037400001460622284606F01BFA0622B91D204606F016FAFAF712FC00B10120A87178793C
:2037600011E00622B91D284606F00AFA00F010F801460622204606F003FA787900B101206F
:20378000A871FAF7FBFB00B10120A0710020F2BD0020FAF7F6BB1FB5FFF7C7FE606CDFF883
:2037A000083500F001F81FBDC0886A46112101F041BA10B5DFF8D444616C00291CBF486FB5
:2037C000002832D08A6E92F83420AAB1DFF8DC04082202702022896E353106F0D1F9606C10
:2037E000816E406F20225531203006F0C9F9606C816E2022753110E06178FF2913D022784A
:20380000130001D091420ED22022A11C203006F0B7F9606C202204F12201406F403006F0E1
:20382000AFF9012010BD02F031F9002010BD38B5402008F053FB040018D0DFF85054686C1B
:20384000816F2022204606F09BF9686C806F00F12001202204F1200006F092F9204602F041
:203860001FF92046BDE8324008F049BB31BD0246DFF818144B7808709A4288BF1A464A7006
:20388000704710B5DFF804144A78FF2A1CBF0C78FF2C134607D008B95B1C04E0D01C84424A
:2038A000B4BF2346DB1C4B7010BD10B5FFF732FF86B0816E91F82220002A01BFC26E5278ED
:2038C000012A022023D04A7892B1806F01AA009200238A1C0146FFF7C0F9606C806E1022CC
:2038E00001A9123006F095F9012818BF04200ED1606CC16E497821B9806E1022233006F056
:203900003DF9606C10212830FEF7ABFF002006B010BDF8B5DFF874630446706CC06E002506
