:20000000B8410020B140000001CA011001CA011001CA011001CA011001CA011001CA0110AE
:1C00200001CA011001CA011001CA011001CA011001CA011001CA01103FCA011082
:20003C002DE9F04114460F4600F04AF81FFA80F81F480068007808B904F072FFE7B1386846
:20005C004FF0FF3518B140280AD3810B08D17E681EB1310A04D0310E02D1B9680F2908D98E
:20007C003DB10CB128462070082002F00DFC002418E07968BA6803E04FF4807001220146F9
:20009C0004F006FC0B49012008600B4908684008FCD30A4800684168022088470CB1002164
:2000BC0021700446404600F00FF82046BDE8F081E0570000A802504208800240CC01001036
:2000DC00DFF800F049C10110DFF800F019C20110034A1168506813688B42FAD17047C04621
:0400FC00082009408F
:200100003C000000000000000000000034010000000000000000000001000000000000006D
:1C01200000000000000000000000000001000000000000000800000000000000BA
:20013C00340000000000000000000000680100000000000000000000010000000000000005
:14015C00010000000000000000000000080000000000000086
:2001700030000000000000000000000098010000040000000000000001000000FFFFFFFFA5
:10019000FF00000001000000080000000000000057
:2001A0002C0000000000000000000000C4010000040000000000000001000000FFFFFFFF4D
:0C01C000FFFFFFFF08000000000000002F
:2001CC0034050000E401000099A1011095A70110A5C2011009B2011045B80110000000000B
:0801EC00000000002F000000DC
:2001F400280000000000000000000000140200000000000000000000FFFFFFFF00000000B1
:080214000800000000000000DA
:20021C00300500003002000069C201106DC101101FC2011095BA011000000000000000008E
:04023C002D00000091
:20024000300500005402000075C20110A9B601109DBF011049B601100000000000000000DE
:040260002E0000006C
:200264002400000000000000000000008002000000000000000000000000000008000000CC
:040284000000000076
:20028800240000000000000000000000A40200000000000000000000000000000800000084
:0402A8000000000052
:2002AC00240000000000000000000000C8020000000000000100000000000000080000003B
:0402CC00000000002E
:2002D00000000000B40D002004000000000000000000000020000000700100003000000068
:2002F0001C020000BC0D00200400000000000000000000000C00000030040000180000008B
:2003100040020000C40D00200400000000000000000000002400000048040000180000000E
:2003300000000000CC0D002004000000000000000000000010000000A00100002C000000D3
:20035000CC010000D40D002004000000000000000000000020000000640200002400000011
:20037000FFFFFFFFDC0D00200400000000000000000000002800000088020000240000008E
:20039000FFFFFFFFE40D0020040000000000000000000000580000003C0100003400000073
:2003B000FFFFFFFFEC0D002004000000000000000000000010000000600400001800000088
:2003D000FFFFFFFFF40D00200400000000000000000000001C000000AC02000024000000FE
:2003F000FFFFFFFFFC0D002004000000000000000000000038000000F4010000280000006F
:20041000FFFFFFFF040E002004000000000000000000000054000000000100003C00000009
:1804300018000000000000000000000040040000080000000000000050
:1804480018000000000000000000000058040000080000000000000020
:18046000180000000000000000000000700400000800000000000000F0
:08047800010000002058000003
:04048000FFF72CBE98
:040484000100000073
:0404880000000E0062
:04048C0000000F005D
:040490003200000036
:040494000100000063
:04049800680D0020CB
:04049C00000200005A
:0404A0000000000058
:0404A40001CA011078
:0404A8000000000050
:0404AC00000000004C
:0404B0000800000040
:0404B4000000230021
:0404B800500C0020C4
:0404BC00010000003B
:0404C000800D00208B
:0404C400080000002C
:0404C8000000000030
:0404CC00000000002C
:0404D0000000000028
:0404D4000000000024
:0404D8000000000020
:0404DC00010000001B
:0404E000B80C002034
:0404E400060000000E
:0404E800010000000F
:0404EC00BC0B002025
:0404F0000000000008
:0404F4000000000004
:0404F80000020000FE
:0404FC0000000000FC
:02050000704742
:020502002900CE
:020504000100F4
:020506002500CE
:020508002D00C4
:02050A002E00C1
:02050C002F00BE
:02050E000100EA
:0105100001E9
:0805140003000000FC57000089
:08051C000000000000000000D7
:0405240000000100D2
:0405280000000300CC
:04052C0087C401106F
:04053000380500008A
:040534003805000086
:0405380000000000BF
:04053C00900000002B
:040540009000000027
:0405440000000000B3
:04054800800D002002
:04054C00CF5100008B
:040550002000000087
:04055400BC57000090
:0405580084570000C4
:04055C000DC30110BA
:04056000874B0000C5
:04056400C74C000080
:0405680099C801101D
:04056C009BC8011017
:040570000000000087
:0405740083570000A9
:040578000057000028
:04057C00185700000C
:04058000E856000039
:0205840008006D
:0205860009006A
:02058800010070
:02058A0000006F
:01058C00016D
:040590000000000067
:040594000000000063
:04059800000000005F
:04059C00000000005B
:0405A000E153000023
:0405A40011440000FE
:0405A800594D0000A9
:0405AC0025470000DF
:0405B00049440000BA
:0405B4009D4900005D
:0405B8000535000005
:0405BC009152000058
:0405C000893A000074
:0405C40011C8011049
:0405C80021C8011035
:0405CC000800000023
:0405D0002400000003
:0405D400180000000B
:0405D80028000000F7
:0405DC0020000000FB
:0405E0003C000000DB
:0405E4000C00000007
:0405E80034000000DB
:2005EC002DE9F84F8046DC480122A0F130010A60D6490F68002FFCD0D64CD54AC02704F1AB
:20060C00040B1760DBF80010890804D22168090C41F0F00100E07221E24AE34D4FF0000A26
:20062C0082F85412A5F1D407C0F800A0A66838683146C0F304601628A8BF203800EB217050
:20064C00401C162805DA10F10A0FB8BF6FF0090000E01520E54AE64F00F01F0040F4F85018
:20066C001080386880083ABFE248C0F800A041F04061E14AA946C80E8F0EA9F13C0580F091
:20068C00010000F00100106087F0010000F0010090602868C0F38367C0F38F21B00C22D253
:2006AC0046F3072000280BD542425046490805D17F0806BF0127391C4FF6FF71521EF5D1D1
:2006CC00002810DD4FF6FF72490041F001018A4207D27F0047F001070F2F92BF01210F277D
:2006EC00111C401EF0D141EA0741182003F05EFF28682F68C0F3870107F0030041EA0021FF
:20070C0088B20090BE4840F2FF3253462C21403803F03CFC4D46A5F110073868C0F30D0170
:20072C001C2003F043FFB54957F8080C014000F07C400143142003F039FF57F80C1C01F4DF
:20074C007C000904090C0143102003F02FFF57F8042CDBF80010C2F30350C2F303434908A4
:20076C0012D221680C0510EB247003D41028A8BF0F2000E05046090413EB217303D4102B94
:20078C00A8BF0F2300E0534643EA001302F47F4002F0FF01B8F1220F40EA034041EA0001E1
:2007AC0024BF02F0804211430C2003F0FFFEB8F1220F32BF01202868C0F30070904CB8F102
:2007CC00220F4FEA400040F0200084F8090126BF2868C0F3407001208A4FB8F1200F40F0B3
:2007EC00100084F8090138BF514606D33968C80C00F44070C1F384510143282003F0D6FEFB
:20080C00B8F1200F26BF3868C0F301505046B8F1220F4FEA400040F0600084F80C0126BF84
:20082C002868C0F3C0605046B8F1220F4FEAC00040F0800084F8010126BF2868C0F34550F5
:20084C005046B8F1200F4FEA800040F47C40A4F89C0138BF6C490AD3386801038A159205D9
:20086C0001F47C1100F00F00114341EA0031082003F09CFE4F464FF480002060A7F1D00046
:20088C00816D40F20F226FF31F418A4213D901680068C1F30363C0F3034003B15B1E072844
:2008AC0005D006280EBF0720801C00F00F003D4943EA00100870C6F381435B1E02D05B1E1E
:2008CC0027D022E03968880C1FD24FF4804020604E48D0F802204B0A03F0800322F08F027C
:2008EC001343C1F303321A43C0F80220D0F801300A0A62F30303C0F80130026801F0E703E0
:20090C0022F0E70243EA020102E04FF0004120460160DBF80000C0F3C0030BB94020A06208
:20092C004FF4007020642868C0F3C14040F0300084F8C800C6F38150394E4FF04008A8B399
:20094C00401E0BD0401E28D0022127E09402224300600C40AC3F005040100940012004F042
:20096C0085FA05460420294603F07AFA042004F07DFA8542FAD12648056825F07F4003F0E4
:20098C0077FF304614300068036807214FF06022280E98474FF4806020600321042003F06C
:2009AC005FFA0AE0026008408C1300500420012103F056FA174803F05BFF203F38681649BC
:2009CC00164B47F6180500F03F0084F8CB0F32460D8018681068C168022088471248114FFA
:2009EC00C0F8008001213960BDE8F88F6E6208400000094094042A4300002043FCFCFC000F
:200A0C0040A00C409813005000803F400A600840A83F0050BD37860070B00C402C20094040
:200A2C00A00100109404604200600C402DE9FE43974C0F460546F80B80F00081B80880F015
:200A4C00ED80B80F6ED2A07A00284FD138094FD30025012665708F48267204F01BFC8E49DF
:200A6C002A4604F1600004F0A6FC6079012821D1A079F8B9DFF82482E669D4F81490D8F845
:200A8C00000078B1FFF72CFBA0EB09004346000B3618A0611868B6EBC01F24BF281CE06125
:200AAC000AD2E66104F1BC004FF0005104F034FB284619E06671284640F60902A28694F802
:200ACC00412002F0F00242F0010284F84120E58694F84020294602F0F00284F84020704B72
:200AEC00A16304F134061E60606118E0380914D2B80BC0F0C48004F1240004F065FC061C12
:200B0C0008D0706830B17568F068B6F91C1000222023A84727F40057B1E00020A07227F088
:200B2C000807ACE0A968088840F60208804507D00A8B4FF61F60104040F43470088306E09F
:200B4C000A8A4FF61F60104040F4347008826069D0B1042004F08AF9B0B1FFF7C1FA6169BE
:200B6C00814226BF401A401E401A000BE860E868698A401840F6C411E860814203D340F2A3
:200B8C00EE22824200D9E960AE699EB14548B04210D094F8410010F00F0F0BD1698C08F1D9
:200BAC000700884206D128466FF4807100224FF00073B0473C4904F16000002204F0FBFB0E
:200BCC00A07958B10220ADF80000684603F0EAFF0026A671BDF80800A4F85C0001206070B3
:200BEC0020794FF00008401C207104F1200084F8078004F0E9FB002808BF47F0020702D02B
:200C0C00192004F0FFFA6E692EB1414628464FF080630A46B04727F0005730E004F12C05EA
:200C2C00284604F0D1FB01F06DFC284604F0CCFB27F0020708B147F0020720E0FFF748FAA6
:200C4C00014604F1280004F0BFFB0646B569A80810D27EB125EA0500B0610846FFF73CFAAC
:200C6C00706850B12A46F068B6F91C1075680023A84702E00846FFF72FFA27F4804727B1F4
:200C8C0004F1BC00394604F047FABDE8FE83C04698070020192B0000ED4C000098180020AB
:200CAC0000100440132F0000112100002DE9F04F0128ADF1140D40F0F280DFF81492D9F833
:200CCC00DC00012840F0E9800220C9F8DC0004F04FFC0290012003F07DF920B10121064611
:200CEC00C9F8DC10D5E004F03FFC03906E484FF00008C0F80080012004F0B8F8012818BFCA
:200D0C00CDF8008004D1404602F066FF0120009066486E4CC0F800801934D4F8FF0F112027
:200D2C0004F0EEFA00280CBF46460126102004F0E7FA08B146F002060F2004F0E1FA08B172
:200D4C0046F004060B2004F0DBFA30B1584800685849006B0246088890470A2004F0D0FAC7
:200D6C000028404618BF01204FF0805B0BF5DC7528B128685049006B0246088890474F48A3
:200D8C000127076028688069014646F0200088474B48076004F0AEFA00F001010191400871
:200DAC0015D2484804F060FA8246BAF1040FF8D0BAF1010F06D1DBF8D8014068024641485D
:200DCC00032190474049086820F003000860404600F080F82868D4F8FF1F806B80470198E5
:200DEC0001280ED0BAF1010F06D1DBF8D801406802463448394690473349086840F00300C1
:200E0C0008602A480760286840690146304688470B2004F075FA28B128682649C06A0246E8
:200E2C00088890470A2004F06BFA28B128682249C06A024608889047204807600322C9F85A
:200E4C00DC201F4BC3F800802868406B0146304688470128F8D1042003F0BCF812480760A0
:200E6C001A48D4F8FF1F01688909FCD30098012802D1384602F0B0FE04F036FA082003F05F
:200E8C00A9F806460398C9F8DC7004F069FB02F099FD029804F060FB02E0042600E00126D5
:200EAC00304605B0BDE8F08F0C40094000022243B80100107E5600007A56000028200860BE
:200ECC0080010443004003402422084014100940C00900202DE9F84FDFF8F8B10746ABF111
:200EEC003500794B0068800880F0DF8003F046FE7C490831D1F8009000254FEA29715FEA5F
:200F0C00995201F101010AD2C0F13E0210F10A0F4FEAE202D8BF08229142B8BF111C674CF7
:200F2C00D4F87C21C2F30462162AA8BF203A2468C4F30444162CA8BF203CA2465218162AFE
:200F4C0005DA12F10A0FB8BF6FF0090200E015225B4C5C4E02F01F0141F4F8512180316877
:200F6C0011F0030F18BF0125C90828BF45F002050FB145F0040593F90710411A052904DA59
:200F8C009979A94208BF99886FD0DFF840E10F28A0F10F0829DB08EB0011A1F1F0084FEA7F
:200FAC0028210091072984BF07210091062988BF06215EF821600424774604EB81043C59BD
:200FCC004FEA950CA41BEE0804F0FF0124BFC4F3072631446F08AE0824BFC4F307463144BD
:200FEC006E0828BF01EB146104E000214FEA950C6F080091009C5EF824E05FEA5C060EF0A1
:20100C00FF0424BFCEF3072634447E0824BFCEF3074634446E0828BF04EB1E64009E89B2E2
:20102C00A8EB06267143803104EB1124AAEB02010029D8BF0121342209F0FF074A4391B2BD
:20104C004FF6FF727943B1FBF4F18A4238BF111C802889B2998005DA10F1800FB8BF6FF050
:20106C007F0000E07F20D8719D71194800681F2918604FF0000008D340F2FF128A4206D285
:20108C004908401C8A42FBD301E01F219980124F0F39090940EAC10047EA0001CBF8FB1F0E
:2010AC000026CBF8FF6FBDE8F88F08209B1D0B4918700B4F0F60BDE8F88FC0463C1100504D
:2010CC006E620840242208409C1800209C130050082009403500094000E7A4803010094008
:2010EC00FDFDA400AC3F00502DE9F04F08274FF0010AADF12C0DADF800706846ADF802A05C
:20110C0003F06EFB7C4C9DF80400643C2070002666700298206103F0CBFA4FF003094FF07D
:20112C00040B0720207204F1640105914FF47A7284F802A004F1090084F806906C49E67182
:20114C0009680670B2FBF1F189B2069100F13A01079100F10F01089100F11B0109911530F1
:20116C000A900A20ADF80200ADF800704FF0FF350195684603F034FB002840F08580304637
:20118C000490ADF800700925ADF80250684603F027FBDDF808800028CDF8108074D1BDF8DE
:2011AC000400102865D120789DF80610884260D145462878D0285CD1A978081C40D0801E30
:2011CC0023D0401E012838D86D78002D49D1032918D0A58995B1E3788BB1059804F0FCF8A9
:2011EC0010B1059803F014FE069845430598294604F0AEF9059804F0A7F900E0E67084F8D0
:20120C00019030E0022060702DE06B78002B28D1EB78617953B9607802280CD0059804F063
:20122C00DBF840B9504603F047FF04E0079A304602F0DAFF68706D789DB9012E13D018E024
:20124C006B7821796BB90898ED1C2A4613680360928882805046099A84F801A002F0C4FFC3
:20126C0008B184F801B065691DB12D680DB16078A847049D45B1ADF80070ADF80290CDF81E
:20128C000480684603F0ACFA60894108FFF469AF20F00100E5786081002D3FF462AFA07961
:2012AC00E5798DF800000A998DF801500A680DF102031A60898899800621207A657A8DF888
:2012CC0008000C4A8DF80950684603F00BFA00283FF447AF606984F801B000283FF441AF8E
:2012EC00016800293FF43DAF5846884739E7C04618580000B1530000940500202DE9F84320
:20130C00814603F0EBFF002100B901216B4E30680028FCD06C4D01242D1DEF6A346009B10D
:20132C0003F0E2FFDFF89881C7F3072008F1BC01086003F0D3FF002100B921463068002818
:20134C00FCD02F68346009B103F0CEFFC7F38440C8F8C00003F0C2FF0146002001B92046D7
:20136C00014630680028FCD0ED69346009B103F0BBFFC5F38120C8F8D000B9F5C061C8F8C5
:20138C00B81000F0968098F8D80068B9C8F8D410D8F8C000C8F8C800D8F8BC70C8F8C4703E
:2013AC00D8F8D060C8F8CC60D8F8D410D8F8BC60002954BF02206FF00100454605F1C8038B
:2013CC001A6801EB41014018411000EB917002EBA0021A60D5F8C810C5F8C46000291CDD0B
:2013EC001E293DDDD5F8CC0030B93429B4BF15391E21C5F8C81025E02A29BABFD5F8C800A6
:20140C000B381E20C5F8C800D5F8C4003F28B4BF401C3F20C5F8C4001FE0D5F8CC00032850
:20142C0012D011F10B0FC6BFD5F8C8000B30201CC5F8C800D5F8C4000028CCBF401E0020CA
:20144C00C5F8C400032009E011F1150FC6BFD5F8C8001530201CC5F8C8000020C5F8CC0004
:20146C00B5F8C400174E30214FF47F4208230090304602F08BFD009404214FF40032112328
:20148C00304602F083FDB5F8C80004214FF4F80212230090304602F079FDB5F8CC00202124
:2014AC004FF440620A230090304602F06FFDBDE8F883002088F8D800BDE8F88300800C4026
:2014CC00C009002000A00C4000A00C402DE9F04FADF1840D00F088FD02F034FD00260128D4
:2014EC0004D103F095FD022808BF01265F490868C0F38150012806D151F80C0C0127010E3A
:20150C0007FA01F006435A48614F007807F12C00036802F017FD03F07F03012804D103F0BF
:20152C0077FD022808BF5B1C524D2B602C463BB1FF2104F140001F467F1E00F8011BFBD104
:20154C004D4800684FF0000900F0FF01FE291BD0DFF824C100F0FF0749460122FF2F0CD0CA
:20156C00BB427FD902FA07F73E427BD100F0FF0047EA0909201880F840105CF8040F491C46
:20158C0000F0FF07FE2FE9D1092001F0EFF93A48002124220823606017A803F0D1FF4FF0CB
:2015AC00010804F1240017AA8DF87480414603F0C3FF236843B3002794354FF0040BBA46C8
:2015CC0008FA07F0064219D119EA000F04BF07F0FF0141F4C04105D03819274990F8400074
:2015EC0051F82010254801F07FF8F8B24FF0FF3103F04AFC2368C5F800A001E0C5F800B009
:20160C007F1C2D1D9F42DBD301A800213022082303F08EFF0025FF20102101AB0990184A67
:20162C00009504F1080003F07FFF0DA828220823294603F075FF2B4604F160000DAA139378
:20164C001049149303F068FF0F4951F80D0C20F4F85040F4005041F80D0C4746C1F8FF7F74
:20166C000A4E376021B0BDE8F08FC046B43F0050A8180020A816002030570000007FC7673F
:20168C00B14E00006D4000000D30094008000940181300502DE9F04F6B4CE2680746880F06
:2016AC00ADF1140DC0F0C1805068406808B18047E26851685E4E886808B9CD687DB135682E
:2016CC00002DFCD00022326010B18047E0684168C86800B180475D48503803F063FA4FF074
:2016EC000008C6F80080534846F81C0C524803F0D1FD40F60A09A4F834906379A4F8368065
:20170C00BD6894F84000C34604F1340A00F0F00084F84000012BC4F838B094F84100A5F8BA
:20172C00028000F0F00040F0010084F8410001D17B7C93B1B8680088A9F10801814205D05D
:20174C00298B4FF60F400840288304E0298A4FF60F400840288287F8118038480168836841
:20176C000193C368406B00911022694620F0784040F0805003903248029301F0DFFA4946BE
:20178C0000E01D466B6813B118888142F9D1C5F804A0687B00F0F000687304F1200003F02F
:2017AC0013FE80680088CA1F824220D0891F81421DD03B8CEBB197F82C0097F82D30C7F8DE
:2017CC0024B000F0F00087F82C0003F0F00040F0010087F82D0007F12002A2639AF80D0020
:2017EC00A7F8228000F0F0008AF80D0001E0C4F8148030680028FCD0C6F80080012003F01E
:20180C0035FB012808D0687B00F0F00040F0010068730C4803F03EFDB9680A8A4FF6FF3011
:20182C0010400882B86846F81C0C05B0BDE8F08F1C10044001010E04390A00004C130050ED
:20184C00180000212D3A000098070020510007062DE9F84F994692468B460646FEF738FC65
:20186C00604C0090B4F93210B4F930000AAF401A40F6F8710140082980F29E80B4F93000C3
:20188C0004F59475401C6FF31F3020860820B4F93080EB7F33F07F0304D0401E05F12005A6
:2018AC00F7D1002506F1700003F0B2FAC5F808B085F81EA0C5F80490A5F81C804A48EE600F
:2018CC0097E80C00202100271940104005F1100383E8030004F12000EF770368002B5ED1A9
:2018EC00294602F0B1FE00285FD0A6F8B880E87F40F08000E87796F8BA00012804BF86F877
:20190C00BA70A771607A40B1607830B10120A0726772A7712079401C20710098FEF7DCFBE7
:20192C00606A00285BD16078002834D1E079012855D0FEF7CDFB0646207A40BBA86802F031
:20194C0007FD2B49294AE36809681060B0B1DD681068401BB0FBF1F0012898BF012104D9E0
:20196C00DB681068C01AB0FBF1F19834204603F0EFFD204603F0E8FD30462EE03046FEF7FB
:20198C00ABFB04F1BC00042103F0C6FB27E0194901200870F0E7192003F034FC1FE004F1E2
:2019AC002000294602F050FE48B9B4F9300000F6FF706FF31F3020866FF001080CE0A6F8C0
:2019CC00B880E87F40F08000E87796F8BA00012804BF86F8BA70A7710098FEF77DFB4046CE
:2019EC00BDE8F88F98070020F1EFFF9F9818002018580000941800202DE9F04F08270126BB
:201A0C00ADF11C0DADF800706846ADF8026002F0E7FE604C9DF804002070029804F11C05CD
:201A2C000021A060284603F073FDB0460226E56040F202308DF8168041468DF8176000251E
:201A4C00ADF814500DF11602656000F061FC40F20330314605AA00F05BFC40F205301921D6
:201A6C0004F1280200F054FC4FF44170394604F1140200F04DFC40F2063041460DF117023E
:201A8C0000F046FC0620A02102F00EFD0720A02102F00AFD3846A02102F006FD0920A02125
:201AAC0002F002FDDFF8F08098F80100F0B904F1100098F80290C8F81400182003F058F931
:201ACC00061C13D004212A4603F05EFB02F0A6FF307286F809902846B072F5603561756173
:201AEC0003F056F92D4A314602F06EFC08F118064FF0090B4FF0030A4FF00509A84603F06A
:201B0C0003FDADF800700A20ADF802004FF0FF350195684602F064FE0028F0D1CDF810808A
:201B2C00ADF80070ADF802B0684602F059FE0299049148B9081C07D0ADF80070ADF802A0AE
:201B4C000191684602F04CFEE06803F0D9FC0028D5D1E068054603F0CFFC854208BF4546B5
:201B6C0002D0856803F024FA281CEDD00188012907D18178012904D1326869460A60B58815
:201B8C008D800190ADF80070ADF80290684602F027FED9E70802002030050020A553000053
:201BAC002DE9FC415E4C574D574EDFF860815A4F94F8E410481E0B2861D8DFE800F07B2CC2
:201BCC0043062343062343067664042907D001220A2945F8212C14BF0220032004E02021DD
:201BEC00012045F8211C024684F8E200002045F8390C0827C5F8FF7FC5F8F37F45F8392CBB
:201C0C00BDE8FC81052914BF09200620002584F8E400356070E094F8E1700120383D002F3A
:201C2C00C5F81B0004BF0620002102D00021F160032084F8E400032045F8010C3160306859
:201C4C00800859D294F8E400012503280DD00021404660220523009102F098F994F8E40052
:201C6C00062814BF0A200720D1E702200090002160220523404602F089F90420C7E703F012
:201C8C0037FCBDE8FC812249002622480E60012505600E2000F000FE022002F019FE84F82C
:201CAC00E45084F8E360BDE8FC81002038600C2578601FE0194800680068014620208847BC
:201CCC002C3D41F61D560F2000214FF4C072072345F8010C4046C5F803600225009502F058
:201CEC0055F9404600214FF4C072072302F01EFA0120386084F8E45004F1780003F024FC51
:201D0C00BDE8FC8139400C4038600C4000A00C402C500C4004800C4034600C40A0010010D7
:201D2C00C00900202DE9F8435C4C04F1200003F04BFB15460F460090FEF7CAF905F0010673
:201D4C008146B7F1FF3F0CD1606A20B9B4F93200401C07B202E0606AB0F91C70002084F8D9
:201D6C005F00384602F0C8FE8427002800F08980616ADFF81C81814255D0009988421FD17C
:201D8C0004F1980003F044F86E10A8083ABF206A0068002020624846FEF79EF90099C87FC6
:201DAC0040F00400C877684603F062F90146404602F04AFC009808B17008EFD200271AE0F8
:201DCC000E1C01D1BFB113E03168884228D104F1980003F01DF800980168AA0802D20A68AE
:201DEC0002600846002202600091009860B900274846FEF771F9E079012845D004F1BC0005
:201E0C00022103F089F93FE0C17F41F00401C177684603F02DF90146404602F015FCE4E7EF
:201E2C0031680091CCE7A9084FEA650703D3216A009100252562C27F0121B1401143C177E5
:201E4C0003F092FB0446002E14BF1248124802F0A9FE4846FEF740F9780801D3009820B9DD
:201E6C00204603F07DFB00270EE0C17F41F00401C177684603F0FCF80146404602F0E4FB8F
:201E8C00ECE74846FEF728F93846BDE8F883C046C407002001000204010001049807002064
:201EAC00F8B5414C201D0368B3F1FF3F08BF002302F048F8002876D13C4E20683468070F03
:201ECC0004F0FF04802C28BF002402F03BF84FF0FF3578B1401E07D0401E012802D9801E52
:201EEC0013D014E08FB112E0381C5CD0801E0ED114340BE03846401E55D0801E53D0001FBC
:201F0C0051D0401E03D1163400E00A3465B2162D49DB27482749002501270560264E0F6008
:201F2C00264C376020680028FCD1274A161D2449244F306820F0030001433868C0080CD256
:201F4C00106810F0030F0AD041F003003060106800F003000328FAD101E041F001011B4875
:201F6C003160006820B11A4800681846FEF738FB184819490560194F0A686FF35B4247EA0A
:201F8C000200086016490868C0F30130012806D10A681448104040F400320A60086020683A
:201FAC000028FCD1F8BDFEE718130050A0100050840460425C600C40082204430C006842B2
:201FCC0004000020B03F00500040034080012843000120438C2108404820034000003901E5
:201FEC0004000940FFFFFCFC2DE9F041444C94F8E700ADF1280D00286FD1394F387B0125AC
:20200C000021242284F8E7507E6884F8E6000823C4F80C6101A803F067FA002604F10C00DA
:20202C00069601ABADF814602E490796324603F057FA2D4904F1300001AB324603F050FA67
:20204C002A4904F1540001AB324603F049FAB868014628468847DFF89C8025487B7B0078EC
:20206C00D8F80410C1F381571BB1032F03D184F8E150032F16D0022F14D0012F26D10320EE
:20208C001D4C009031464FF040521C23204601F07DFF009531464FF400720923204601F09D
:2020AC0075FF13E0022002F02BFC032F0CBF4FF47A7142F21071114800685434B1FBF0F1BC
:2020CC00204603F045FA204603F03EFAD8F80000C00802D2304602F013FC0AB0BDE8F08118
:2020EC00D057000033330000A92F0000C1310000A8180020B03F005000A00C401858000002
:20210C00C00900202DE9F04102F09AFF3D4E3C4F04464FEA5408A0081ED3796AE1B13D4672
:20212C00002068628A69086906F108032040104340F0020088610A691868904318604A6984
:20214C0030689043306005F12C0002F07DFA022105F1BC0002F0E0FF786A5FEA580114D2DD
:20216C0000F110020CCA002122400B4008BF002A0BD0016985690C40B8622C434FF48041AF
:20218C00846107F1BC0002F0C7FF786A002835D107F12004204603F017F9051C2ED0F868CE
:2021AC00E968884224D1A86802F0D2F816490860C8B906F1080128690A6810430860686960
:2021CC0031680843306000233361A86846F80C0C06F1100000680028FAD0204602F048FF62
:2021EC007D62BDE8F081086801F098FABDE8F08107F1BC004FF4805102F08EFFBDE8F08178
:20220C00980700200C100440981800202DE9F0430546ADF11C0D03F05FF902F011FB4FF0E0
:20222C0000090746CDF80C9003F088F830F0010014BF002F6FF0040066D068684C4658B141
:20224C00B0F1FF3F05D004A902F0E2FA30B1804659E04FF0FF3000E02046049003F054F9DB
:20226C0004994FF00108461802E00A463BE004937868049903F02CF900282DD0684601F0D2
:20228C0057FCD8B99DF8040005A902F027F988B9AB68BDF814009DF80610029A984748B1B9
:2022AC00BDF814009DF80660A881029BAE73C8462B6111E0029903A802F0DCFB0498641CB1
:2022CC00B0F1FF3FD4D00028D2D003F01DF9331A02D004989842CAD2039E02F037FE07F1AB
:2022EC00080546B1324652F80C1C0029BDD1296842F80C1C2E6002F01BFF24B1786803F0F8
:20230C00E3F8641EFAD1404607B0BDE8F0837047F8B53C4D0E46A0F202311746082906D8C2
:20232C00DFE801F0302A5C4D221B6E140DC0282866DA022E64D1398802F0B6F8F8BD012E10
:20234C005ED1387804285BDA093513E0012E57D13878082854DA08350CE0012E50D1387872
:20236C0004284DDAED1D05E0012E49D13878042846DCAD1D2870F8BD022E41D138880C356E
:20238C002880F8BD012E3BD1E8783978E97058B93878002834D06878012818BF03282FD137
:2023AC00012002F089FEF8BD387848BB6878022826D1154A0020082102F094F9F8BD05F13C
:2023CC00430400211F22204600F074FF39463246204600F0B3FC6E7100200DE005F1240479
:2023EC0000211F22204600F065FF39463246204600F0A4FC2E7101203146224601F0F4FE46
:20240C00F8BDC04630050020AB530000F8B5364C0D46A80846D2E80865D304F1200002F029
:20242C00D3FF00280EBFE068C068E06041682F4A09781160416812680978914207D08769C7
:20244C002FB16FF0FF0100224FF00073B847022002F056FA112000F089FA0120E071E1689B
:20246C00087C10B16079012803D00E2000F07EFAE16849681E488F680FB9CF681FB1002159
:20248C00C1611C4F07601C4A40F2FF711160002787611A4941611A4802F0FCFE192003F035
:2024AC000FF8F8BD04F12C06304602F08DFF00F029F8304602F088FF25F0020504F1200107
:2024CC0058B9E80803D2084602F07EFF58B104F1980002F09DFC042101E045F0020104F109
:2024EC00BC0002F019FEF8BD98070020D02108400010044051000706000004600200004006
:20250C00A1160000F8B5071C72D0B86840F6030120264A1C02E04068761EF6B260B15EB1FA
:20252C000388994218BF9A42F5D1F9681CC820311CC149C881E849007868BA690025BD6134
:20254C00C8B1F87F42F00202002300F00700401E09D0401E04D0801E08D14FF0805304E059
:20256C004FF0804301E04FF000532A467C68F868B7F91C10A047FDF7ABFD1E4C0646B4F964
:20258C003200401C6FF31F30608604F12C000168CD7702F06DFD3046FDF79EFDF868B0F9D2
:2025AC00B810B4F93220914222D1217801291FD090F8BA60BEB90668AEB1E2680E491268CF
:2025CC000968B2F1FF3F13D0B6FBF1F2012A8CBFB6FBF1F10121703002F0BAFFF8687030B0
:2025EC0002F0B2FFF8BD80F8BA50284601F096F8F8BDC0469807002018580000F0B5ADF1DB
:20260C00340DFFF7F1FC304908682822082340F00200086001A8002102F082FF2B4E2C4967
:20262C000524002301AA079406F1BC0002F074FF00213022082301A802F07AFF0025FF27E7
:20264C001921244AADF81C5001AB099706F16000009502F069FF2822082301A8294602F0A4
:20266C005FFF1D49079406F1F00001AA2B4602F053FF01A829463022082302F059FF0124A4
:20268C00ADF81C40099706F17C001A2101AB134A009502F049FF12492A4606F19800134654
:2026AC0002F01EFF0F4802F0F5FD86F85F507571F57135727572B5727561B4714FF6FF70E7
:2026CC00A6F85C000DB0F0BD0020094098070020F5500000ED4C00003D320000393C000000
:2026EC00794C0000192400002DE9F0470D4606465FFA85FA280824BF2E4845402E494FEA4A
:20270C008A03C85885EA00023240C2F300672B4A06EA0504B043224006F4E0240243B4F552
:20272C00E02F01D1500E14D306F4E020074310D002F4E027B7F5A02707D0B7F5803704BFD6
:20274C0022F4003242F4A02203E022F4803242F4C022DFF86C80CA5008F1D00739680122F9
:20276C00002002FA0AF40C4218BF101C5FEA000906D1F00D04D34146C5F3805001F80A00D3
:20278C00300E0BD3FDF7A4FC290E34BF0021211C3A68A24311433960FDF79EFCB9F1000F3A
:2027AC0006D0F00D04D34046C5F3805100F80A10BDE8F087006000A000100840FF7F077FCA
:2027CC0000200240F8B502F089FD00F073FF02F091FD044604F00C000C284FD0E0081ED20F
:2027EC0002F0A0F9274E376805460120014602F02EFB31686943884211D2234C8220B0FBB2
:20280C00F7F0291A204602F0A3FE204602F09CFE0120FEF74BFA204602F0FAFA2FE02009B8
:20282C002CD21A4802F020FD0428FAD01849620906D228B10A460846016821F0010104E0AC
:20284C000A460846016841F001010160D2F898004FF0805440F00300C2F89800D4F8B80152
:20286C008069014620208847D4F8B801094C806B2168804701202060206800E030BF02F00E
:20288C0033FDF8BD18580000CC090020004003408C2108402C2009402DE9F8430446FDF746
:2028AC0017FC81462D48021992F8ED10491ECFB2002F82F8ED704BD12B4D05EB84052E787A
:2028CC00698836F07F0788461AD1F10911D24FF08054D4F8B801806901464046884704F5A3
:2028EC00DC742068406B0146404688470228F8D121E000EB8800D0F80011002088471AE084
:20290C004FF08054D4F8B801006A014640468847D4F8B801806A014640468847D4F8B8017D
:20292C00006B01464046884701210D4A0D48116001688908FCD306F03F003F2801D0FFF719
:20294C00ABFF687800F03F003F2801D0FFF7A4FF4846FDF7C1FBBDE8F883C046C009002094
:20296C002820086028200840505600002DE9F0410646FDF7ADFB2D4D8046A91991F8ED00BE
:20298C00421C002881F8ED204AD1294C04EB8604277807F03F003F2801D0FFF7E7FF607855
:2029AC0000F03F003F2801D0FFF7E0FF668837F07F001AD1F80911D24FF08054D4F8B801D4
:2029CC00406901463046884704F5DC742068406B0146304688470128F8D121E005EB860540
:2029EC00D5F80011012088471AE04FF08054D4F8B801C069014630468847D4F8B801406A87
:202A0C00014630468847D4F8B801C06A0146304688470121074A0848116001688908FCD3E6
:202A2C004046FDF759FBBDE8F081C046C00900205056000028200860282008402DE9F0418A
:202A4C00314C0546A0781F4616468846ADF1380D012803D0FFF7D2FD0120A070B8F1000F6E
:202A6C0009D0C5F8048036B1AE60FDF731FBE17819B1FDF731FB00203FE0491CC9B2E17068
:202A8C00FDF72AFB01243FB91D494CC909A84CC006C909AF80E80600386828607868E86077
:202AAC00387C2874B8686C746861788A6882F86800B1A8610021A02205F1200000F0FAFB0D
:202ACC00684600212422082302F03AFD8DF8184005F1380000216A4602F02EFD68460021B9
:202AEC002422082302F000FD0649069505F1700000226B4602F0F4FC28460EB0BDE8F08123
:202B0C00A85700009F53000098070020F8B52F4D0C460646A0083AD2A00F4FD3284F386896
:202B2C00284C20F0020040F400703860032144F8041C41F23003A360012121605022A260C7
:202B4C0021604FF4CA60A06021601F4844F80C1C02F0A0FBA81C0078012803D006F138003B
:202B6C0002F0B2FC002402203C6001F0B1FE1120FFF792FE307C10B90E20FFF78DFE1449EF
:202B8C002C7208786C72C8B10C70042112E005F12C06304602F018FCFFF7B4FC304602F06F
:202BAC0013FC30B924F00204A00F07D34FF0005100E0022105F1BC0002F0AEFAF8BDC046D4
:202BCC00000004600C4104401924000098070020941800202DE9F0412B482A490860FEF7A2
:202BEC0075FC2D4C0025032004F1180141F80C5F401E8D60FAD1241F062004F14C010A46D4
:202C0C00401E22F80C5BFBD10820204F0880204A8F602049121D22F00303CF1A6762E361DF
:202C2C002362E66904F12008944618460A4601E026F8025BB142FBD8B910E82700EB8101A8
:202C4C0021F8045C4FF6FC761F8006EA0C0300F1E807D21A676106EA0201EC39A0F8E8105E
:202C6C00284600F027FAA061D8F80000606100F0B5FC01F09BFA01F04DFB02F01DFC28465E
:202C8C00BDE8F0810C0E002029400000BD4D0000A9180020B8410020D40A0020F0B5204860
:202CAC000127F84201D001F001F9204D204F214EBD4206D203CD0478A4003459401CA04708
:202CCC00F6E71D48002800D08047164D164FBD4202D210CDA047FAE7F0BD03251BE041682E
:202CEC0008300A1C2A400BD11A1C2A40AB4305D0046804300C600431043BF9D1131C05D073
:202D0C00047801300C700131013BF9D1021C2A4001D0A84304300368002BE0D17047C046CA
:202D2C00FFFFFFFF0000000000000000E85A0000485B0000A45A000059C50110002A4AD035
:202D4C005FEA000C8B071CD1830722D1102A08D370B4103A78C978C0103AFBD270BC103295
:202D6C0038D0042A2CD3082A05D30C2A24BF08C908C008C908C008C908C092072AD0920FF0
:202D8C0022E00B780370491C401C521E22D08B07F7D1C30714D18307D8D0121F12D308C9EA
:202DAC0003801B0C4380001D121FF8D20AE008C903701B0A43701B0A83701B0AC370001DEF
:202DCC00121FF4D2121D05D00B780370491C401C521EF9D1604670472DE9F8432020EFF32B
:202DEC00118780F31188214CA068012102F060FB4FF001094FF0000865692168A4F81C9010
:202E0C006A1A2168A4F81E80461B401A904227D387F3118840462D18361A4846294602F0BB
:202E2C0043FBB042F7D92021EFF3118781F31188E18B012903D14046294602F035FBB0F19C
:202E4C00FF3F06D0A169801B814238BF081C291801E0A069411902F023FBA4F82090256069
:202E6C00A4F81C8087F31188BDE8F883780100208B4208BF824204D90B1C021C0021002087
:202E8C007047002B08BF002A0BD10B1C021C00210020002B08BF002A1CBFC943C04300F0FB
:202EAC0042BFF0B51C4615460B46024600200021B4FA84F6202E04BFB5FA85F62036B3FA63
:202ECC0083F7202F04BFB2FA82F72037F61BB6F1200727BF05FA07F400257F42B4403EBF48
:202EEC0025FA07F73C43B540A34208BFAA4201D3521BA341404149416D0845EAC475640824
:202F0C00761EF1D5F0BDFEE7B0B50446A768ADF1280D5FBB0C2000F0CDF8071C1DD068466F
:202F2C0000212422082302F0DFFA002306976A466168ADF810301848059302F0ADFA3860E1
:202F4C0070B90820ADF824000C25ADF8265009A801F046FC384601F077FD6FF0030018E0DE
:202F6C00E06878602069B860A7600AE001F0EEFF0546386801F04CFF2069B860284602F08D
:202F8C00D7F83868616802F0E3FA386802F0DCFA00200AB0B0BDC046AD5200002DE9984379
:202FAC00FDF796F81F4CDFF87880814604F1E000007850B94446A068014602208847074615
:202FCC00102001F007F82FB320E000F0CDFC002820460FD1144909683222B2FBF1F101B951
:202FEC00012100F13004204602F0B2FA204602F0ABFA0FE044460022A16880F8E02002203F
:20300C0088470746102000F0E5FF1FB1A0680146032088474846FDF75FF8BDE89883C046D4
:20302C00D0570000C00900201858000070B51E4DAC68064601F0E0FF4FF47A71001B484370
:20304C00030C01F09BFD2969401A48BF404240F6B831F618B14210D306280EDAE9688C421F
:20306C000BD8286848B1114A091B51438A0C02EB1141884288BF011C08E00D49486840088C
:20308C000ED208687D2100F0FF004143C82905D3B1F57A6F88BF4FF47A6103E0C82101E059
:2030AC004FF4FA61084670BD8018002040420F00AC3F0050F8B5001D84B214F0030002D08E
:2030CC00241A241DA4B201F041FF1A49102C02464F690A61C8BF8F69388800231E46C10B42
:2030EC00CD0319D126B984420ADD3B46012617E01988091889B28C42198011DC1F460846DB
:20310C009FB1001B80B20428B4BF3C88385344F400443C803F1D08E080F40040002680B290
:20312C003F1838880028DAD10027104602F000F83846F8BDD00A0020F8B50E46044602F0C8
:20314C0013FA0546304601F0D7FC071C03D1284602F006FA28E0F87F10F0070F1DD114489B
:20316C007968884202D079682166786002214FF0E04204F1580080E80600284602F0F0F9FE
:20318C0004F138004FF0FF3102F0A2F904F168070020206697E80300F8BD284602F0E0F980
:2031AC00F87F10F0070FFBD102200021F8BDC046053F00001CB5042001F058FE022818D01A
:2031CC00032816D016480068C0F38150032814BF41F288324FF47A721248144C01685434C3
:2031EC002046B2FBF1F102F0B3F9204602F0ACF91CBD03200C4C009000214FF040521C231E
:20320C00204600F0C3FE012000214FF4007209230090204600F0BAFE022001F059FB1CBD8A
:20322C00B43F00501858000000A00C40C0090020F8B5FCF74DFF1C4C0746A06D10F4602FB9
:20324C0027D0A06D400CC6B2700807D2B00803D2F00828BF022602E0012600E00026751D14
:20326C0068B200F00DFDA36D06F111010120884023EA00013846A165FCF72EFF04EB860005
:20328C00C76C4FB1A06C294600224FF00063B84702E03846FCF720FFA06D20B104F1F0007C
:2032AC00002101F039FFF8BD98070020002213460A46194671B510F0030F0BD0002A82BF9C
:2032CC0000F8011BB2F1010210F0030FF6D1002A08BF71BD11F0FF0141EA0121042A18D3C9
:2032EC0041EA0141082A0FD30E46102A08D30C460D46B2F10F0312F00F0272C0103BFCD81A
:20330C0012F0080F18BF42C012F0040F18BF40F8041B12F0020F18BF20F8021B12F0010F3B
:20332C0018BF017071BD704738B5054601201A4C68712879B0B901F009FE2178002904BF35
:20334C006FF00704051C15D0491EC9B2217039B901F0EEFE606801F033FB0020687118E0D7
:20336C00054613E001F0F2FD05462078FF2805D16FF00604284601F0DBFE0BE0401CC0B2E9
:20338C000128207002D1606801F031FB284601F0CFFE0024204638BDA40D002070B50646C3
:2033AC00B079F4680628A4F10C042CDA3079062829DA01F0CBFD154DB27991000C3501EBC5
:2033CC00C20149194968E1B101F0B2FE30792071B0796071307AA071B179880000EBC1008B
:2033EC004019F1684068083001F044FBB179880000EBC10040194068406802F065F8002089
:20340C0070BD01F095FE6FF0020070BD100B002038B519491A4C00204822C1F8F30F94F8A0
:20342C00E200C1F8FF2F20B3012817D0022807D003281ED151F8310C00F024F80B2016E006
:20344C0051F8315C2846FDF759FF40F2FF50A84202D8801CA842F1D2082008E051F8310CAC
:20346C0000F024FA054800780028E7D0052084F8E400FEF795FB38BD39400C40DE57000095
:20348C00C009002038B51A4CA0F5C060D4F8B810C4F8D4000029B8BF49420028B8BF4042BF
:2034AC00814220DAB4F8BC00124D30214FF47F4208230090284600F069FDB4F8C000042117
:2034CC004FF4F80212230090284600F05FFDB4F8D00020214FF440620A230090284600F067
:2034EC0055FD012000E0002084F8D80038BDC046C009002000A00C402DE9F8438146EFF32F
:20350C001188202080F31188174D154C134F012605F11C000660A4F114000660F86A016A18
:20352C0014208847D9F81000810C14BF000C0420206038680268232100209047094806608F
:20354C0054F8180C20F4C02040F4803044F8180C2E6088F31188BDE8F883C046840100105A
:20356C001820094080022443000024432DE9FF4108250424ADF800500646ADF802406846ED
:20358C00019401F02DF900280CBF029F002712498868F7B101223A80BE708046ADF80050FF
:2035AC000C20ADF80240CE680190684601F018F960B9029951B18F60304601F069FFB8F158
:2035CC00000F06D0404601F07FFF02E0384601F0EFFC0090BDE8FF8108020020B0B5ADF1E7
:2035EC00400D01F0C5FF044600213C220823684601F04AFF11484168069181680068049063
:20360C000F480068002205900E480891694601F037FF071C0DD001F099FC0546384600F024
:20362C00D3FB30B1284601F083FD204601F094FF01E001F0CBFE10B0B0BDC046845500005F
:20364C00D40A00200152000030B5401E4FF00004ADF12C0D0AD0401E04D0401E20D1FEF760
:20366C009FFA1DE000F038FA044619E001A821462422082301F038FF06940D4DADF81440AD
:20368C0009490794012201AB05F1780001F028FF064A23462C2105F19C00009301F044FF7D
:2036AC0020460BB030BDC046593800001D340000C0090020164880B507683FB315498B68DA
:2036CC0003EA5300C00E21D2134A106880081DD2486880081AD21068096810F0050F4FEA37
:2036EC00114101F0F00101F5E0710AD1B9420DD2190F38BF40F00100D90E38BF40F004002C
:20370C0003E0B94202D920F00500106080BDC04628500940AC3F005000000940B0B5074625
:20372C00FCF7D6FC154C0546207918B3401EC0B22071F8B904F1BC00082101F0EDFCCFB162
:20374C00E068703001F064FBE1680D48CA680068BA1AB2FBF0F2012A98BF012103D9C968D9
:20376C007F1AB7FBF0F19834204601F0F1FE204601F0EAFE2846FCF7AFFCB0BD9807002088
:20378C0018580000F8B5844640F6FF741CF8013B002210E0481B401E10F8015B7F1E01F870
:2037AC00015BF9D103E01CF8010B01F8010B521C5B08082AEADA5808F5D21CF8010B1CF8AD
:2037CC00015B05F00F07FF1CC5F30315122F45EA001508D11CF8016B300A24BF1CF8010B70
:2037EC0060F3DF16BF19AC42D4D1F8BDD0B5044601F072FE00F0E8FA071C08BF6FF0020404
:20380C001FD001F0A3FB0146A2880F480023243030F80C6F5EB902804760A268826023737A
:20382C00786820610024084601F082FC09E0964208BF6FF00204F6D05B1C062BE8D301F033
:20384C00C5FD2046D0BDC046EC0A00201648144A144908B5E4300078801E0A2807D8DFE8B3
:20386C0000F01814100614100614100609C001F03FFE11E010688008FCD250688008FCD2F2
:20388C000AE008688008FCD306E008688008FCD202E010688008FCD3FEF782F908BDC046D3
:2038AC0034600C4038600C40C0090020134910B50A684BF2F5214843040AC2F38140012831
:2038CC0006D101F05BF900F007FD604304EB90540C4901F1E500007830B90948006820F000
:2038EC007F402418640802E0002081F8E50006480460210C41600123836010BDB43F00505E
:20390C0010200940C00900203C600C40B0B5044601F014FD30F0010008BF6FF004041ED063
:20392C0001F0DAFD054601F011FB01460D480622403030F80C7F6FB1A388BB4208D14068BB
:20394C0000680022854208BF0122A260002403E0521EEED14FF0FF34084601F0E9FB2046ED
:20396C00B0BDC046D00A002008B5012001F07EFA01281DD00F4834210122002300F0D6FBBE
:20398C00002808BF002014D00B48006801F046F901F032FB0A4A93681168D060C01A074BFB
:2039AC00A1EB91014343180C884228BF011C1160012008BD00A00C408000001040420F0001
:2039CC008018002098B5154B1B1D18680004070C21D001F0D3F8104991F90720824205DD4A
:2039EC0010F1800FB8BF6FF07F00C8718C88BC4210D80A68D3F8D40F801A801C1F2888BFBF
:203A0C001F203F1B4008C7404FF6FF70E719B84238BF071C8F8098BD9C1800203010094029
:203A2C00084610B500F0005100F0040008431CD0012001F01BFA104C012811D00B480168B2
:203A4C003220B0FBF1F2012A8CBFB0FBF1F101216434204601F07CFD204601F075FD10BD57
:203A6C00034801F017FC0348046010BD18580000390A000000100440CC07002015490968A6
:203A8C0021280ADC212819D00C380FD00D380FD0001F0FD0C01E0FD01AE0253810D0001F61
:203AAC0010D0401E10D0401E10D011E0086870474868704788687047C86870470869704769
:203ACC004869704788697047C8697047086A704700207047F001002038B5134D95F8E10016
:203AEC00002410B91148007860B1FCF7F1FA95F8E310002906BF012185F8E3100124FCF7F5
:203B0C00EBFA0CB1002038BD022000F0F9FE0E20FEF72CFF01F0D2F801280EBF0120002099
:203B2C0085F8E20038BDC046C0090020DE570000D0B5044601F0D0FC00F082FE061C08BF1C
:203B4C006FF004001DD001F001FAB168002908BF002709D051F80C2C0023B2600F4641F8D0
:203B6C000C3CFF2601F8026C01F0E2FAA7603FB117F8080C207117F8070CA0710020D0BD0D
:203B8C000220D0BD10B5FCF7A3FA114C611C097829B10E490C68FCF79FFA224614E0FCF73A
:203BAC009BFAFCF79DFA0B4A002301F091FA626C002314001B184FF07A0244EB01044FF080
:203BCC009051C91842EB0402104610BD043004409807002000093D00012838B51ED101201E
:203BEC0001F044F901281BD001F01EFA0D4D0E480122322305F1E00100680A70B3FBF0F4FB
:203C0C0004B914463035284601F002F92846214601F09EFC284601F097FC01E000F0E0FCC3
:203C2C00002038BDC00900201858000038B51248104C0168114D0C40E1430160A10908D34A
:203C4C004068800905D328464FF40051BC3001F063FA14F4602F0BD0284600F158010A6877
:203C6C0004F46024F03014430C60002101F054FA38BDC04620000E00081004409807002035
:203C8C0098B50446FCF724FA8446104890F85F10C90803D390F85E10A14213D0B0F85C30C0
:203CAC000B4F012202FA04F11943A0F85C10391D0B6804F10C07BA4093430B600F680FB9DF
:203CCC00002101706046FCF707FA98BD9807002008100440DCB5044601F0FEFB00F0B0FDDA
:203CEC00064601F02BFB30F0010014BF002E6FF0040017D0606858B1B0F1FF3F05D06946B5
:203D0C0000F086FD30B107460BE04FF0FF3000E0002000907068009901F0DAFB002700B9F6
:203D2C0001273846DCBD7047F8B5044601F0D4FB00F04AF8071C19D001F008F984460D487B
:203D4C000021243030F80C6F6EB94FF6F872028047600025856021717868A060604601F02D
:203D6C00E7F92846F8BD491C0629EBD301F02EFBF8BDC046EC0A0020F8B516460C46FCF7A9
:203D8C00A7F902460F484178002554B1641E02D0641E10D00DE08179012904D0B0F85C1046
:203DAC0005E0476A0FB9802506E0406A818B318002E0842500E031701046FCF78DF928465E
:203DCC00F8BDC046980700202DE9F843804601F0BDF80F4C03250026814654F80C7F5FB941
:203DEC003046C4F800800146A6600A4601F044FB606018B901F0EAFA474501D1264601E027
:203E0C006D1EEAD1484601F093F93046BDE8F883EC0A0020B0B5054601F05EFB044601F064
:203E2C008DFA30F0010008BF6FF0040414D001F08DF80A4A002132F80C7F4FB153681B68DE
:203E4C009C4204BF2971002404D0491C0629F2D36FF0040401F06CF92046B0BD100B0020FF
:203E6C007CB5114D04460E46600807D3B0B20021009001220B46284600F088F8A00807D3E0
:203E8C00B0B20090002102220123284600F07EF8E00807D3B0B2009000210C220223284651
:203EAC0000F074F87CBDC04600A00C40F8B506460F4D104F7388002417E0A20002EBC40250
:203ECC00921951689068D26852B9AF420BD00A7855F822200346491C08461946904701E045
:203EEC00FEF72CFF7388641CA4B2A342E5DCF8BDA45A0000B05A00002DE998430446276E92
:203F0C009946904607B1B8470220002100EA080011EA090108BF002809D104F1580003C80E
:203F2C0008EA000019EA010108BF002807D004F1680080E8000304F1380001F0C5FABDE86E
:203F4C009883FEE7104A1068C0F30F314BF69A10884207D111680B20B0EB117F14BF002041
:203F6C00042070472430884208BF01200BD04BF64130884208BF032005D0213888420CBF50
:203F8C0002204FF0FF30704718130050B0B500EB4100102B04AF00F5007403D3103B00F555
:203FAC000174120C3D889D4045EA024501F096F9002700B90127064A394610680028FCD087
:203FCC0025600120106009B101F08EF9B0BDC04600800C4070B5104C0646204601F0D0F961
:203FEC000025B0B9204601F0EBF90446A06806420AD0E0682269002103463046984705469B
:20400C00012D08BF012005D0204601F0DBF9041CECD1284670BDC046C00900200F4A014677
:20402C005068ADF1080D08B9002050600846801E12D0801E10D0401E07D001208DF8010050
:20404C009DF801000028FBD106E001208DF800009DF800000028FBD102B070470802002022
:20406C002DE9F04101F076F90D4D2B688046A3B105F194070024012606FA04F018EA000FA5
:20408C0007D057F8240020B1026812B1214690472B68641CE4B29C42EED3BDE8F081C0462A
:2040AC00A81600200C4885460C4885446F4607208743BD460A486F4607600A48002803D076
:2040CC007946491D8E460047FEF7E8FD00F0DCFF01F0CEF9FEE7C046B8410020000400002F
:2040EC00100E0020E9530000D0B504463C20FEF7E1FF071C14D000213C22082301F0C4F9DB
:20410C00207AB86160893862E068386160683946002201F0B5F90646384600F095FC16B95A
:20412C006FF00300D0BD0020D0BD7047F8B51E4640181446102E02D3103E801C240C0546E5
:20414C0001F0CCF8002700B9012707483B460768002FFCD02D88012101600BB101F0C4F8BB
:20416C002C403441A0B2F8BD00800C400E4938B5CA68824210D1487801280DD1FBF7A8FF04
:20418C000546084800F00EFD04462846FBF7A4FF04F0FF00012802D06FF07F0038BD4FFA26
:2041AC00A4F038BD010003049807002000B500213C220823ADF13C0D684601F065F9084810
:2041CC0000F1D80107914FF4C871089103210691044900236A46883001F046F90FB000BD1D
:2041EC0030050020F5100000F8B5064614460D46102000F0BDFD071C10D00421072200F098
:20420C00C3FF00F00BFC38727E72BD72FC6000F0BFFD034A394600F0D7F8F8BD0420F8BDEF
:20422C00BD53000070B50446606810F07F4F18BF6FF0020011D100F089FE084D064628788B
:20424C0028B1686800F0BCFB606800F0D0FB60686860304600F06CFF002070BDA40D002000
:20426C003EB50546FFF764FC041C15D1287902A900F034F968B10821ADF80010A868019097
:20428C000321ADF80210684600F0AAFA6FF005003EBDBDF80800A88020463EBD10B5044641
:2042AC000C4800680023D907024650080143D007801A4FF47A7299410023FEF7D9FD0029BE
:2042CC0008BFB0F1004F28BF6FF000406060002010BDC046185800000D4938B5091DD1F840
:2042EC00EC3209681B3800FB00F409060A161906091604FB01F543F307214143C910604321
:20430C0001EBA521424301EBA24000EB234038BDA010005000B500213C220823ADF13C0D03
:20432C00684601F0B1F8084800F1940107914FF42571089101210691044900236A464430FC
:20434C0001F092F80FB000BD08020020051A000010B50446207B00F00F00022811D1FFF766
:20436C0011FCA168084C081A04F10C010968C968800801F57A71814203D26FF0504181424D
:20438C0000D2002010BDC0469807002038B50446FBF79EFE05460B48401C007868B12046D7
:2043AC0000F000FC04462846FBF796FE04F0FF04012C0CBF0120832038BD2846FBF78CFE35
:2043CC00822038BD980700201CB51446CA78012A02D18A880A4B1A8000F078FB30B90020A3
:2043EC0000906946204600F044F818B100F092FD044603E00098447800F0E6FD20461CBD05
:20440C00980D00202DE9F0410F46044600F0E2FF04F1280292E8600033462A46FEF728FD18
:20442C0080460B4642462846314600F051FE17B1303484E803004046BDE8F08170B5044607
:20444C0004F1280090E80C000D460021284600F03FFE04F1300292E860002D1846EB010622
:20446C00290C3004014300F093FA383484E8600070BD3EB5054608200C46ADF80000202004
:20448C00ADF802001020ADF80400684600F0A8F928B90298002818BF6FF0040003D1284632
:2044AC00214600F055FB3EBD70B506460D460C2000F05EFC041C0CD00421302200F064FE4F
:2044CC002681658100F064FC034A2146FFF77CFF70BD042070BDC046B7530000062880B5DD
:2044EC000CDA0A4F820002EBC00207F10C00875A13181FB14FF6F870B84202D14FF0FF3078
:20450C0080BD18880880002080BDC046100B002010B5044600212C220823ADF1300D68465A
:20452C0000F012FFE0200890A168606800236A4600F096FF002818BF002001D100F046FF87
:20454C000CB010BD10B5044600212C220823ADF1300D684600F0F8FEE068A16808906068FD
:20456C0000236A4600F07CFF002818BF002001D100F02CFF0CB010BD10B5044600F0E6FC7B
:20458C00094B0022014633F80C0F30B1A04208BFD4B203D0521C062AF5D3FF24084600F062
:2045AC00C7FD204610BDC046100B0020B0B50D460949441800F092FE002700B90127074A78
:2045CC00394610680028FCD025600120106009B100F08AFEB0BDC04600A00C4000800C4071
:2045EC0008B503200021FFF73BFC012000F03EFC18B10648006800F011FB00F0FDFC044B83
:20460C00083B586000F0BAFA186108BD800000108818002038B5FBF75BFD05460948E0307E
:20462C00007838B106480024342101222346FFF77DFD00B101242846FBF74EFD204638BD6E
:20464C0000A00C40C0090020F8B5064637680D4600242C601FB9FBF73BFD374608E0FBF785
:20466C0037FD00E03F6839680029FBD1BD4201D03D600124FBF730FD2046F8BDF0B5044622
:20468C0005AFADF10C0D03B9084B97E860008DE86000FDF7DDF8011C44BF00204FF0004157
:2046AC0002D42046FEF748FD03B0F0BD053F000000B5002124220823ADF1240D684600F020
:2046CC0013FF01200022054906906B4605920448ADF8102000F004FF09B000BDC5500000AE
:2046EC0094050020F8B5044616460D46102000F03FFB071C0ED02A46042100F045FD00F03D
:20470C008DF93872FC6000F043FB39463246FFF75BFEF8BD0420F8BD094910B500200A4C72
:20472C0008600120C86114342060216844F8280C04480068016A14208847206810BDC0467D
:20474C0000002443B0010010182009401078802811D1508840F27F6181420CD190883F2190
:20476C00B1EBA02F07D1C0F3C211042903D100F07F00834201D0002070470120704710B5EA
:20478C00401E14460DD0401E09D0801E05D0001F01D000F01BFE052004E0002002E00420A6
:2047AC0000E00220226821469047002010BD704710B50446A168606808601420FEF77AFC98
:2047CC0038B10549A368054A096800F013FA002010BD6FF0030010BD145800008B47000074
:2047EC0010B504462088FFF7C7FEFF2808BF4FF0FF300AD0054B810001EBC000195811B155
:20480C002046884710BD6FF0010010BD240B00200A4A10B512680C464FF47A710023A1FB3C
:20482C000001FEF725FB002908BFB0F1004F2EBF6FF002002060002010BDC0461858000045
:20484C0038B5054600F082FB084C03220146243C54F80C0F18B1A84202D0521EF8D100243E
:20486C00084600F065FC204638BDC046100B00200949020480B5120C41F8082CC0F30740DF
:20488C0041F8040C0120086004480768002FFCD00020086080BDC04644600C4084088C436E
:2048AC0010B50A4C2368C1F30F2102F00F02C0F38710090440EA022023F4806323601B0420
:2048CC001B0C0B4323600143616010BD1480024010B50446FBF7FCFB084BE21892F8E81065
:2048EC00491EC9B282F8E81021B99A680121A1408A439A60FBF7F0FB10BDC046C009002019
:20490C0038B50446FBF7E4FB084A02F108031D680121A14012192943196092F8E810491CB4
:20492C0082F8E810FBF7D8FB38BDC046C009002010B500F019FE00F01BFE032000F08CFDDF
:20494C0006481030006830B1034C204600F0E4FC204600F0E7FC10BD1B230000A4010020E6
:20496C0008B500F0FDFC012801D0FFF7EAFA074800F06EFD00F0C6F900F066FD00F060FDB8
:20498C0000F05AFD00F054FD08BDC0463D49000010B50C4600F030FB211AB1F1004F08D8F4
:2049AC00011B091DC90F05D1001DA04288BF041C00E0041D0148046010BDC0461820094093
:2049CC0038B5044601250DE0C0F11F0005FA00F1052881EA040403DB401FFDF75DFF01E0B3
:2049EC00FFF776FFB4FA84F02028EDD138BD38B5044601250DE0C0F11F0005FA00F10528EC
:204A0C0081EA040403DB401FFDF7B0FF01E0FFF777FFB4FA84F02028EDD138BD0EB550209A
:204A2C00ADF800000020ADF80200064800788DF806006846FFF7D4FE002814BFFF209DF888
:204A4C0007000EBD3005002010B5044600F07EFA074934F8042C6FF3DF3224F8042C4A698E
:204A6C000861241F944238BF4C6100F061FB10BDD00A002038B50C46054600F067FA0021F5
:204A8C0044F80C1C296811B92C6006E0114651F80C2C002AFAD141F80C4C00F049FB38BD52
:204AAC0010B5044660680C3080B2FEF703FB50B1A18800230181FF22036000F10C0182726D
:204ACC001846A16010BD6FF0030010BD00B5ADF1140D8DF8040003910822ADF80020ADF84A
:204AEC0002201020ADF8060002208DF808006846FFF776FE05B000BD094902460823F4318A
:204B0C00C87F30F07F0005D0B1F91C00824208BF081C04D05B1E01F12001F1D10020704760
:204B2C00CC07002038B52020EFF3118580F31188064CA068002100F0BBFC6169081AA169AD
:204B4C00814238BF002085F3118838BD7801002010B50C46ADF1180D02900821ADF8001086
:204B6C0019216846ADF802104FF0FF310191FFF737FE0499216006B010BDFEE707488168A0
:204B8C0041F31002064991F900100068A0F5407041430811121A8032101270472850094018
:204BAC000C130050084910B50246A1F11C0318680028FCD100240C601A60D8690028FCD0B7
:204BCC000C60586810BDC0461C10044038B5FBF77FFA074C054694F8E000012804D1FEF705
:204BEC00C3FE002084F8E0002846FBF775FA38BDC009002010B5044610460A46211C14BFFA
:204C0C000028022006D0C8608A6003480B6100F041F8002010BDC046C009002070B505462A
:204C2C0000F05CFB002400B90124054E30680028FCD0A847012030600CB100F055FB70BD76
:204C4C0000800C4008B5FBF743FA064A117880B229B90549096800230B7001231370FBF7AD
:204C6C003BFA08BD220E0020E057000010B5084C06492069814202D1FBF732FA606104F14C
:204C8C00BC00042100F048FA10BDC046192400009807002038B50D460446FBF7EBFB0021A3
:204CAC002A462346116059685160596801B921460A605A60FBF710FA38BD704706490868BF
:204CCC00002818BF012005D1044B4020012218600020CA617047C04604800C402C500C40E8
:204CEC0008B500F0ADF900F0804100F00200084305D003484FF00051BC3000F00DFA08BD0F
:204D0C0098070020074808B51030006828B1034800F002FB024800F005FB08BDDD4D0000DA
:204D2C000D510000A4010020074810B51030006830B1044C204600F0EFFA204600F0F2FAD6
:204D4C0010BDC04637410000A4010020074908B5283090E80C000020FEF78AF8002908BFC7
:204D6C00B0F1FF3F88BF4FF0FF3008BD907E00000EB501900821ADF8001068460221ADF818
:204D8C000210FFF72DFD002814BF002002980EBD0EB50820ADF800001A20ADF80200684636
:204DAC00FFF71EFD002814BFFF209DF804000EBD08B542882D2A28BF6FF0010004D2034911
:204DCC000C3151F82210884708BDC0469055000010B5064C206900F027FB0146A06800B9D6
:204DEC00E160A068401CA06010BDC046A4010020054808B5416805480122083802604869F4
:204E0C008969884708BDC046E40100200C200940002181820449C0684969814203D1034853
:204E2C00006800F091BB7047780100201C58000010B50446E088FFF79FFBFF2808BF4FF0CA
:204E4C00FF3003D0A0712046FEF7A8FA10BD02294FF0000204D0012808BF4FF47A7203E027
:204E6C00012808BF40F2EE2210467047042807BF4FF0C0421D234FF080521C230148342186
:204E8C00FFF754B900A00C40002948BF0021044A02EB8000026861F3050202607047C04627
:204EAC00001008400348016803480160034800F033B9C046E0200240E0200260081700201E
:204ECC00054A0C321268824218BF842002D10846FFF75CBA7047C04698070020054A0C324A
:204EEC001268824218BF842002D10846FFF74EBA7047C0469807002010B5FBF7E9F884B284
:204F0C0000F016F82046FBF7E7F8014810BDC046E057000050B110F1040F08BF042006D027
:204F2C0010F1030F0CBF0220012070470020704705490A68107828B90120107048680068D4
:204F4C00FDF714BD7047C046E057000010B500F00FFB80B260F30F04FBF7BAF880B260F30C
:204F6C001F44204610BD1CB5044660686946FFF74FFC20B9009860602046FDF7C5FF1CBD94
:204F8C0008B5406810F07F4F18BF6FF0020002D1FFF716FD002008BD08B5406810F07F4FA6
:204FAC0018BF6FF0020002D1FFF721FD002008BD0EB501900821ADF8001068460521ADF836
:204FCC000210FFF70DFC0EBD0EB501900821ADF8001068460321ADF80210FFF701FC0EBD70
:204FEC0010B50446A088FEF765F80028A06014BF00206FF0030010BD044801684368026808
:20500C008A42FAD1080440EA1340704708200940044884380068C0F302400428C8BF4FF0E5
:20502C00FF3070471813005008B503200121FEF717FFFFF7E1FF0149086008BD88180020E9
:20504C00044908310868C3430B600A681042FBD17047C04608100440044908B591F8E600BB
:20506C0018B1D1F80C0100B1804708BDC009002038B50546FBF72CF82C680CB121682960AE
:20508C00FBF72AF8204638BD0449B1F1FF3F07BF0020011C0868091DFDF79CBDFFFFFFFF86
:2050AC00012814BF002140F2FF71024A002011607047C04600000460044B03F10A0211883F
:2050CC0008431080186900F0FFB9C0463005002030B502FB01F403FB00444FF00005E2FB2B
:2050EC0000542146284630BD38B5044CE56800F031F9226901462846904738BD980700201F
:20510C0004498868401E886003D10869C96800F087B97047A40100202022EFF3118382F3B1
:20512C001188426A1143416283F3118800F074B908B50090BDF80200FAF7CEFFBDF8000084
:20514C0000F00AFA08BD08B5406820B10068FFF75FFE002008BD6FF0020008BDADF1080DDB
:20516C0001208DF800009DF800000028FBD102B0704710B50446FFF7D7FD032000F06CF93A
:20518C00204600F075F910BD812342EAC112037042F47C4282800023C370704708B500F0AC
:2051AC0037F90248006800F037F908BD8401002008B50846FFF7A0FC002814BF80680020D7
:2051CC0008BD00B50921ADF1240D684600F01CF909B000BD10B504466068FDF727FFA06036
:2051EC00002010BD02490968416000207047C046185800000246024808B5904708BDC0461B
:20520C0090550000102802D3014910380860704700EF00E010B5044600F078F860600020C1
:20522C0010BD10B50446FFF7F5F92071002010BD08B500F09DF9FAF74BFF002008BD08B504
:20524C0000F0DEF800F0D8F8002008BD08B540680C38FFF7F9FB002008BD10B5044600F060
:20526C0053F96060002010BD006801092CBF042000F003007047D0F80320C31D0846194686
:20528C00FDF75CBD08B500F0A5F8000C0904084308BD000001491031086070479807002019
:2052AC0008B5014688684968884708BD08B5406800F09EF8002008BD08B5406800F094F8F8
:2052CC00002008BD08B54068FFF7BEFB002008BD08B5406800F0F8F8002008BDEFF3108048
:2052EC0072B6704700207047EFF3108062B67047002070470148083000687047C00900204B
:20530C000149ED31085C7047C00900200148DC3000687047C00900200149091F0860704727
:20532C00B00D0020014908607047C046B00D0020D0F8032008460021FDF7BCBF0148007DA9
:20534C007047C046A401002001B9014900F048B8A0010000014880687047C046C801002053
:20536C000148C0887047C046F001002008B5FFF72DFC002008BD01460879891DFFF7AEB837
:20538C000168002001B90120704742F00202FCF7C9BC0020FEF7C2B90023FFF7D7B90823D4
:2053AC00FFF7D4B90623FFF7D1B93023FFF7CEB90723FFF7CBB981604260704700F006B859
:2053CC0000687047006870470068704700BFFEE700207047FAF784BE808A7047FCF760BDE5
:2053EC00DFF800F0F1C50110DFF800F085C20110DFF800F081C20110DFF800F043C20110FC
:20540C00DFF800F055C10110DFF800F00DC30110DFF800F067BE0110DFF800F021B3011041
:20542C00DFF800F04DC20110DFF800F049C20110DFF800F009C30110DFF800F03DC201101B
:20544C00DFF800F08DC20110DFF800F095B70110DFF800F081C60110DFF800F045C00110F9
:20546C00DFF800F079AB0110DFF800F025B10110DFF800F0D1C70110DFF800F0ADB50110CC
:20548C00DFF800F019AE0110DFF800F0D9C10110DFF800F02DBF0110DFF800F0EDB30110B3
:2054AC00DFF800F0BDBE0110DFF800F00DA80110DFF800F095C00110DFF800F055C00110E6
:2054CC00DFF800F0DDB20110DFF800F041AC0110DFF800F0CDA00110DFF800F0E5C10110D1
:2054EC00DFF800F079B50110DFF800F085C10110DFF800F099C80110DFF800F011BF01109B
:20550C00DFF800F013C10110DFF800F0D9B60110DFF800F0F5B80110DFF800F085B00110DA
:20552C00DFF800F0CDC10110DFF800F029AF0110DFF800F03DC10110DFF800F009B70110DB
:20554C00DFF800F0C1C10110DFF800F0E3BF0110DFF800F0C1C20110DFF800F049BA011035
:18556C00DFF800F0E1B50110DFF800F0D5C00110DFF800F0F5C00110BF
:205584000180010005000000B6030000ED470000594F00003D510000F9370000353D0000BB
:2055A400AD4A000059520000ED4F0000D1520000A93300003D3B00003D4E00006D42000058
:2055C400E13C0000DD520000C9530000C5520000B95200004B5200003D5200001D450000AF
:2055E40067520000734F0000F1510000A94200008353000035330000BD4700001922000082
:20560400213E0000152F00005351000031420000A54F00008D4F0000193900002F52000029
:2056240021520000F5400000000000000000000079530000E151000051450000000000002A
:205644000000000000000000000000008F3F00008F3F01008F3F02008F3F0300903F000138
:205664008F3F0101903F0002903F00038F3F01048F3F00058F1208048F3F00048F3F0006BA
:20568400513F00007F3F01003F3F04003F3F02003F3F01007F3F0200492A00006951000049
:2056A4005D1800006951000089460000311D0000975300006951000069510000E94E000005
:2056C400CD4E000069510000695100006951000069510000913B000079410000853D00007B
:2056E400BD5100007B756E6B6E6F776E2D696E7374616E63652D6E616D657D007B656D7083
:2057040074792D696E7374616E63652D6E616D657D00C0467B7374617469632D696E7374D7
:20572400616E63652D6E616D657D00C006088080070880800D2007C00E2007C01400C08069
:20574400024000800300C08009400080084000800A400080FE000000EBC70CEEC90CF1CBAA
:205764000CF44B14F74E19FA521DFD582500613101144202184E031C5A0424930530930038
:205784007FC80110C9BC011051B2011037C20110BDAD0110C1B1011071BA011069BB01108A
:2057A40021C00110FFFFFFFFC409000000000000132F000001001A010100000000000000CB
:2057C40000000000000001000000000000000000D12700005536000001010100A418002062
:2057E400105800000000000000000000514C0000054F00003D00000045B5011099A60110B4
:2058040019B801105C5700000D070000080000000F0000000A000000480D00206550000090
:2058280000FD00000C793500000201BF0404FF01020301B915FF0953696D706C6542FF4C0C
:205848004542726F6164637F6173746572020A03FD1A00FFC90501310530752F5F0433700E
:2058680030EFD905F0568FC90457050085864F01AD500000BFE53B0000DD538C13EDFF47EC
:205888000000180D002059DF4F00003D51895F740710FF0000384035002D407F01400284D4
:2058A80060005D0070FF00F80118A3840700FF83057EA40306E0EAFF2306010003040102C6
:2058C800FD35023008047F176304FF003888604500C300FF3801AC526003A302FFAD0163DE
:2058E800026801438A7FFF0043022804FF00008FBC0B0020003112B9679602EF0000A8145E
:2059080001B30BC20158081015BF04013F06C5A7A113A914368701006815700175027D02F0
:20592800F540FC07701BFB0100640C0020A4003101BF028001B0003188003490AA00349855
:205948000034A00034A80034B05A0034B80034E52DAB9705AC409010C2ACC802F1ADB1E8DD
:2059680008300031F04A0034F800340022B000310800347D10003401051B006415F0BF08CB
:205988005800009C56B1D7F0FF5700000C0E002003AAB1509C2670A026B02C2A809C47019D
:2059A800002000312B312AE9BB28F0DEB5B9FD4D0000B501FF005514B722CC2E4008B7C006
:2059C80028053036B831800600F3FFFFB91B016097001B230033B42DF00031BCAA0034C42F
:2059E8000034CC0034D40034DCAA0034E40034EC0034F40034FC120034040CF000310114C1
:205A080001C08825B400FFF0007D000000200E00201400305918007000F1B841007004011E
:205A2800912F0020010100F0170173003500FFF000F30100000700B9E80C0020EC01A8027E
:205A4800521C0E0133340100052000313C0034FFF0009D0000016CDC02007200A10CF700A6
:205A6800200300C46D4900000F7F510000FFF0007D000004080C0020B80030F10101000023
:205A8800310029480D0020000031FFF0007B0100000F00880C0020016100FFF091370000B7
:205AA800835200003D530000003D000000080C0020FFF0000000000002000000810A00008C
:205AC800000F08000000FFF00001000000FFF00001000004FFF00001000004FFF0000000E0
:205AE8002858000008020020105A000044010020385A000000010020595A0000A4010020FA
:205B0800775A000078010020945A0000C8010020B05A0000E4010020C05A0000280E0020BD
:205B2800C85A000000020020D05A0000EC010020D75A0000F0010020DE5A0000F80100204F
:020000040001F9
:20FFA80000008001100082FFFDFF58003AFFBFF3FFFFFFFFFFFFFFFFFFFFFFFFFFFFFFFFF8
:20FFC800FFFFFFFFFFFFFFFFFFFFFFFFFFFFFFFFFFFFFF00FFFFFFFF00FFFFFFC500C5FFAA
:18FFE800000000FF00000000FFFFFFFFFFFFFFFFFFFFFFFFFFFFFFFF12
:00000001FF
