:20000000004B0020794B000001CA011001CA011001CA011001CA011001CA011001CA011089
:1C00200001CA011001CA011001CA011001CA011001CA011001CA01103FCA011082
:20003C00F0B52B4D05F12C0158C9ADF11C0D02AA58C20AC94FF0805682E80A0047688468BF
:20005C00D6F8D001C16820688847216821488A6B10408863206840F2F271416497F83C00B6
:20007C0097F83D10C0100DEB80008068084321684863684600F032F8D6F8D001397F46680C
:20009C0005EB8101BA698B68797F206855F821101943BB7F05EB8305AB690B430199B047BD
:2000BC000D490A1F106840F010001060086840F001000860A07D0027FF2802D0E07DFF28B3
:2000DC0000D11FB1086840F44040086007B0F0BDBC6000000DF8FFFF30100040DFF800F00D
:0400FC00F9BF011037
:200100003C000000000000000000000034010000000000000000000001000000000000006D
:1C01200000000000000000000000000001000000000000000800000000000000BA
:20013C00340000000000000000000000680100000000000000000000010000000000000005
:14015C00010000000000000000000000080000000000000086
:2001700030000000000000000000000098010000040000000000000001000000FFFFFFFFA5
:10019000FF00000001000000080000000000000057
:2001A0002C0000000000000000000000C4010000040000000000000001000000FFFFFFFF4D
:0C01C000FFFFFFFF08000000000000002F
:2001CC0034050000E401000099A1011095A70110A5C2011009B2011045B80110A9BC011095
:0801EC0089BC01102D00000088
:2001F400280000000000000000000000140200000000000000000000FFFFFFFF00000000B1
:080214000800000000000000DA
:20021C00300500003002000069C201106DC101101FC2011095BA011009BC0110E9BB011003
:04023C002F0000008F
:20024000300500005402000075C20110A9B601109DBF011049B60110B9BA011029BC011064
:04026000300000006A
:200264002400000000000000000000008002000000000000000000000000000008000000CC
:040284000000000076
:20028800240000000000000000000000A40200000000000000000000000000000800000084
:0402A8000000000052
:2002AC00240000000000000000000000C8020000000000000100000000000000080000003B
:0402CC00000000002E
:2002D00000000000540A0020040000000000000000000000200000007001000030000000CB
:2002F0001C0200005C0A00200400000000000000000000000C0000003004000018000000EE
:2003100040020000640A002004000000000000000000000024000000480400001800000071
:20033000000000006C0A002004000000000000000000000010000000A00100002C00000036
:20035000CC010000740A002004000000000000000000000020000000640200002400000074
:20037000FFFFFFFF7C0A0020040000000000000000000000280000008802000024000000F1
:20039000FFFFFFFF8C0A0020040000000000000000000000580000003C01000034000000CE
:2003B000FFFFFFFF940A0020040000000000000000000000100000006004000018000000E3
:2003D000FFFFFFFF9C0A00200400000000000000000000001C000000AC0200002400000059
:2003F000FFFFFFFFA40A002004000000000000000000000038000000F401000028000000CA
:20041000FFFFFFFFAC0A002004000000000000000000000054000000000100003C00000065
:1804300018000000000000000000000040040000080000000000000050
:1804480018000000000000000000000058040000080000000000000020
:18046000180000000000000000000000700400000800000000000000F0
:0804780001000000AC6200006D
:040480000068704759
:040484000100000073
:0404880000000E0062
:04048C0000000F005D
:040490003200000036
:040494000100000063
:0404980058090020DF
:04049C00000200005A
:0404A0000000000058
:0404A40001CA011078
:0404A8000000000050
:0404AC00000000004C
:0404B0000800000040
:0404B4000000220022
:0404B80048080020D0
:0404BC00010000003B
:0404C000700900209F
:0404C400080000002C
:0404C8000000000030
:0404CC00000000002C
:0404D0000000000028
:0404D4000000000024
:0404D8000000000020
:0404DC00010000001B
:0404E000B008002040
:0404E400060000000E
:0404E800010000000F
:0404EC00B407002031
:0404F0000000000008
:0404F4000000000004
:0404F80000020000FE
:0404FC0000000000FC
:02050000704742
:020502002900CE
:020504000100F4
:020506002500CE
:020508002F00C2
:02050A003000BF
:02050C002D00C0
:02050E000100EA
:0105100001E9
:080514000300000094620000E6
:08051C000000000000000000D7
:0405240000000100D2
:0405280000000300CC
:04052C0087C401106F
:04053000380500008A
:040534003805000086
:0405380000000000BF
:04053C00900000002B
:040540009000000027
:0405440000000000B3
:040548007009002016
:04054C00BD5C000092
:040550002000000087
:0405540070620000D1
:04055800DC61000062
:04055C000DC30110BA
:040560003F4D00000B
:040564006B4E0000DA
:0405680099C801101D
:04056C009BC8011017
:040570000000000087
:04057400826200009F
:040578008C60000093
:04057C00A460000077
:0405800074600000A3
:0205840008006D
:0205860009006A
:02058800010070
:02058A0000006F
:01058C00016D
:040590000000000067
:040594000000000063
:04059800000000005F
:04059C00000000005B
:0405A0003D5E0000BC
:0405A400154F0000EF
:0405A80029580000CE
:0405AC00C551000035
:0405B000854F000073
:0405B4006D54000082
:0405B800853B00007F
:0405BC001D5D0000C1
:0405C000994400005A
:0405C40011C8011049
:0405C80021C8011035
:0405CC000800000023
:0405D0002400000003
:0405D400180000000B
:0405D80028000000F7
:0405DC0020000000FB
:0405E0003C000000DB
:0405E4000C00000007
:0405E80034000000DB
:2005EC00F0B50446DFF85CC3D54DE0782688ADF11C0D811100F01C81491E00F0D980491EE5
:20060C0040F03C822B6881380C2800F23782DFE810F0C500B40093008D00350235026E0079
:20062C0050004000350224001E000D0061464F68002F00F0238260680E8000783870606838
:20064C00407878706068801CC7F8020016E261464868002800F01282A5E0002B00F00E829E
:20066C0060684278017801EB0221801CADF800100178427801EB0221ADF8021081788DF89C
:20068C0004100179C07800EB0120ADF805008B20CCE0002B00F0F281606801788DF8001017
:2006AC00401C4178007800EB0120ADF801008920BCE061684A78087800EB0220ADF80000ED
:2006CC008878CA7800EB0220ADF802000879CF1D002B8DF804008D794879CDF8077000EB09
:2006EC000520ADF8050000F0C98188209EE0002B00F0C48160684278017801EB0221801CB9
:20070C00ADF800100178427801EB0221ADF802108178C27801EB0221ADF8041041790079F1
:20072C0000EB0120ADF8060087207FE061464868002800F0A38125E061464F68002F00F0DB
:20074C009D81654660682E800078387060684078B31E787040F39281002061686A6841189B
:20076C00CE7889784710801C02EB4702C0B2834201EB06215180F0DC80E161464868002836
:20078C0000F07C810E8061680978017061688A78497801EB0221A0F801106FE1614648682C
:2007AC00002800F06B810E8061680978017065E12B68433822D0801E2AD0C01E15D0401EE1
:2007CC0040F05C8161464868002800F0578162680E801178017061688A78497801EB0221CC
:2007EC00A0F801106168C978E0E761464868002800F0448162680E801178D7E7606801785F
:20080C008DF800102BB143206946324698472B68606801788DF8001081784078002B00EBC2
:20082C000120ADF8010000F02981E078694623E12B68401E00F01D81401E00F00F81401E85
:20084C0000F0F480401E00F0E180401E45D0401E30D0801E1BD0083840F01081606842789C
:20086C00017801EB0221801CADF800100178427801EB0221ADF80210C1788078002B00EB53
:20088C000120ADF8040000F0F9801020CEE761464F68002F00F0F28062680E80D578107818
:2008AC009378517800EB056000EB034000EB01203860E3E061464F68002F00F0DF806068CF
:2008CC000E800078387060684078787060688078B8706068C078F870D0E0606842780178FB
:2008EC0001EB02218FB23946ADF80070491E5FD0491E53D0891E38D0091F32D0083930D0CE
:20090C00103921D0203914D0403977D181788DF80810C1788DF80910C579837942790179B7
:20092C0001EB056000EB034000EB0220CDF80A0061E081788DF80810C0788DF809005AE079
:20094C00080A00201C300020C278817801EB0221ADF808104179007900EB0120ADF80A0000
:20096C0049E080788DF8080045E0C278817801EB0221ADF808100179427901EB0221ADF8B0
:20098C000A108179C27901EB0221ADF80C10417A007A00EB0120ADF80E002CE0C2788178F9
:2009AC0001EB0221ADF8081000798DF80A0022E0C278817801EB0221ADF808100179427921
:2009CC0001EB0221ADF80A108179C27901EB0221ADF80C10017A427A01EB0221ADF80E102F
:2009EC00817A00F10B078DF810103A680DF111063260B888B08002A8CDF80200244800684A
:200A0C0000283BD001466846884737E060680178C71C8DF8001082784078CDF8037000EB2E
:200A2C000220ADF801004BB30420FFE66146486820B362680E801178017061688A784978D3
:200A4C0001EB0221A0F801106168C91C4D68C71C7D600B893B810A683A600FE061464F6806
:200A6C0067B160680E804178007800EB0120388004E01BB10120002132469847A078752809
:200A8C0001D105F07DF9204605F074F807B0F0BD040A00202DE9F84F8046DC480122A0F1B9
:200AAC0030010A60D6490F68002FFCD0D64CD54AC02704F1040B1760DBF80010890804D211
:200ACC002168090C41F0F00100E07221E24AE34D4FF0000A82F85412A5F1D407C0F800A089
:200AEC00A66838683146C0F304601628A8BF203800EB2170401C162805DA10F10A0FB8BF2B
:200B0C006FF0090000E01520E54AE64F00F01F0040F4F8501080386880083ABFE248C0F8CA
:200B2C0000A041F04061E14AA946C80E8F0EA9F13C0580F0010000F00100106087F0010085
:200B4C0000F0010090602868C0F38367C0F38F21B00C22D246F3072000280BD542425046E6
:200B6C00490805D17F0806BF0127391C4FF6FF71521EF5D1002810DD4FF6FF72490041F049
:200B8C0001018A4207D27F0047F001070F2F92BF01210F27111C401EF0D141EA0741182006
:200BAC0004F006FA28682F68C0F3870107F0030041EA002188B20090BE4840F2FF325346C1
:200BCC002C21403803F070FE4D46A5F110073868C0F30D011C2004F0EBF9B54957F8080CCD
:200BEC00014000F07C400143142004F0E1F957F80C1C01F47C000904090C0143102004F044
:200C0C00D7F957F8042CDBF80010C2F30350C2F30343490812D221680C0510EB247003D45E
:200C2C001028A8BF0F2000E05046090413EB217303D4102BA8BF0F2300E0534643EA001361
:200C4C0002F47F4002F0FF01B8F1220F40EA034041EA000124BF02F0804211430C2004F063
:200C6C00A7F9B8F1220F32BF01202868C0F30070904CB8F1220F4FEA400040F0200084F82E
:200C8C00090126BF2868C0F3407001208A4FB8F1200F40F0100084F8090138BF514606D367
:200CAC003968C80C00F44070C1F384510143282004F07EF9B8F1200F26BF3868C0F301502E
:200CCC005046B8F1220F4FEA400040F0600084F80C0126BF2868C0F3C0605046B8F1220F4E
:200CEC004FEAC00040F0800084F8010126BF2868C0F345505046B8F1200F4FEA800040F4A9
:200D0C007C40A4F89C0138BF6C490AD3386801038A15920501F47C1100F00F00114341EA6F
:200D2C000031082004F044F94F464FF480002060A7F1D000816D40F20F226FF31F418A42FE
:200D4C0013D901680068C1F30363C0F3034003B15B1E072805D006280EBF0720801C00F0DB
:200D6C000F003D4943EA00100870C6F381435B1E02D05B1E27D022E03968880C1FD24FF47A
:200D8C00804020604E48D0F802204B0A03F0800322F08F021343C1F303321A43C0F80220A3
:200DAC00D0F801300A0A62F30303C0F80130026801F0E70322F0E70243EA020102E04FF045
:200DCC00004120460160DBF80000C0F3C0030BB94020A0624FF4007020642868C0F3C14015
:200DEC0040F0300084F8C800C6F38150394E4FF04008A8B3401E0BD0401E28D0022127E097
:200E0C009402224300600C40AC3F005040100940012004F0E3FD05460420294603F088FC01
:200E2C00042004F0DBFD8542FAD12648056825F07F4004F025FA30461430006803680721AD
:200E4C004FF06022280E98474FF4806020600321042003F06DFC0AE0026008408C130050E6
:200E6C000420012103F064FC174804F009FA203F38681649164B47F6180500F03F0084F8B3
:200E8C00CB0F32460D8018681068C168022088471248114FC0F8008001213960BDE8F88F7C
:200EAC006E6208400000094094042A4300002043FCFCFC0040A00C409813005000803F4043
:200ECC000A600840A83F0050BD37860070B00C402C200940A00100109404604200600C400B
:200EEC002DE9F04F0128ADF1140D40F0F280DFF81492D9F8DC00012840F0E9800220C9F838
:200F0C00DC0005F087F80290012003F081FD20B101210646C9F8DC10D5E005F077F80390B9
:200F2C006E484FF00008C0F80080012004F056FD012818BFCDF8008004D1404603F056FB24
:200F4C000120009066486E4CC0F800801934D4F8FF0F112004F008FF00280CBF464601263B
:200F6C00102004F001FF08B146F002060F2004F0FBFE08B146F004060B2004F0F5FE30B142
:200F8C00584800685849006B0246088890470A2004F0EAFE0028404618BF01204FF0805BBC
:200FAC000BF5DC7528B128685049006B0246088890474F480127076028688069014646F09C
:200FCC00200088474B48076004F0C8FE00F001010191400815D2484804F08CFE8246BAF12E
:200FEC00040FF8D0BAF1010F06D1DBF8D801406802464148032190474049086820F003004C
:20100C000860404600F094F92868D4F8FF1F806B8047019801280ED0BAF1010F06D1DBF828
:20102C00D801406802463448394690473349086840F0030008602A48076028684069014629
:20104C00304688470B2004F08FFE28B128682649C06A0246088890470A2004F085FE28B168
:20106C0028682249C06A024608889047204807600322C9F8DC201F4BC3F800802868406BFF
:20108C000146304688470128F8D1042003F0C0FC124807601A48D4F8FF1F01688909FCD31C
:2010AC000098012802D1384603F0A0FA04F044FE082003F0ADFC06460398C9F8DC7004F0A3
:2010CC00A1FF03F087F9029804F098FF02E0042600E00126304605B0BDE8F08F0C400940D5
:2010EC0000022243B8010010566000005260000028200860800104430040034024220840C3
:20110C0014100940A40600202DE9F04F0746874C3B7A79683A78ADF1840D0DF165002668AF
:20112C008DF8643002F0E6F83978002219A803F0E1FD002840F09D804FF000084FF4007BDB
:20114C00A2464FF0040945463DE00698002807BF40464146BDF83E1001207A6AA2181181BA
:20116C00079B002B08BF414604D00DEB4001C98F401CC0B27A6AA2185181049B002B08BF14
:20118C00414604D00DEB4001C98F401CC0B27A6AA2189180059B002B08BF414604D00DEBF5
:2011AC004001C98F401CC0B27A6AA218D180039B002B0EBF40460DEB4000C08F796A6418CB
:2011CC0060806D1CEDB27889A8422DDC1EA804F037FB00284DD1BDF879003884182004F0BF
:2011EC0023FEE8B1DAF80050002D08BFCAF8000003D016B13568ADB93060396941607969FF
:20120C008160B9694546C160FA6905604FF6FF740261398CC482818216B1388C401EF082C7
:20122C0040467FE02E46E4E7F86800EB4510B0E81C106946A1E81C101DC881E81D000DF14D
:20124C002A008DF827809DF80920ADF828B09DF8083001998DF824209DF80020ADF8253012
:20126C0002F048F89DF8001009A808AA02F002FF08B1C0B256E0796ABDF82100AC0004EB80
:20128C00C5046052DDF80CC0BCF1000F08D1049B63B9059B23B9069B13B90798002890D0C6
:2012AC00049B002B08BF8DF84C8001D08DF84C90DDF814E0BEF1000F05D09DF84C0040F0A1
:2012CC0008008DF84C00BCF1000F05D09DF84C0040F080008DF84C00069A404602B101203C
:2012EC00079B9DF84C1008438DF84C002BB19DF84C0040F002008DF84C00CDF85DC0CDF8CC
:20130C0059E0DDF810C0CDF84D2013A8CDF851300FA9CDF855C000F01BFA00283FF415AFFA
:20132C009DF83C0021B0BDE8F08FC046F80900202DE9F84FDFF8F8B10746ABF13500794BF5
:20134C000068800880F0DF8004F082F97C490831D1F8009000254FEA29715FEA995201F1DE
:20136C0001010AD2C0F13E0210F10A0F4FEAE202D8BF08229142B8BF111C674CD4F87C2107
:20138C00C2F30462162AA8BF203A2468C4F30444162CA8BF203CA2465218162A05DA12F121
:2013AC000A0FB8BF6FF0090200E015225B4C5C4E02F01F0141F4F8512180316811F0030FE2
:2013CC0018BF0125C90828BF45F002050FB145F0040593F90710411A052904DA9979A9420B
:2013EC0008BF99886FD0DFF840E10F28A0F10F0829DB08EB0011A1F1F0084FEA282100913E
:20140C00072984BF07210091062988BF06215EF821600424774604EB81043C594FEA950C58
:20142C00A41BEE0804F0FF0124BFC4F3072631446F08AE0824BFC4F3074631446E0828BFD5
:20144C0001EB146104E000214FEA950C6F080091009C5EF824E05FEA5C060EF0FF0424BFB3
:20146C00CEF3072634447E0824BFCEF3074634446E0828BF04EB1E64009E89B2A8EB0626A5
:20148C007143803104EB1124AAEB02010029D8BF0121342209F0FF074A4391B24FF6FF7262
:2014AC007943B1FBF4F18A4238BF111C802889B2998005DA10F1800FB8BF6FF07F0000E043
:2014CC007F20D8719D71194800681F2918604FF0000008D340F2FF128A4206D24908401CD3
:2014EC008A42FBD301E01F219980124F0F39090940EAC10047EA0001CBF8FB1F0026CBF86E
:20150C00FF6FBDE8F88F08209B1D0B4918700B4F0F60BDE8F88FC0463C1100506E620840B9
:20152C0024220840143000209C130050082009403500094000E7A48030100940FDFDA4008D
:20154C00AC3F00502DE9F04F00274FF001083846ADF1140D6E4D8DF8008001468DF8017046
:20156C0003F096FF05F10806784C30606948A0606948E06003F002F94FF0050BF01FDFF8BA
:20158C00A8A1DFF8A891DFF8A8810290301D03900E3604963E46AEE0A8683946F0224FF0A4
:2015AC00FF3301F07BFB410909D2810980F0A380C009C0F0A080604804F01CFD9BE05E48D5
:2015CC0004F038FC08B104F0E1FB012693E05B49012003F0B5FE1720686358480C26AE6364
:2015EC0002F060F94D4803F065FDA8684C4B3946012201F053FB03F077FDA8683946012209
:20160C004FF0FF3301F04AFB3A46012041F20901134600F099FD01208DF8020002268DF805
:20162C0004B00DF102018DF80360384602F0B8F804200DF1030102F0B3F80820294602F095
:20164C00AFF802990C2002F0ABF8102001A902F0A7F83448314604F0E5FBC8B904F11000C3
:20166C0005C804F1180181E805003548354BA4F822B0A762C4F82CA0C4F83090C4F834802D
:20168C00012684F8206060622F48E363FFF73CFD28484FF6FF7104F0C5FB02262BE002203F
:2016AC00042101220DF1010300F04EFD0126394604221BE0039B022001210A2200F044FD93
:2016CC00049B02200321152200F03EFD0220042101226B4600F038FDA868394602224FF085
:2016EC00FF3301F0DBFA032604210822A8684FF0FF3301F0D3FA301C3FF469AF401ECCD09E
:20170C00401ED7D0401E3FF447AF401EC7D0F2E7080200200105000029550000CD5900008F
:20172C00A08601005D5C000065420000C5420000C14C0000193E00004C02002034020020E7
:20174C0004060020C8050020A0050020880500202DE9F04105462F78884617F0700F18BF90
:20176C00832040F0EA8078082CBF06200120B90824BF133080B2C7F38001091888B239097D
:20178C0024BFC01D80B237F07F0706D0D5F81110B1F803100918491D88B242B28321352070
:2017AC0004F0FEF8071C00F0C7802878796808702E78700838BF01201CD3D5F8010079680C
:2017CC0000784870D5F80100796840788870D5F801007968B0F801000012C870D5F80100FE
:2017EC007968C0780871D5F801007968007948712E780620B10822D3D5F805107A680978AB
:20180C008154D5F805107A684978461CB0B28154D5F805107A68B1F80110441CA0B209127E
:20182C008154D5F805107A68431C9CB2C91CA018102201F05FFD2E7804F1100398B2F10849
:20184C0007D3D5F809107A68097881542E78441CA0B2310934D3D5F80D107A6809788154C9
:20186C00D5F80D107A684978461CB0B28154D5F80D107A688978441CA0B28154D5F80D10F8
:20188C007A684988431C98B209128154D5F80D107A680979461CB0B28154D5F80D107A683D
:2018AC004979441CA0B28154D5F80D107A68B1F80510431C98B2461C09128154B0B22E7846
:2018CC0036F07F0630D0D5F811107A6809788154D5F811107A684978461CB0B28154D5F834
:2018EC0011107A68B1F80110441CA0B209128154D5F811107A68C978431C98B28154D5F821
:20190C0011107A68B1F80310461CB0B209128154D5F811207B68D2F80510B2F80320441C5B
:20192C00A0B2C01801F0E6FC38464246002303F037FD0020BDE8F0818720BDE8F0817047A4
:20194C002DE9F843814604F0F1F9002100B901216B4E30680028FCD06C4D01242D1DEF6AC3
:20196C00346009B104F0E8F9DFF89881C7F3072008F1BC01086004F0D9F9002100B9214642
:20198C0030680028FCD02F68346009B104F0D4F9C7F38440C8F8C00004F0C8F901460020EF
:2019AC0001B92046014630680028FCD0ED69346009B104F0C1F9C5F38120C8F8D000B9F53F
:2019CC00C061C8F8B81000F0968098F8D80068B9C8F8D410D8F8C000C8F8C800D8F8BC700B
:2019EC00C8F8C470D8F8D060C8F8CC60D8F8D410D8F8BC60002954BF02206FF00100454612
:201A0C0005F1C8031A6801EB41014018411000EB917002EBA0021A60D5F8C810C5F8C46025
:201A2C0000291CDD1E293DDDD5F8CC0030B93429B4BF15391E21C5F8C81025E02A29BABFD2
:201A4C00D5F8C8000B381E20C5F8C800D5F8C4003F28B4BF401C3F20C5F8C4001FE0D5F86C
:201A6C00CC00032812D011F10B0FC6BFD5F8C8000B30201CC5F8C800D5F8C4000028CCBF0B
:201A8C00401E0020C5F8C400032009E011F1150FC6BFD5F8C8001530201CC5F8C8000020C9
:201AAC00C5F8CC00B5F8C400174E30214FF47F4208230090304602F0F7FE009404214FF452
:201ACC0000321123304602F0EFFEB5F8C80004214FF4F80212230090304602F0E5FEB5F8AB
:201AEC00CC0020214FF440620A230090304602F0DBFEBDE8F883002088F8D800BDE8F88332
:201B0C0000800C40A406002000A00C4000A00C402DE9F04FADF1840D00F01EFE02F0A0FE2B
:201B2C000026012804D103F0B9FF022808BF01265F490868C0F38150012806D151F80C0CB5
:201B4C000127010E07FA01F006435A48614F007807F12C00036802F083FE03F07F0301289D
:201B6C0004D103F09BFF022808BF5B1C524D2B602C463BB1FF2104F140001F467F1E00F8B8
:201B8C00011BFBD14D4800684FF0000900F0FF01FE291BD0DFF824C100F0FF0749460122A6
:201BAC00FF2F0CD0BB427FD902FA07F73E427BD100F0FF0047EA0909201880F840105CF86E
:201BCC00040F491C00F0FF07FE2FE9D1092001F085FA3A48002124220823606017A804F084
:201BEC0005FA4FF0010804F1240017AA8DF87480414604F0F7F9236843B3002794354FF024
:201C0C00040BBA4608FA07F0064219D119EA000F04BF07F0FF0141F4C04105D038192749E6
:201C2C0090F8400051F82010254801F0ABF8F8B24FF0FF3103F0EEFE2368C5F800A001E095
:201C4C00C5F800B07F1C2D1D9F42DBD301A800213022082304F0C2F90025FF20102101AB80
:201C6C000990184A009504F1080004F0B3F90DA828220823294604F0A9F92B4604F1600036
:201C8C000DAA13931049149304F09CF90F4951F80D0C20F4F85040F4005041F80D0C4746D9
:201CAC00C1F8FF7F0A4E376021B0BDE8F08FC046B43F005066300020FC2D0020FC60000059
:201CCC00007FC7673D5A0000354B00000D30094008000940181300502DE9F0430446666881
:201CEC00A7680D46ADF1340D04F068F93178012903D104F05FF90020A9E04FF0010886F8E0
:201D0C00008004F057F9287870706878B07068687060A868B060E868F06028693061287D4C
:201D2C003075687D7075A87DB075A869B061287F3077687F7077A87FB0774FF00009C6F84C
:201D4C0020904B4633631D4675627563B562B56386F82C50102286F83C2086F82D5086F8E0
:201D6C003D50786801F0BAF92046FEF761F9204601F05AFB70B937480068C168386888473D
:201D8C00786801F041F904F019F9357004F012F92C465BE001A829463022082304F01EF935
:201DAC000694387BCDF800902B4A0990B96801AB06F1800004F00EF901A82946282208239B
:201DCC0004F004F905942549386901AA2B46079006F19C0004F0F6F801A8294624220823AD
:201DEC0004F004F98DF81C80B07838B906F1D000294601AA04F0F6F819483061707838B91E
:201E0C0006F1EC00294601AA04F0ECF81548F06001A829462422082304F0C8F80695ADF8B7
:201E2C0014501149079406F584700A2201AB04F0B9F8B969FA6906F1400003F030FF0B4A9E
:201E4C0006F16C000421234603F03EFC20460DB0BDE8F083D001001099290000DD4E00004F
:201E6C00115E0000095E0000FD350000F15C00002DE9FC415E4C574D574EDFF860815A4F5A
:201E8C0094F8E410481E0B2861D8DFE800F07B2C43062343062343067664042907D0012264
:201EAC000A2945F8212C14BF0220032004E02021012045F8211C024684F8E200002045F87E
:201ECC00390C0827C5F8FF7FC5F8F37F45F8392CBDE8FC81052914BF09200620002584F863
:201EEC00E400356070E094F8E1700120383D002FC5F81B0004BF0620002102D00021F16045
:201F0C00032084F8E400032045F8010C31603068800859D294F8E400012503280DD000212A
:201F2C00404660220523009102F0BEFC94F8E400062814BF0A200720D1E7022000900021DB
:201F4C0060220523404602F0AFFC0420C7E704F025F8BDE8FC812249002622480E60012514
:201F6C0005600E2001F050F8022003F0B9F984F8E45084F8E360BDE8FC81002038600C2548
:201F8C0078601FE01948006800680146202088472C3D41F61D560F2000214FF4C0720723D5
:201FAC0045F8010C4046C5F803600225009502F07BFC404600214FF4C072072302F01AFEB0
:201FCC000120386084F8E45004F1780004F012F8BDE8FC8139400C4038600C4000A00C406A
:201FEC002C500C4004800C4034600C40A0010010A40600202DE9F84FDFF840814B4DDFF87E
:20200C0030A1DFF830B14C4E4FF67F79002409F160094F46183730684FF0FF3103F0BAFF36
:20202C000028F8D003F0E8FCBAF80010BBF80030AAF800402A88ABF8004011430B432B8064
:20204C0003F024FE2888010A06D34FF67F710840288002F041F82888C10909D33248006843
:20206C0003F088FD304928880C6020F040002880410921D303F078FBD0B92A48006803F055
:20208C0085FF28B998F90030002B03D425480CE098F90030288800F02000034308D12048AB
:2020AC00006803F073FF18B91D48006802F01CFA288820F010002880800915D398F9000027
:2020CC00002811DC02F05CFC28881D4B09EA00011868298003F05AFF30B9288840F020002B
:2020EC002880306803F04EFF2888000993D398F9000000288FD103F0DBF82888114B07EA59
:20210C0000011868298003F041FF002883D1288840F008002880306803F034FF7BE7C04624
:20212C005430002044300020303000200E0A0020100A0020120A00203C3000200C0A00206B
:20214C004030002038300020DFB50E46401E4FF00004194600F09180401E57D0401E43D07C
:20216C00401E1FD0401E13D0401E40F08480022A18BF842440F08B800978ADF8046001A81A
:20218C00ADF80610694602F075FD9DF800407EE00878012808BF03248DF80040684603F035
:2021AC0041FA73E0301C0FD0401E0BD0401E07D0401E03D0401E5ED1042006E0032004E01D
:2021CC00022002E0204600E00120832CADF800005DD001B10C78684601A9ADF8024003F09F
:2021EC00C7F89DF8044052E037467F1E0AD07F1E4DD1684601F07EF88DF80240684603F0DD
:20220C000EF844E0184601F003FF3FE037467F1E022F1CD9FF1E2ED10F78AFB131B10E2ABB
:20222C0004D168460E2201F065F809E08DF80040ADF80140A020ADF8030002278DF80D706A
:20224C00684601F0B3FE21E003F000FC1FE0202A11DA012E04D0022E14BF201C022000E0BA
:20226C0001208DF80000D2B2CDF801106846114602F0D8FD0AE0832409E0CDF80210D2B2B1
:20228C00ADF800606846114602F092FC044620460090DFBDF8B5414C201D0368B3F1FF3F08
:2022AC0008BF002302F0DCFA002876D13C4E20683468070F04F0FF04802C28BF002402F08D
:2022CC00CFFA4FF0FF3578B1401E07D0401E012802D9801E13D014E08FB112E0381C5CD0CF
:2022EC00801E0ED114340BE03846401E55D0801E53D0001F51D0401E03D1163400E00A3486
:20230C0065B2162D49DB27482749002501270560264E0F60264C376020680028FCD1274AC8
:20232C00161D2449244F306820F0030001433868C0080CD2106810F0030F0AD041F00300B1
:20234C003060106800F003000328FAD101E041F001011B483160006820B11A480068184617
:20236C00FEF798FB184819490560194F0A686FF35B4247EA0200086016490868C0F301307B
:20238C00012806D10A681448104040F400320A60086020680028FCD1F8BDFEE71813005049
:2023AC00A0100050840460425C600C40082204430C00684204000020B03F005000400340D2
:2023CC0080012843000120438C210840482003400000390104000940FFFFFCFCF0B5074692
:2023EC000D464D484B4904680E681346ADF11C0D0220B0EBA71F40F08880B7F1870047D052
:20240C00401E23D0C01E40F0828083202F888DF81000ADF81170ACB16A88A08A904202DC11
:20242C00E08A904203DA2468002CF6D10AE0276947B1B5F80500009029882B796068B84728
:20244C008DF8100004A802F069FE60E083202F888DF81000ADF81170B4B16A88DB1F9BB2E3
:20246C00A08A904202DCE08A904203DA2468002CF6D109E0E7683FB1D5F8070000902988A1
:20248C006068B8478DF8100004A802F061FE3EE000202F88ADF80C006E88ADF81170AB88E2
:2024AC00ADF81360E888ADF8153003F0BDFC8321CDF817008DF81010BCB16A88A18A914270
:2024CC0002DCE18A914203DA2468002CF6D10CE0A76857B1E988009103AE01960290AB8866
:2024EC0060682988B8478DF81000BDF80C1004A801F056FCDDF8170003F03CFB07E0B068EE
:20250C0029460246384690473668002EF7D107B0F0BDC046F4090020F80900202DE9F04120
:20252C00144603F069FA80463B4D3E4F3948DFF8F0C029780388002956D0384A3A4E491E10
:20254C0031D0491E11D0491E5CD112889C4259D01B1B61469CB20B6839680480A242A8BFE3
:20256C00221C184603F03BFC4EE09C424AD1304601886418048002F093FA002842D1314632
:20258C002B4B2C4A08881F780024401E1470002F80B2088036D125490F68002F32D02649A1
:2025AC000988B8472EE03B461968042C2AD13488241DA4B2348012884F780E7806EB072638
:2025CC00761C068060460E784F78006806EB0726761CB6B2171BB742BCBF196803240EDB2D
:2025EC006118324602240AE0012C0DD138680078FE2809D16046396800680124042203F0BE
:20260C00EEFB00E000242C70404603F03FFBBDE8F081C046EC090020EA09002022090020E3
:20262C005C30002034300020E6090020E0090020E5090020E4090020E80900203849F0B5F4
:20264C0007460878ADF17C0D002863D10120002F08705FD03B4800243B49046022460C80A4
:20266C001046114603F08AFC2E4908602046014603F080FC354908602046014603F07AFC31
:20268C00294908602046014603F074FC274908602046014603F06EFC7A68BE683D7B01920F
:2026AC007B880296DFF8A8C08DF80D5007F11001ADF800306246106025C904AB25C325C9E9
:2026CC0025C307C983E8070019480D90194E0E96684600F0E1F91F482022214601F064F9E5
:2026EC000FA83C220823214603F040FC388802F0FEFE1149086068B13888022217900F686D
:20270C0015920FA90D481697224603F02BFC0C49086008B9072000E020461FB0F0BDC0465D
:20272C00140A00203C30002038300020403000204D4600006D2E00004C30002001200000C0
:20274C0048300020303000200E0A00205430002044300020D42F00202DE9F041444C94F85F
:20276C00E700ADF1280D00286FD1394F387B01250021242284F8E7507E6884F8E60008233D
:20278C00C4F80C6101A803F011FC002604F10C00069601ABADF814602E490796324603F054
:2027AC0001FC2D4904F1300001AB324603F0FAFB2A4904F1540001AB324603F0F3FBB86888
:2027CC00014628468847DFF89C8025487B7B0078D8F80410C1F381571BB1032F03D184F8DD
:2027EC00E150032F16D0022F14D0012F26D103201D4C009031464FF040521C23204602F04D
:20280C0053F8009531464FF400720923204602F04BF813E0022002F07BFD032F0CBF4FF41A
:20282C007A7142F21071114800685434B1FBF0F1204603F093FB204603F0DCFBD8F800002F
:20284C00C00802D2304602F063FD0AB0BDE8F08184620000FB3500009136000031390000F1
:20286C0066300020B03F005000A00C40A0620000A40600202DE9FC410746BE6833687D6859
:20288C00986B20F4FA609863AC6B44B13168886B40F4FA6088634FF0FF30BDE8FC81AA6312
:2028AC0029630024EC776C630CE09DF80000296B08706B6B286BAA6B401C2863581C6863F9
:2028CC00501EA863A86B90B93168886B40F4FA6088636A6B6878296B0128A1EB0201296385
:2028EC0003D1EB68384698476A6B144646E005F14000694602F09EF90028D6D503F05EFB66
:20290C00204F8046387820B9022002F001FD01203870404603F04EFB1B49086840F40070D8
:20292C0008603168886B40F4FA6088636878D8B9696805F1EC0003F02DFB90B9AC6303F094
:20294C003DFB0646387818B1022002F0C9FC3C70304603F02FFB1027696B286BEF77401AF8
:20296C002863686BBDE8FC8195F82D0030B1686B20B1AC6305F19C0003F0ECFA2046BDE807
:20298C00FC81C04664300020301000402DE9F8438146D9F808703868066CD9F80450466432
:2029AC006A6CAB6CA86B16F4F06F0146A2EB03082AD1F00911D270095DD301B395F83C4086
:2029CC00641EA14298BF0C1C4846214602F00CFAA86B001BA8630DD04DE081B1484602F025
:2029EC0003FA95F82D10A86311B9002843D101E00020A86305F19C0003F0ACFA3BE0484613
:202A0C00414602F0BFFB36E0F20A19D24FF00008444602E0A86B401EA86340B348460121A8
:202A2C0002F0E2F93868446814F00F04C0F80480F0D0286B401E2863686B401E686316E0F0
:202A4C00386844680022202904F00F044260CCBF20270F1C4846394602F0C6F9C7F1200770
:202A6C00B845C8BFB8464846414602F08BFBEC77484601F033FAB0090BD3A96A49B10F4633
:202A8C00484602F05DFAA86218B94846391D01F027FEBDE8F88370472DE9F041054602F023
:202AAC00ABFF3B4F804605F1340001683960406878602E4C2888208002F019FD35490860AC
:202ACC0022880868002100F06FFF288802F00FFD2749086022880868002100F065FF254ACD
:202AEC00687B05F1100102F0C7FDA86822496A68294E2A4C00F0FF0002F0FF024B682060DB
:202B0C000D68326028431A4308601C484A6000F03FFC1B4D1B49286003F01AF91A4A2168F2
:202B2C0028680A434FF4E02102F090FA226828684FF0C05142F0805202F088FA207803F07F
:202B4C005FF81249C0B2087050B902F09BFE386830B101F021FD28683178002202F090FAD2
:202B6C00404603F093F8BDE8F081C04622090020503000204549000024090020083000200B
:202B8C002C300020D53C0000000007806730002024300020343000203409002030090020B0
:202BAC002DE9F04707467D68D7F8089090460E4603F004FA8246A86A002864D105F58470E3
:202BCC0002F0B0FE0024EC772E6250466C6203F0F1F903F0F3F92F4E3378824623B9022024
:202BEC0002F096FB01203070504603F0E3F92A49086840F4807008603846414602F0A0F921
:202C0C00A862C0B93846414601F06AFDA878D0B9A96805F1D00003F0BDF9E8B9AC621020C0
:202C2C00E8774946284600F0C1FA03F0C7F98246307840B323E0D9F80010886B40F0200044
:202C4C008863A87810B12046BDE8F087A96805F1D00003F09FF910B1686ABDE8F08738468B
:202C6C00414601F03DFD1020AC624946E877284600F09CFA03F0A2F98246307818B102208D
:202C8C0002F02EFB3470504603F094F94FF0FF30BDE8F08765300020301000402DE9F04747
:202CAC001E46904689460746B6F1FF3FADF1480D09D046B1314909AB6846324603F046F984
:202CCC000220694601E0002103200C918DF834002B4DCDF83C902C68CDF8408003F032F95C
:202CEC00EFF3118A2025E4190B9085F3118842464946384602F026FE031C33D1002E04BF9E
:202D0C008AF31188002036D003F084F90B99064609A88861204609A903F010F90B9803F0C7
:202D2C0009F99DF834000024022802D10C9803F0FDF88AF31188304603F060F9EFF31183C1
:202D4C0085F311880C9810B103F0ECF80C940B98846183F311889DF83400002814BF0E9B76
:202D6C00231C07E00C9818B103F0DCF800200C908AF31188184612B0BDE8F0870556000084
:202D8C00A86200002DE9F0470D4606465FFA85FA280824BF2E4845402E494FEA8A03C858EE
:202DAC0085EA00023240C2F300672B4A06EA0504B043224006F4E0240243B4F5E02F01D178
:202DCC00500E14D306F4E020074310D002F4E027B7F5A02707D0B7F5803704BF22F40032C9
:202DEC0042F4A02203E022F4803242F4C022DFF86C80CA5008F1D00739680122002002FA7F
:202E0C000AF40C4218BF101C5FEA000906D1F00D04D34146C5F3805001F80A00300E0BD32C
:202E2C0003F0CCF8290E34BF0021211C3A68A2431143396003F0BEF8B9F1000F06D0F00D9E
:202E4C0004D34046C5F3805100F80A10BDE8F087006000A000100840007F077F0020024093
:202E6C002DE9F047DFF8AC90DFF8B0808A4628B327490878401C087001F034FE021C1DD042
:202E8C002549274C4D46464690780F682B88246831684011401E07D0401E09D0401E03D0E1
:202EAC00104602F0BDFF09E043F020033C4601E043F008032B80204602F098F9BAF1000FD4
:202ECC0010D04D4617482988006858B1164B187846464A4641F04001401C18703068118066
:202EEC0003F050F81148006803F050F820B11048006803F04BF840B94D462888464640F0D0
:202F0C0010002880306803F03DF8BDE8F087C046160A0020100A0020403000203C30002075
:202F2C003830002030300020150A00204430002054300020F8B502F0F9FE00F09BFF02F0F4
:202F4C000DFF044604F00C000C284FD0E0081ED202F03CFB274E376805460120014602F002
:202F6C0010FD31686943884211D2234C8220B0FBF7F0291A204602F0F1FF204603F03AF88D
:202F8C000120FDF7ADFF204602F0CCFC2FE020092CD21A4802F0AEFE0428FAD0184962094C
:202FAC0006D228B10A460846016821F0010104E00A460846016841F001010160D2F8980059
:202FCC004FF0805440F00300C2F89800D4F8B8018069014620208847D4F8B801094C806BC4
:202FEC002168804701202060206800E030BF02F0A3FEF8BDA0620000B006002000400340DA
:20300C008C2108402C2009402DE9F843044602F0D5FF81462D48021992F8ED10491ECFB2F3
:20302C00002F82F8ED704BD12B4D05EB84052E78698836F07F0788461AD1F10911D24FF059
:20304C008054D4F8B801806901464046884704F5DC742068406B0146404688470228F8D17B
:20306C0021E000EB8800D0F80011002088471AE04FF08054D4F8B801006A01464046884770
:20308C00D4F8B801806A014640468847D4F8B801006B01464046884701210D4A0D4811604E
:2030AC0001688908FCD306F03F003F2801D0FFF7ABFF687800F03F003F2801D0FFF7A4FF4E
:2030CC00484602F077FFBDE8F883C046A40600202820086028200840286000002DE9F041EF
:2030EC00064602F06BFF2D4D8046A91991F8ED00421C002881F8ED204AD1294C04EB86048F
:20310C00277807F03F003F2801D0FFF7E7FF607800F03F003F2801D0FFF7E0FF668837F091
:20312C007F001AD1F80911D24FF08054D4F8B801406901463046884704F5DC742068406BEC
:20314C000146304688470128F8D121E005EB8605D5F80011012088471AE04FF08054D4F8C2
:20316C00B801C069014630468847D4F8B801406A014630468847D4F8B801C06A01463046AE
:20318C0088470121074A0848116001688908FCD3404602F00FFFBDE8F081C046A4060020EB
:2031AC0028600000282008602820084070B50D4629680646886B20F02000886323482C7DC4
:2031CC000168A14213D900EB8400736ED0F894108B420CD102F0F2FE1D4BD0331A68012154
:2031EC00A1408A431143196002F0E4FE2C7D706E2146012201F044FF706E297D002202F097
:20320C00B9F9706EA97D002202F0B4F9B078012806D006F1D0004FF0FF3102F0BBFE03E040
:20322C00296888690009FCD2706E297D102202F0A1F9A97D0020FF2902D0EA7DFF2A00D146
:20324C0018B1706E112202F095F970BDFC2D002000200240F0B520480127F84201D001F0FF
:20326C00B3FA204D204F214EBD4206D203CD0478A4003459401CA047F6E71D48002800D079
:20328C008047164D164FBD4202D210CDA047FAE7F0BD03251BE0416808300A1C2A400BD1FE
:2032AC001A1C2A40AB4305D0046804300C600431043BF9D1131C05D0047801300C700131F6
:2032CC00013BF9D1021C2A4001D0A84304300368002BE0D17047C046FFFFFFFF0000000064
:2032EC000000000070650000D06500002C65000059C50110002A4AD05FEA000C8B071CD1E0
:20330C00830722D1102A08D370B4103A78C978C0103AFBD270BC103238D0042A2CD3082A3C
:20332C0005D30C2A24BF08C908C008C908C008C908C092072AD0920F22E00B780370491C34
:20334C00401C521E22D08B07F7D1C30714D18307D8D0121F12D308C903801B0C4380001DF7
:20336C00121FF8D20AE008C903701B0A43701B0A83701B0AC370001D121FF4D2121D05D0B8
:20338C000B780370491C401C521EF9D1604670472DE9F843234D884606464FF0FF3105F193
:2033AC002400814602F0F6FD00200CE0FF2909D02A688A4204D905EB8101D1F894700FB1EA
:2033CC00002627E0401CB8F1000F03D018F82010FE29EBD10024346074600127B46011E0F1
:2033EC00FF280ED005EB80000B787268C0F8946007FA03F0104370600A680949304601F001
:20340C0025FE641CB8F1000F04D008EB84010878FE28E5D1484602F0B5FD3046BDE8F883D5
:20342C00007FC767FC2D0020B0B5456884682349607DA27DADF1180D40F000400090207DC4
:20344C000027FF2A41EA000001904FF0020002D0E27DFF2A00D13FB1E37DA07D194303918B
:20346C0040F0004002900420FE214DF8201005F158006946FFF78CFF6866002808BF381CF7
:20348C001AD0617D0F2202F075F8686E217D102202F070F8A17D3846FF2902D0E27DFF2AAA
:2034AC0000D140B1686E112202F064F8686EE17D122202F05FF8012006B0B0BD0000C0A092
:2034CC002DE9F8432020EFF3118780F31188214CA068012102F022FD4FF001094FF0000891
:2034EC0065692168A4F81C906A1A2168A4F81E80461B401A904227D387F3118840462D1875
:20350C00361A4846294602F005FDB042F7D92021EFF3118781F31188E18B012903D14046E4
:20352C00294602F0F7FCB0F1FF3F06D0A169801B814238BF081C291801E0A069411902F07C
:20354C00E5FCA4F820902560A4F81C8087F31188BDE8F883780100208B4208BF824204D974
:20356C000B1C021C002100207047002B08BF002A0BD10B1C021C00210020002B08BF002A68
:20358C001CBFC943C04300F040BCF0B51C4615460B46024600200021B4FA84F6202E04BFD4
:2035AC00B5FA85F62036B3FA83F7202F04BFB2FA82F72037F61BB6F1200727BF05FA07F40B
:2035CC0000257F42B4403EBF25FA07F73C43B540A34208BFAA4201D3521BA34140414941AF
:2035EC006D0845EAC4756408761EF1D5F0BD70472DE9F04107467868BE68044600F58470EB
:20360C0002F090F930681C4980690968C0F3C00008BB02F0D3FC194D8046287820B1022016
:20362C0001F05EFE00202870404602F0C3FC3168134D886B20F020008863286820F48070A7
:20364C002860606A216A091A21622369626A38469847BDE8F0814FF4FA70B0FBF1F10129AC
:20366C0098BF012104F58474204602F077FC204602F0C0FCBDE8F081A06200006530002028
:20368C00301000402DE9984302F098FC1F4CDFF87880814604F1E000007850B94446A0683E
:2036AC000146022088470746102001F0B1F92FB320E000F061FE002820460FD11449096841
:2036CC003222B2FBF1F101B9012100F13004204602F044FC204602F08DFC0FE044460022E6
:2036EC00A16880F8E020022088470746102001F08FF91FB1A068014603208847484602F0C5
:20370C0059FCBDE89883C04684620000A4060020A06200002DE9F04106467568B46802F052
:20372C004DFCA96A39B921688969090903D202F041FCBDE8F0810027AF6202F03BFCA17D09
:20374C003846FF2902D0E17DFF2900D118B128462146FFF72BFD2168886B20F0200088633B
:20376C000D49086820F48070086002F027FC0B4C8046207818B1022001F0B2FD2770404699
:20378C0002F018FC686A296A091A29622B696A6A30469847BDE8F0813010004065300020FC
:2037AC0030B51F4C8010ADF11C0D33D0401E2FD0401E2BD0401E02D0401E25D02DE008788D
:2037CC00E388251D0C22287004F16401ADF80C306846FFF78FFDBDF80000CDF81250002300
:2037EC00ADF80E0020788DF81030410804D2800813D30220012101E0012001468DF81100FD
:20380C0003A800F015FE08E0641D04E0E41C02E0A41C00E0641C0878207007B030BDC046E5
:20382C008805002070B50C46064602F0E5F8054601F09AFF3146002818BF05241FD1134A7C
:20384C00114812880068A242B8BF062417DB401C2246FFF74FFD0E4801220F490D4B0480D7
:20386C0008681A70401C0860204601F041F80C480A4A01781068002201F002FC00242846B2
:20388C0002F004FA204670BD50300020220900202009002011090020180900202C3000206E
:2038AC003409002080B5071CADF1500D04D101200DA901F045FD0DAF1848194902F0B4F950
:2038CC00002001F015FF3878012818BF022821D1684601F0A1FBF888FB68ADF80200B988E5
:2038EC0002933A7CADF800103878BB688DF80C200128019304D0022804BF7869089001E060
:20390C0078690A906846FEF799FE18B902F01AFA002000E0832014B080BDC046E923000059
:20392C00DD5300001CB5042002F058F8022818D0032816D016480068C0F38150032814BFA9
:20394C0041F288324FF47A721248144C016854342046B2FBF1F102F001FB204602F04AFB14
:20396C001CBD03200C4C009000214FF040521C23204600F099FF012000214FF40072092315
:20398C000090204600F090FF022001F0A9FC1CBDB43F0050A062000000A00C40A40600201A
:2039AC00002213460A46194671B510F0030F0BD0002A82BF00F8011BB2F1010210F0030F87
:2039CC00F6D1002A08BF71BD11F0FF0141EA0121042A18D341EA0141082A0FD30E46102A7F
:2039EC0008D30C460D46B2F10F0312F00F0272C0103BFCD812F0080F18BF42C012F0040F1B
:203A0C0018BF40F8041B12F0020F18BF20F8021B12F0010F18BF017071BD704738B51949BF
:203A2C001A4C00204822C1F8F30F94F8E200C1F8FF2F20B3012817D0022807D003281ED17C
:203A4C0051F8310C00F05EF80B2016E051F8315C2846FDF775FF40F2FF50A84202D8801CE0
:203A6C00A842F1D2082008E051F8310C00F054FC054800780028E7D0052084F8E400FEF799
:203A8C00F7F938BD39400C4092620000A406002038B544688568606E01F064FF296817481A
:203AAC008A6B1040886316480068C168286888476868FFF7A9FA04F1800002F023FA04F19A
:203ACC009C0002F01BFAA07818B904F1D00002F011FA607818B904F1EC0002F00BFA04F512
:203AEC00847002F003FA02F069FA0021217002F061FA04F16C0001F0E5FE38BD0DF8FFFF56
:203B0C00D001001038B51A4CA0F5C060D4F8B810C4F8D4000029B8BF49420028B8BF404240
:203B2C00814220DAB4F8BC00124D30214FF47F4208230090284600F0B7FEB4F8C000042141
:203B4C004FF4F80212230090284600F0ADFEB4F8D00020214FF440620A230090284600F091
:203B6C00A3FE012000E0002084F8D80038BDC046A406002000A00C402DE9F8438146EFF378
:203B8C001188202080F31188174D154C134F012605F11C000660A4F114000660F86A016A92
:203BAC0014208847D9F81000810C14BF000C04202060386802682321002090470948066009
:203BCC0054F8180C20F4C02040F4803044F8180C2E6088F31188BDE8F883C04684010010D4
:203BEC00182009408002244300002443034670B52020EFF3118580F3118818680143164894
:203C0C0000681960C418C01802F0C0F908BB02F001FA0646204602F065F90446A169E26907
:203C2C00184601F08FFE6061606960B1204602F055F901202074E06808B101F073FEA0683B
:203C4C00294602F047F985F31188304602F0D6F970BD85F3118870BDA862000070B504468B
:203C6C0001F0CAFE0646A06800688069400918D31448006802F0B8F800240E4D0C492868DC
:203C8C000C7070B100F00CFF0B4920B90888401E84B20C8000E00C8008482A680188204666
:203CAC009047074900200870304601F0EFFF70BDE4090020E0090020E6090020E809002081
:203CCC00E50900205C300020F8B5144C207890F00100207006D1154811490068086001F019
:203CEC00D1FD04E0FDF72BFE1148002101700D4D20782968074609B1884727780A4E307806
:203D0C0001F07EFFB84207D0307801F079FFC0B22968207001B18847F8BDC04667300020C1
:203D2C00140900202430002030090020180900201209002030B5401E4FF00004ADF12C0D94
:203D4C000AD0401E04D0401E20D1FEF791F81DE000F0F6FB044619E001A8214624220823DC
:203D6C0002F024F906940D4DADF8144009490794012201AB05F1780002F014F9064A234659
:203D8C002C2105F19C00009302F024F920460BB030BDC046A5410000293A0000A40600206F
:203DAC00B0B505460C46E01D872142B2552001F0F7FD2946071C08BF872025D008787A68AB
:203DCC00107048787A685070B1F801007A6800129070C8787A68D070B1F803007A68001255
:203DEC00107148797A685071B1F805007A68001290717868D1F807102246C01DFFF77AFAC0
:203E0C00384601F01BFF0020B0BD7047184A0B4680B501469068491E25D0491E21D0891F46
:203E2C0018D0083912D0303920D119460B78012B01D14F7827B90B78032B18BF022B15D1EF
:203E4C000B784978D170937020210DE0197869B9042109E0197800290CBF02214FF00051A7
:203E6C0002E0102100E00821FFF7C0FE80BDC04608020020164880B507683FB315498B68B4
:203E8C0003EA5300C00E21D2134A106880081DD2486880081AD21068096810F0050F4FEA6F
:203EAC00114101F0F00101F5E0710AD1B9420DD2190F38BF40F00100D90E38BF40F0040064
:203ECC0003E0B94202D920F00500106080BDC04628500940AC3F005000000940F8B5064617
:203EEC00B06801687568886B20F4FA6088631349086820F40070086002F060F8104C074661
:203F0C00207820B1022001F0EBF900202070384602F050F802F052F8A96B11B902F04AF87F
:203F2C00F8BD0021A96302F045F8686B296BEB68091A29636A6B30469847F8BD301000409C
:203F4C0064300020F8B5844640F6FF741CF8013B002210E0481B401E10F8015B7F1E01F864
:203F6C00015BF9D103E01CF8010B01F8010B521C5B08082AEADA5808F5D21CF8010B1CF8E5
:203F8C00015B05F00F07FF1CC5F30315122F45EA001508D11CF8016B300A24BF1CF8010BA8
:203FAC0060F3DF16BF19AC42D4D1F8BD10B5044642210E22552001F0F3FC002808BF872000
:203FCC0025D0217842681170617842685170B4F80110426809129170E1784268D170B4F865
:203FEC0003104268091211716179426851714368A179E21D997141681368C91D0B609288B8
:20400C008A80617B4268517301F018FE002010BD10B5044645210A22552001F0C1FC002860
:20402C0008BF872025D02178426811702188426809125170A17842689170618842680912AC
:20404C00D170217942681171A188426809125171A17942689171E18842680912D171217ACC
:20406C0042681172218942680912517201F0E6FD002010BDF8B506460C461546A01D82210E
:20408C0042B2352001F08CFC3146071C08BF872020D008787A68107048787A685070B1F86D
:2040AC0001007A6800129070C8787A68D07008797A68107188887A68001250717868891D6E
:2040CC002246801DFFF716F938462A46002301F067F90020F8BDFEE710B501F08DFC044625
:2040EC000E48007801F08CFD40B10D48007888B10D480C490068096888420BD100F04CFA16
:20410C000B4901220B48094B097800681A70002200F0B6FF204601F0B9FD10BD3009002008
:20412C0011090020140900201809002012090020340900202C3000202DE9F041054601F024
:20414C005BFC124C8046104B1149124A2768A8781E880968126800244011401E05D0401E81
:20416C0004D0401E18BF042407D13A46104646F010062A461E8001F039F8404601F086FDDE
:20418C002046BDE8F081C0460E0A0020443000203C300020543000201648144A144908B5BF
:2041AC00E4300078801E0A2807D8DFE800F01814100614100614100609C001F0EFFE11E0D3
:2041CC0010688008FCD250688008FCD20AE008688008FCD306E008688008FCD202E0106840
:2041EC008008FCD3FDF744FE08BDC04634600C4038600C40A40600200246F8B50846114633
:20420C004D68203821D0401E1CD0401E18BF6FF001001ED18C6801F0D1FE0E4E07463068D1
:20422C00016920688847B0F1FF3FF8D10024AC64686C401EE8642C653846AC6301F0BAFE90
:20424C002046F8BD0021084601E00121002085F82D10F8BDD00100102DE93041DDF8188061
:20426C00059C10460D4600F0D5FA1249C2B234399010CD800DD0401E06D0C01E0CD112F032
:20428C00030F09D1491D0DE012F0030F04D1891C08E012F0030F04D0002020808820BDE868
:2042AC003081491C012020800978454600202970BDE83081BC0500202DE9F041154C104621
:2042CC009846069EE18000F0A5FA8825C1B2FF208F100CD0BF1E10D111F0030F0DD1B8F14E
:2042EC00010F0AD130780025E07008200CE011F0030F08BFB8F1010F02D0FF2804D106E04F
:20430C003078002560702846A16801B188472846BDE8F08188050020134910B50A684BF2FB
:20432C00F5214843040AC2F38140012806D101F08FF900F01DFD604304EB90540C4901F10C
:20434C00E500007830B90948006820F07F402418640802E0002081F8E50006480460210C9C
:20436C0041600123836010BDB43F005010200940A40600203C600C4008B5012001F02EFB56
:20438C0001281DD00F4834210122002300F032FC002808BF002014D00B48006801F0BCF997
:2043AC0001F070FB0A4A93681168D060C01A074BA1EB91014343180C884228BF011C11606A
:2043CC00012008BD00A00C408000001040420F00F42F002098B5154B1B1D18680004070C1F
:2043EC0021D001F035F9104991F90720824205DD10F1800FB8BF6FF07F00C8718C88BC42C1
:20440C0010D80A68D3F8D40F801A801C1F2888BF1F203F1B4008C7404FF6FF70E719B8422E
:20442C0038BF071C8F8098BD1430002030100940B0B505460C46A01D892142B2552001F042
:20444C00AFFA2946071C08BF87201ED008787A68107008887A680012507088787A689070B1
:20446C0048887A680012D07008797A68107148797A6850717868D1F806102246801DFEF72B
:20448C0039FF384601F0DAFB0020B0BD1549096821280ADC212819D00C380FD00D380FD090
:2044AC00001F0FD0C01E0FD01AE0253810D0001F10D0401E10D0401E10D011E0086870476B
:2044CC004868704788687047C8687047086970474869704788697047C8697047086A704792
:2044EC0000207047F0010020B0B5054601F084FA0446284601F0D6F90746204601F0C6FBCC
:20450C00C7B1384600F0DCFF0C49086078B13988091D89B2FFF786F9B8784011012818BFD0
:20452C00032804D1044991F90000401E0870384601F076FCB0BDC0460C0A002030300020B8
:20454C0038B5134D95F8E100002410B91148007860B101F033FD95F8E310002906BF012114
:20456C0085F8E310012401F025FD0CB1002038BD022000F0CDFE0E20FEF7B0FD01F018F906
:20458C0001280EBF0120002085F8E20038BDC046A40600209262000070B501F02DFA064637
:2045AC000E480F4C0178207819B918B900F058FC207868B10B4D08490B482A88096800680E
:2045CC0001F017FCB0F1FF3F02D1002020702880304601F05BFB70BD50300020E40900202A
:2045EC00E5090020E80900205C300020012838B51ED1012001F0F2F901281BD001F05AFA89
:20460C000D4D0E480122322305F1E00100680A70B3FBF0F404B914463035284601F082F9C5
:20462C002846214601F09AFC284601F0E3FC01E000F0D8FC002038BDA4060020A06200004E
:20464C0038B5104C0E4D216800B991B9012816D1A9B10D48006801F099FC20B10B480068E5
:20466C0001F094FC58B92B461A88206842F0100202E02B46802208461A8001F083FC38BD7B
:20468C00120A00203C300020443000205430002010B50C46F8B141680122A24011421AD063
:2046AC00914341600C48002300EB8402C2F89430031903F140010978FF291ABF406850F850
:2046CC00211044F020410548FEF75CFB20464FF0FF3101F09FF910BDFC2D0020007FC7674E
:2046EC0070B540680C46054600F5847001F01AF90D486A7F0168287F8018AA69C01D80B24F
:20470C0044430A4805F584766043B0FBF2F008186330B0FBF1F1491C304601F01FFC3046F3
:20472C0001F068FC70BDC046A062000040420F007CB5114D04460E46600807D3B0B2002160
:20474C00009001220B46284600F0AEF8A00807D3B0B20090002102220123284600F0A4F86E
:20476C00E00807D3B0B2009000210C220223284600F09AF87CBDC04600A00C4000B5002114
:20478C0024220823ADF1240D684601F00FFC0B48006800224FF47A716B460692B1FBF0F043
:2047AC0081B241F288304843059005490548ADF81020433001F0F6FB09B000BDA062000072
:2047CC002D5D000009020020F8B506460F4D104F7388002417E0A20002EBC4029219516895
:2047EC009068D26852B9AF420BD00A7855F822200346491C08461946904701E0FEF77AFD14
:20480C007388641CA4B2A342E5DCF8BD2C65000038650000114A002132F80C3F984208BFA0
:20482C00880013D05388984204BF880040F001000CD09388984204BF880040F0020005D0AD
:20484C00D388984204D1880040F0030080B27047491C0529E0DBFF207047C046BC05002093
:20486C00104A1068C0F30F314BF69A10884207D111680B20B0EB117F14BF0020042070473D
:20488C002430884208BF01200BD04BF64130884208BF032005D0213888420CBF02204FF0A1
:2048AC00FF30704718130050B0B500EB4100102B04AF00F5007403D3103B00F50174120CFA
:2048CC003D889D4045EA024501F030FA002700B90127064A394610680028FCD025600120B0
:2048EC00106009B101F028FAB0BDC04600800C4070B5054601F080F80C4906460868FE2226
:20490C0002700C682946601C01F0E0F808496419AA1C607007480A800121017000F0A0FA97
:20492C00304601F0B3F9284670BDC04650300020E8090020E509002070B50E4A0B4D0A4ECB
:20494C0000240D4B2880121D348012681C7002B1904700F087FF0649084809780068012293
:20496C0000F08EFB70BDC0461E0900201C0900203409002024300020110900202C3000206C
:20498C0070B5104D95F90000002817DC01F034F806460B48006800F085FF0446304601F097
:2049AC0075F95CB1294691F90000401C0870204600F0CAFD10B1204601F032FA70BDC0460F
:2049CC00403000200C0A002070B50E480E49416000244470FDF79CF84FF08056D6F8D80176
:2049EC000A4D036801210A4628469847D6F8D801426801212846904700F09CF901F066FA9C
:204A0C00204670BD4C0A00205D5200000040034070B5104C0646204601F0DCF90025B0B9C8
:204A2C002046FBF727FD0446A06806420AD0E068226900210346304698470546012D08BFA8
:204A4C00012005D0204601F0E9F9041CECD1284670BDC046A406002070B50D46044601F020
:204A6C00ADFA6668A1682B468E4204D101F0A2FA4FF0FF3070BDE1682568491CB1FBF6F29F
:204A8C007243891A4B55A2686369E160521CA260934238BF626101F08DFAA06870BD704798
:204AAC000E4870B504680E4E61782578308805EB0125691D8142C8BF03200DDC281D81B20F
:204ACC00204601F003F864192179814203D000210420318070BD002070BDC04634300020D1
:204AEC00E60900201CB50121684600F0D5F99DF800400121684600F0CFF99DF8000004EB5B
:204B0C000024A0B200F0EEFF041C0BD0A01C012100F0C2F9E01C012100F0BEF9606821887C
:204B2C0000F0BAF920461CBD2DE9F04101F046F90D4D2B688046A3B105F19407002401262D
:204B4C0006FA04F018EA000F07D057F8240020B1026812B1214690472B68641CE4B29C4237
:204B6C00EED3BDE8F081C046FC2D00200C4885460C4885446F4607208743BD460A486F4617
:204B8C0007600A48002803D07946491D8E460047FEF760FB00F0D6FF01F094F9FEE7C04697
:204BAC00004B002000040000B40A0020455E0000B0B505460C46A01C042142B2552000F0BD
:204BCC00EFFE2946071C08BF872011D008787A68107008887A68001250707868D1F802101A
:204BEC002246801CFEF786FB384601F027F80020B0BD7047F8B51E4640181446102E02D387
:204C0C00103E801C240C054601F090F8002700B9012707483B460768002FFCD02D88012191
:204C2C0001600BB101F088F82C403441A0B2F8BD00800C40B0B50D46044601F0BFF9A7686C
:204C4C00294697B1226923689A5C0A7021696568A268491C521EB1FBF5F3A2606B43C91AAE
:204C6C00216101F0A7F9A068B0BD01F0A3F94FF0FF30B0BD38B504460D46042235204821CA
:204C8C0000F08EFE002808BF872012D02178426811702188426809125170A178426891705D
:204CAC006188426800230912D1702A4600F078FB002038BDF8B50E4D06AF10463C88E980AE
:204CCC00FFF7A8FD88260321C2B2FF20B1EBA20F06D102F00301022902D12C701046002698
:204CEC00FF2803D0EA680AB1214690473046F8BD88050020F8B506460D461446681C8121BF
:204D0C0042B2352000F04CFE3146071C08BF87200ED008787A6810707868491C2A46401C2B
:204D2C00FEF7E8FA38462246002300F039FB0020F8BDFEE700B500213C220823ADF13C0D63
:204D4C00684601F013F9084800F1B80107914FF43271089101210691044900236A4668301A
:204D6C0001F0ACF80FB000BD08020020511500000D4938B5091DD1F8EC3209681B3800FB77
:204D8C0000F409060A161906091604FB01F543F307214143C910604301EBA521424301EB30
:204DAC00A24000EB234038BDA0100050B0B504460D460C2001F038F80A4B1F682A462146C0
:204DCC00002808BF83200CD0816000218280016017B91F4603E017463A68002AFBD138604F
:204DEC000846B0BDF0090020F8B50D4E446885680F4608E0216B0870206B636B7F1E401C9F
:204E0C002063581C606347B106F10C000068016928688847B0F1FF3FECD13846F8BDC046CB
:204E2C00C4010010B0B504460D46681C432142B2552000F0B5FD2146071C08BF87200DD0C7
:204E4C0008787A6810707868D1F801102A46401CFEF750FA384600F0F1FE0020B0BD7047FE
:204E6C0038B500F0C9FD05460122002309490648064C0270064809680068238000F0AFFF26
:204E8C00284600F003FF38BDE4090020E60900205C3000203430002070B50C46064600F0B2
:204EAC00FFFBA04202DA00F0FBFB04460648074D01682888224609183046FEF71BFA28888A
:204ECC0021182046298070BD343000201E090020F8B50646756801F071F80A4C074620781B
:204EEC0020B1022000F0FCF900202070384601F061F8686B296BEB68091A29636A6B3046A2
:204F0C009847F8BD643000202DE9F0410F46044600F08EFF04F1280292E8600033462A46F8
:204F2C00FEF71AFB80460B4642462846314600F02DFE17B1303484E803004046BDE8F08185
:204F4C00F8B5446885680F1C11D00A4E3068216A826909782868904748B1206A636A7F1EB8
:204F6C0000F10100206203F101006062EED13846F8BDC046D001001070B5044604F1280095
:204F8C0090E80C000D460021284600F0FFFD04F1300292E860002D1846EB0106290C3004CC
:204FAC00014300F05DFA383484E8600070BD0000B0B50D460949441800F0B8FE002700B909
:204FCC000127074A394610680028FCD025600120106009B100F0B0FEB0BDC04600A00C4094
:204FEC0000800C4008B503200021FFF7A1FB012000F0F4FC18B10648006800F08DFB00F05E
:20500C0041FD044B083B586000F022FB186108BD80000010FC2F002010B5041C12D00A49BC
:20502C003422FEF767F904F1100000F07FFD002084F8250084F8260001212174617484F8DD
:20504C00270010BD082010BD3461000038B50B4B1C6802F0FF05AC4207D902F0FF0403EB58
:20506C008403D3F89430984201D0022038BD08461146FDF787FE002038BDC046FC2D0020CA
:20508C0080B51746094A13688B4205D902EB8102D2F89420904201D0022080BD002007B131
:2050AC000120034A5054002080BDC046FC2D00200020024010B504460C2000F0B5FE094B92
:2050CC001968002808BF83200BD000228460026011B9194603E019460B68002BFBD1086031
:2050EC00104610BDF40900201CB54FF61D40ADF80000012000F098FE0028CDF8020008BFEF
:20510C00872409D0012101706846FFF751FD0446DDF8020000F02EFD20461CBD10B50446F0
:20512C008B210322552000F03BFC002808BF87200DD0217842681170617842685170B4F8CF
:20514C00011042680912917000F078FD002010BD10B5044688210322552000F021FC002893
:20516C0008BF87200DD0217842681170617842685170B4F8011042680912917000F05EFD02
:20518C00002010BDF8B50B4E456884680F4606E005F14002C1B21046FFF75EFC7F1E47B156
:2051AC0006F10C000068016920688847B0F1FF3FEED1F8BDC4010010094910B500200A4C02
:2051CC0008600120C86114342060216844F8280C04480068016A14208847206810BDC046D3
:2051EC0000002443B00100101820094070B5064615460C460C2000F07AF901462A46304620
:20520C0021B9284600F0B6FC002070BD8A6000F095FE14B1204600F0B5FE012070BD10B5FD
:20522C00044646210322552000F0BAFB002808BF87200CD0217842681170218842680912CE
:20524C005170A1784268917000F0F8FC002010BD0A4A01465068ADF1080D08B90020506055
:20526C000846801E08D0801E06D001208DF800009DF800000028FBD102B070470802002028
:20528C000949020480B5120C41F8082CC0F3074041F8040C0120086004480768002FFCD068
:2052AC000020086080BDC04644600C4084088C4338B500F0A1FB05460848006800F0F2FA74
:2052CC000446284600F0E2FC34B1204600F03CF910B1204600F0A4FD38BDC0463830002091
:2052EC0010B5044600F06AFE084BE21892F8E810491EC9B282F8E81021B99A680121A14039
:20530C008A439A6000F056FE10BDC046A406002038B5044600F052FE084A02F108031D688D
:20532C000121A14012192943196092F8E810491C82F8E81000F03EFE38BDC046A406002004
:20534C00B0B50746002079B10F7067B1012F02D0022F08D0B0BD054A38CA091D38C10CCAF0
:20536C0081E80C00B0BD8420B0BDC0469061000038B504460D46042235204A2100F010FBCC
:20538C00002808BF87200AD0217842681170A1784268002351702A4600F002F8002038BDB7
:2053AC00F8B51F461546064600F08CFC074C294630466160FEF7C0FE00F08CFC381C1CBF5D
:2053CC002188018000F0D6FCF8BDC0461C30002038B50546094804680CE02888002100B14B
:2053EC000121A288114204D0A26812B1D5F8021090472468002CF0D138BDC046F00900201E
:20540C0010B500F003FE00F005FE032000F052FD06481030006830B1034C204600F0BCFC41
:20542C00204600F0BFFC10BDA32A0000A401002008B500F0C9FC012801D0FEF74CFE0748F6
:20544C0000F034FD00F0C6F900F02CFD00F026FD00F020FD00F01AFD08BDC0460D54000004
:20546C0010B50C4600F00EFB211AB1F1004F08D8011B091DC90F05D1001DA04288BF041CAE
:20548C0000E0041D0148046010BDC04618200940034610B51820ADF1200D009002AA074862
:2054AC000191002100F0EEFC041C04D002A900F0E3FB204600E0002008B010BD0062000099
:2054CC00B0B505462C88201D00F011F8071C0CD03C70288800127870A878B870E878F870C1
:2054EC0069682A88381DFDF705FF3846B0BD10B50446ADF1300D684600F0C0FC3CB1083478
:20550C0000206B462146024600F0B4FC08B9002002E00060446008300CB010BD0322B2EB15
:20552C00A00F0ED100F0030002280AD10548C01D006811F0030F01D100F028BC4021FEF738
:20554C0055BB70470902002010B5094982780423083902F01F0211F8084F944203D1496806
:20556C008847002010BD5B1EF5D1022010BDC046D42F0020094B10B51C688C4205D903EBD5
:20558C008103D3F89430984201D0022010BD0846114600F03FFA002010BDC046FC2D002048
:2055AC0008B5B0F1FF3F28BF002009D201B90549054B820002EBC0001A58D268C01890477F
:2055CC0008BDC046B86100004062000038B52020EFF3118580F31188064CA068002100F01D
:2055EC009DFC6169081AA169814238BF002085F3118838BD78010020034610B52020EFF367
:20560C00118480F31188187C022808D1184600F065FC002018749868214600F05BFC84F3C6
:20562C00118810BD1CB504464D210122352000F0B7F9002808BF872008D021784268002383
:20564C0011706A46FFF7ACFE9DF800001CBD00000748816841F31002064991F90010006830
:20566C00A0F5407041430811121A803210127047285009400C13005010B5084B1A60044C73
:20568C00CC60044A0A61FFF78BFF0349086010BD29250000693C00005C300020E009002070
:2056AC000648074A0749038812880888C01A101890FBF2F15143401A80B270471E090020AC
:2056CC00220900201C09002010B5044610460A46211C14BF0028022006D0C8608A600348EC
:2056EC000B6100F02DF8002010BDC046A4060020002108B501200A4600F040FC0449086030
:20570C0000200246014600F039FC0249086008BD583000206030002070B5054600F006FB78
:20572C00002400B90124054E30680028FCD0A847012030600CB100F0FFFA70BD00800C403D
:20574C0038B50D46044600F067FB00212A462346116059685160596801B921460A605A607E
:20576C0000F028FC38BD0000064808B5007800F051FA012118B10448007800B9002108467F
:20578C0008BDC04634090020120900200246074880B504230838083047681FB90270416095
:2057AC00002080BD5B1EF6D1012080BDD42F002006490868002818BF012005D1044B40205B
:2057CC00012218600020CA617047C04604800C402C500C40074808B51030006828B10348AA
:2057EC0000F0DAFA024800F0DDFA08BDF1580000B15B0000A4010020074810B5103000682D
:20580C0030B1044C204600F0C7FA204600F0CAFA10BDC046AB4A0000A4010020074908B580
:20582C00283090E80C000020FDF796FE002908BFB0F1FF3F88BF4FF0FF3008BD907E000081
:20584C0010B5044684210022352000F0A9F8002808BF872004D022460023FFF7A1FD0020D7
:20586C0010BD000010B5064C2078012807D10220FFF736FD0320FFF733FD0020207010BD8E
:20588C001009002010B5064C207838B90220FFF73FFD0320FFF73CFD0120207010BDC046F9
:2058AC001009002010B5044600F070FB002818BF002006D1204600F0D9FA846800F05AF9EB
:2058CC00204610BD38B5054600F078FB04460448294600F0C9F8204600F06CFB38BDC04680
:2058EC00A406002010B5064C206900F0BBFA0146A06800B9E160A068401CA06010BDC0460D
:20590C00A4010020054808B54168054801220838026048698969884708BDC046E4010020AF
:20592C000C200940002181820449C0684969814203D10348006800F05DBB704778010020F9
:20594C00A4620000034610460A4619460B6818400B6813409A4208BF104310B10A68824368
:20596C000A60704710B5044607E090FAA0F0B0FA80F0C1B22046FEF78BFE60680028F4D1C4
:20598C0010BD02294FF0000204D0012808BF4FF47A7203E0012808BF40F2EE2210467047AD
:2059AC0070B5044616460D46B0B200F09BF82A462146B3B210B103808170C27070BD000008
:2059CC000146881107D1012905D10348083000680121FEF70BB9704708020020042807BF6A
:2059EC004FF0C0421D234FF080521C2301483421FFF700B900A00C4038B500F00BFB054663
:205A0C0000F0DCFAA9B280B261F31F4460F30F04204638BD002948BF0021044A02EB8000A3
:205A2C00026861F3050202607047C0460010084003480168034801600348603000F0BEB87D
:205A4C00E0200240E0200260FC2D002008B5552044210022FFF7A4FF002808BF872002D093
:205A6C0000F0ECF8002008BD0A681AB94A6842600A6801E04B685360496801B901460A60F3
:205A8C007047000004480168436802688A42FAD1080440EA13407047082009400448843829
:205AAC000068C0F302400428C8BF4FF0FF3070471813005008B503200121FEF739FEFFF706
:205ACC00E1FF0149086008BDFC2F0020002239B10346084613F8011B401E81EA0202F9D1B7
:205AEC001046704710B5044604F10800FFF7FFFC18B1048000F10801416010BD044908B5D1
:205B0C0091F8E60018B1D1F80C0100B1804708BDA406002040680021017002480170024825
:205B2C00017070476430002065300020044910B51CC91CC01CC91CC00EC980E80E0010BD1A
:205B4C00B86100000449B1F1FF3F07BF0020011C0868091DFEF738BFFFFFFFFF012814BF76
:205B6C00002140F2FF71024A002011607047C0460000046048B150F8081C50F8043C421A0F
:205B8C000020D218083A00F069B9704730B502FB01F403FB00444FF00005E2FB00542146EF
:205BAC00284630BD04498868401E886003D10869C96800F04FB97047A40100202022EFF3ED
:205BCC00118382F31188426A1143416283F3118800F0C0B910B50446FFF70EFE032000F0D8
:205BEC0069F9204600F06EF910BD0000034A1168506813688B42FAD17047C04608200940EE
:205C0C00014603480068C84000F001007047C046C0200240014603480068C84000F00100B3
:205C2C007047C04680200240024B1860024A11607047C046080A0020040A002010B504460B
:205C4C0000F040F82046FEF777FA00F093F810BD022803D102480021343801707047C046F9
:205C6C00BC05002008B500F0F1F80248006800F071F908BD8401002002460348002100680F
:205C8C001160801800F0DEB8A862000010B50446A0B200F08FF9200C00F0B0F910BD016093
:205CAC0042600021816001614161521EC260704700B50921ADF1240D684600F0BFF809B02B
:205CCC0000BD0000024800684FF0FF3100F062B958300020024800684FF0FF3100F05AB903
:205CEC0060300020042808B502D11046FAF7A0F9002008BD006801092CBF042000F00300F3
:205D0C007047D0F80320C31D08461946FDF7F2BA08B500F08DF8000C0904084308BD00004D
:205D2C0001490C20FDF73CBD09020020EFF3108072B6704700207047EFF3108062B6704760
:205D4C000020704701491520FFF720BDED05000000281ABF01600020022070470148083040
:205D6C0000687047A40600200149ED31085C7047A40600200148006800F004B958300020DB
:205D8C000148006800F0FEB86030002001484330FFF7C8BD090200200149091F08607047FD
:205DAC00480A0020014908607047C046480A0020D0F8032008460021FDF7F6BD0148806852
:205DCC007047C046C80100200148C0887047C046F00100200168002001B90120704708B5DA
:205DEC0003681B69984708BD08B501688969884708BD08B50368DB69984708BD4068EC3084
:205E0C0000F0C0B84068D03000F0BCB84FF0FF3070474FF0FF30704700F0D0B80068704721
:205E2C00FFF7A8BEFEF7C2BFFFF761BB00207047FFF7DCBE808A7047FCF72CBADFF800F0AA
:205E4C000DC30110DFF800F0F5B80110DFF800F067BE0110DFF800F04DC20110DFF800F025
:205E6C0001C80110DFF800F049C20110DFF800F0A9C10110DFF800F089C40110DFF800F02B
:205E8C0041C80110DFF800F005C40110DFF800F009C30110DFF800F03DC20110DFF800F0F9
:205EAC008DC20110DFF800F095B70110DFF800F081C60110DFF800F045C00110DFF800F08F
:205ECC0025B10110DFF800F0D1C70110DFF800F055C00110DFF800F0A5B90110DFF800F075
:205EEC0021C10110DFF800F0D5C20110DFF800F0B9C20110DFF800F0E1C20110DFF800F09F
:205F0C00E9C20110DFF800F061C20110DFF800F0BDBE0110DFF800F00DA80110DFF800F017
:205F2C0095C00110DFF800F0BDC20110DFF800F019A70110DFF800F015B60110DFF800F096
:205F4C00B5C10110DFF800F0E5C10110DFF800F021BA0110DFF800F021B30110DFF800F00A
:205F6C00C1C20110DFF800F019AE0110DFF800F0D9C10110DFF800F021B90110DFF800F0F7
:205F8C00ADB50110DFF800F041AC0110DFF800F013C10110DFF800F0CDA00110DFF800F005
:205FAC0099C80110DFF800F079B50110DFF800F085C10110DFF800F019C20110DFF800F0C5
:205FCC0049C10110DFF800F085B00110DFF800F0CDC10110DFF800F029AF0110DFF800F0B0
:205FEC003DC10110DFF800F009B70110DFF800F0C1C10110DFF800F0E3BF0110DFF800F053
:1C600C0049BA0110DFF800F0E1B50110DFF800F0D5C00110DFF800F0F5C00110FC
:206028008F3F00008F3F01008F3F02008F3F0300903F00018F3F0101903F0002903F0003D7
:206048008F3F01048F3F00058F1208048F3F00048F3F0006513F00007F3F01003F3F04006E
:206068003F3F02003F3F01007F3F02007B756E6B6E6F776E2D696E7374616E63652D6E6150
:206088006D657D007B656D7074792D696E7374616E63652D6E616D657D00C0467B73746169
:2060A8007469632D696E7374616E63652D6E616D657D00C000000000080000000000000003
:2060C8002000000040000000600000000000000006000000020000008600000082000000E8
:2060E800000000000800000010000000180000002000000006088080070880800D2007C037
:206108000E2007C01400C080034000800200C08009400080084000800A4000801708C0806F
:206128000C2000C01908C080FE00000000041202FFFFFFFFFFFFFFFFFF00000000000000FD
:20614800000000000000000000000000000000000000000000000000000000000000000037
:206168009D3A000005420000215B0000E51C000081280000195E0000E93E0000AD2B00005D
:206188001F5E00002137000000041202FFFFFFFFFFFFFFFF0000000000C201000004120237
:2061A800FFFFFFFFFFFFFFFF0000000000350C0000000000FFFFFFFFFFFFFFFF00000000A6
:2061C800000000000101010100C2010003000000000000007FC80110C9BC011051B20110EB
:2061E80037C20110BDAD0110C1B1011071BA011069BB011021C00110FFFFFFFF840A002082
:20620800040000000000000000000000140000005862000018000000001000400600000036
:2062280015000000FF000000000000000203FFFF000000000000000068610000D02C00205A
:206248002062000000000000000000000000000018000000000000000000000068620000D2
:2062680008000000000000000100000000000000000000000000010000000000000000000C
:20628800412F0000413D00000101010045B5011099A6011019B801100A000000380900205D
:0862A80004000000095B000086
:2062B00000F7030400000602010606FFFF0D000300000B09FF4343323635302053FF415044
:2062D000051206005000D3020A0277009FCA060238E0DD09AB002006BF56EE06B00A3F1097
:2062F00017E90A073F0008B1FD08B002010054024001FF04C40370080B402903FF0555C65E
:2063100005701046203205F0DF0D7CFA0EB1C80770024000003BC007FF01471FCA01152051
:206330000073008555EF01695BFF0000F9450000395E1E5A33B4070020003103F95BE6760E
:206350002380D02A23730BC20117216C06FF03013F06C5A76073715C0A1721582870017586
:20637000027D02F5402B010D3A3F01005C080020003101BF02A97801B000318000348800EE
:206390003490AA0034980034A00034A80034B0160034CD346AF7056BA0328D02F1526D11E1
:2063B000E008300031E80034F0003425F8003400363136700800347050FDC06E1E20008001
:2063D0000008C0EB80FE7220FF00349C0100B12000311BF11BA9FF4B71FB115359007481E0
:2063F0000370147602CC3430C50876A0D036753E1000F14368FF6172616374657269BF739A
:206410007469632031010D32EA021D33032D34043D3500F091FF07A17D850D70F10BE17E83
:2064300087F2E60CD0C0460EF70F97011100A711008847F00082990085AAEA0115BB01A52C
:20645000CC4A30A32A00F90000312CC1273A00005454443000315C00346400346C00345537
:206470007400347C00348400348C0034559400349C0034A40034AC00347C881930B1F3FFA7
:20649000F4FFF5198000FFF0007D000000CA0A0020B8003059BC007000F1004B00700400EE
:2064B000927F20010100000C2F0174000044FFF000F30100000700B9E0080020EC01A80263
:2064D00052C00A0133340100052000313C0034FFF0009D0000016CDC02007200C064EF08FD
:2064F00000200300C43D54001F00E15B0000FFF000BD000005080020B00030017801000086
:2065100031002938090020003100FFF0007B0100000F0080080020016100FFF0513F00007C
:206530000F5D0000BD5D0000001D000001080020FFF00000000000000200000098250000D1
:20655000000F08000000FFF00001000000FFF00001000004FFF00001000004FFF00000004D
:20657000B0620000080200209864000044010020C064000000010020E1640000A40100201F
:2065900000650000780100201C650000C801002038650000E401002048650000D00A00203A
:2065B000506500000002002058650000EC0100205F650000F001002066650000F801002071
:020000040001F9
:20FFA80000008001100082FFFDFF58003AFFBFF3FFFFFFFFFFFFFFFFFFFFFFFFFFFFFFFFF8
:20FFC800FFFFFFFFFFFFFFFFFFFFFFFFFFFFFFFFFFFFFF00FFFFFFFF00FFFFFFC500C5FFAA
:18FFE800000000FF00000000FFFFFFFFFFFFFFFFFFFFFFFFFFFFFFFF12
:00000001FF
