:20000000983D0020A993000001CA011001CA011001CA011001CA011001CA011001CA011087
:1C00200001CA011001CA011001CA011001CA011001CA011001CA01103FCA011082
:20003C002DE9F04791460AF0F1FF82462C4C2B48103C811CA388B1F80080B9F1000F2BD0F2
:20005C004E469919884538BFA8EB03064BB904F110073978FE2910D1F518791C721E6D1E58
:20007C0005E004F1100704F1100132469D19C068C01806F05DFFA8B2A0803846002132465C
:20009C0007F0D8FCB0B2484506D00020E268207012B1E18840469047A068816809688969DD
:2000BC00490913D3A17889B100252570607878B9E06868B109F0E2F810B9A088401E85B21C
:2000DC00A580E268E1882846904701E00BF07AF950460BF0B1F9BDE8F087C046F01100201A
:0400FC00140F0020BD
:200100003C000000000000000000000034010000000000000000000001000000000000006D
:1C01200000000000000000000000000001000000000000000800000000000000BA
:20013C00340000000000000000000000680100000000000000000000010000000000000005
:14015C00010000000000000000000000080000000000000086
:2001700030000000000000000000000098010000040000000000000001000000FFFFFFFFA5
:10019000FF00000001000000080000000000000057
:2001A0002C0000000000000000000000C4010000040000000000000001000000FFFFFFFF4D
:0C01C000FFFFFFFF08000000000000002F
:2001CC0034050000E401000099A1011095A70110A5C2011009B2011045B80110000000000B
:0801EC00000000002F000000DC
:2001F400280000000000000000000000140200000000000000000000FFFFFFFF00000000B1
:080214000800000000000000DA
:20021C00300500003002000069C201106DC101101FC2011095BA011000000000000000008E
:04023C002D00000091
:20024000300500005402000075C20110A9B601109DBF011049B601100000000000000000DE
:040260002E0000006C
:200264002400000000000000000000008002000000000000000000000000000008000000CC
:040284000000000076
:20028800240000000000000000000000A40200000000000000000000000000000800000084
:0402A8000000000052
:2002AC00240000000000000000000000C8020000000000000100000000000000080000003B
:0402CC00000000002E
:2002D0000000000048140020040000000000000000000000200000007001000030000000CD
:2002F0001C020000501400200400000000000000000000000C0000003004000018000000F0
:20031000400200005814002004000000000000000000000024000000480400001800000073
:20033000000000006014002004000000000000000000000010000000A00100002C00000038
:20035000CC0100006814002004000000000000000000000020000000640200002400000076
:20037000FFFFFFFF70140020040000000000000000000000280000008802000024000000F3
:20039000FFFFFFFF80140020040000000000000000000000580000003C01000034000000D0
:2003B000FFFFFFFF88140020040000000000000000000000100000006004000018000000E5
:2003D000FFFFFFFF901400200400000000000000000000001C000000AC020000240000005B
:2003F000FFFFFFFF9814002004000000000000000000000038000000F401000028000000CC
:20041000FFFFFFFFA014002004000000000000000000000054000000000100003C00000067
:1804300018000000000000000000000040040000080000000000000050
:1804480018000000000000000000000058040000080000000000000020
:18046000180000000000000000000000700400000800000000000000F0
:080478000100000064C3000054
:040480000BF04CBA77
:040484000100000073
:0404880000000E0062
:04048C0000000F005D
:040490003200000036
:040494000100000063
:04049800E813002045
:04049C00000200005A
:0404A0000000000058
:0404A40001CA011078
:0404A8000000000050
:0404AC00000000004C
:0404B0000800000040
:0404B4000000230021
:0404B8007812002096
:0404BC00010000003B
:0404C0000014002004
:0404C400080000002C
:0404C8000000000030
:0404CC00000000002C
:0404D0000000000028
:0404D4000000000024
:0404D8000000000020
:0404DC00010000001B
:0404E00010130020D5
:0404E400060000000E
:0404E800010000000F
:0404EC0010110020CB
:0404F0000000000008
:0404F4000000000004
:0404F80000020000FE
:0404FC0000000000FC
:02050000704742
:020502002900CE
:020504000100F4
:020506002500CE
:020508002D00C4
:02050A002E00C1
:02050C002F00BE
:02050E000100EA
:0105100001E9
:080514000300000034C30000E5
:08051C000000000000000000D7
:0405240000000100D2
:0405280000000300CC
:04052C0087C401106F
:04053000380500008A
:040534003805000086
:0405380000000000BF
:04053C00900000002B
:040540009000000027
:0405440000000000B3
:04054800001400207B
:04054C008BB400006C
:040550002000000087
:04055400C8C2000019
:0405580020C20000BD
:04055C000DC30110BA
:040560000F920000F6
:04056400FF9A0000FA
:0405680099C801101D
:04056C009BC8011017
:040570000000000087
:04057400D7C10000EB
:040578004CC0000073
:04057C0064C0000057
:0405800034C0000083
:0205840008006D
:0205860009006A
:02058800010070
:02058A0000006F
:01058C00016D
:040590000000000067
:040594000000000063
:04059800000000005F
:04059C00000000005B
:0405A00025B9000079
:0405A400199C00009E
:0405A80031AB000073
:0405AC00A5A0000006
:0405B000899C000022
:0405B40005A5000099
:0405B8000D7D0000B5
:0405BC0037B600004E
:0405C000BD870000F3
:0405C40011C8011049
:0405C80021C8011035
:0405CC000800000023
:0405D0002400000003
:0405D400180000000B
:0405D80028000000F7
:0405DC0020000000FB
:0405E0003C000000DB
:0405E4000C00000007
:0405E80034000000DB
:2005EC002DE9F04F0E4605460027022E1670ADF1140D039261D169782878DFF8A0C242F6A6
:20060C00081400EB0120844217DBDFF89CE2DFF89C82B0F5245F20DAB0F5C0504BD0401E54
:20062C0046D0A0F6FF70002840D0A749401E3BD0401E36D0401E32D03FE0A949B0F5285010
:20064C0032D0401E2BD0A949401E2DD0401E26D0401E0DD0401E09D02FE0A0F52450DFE841
:20066C0000F01B191714120F0D0B09C0674623E0674622E0674610E0674613E0674618E0DC
:20068C0077460C3719E0774617E077460A3714E0474611E0474610E0774608370DE00F4676
:2006AC000AE07746BF1D08E00F4606E0AD4F04E077463F1D01E07746BF1C002F40F08882AD
:2006CC00DFF8A4B2DFF8A482022E40F02F816978287800EB012042F6222181422CDB81423F
:2006EC0000F0C180A1F10902824217DB824200F0C98041F60201401A14283DD941F204113F
:20070C00401A00F0CD80B0F5807000F0C480401E00F0BE80113800F0B88054E0891F401A3A
:20072C0000F0AD80401E00F0A780401E00F0A180C01E00F09B8046E04FF6F172824211DB45
:20074C0082424AD00F31401A08282CD918380C2830D9123848D0401E43D04DF29451401A02
:20076C003DD030E0521C801A35D0401E31D0401E2DD0401E29D026E0DFE810F0D300D100C1
:20078C00CE00CB00C800C500C200BF00BD00BA002500B400AE00AB00A800A300A0009D0075
:2007AC00840025009A00DFE800F05B5855524F4C494643C0DFE800F0393633302D2A27079E
:2007CC0024211E071BC00027ADE05F4699E05F465FE05F4660E05F469FE05F46A2E05F463D
:2007EC00A1E0474654379EE0474652379BE047464E3798E047464C3795E04746123792E0EE
:20080C00474610378FE0474646378CE04746423789E04746403786E047463E3783E0474648
:20082C003C3780E047463A377DE0474630377AE04746263777E04746243774E047462237CD
:20084C0071E047462E376EE047462C376BE047460E3768E04746363765E04746383762E029
:20086C00474648375FE0474634375CE047461C3759E047461A3756E04746183753E0474624
:20088C00163750E047464A374DE047460C374AE04746083747E04746BF1D44E050C1000009
:2008AC0047461E373FE0C0463AC1000036C100004746503737E04746443734E047463237F6
:2008CC0031E0474660372EE032C1000047462A3729E04746283726E047465E3723E0C046C2
:2008EC0048C10000474620371DE0C0464CC1000047465C3717E0974F15E04746143712E033
:20090C0047460A370FE047465A370CE04746583709E04746563706E047463F1D03E04746A6
:20092C0001E04746BF1C002F40F05281DFF858A2DFF85892022E4FF0000719D0102E50D1E0
:20094C0008F2FE3029460AF0FFF838B94046294600F20E400AF0F8F8002842D0687B297B32
:20096C0008E0C04630C1000012BB0000B0BA000068782978894A01EB00214FF6CB60091A61
:20098C009548092903D9A1F2251048B106E0DFE801F0201D1A181614110F0C09DFB91DE09E
:2009AC005F4618E04F46703715E05746503712E0574610E0074630370DE007460BE0174684
:2009CC0005E0174607E00746203704E00746103701E057466037039902200870002F40F01C
:2009EC00F780022E4FF000071DD0102E40F0DD8008F2FE3029460AF0A7F888B944462946DC
:200A0C0004F20E400AF0A0F850B904F16E01284610220AF051F804F16E0800B94746C3E050
:200A2C00697B287B01E069782878DFF8B0B100EB012054281DDCDFF8ACE1DFF8ACC14C28EC
:200A4C003EDA401E00F0AC806F49001F00F0A380C01E00F09D80DFF89CB1DFF89C81674C58
:200A6C00674B684A401F1C2812D92238082820D92EE04FF6F171401A2DD05949401E00F0F9
:200A8C008A80401E7DD0401E56D0401E52D01FE0DFE800F0777573716E6B69671E1E1E1EEA
:200AAC0064621E5C5A58565452504E4A4C4A1E4846C0DFE800F033310D2F2D2A282624C072
:200ACC004C38DFE800F01A05181613110F0D0BC0002F66D168E047467E3762E04F4660E070
:200AEC00774646E077465CE067463FE06746703757E067462BE067464BE067462FE06746BE
:200B0C004FE04F4645E04F4629E04F46303748E04F462BE04F462CE0344F2AE057461EE0B5
:200B2C00324F3EE0324F24E0314F3AE0574620E06746EBE75F461CE05F4632E0474618E0F2
:200B4C0047462EE0274614E027462AE07746603727E0C046DCC2000077461AE0774640372C
:200B6C001FE07746D2E7574600E07746203718E01F46103715E01F4613E01746F9E71746D8
:200B8C000FE00F46F5E7C0467EBB0000CEBD00005F46503705E00F4603E0C046EEBB000067
:200BAC001A4F03981021017097B90820ADF8000001960424ADF80240684609F035FB38B9F8
:200BCC000298044620B12946324606F0B9F92746384605B0BDE8F08F0EBC00005EBB00001E
:200BEC003EBB0000BEBC00002EBE0000AEBD00008EBD00006EBD00004EBD00002EBD0000B3
:200C0C009EBC00007EBC00005EBC00004EBC00002DE9F04F0120ADF1240DADF80A004FF0DD
:200C2C000808ADF8088002A809F0FEFA00263546D94C8DF81C509DF80C006070A6700498F6
:200C4C00E0614FF6FF706082404609F09FFF071C0CD0012112220AF0E1FC09F0A7FF07A919
:200C6C000123D64A0091394608F0CEFE9DF81C000121207004F1A80009F072F904F1CC002B
:200C8C00022109F06DF904F1F000042109F068F9042031461022E07004F1480006F0D2FE42
:200CAC0004F158003146102206F0CCFE2562267266720720E67204F148021021A072022058
:200CCC0009F068F904F158020320102109F062F9042004F12002014609F05CF919E0A078D6
:200CEC00B4F84050B4F84230B4F84420B4F8461006280ED1ADF80A50ADF80C30ADF80E20BC
:200D0C00C748ADF810100AF001FE012002A906F09BFDE069C74A31464FF0FF3305F00EFB60
:200D2C005FEA000A00F0E08130460690ADF808800927ADF80A7002A809F076FA0499089132
:200D4C000028069140F0D081BDF80C00102840F0BF8160789DF80E10884240F0B981089D7A
:200D6C0028884FF6FF71814200F0AA812F78A23F00F08F812E3F40F0AB81A878B146002894
:200D8C0000F05A81801E00F03081401E012840F20581801E00F0B880401E7FD0401E60D0FD
:200DAC00083800F06681801E40F0698194F83E70A888052FADF808004BD001208DF812003A
:200DCC0097480AF0A3FD94F83E00012820D004281ED003280DD002280BD00698C188ADF8F8
:200DEC000A100189ADF80C104189ADF80E1081892BE0B4F84000B4F84270ADF80A00B4F83B
:200E0C004450ADF80C70B4F84610ADF80E501CE0B4F84000E9888842D8BF081CADF80A007F
:200E2C002989B4F842008842D8BF081CADF80C006989B4F844008842D8BF081CADF80E00B6
:200E4C00A989B4F84600884200DC0846ADF8100001E08DF81260AF4A02A8122109F036F9E3
:200E6C000DE1AD480AF052FD6878002840F00781E888A0822889E0826889208368480AF097
:200E8C0043FB002840F0FB80A76A002F00F0F7803B68A08AE18A228B9847F0E0B5F80490B9
:200EAC000A2009F073FE071C0AD0012115220AF0B5FBA7F8089009F079FE394609F0C0FBB8
:200ECC00B3483146062206F0BDFDA682E6822683A879607352480AF019FD8F480AF016FD01
:200EEC004FF001094FF6FF70677960824FB9A879082814BF04200520A07048460AF00CFB13
:200F0C00BDE00320A070BAE0687800283DD1A049281D02680A60808888800627A7706889FE
:200F2C006082E889A082288AE082688A2083E878207394F83E00012818BF022808D11F2088
:200F4C0008F0DCFB4FF47A714143354808F00AFE95F803B0B5F80A90142009F017FE071C9B
:200F6C0000F09080012114220AF058FB87F808B02D1DFD60A7F810900420B87409F016FE46
:200F8C007C4A394608F022FD7CE0687831286DD12671042023E0C046B00500206878002875
:200FAC0064D1A878218AA278032813D02079677931B9012814BF6671267107E01BB6000078
:200FCC00074303D06E4808F0CDFDA278072AE0D1062004E0062A06D0207910B90320A070CF
:200FEC0050E00220FBE70720F9E7687800283DD1EF78A078E179AFB9022818D0072816D02C
:20100C00062802D16179012911D103280FD05C480AF07AFA58B901200AF07EFA07E0C04630
:20102C007C0600205B4A484607F014FE68706878E0B924E0070000806878B8B9514A0220DC
:20104C00102108F0C1FF504A0320102108F0BCFF5148ED1CAF888780296801604F4A01236B
:20106C001846A179A37007F0F5FD58B184F8028008E0A888404B0521102208F08FFDB9F1C0
:20108C00010F25D1606A18B3016809B3A07888471EE0687913281BD12889012808D1A07BC9
:2010AC00022805D11C480AF031FC07F0ABFD0FE0052008F023FB0146174808F053FD07E0FB
:2010CC006888C00B04D3314A0420014608F07CFF069848B10320ADF80A00ADF80880089FDC
:2010EC00039702A809F0A0F8607921795FEA5A022BD3014329D088B92949207A8DF80800E2
:20110C00677A8DF809700A680DF10A052A608988A98006E09FB80000A006002003208DF8F6
:20112C000800A07AE77A154A8DF8100006218DF8117002A808F058F938B1606A84F802805B
:20114C0018B1016809B1404688475FEA9A0003D31449304606F078FB5FEADA00FFF4D9ADB1
:20116C00A07B401E3FF4BBAD401E7FF4D2AD07F049FDCEE5FFB50000C9B80000B7B800006B
:20118C0058060020F805002008060020D0050020E805002037060020DC05002018060020DC
:2011AC00E2050020EE0500202DE9F04FD24D05F13400ADF13C0D09F0C7F81720A86340F258
:2011CC005A26AE86A6F14807EF860C20E86302F0A5F90820ADF808004FF00108ADF80A80A1
:2011EC0002A809F021F89DF80C0028700498C34A6860002002EBC0014C6824B1401CC0B258
:20120C000428F7DB03E015200870DC4D4D604046102108F027FFB84818300AF0CEF9B64981
:20122C0088601F20062108F05FFD0425502400208DF82F50A0238DF82E008246ADF81E40FE
:20124C004146ADF820300DF12E02ADF81CA04FF47A75ADF822A006F1AB00ADF8245001F032
:20126C00CFFA06F1AC00022107AA01F0C9FAD04C4FF44270092104F124094A4601F0C0FAD6
:20128C0004F1140B06F1AD0008215A4601F0B8FAA9F110094FF4447041460DF12F0201F0CD
:2012AC00AFFA07F1FF0002210DF11E0201F0A8FA06F1B800022108AA01F0A2FA06F1B900ED
:2012CC0002210DF1220201F09BFA4FF44570022109AA01F095FA082009F0A8FC0BF1240103
:2012EC00486030B108224F460A70796841603A6802600620A02108F0F7FC0720A02108F0E8
:20130C00F3FC0820A02108F0EFFC0920A02108F0EBFC8DF830808DF8328003278DF833806F
:20132C0021268DF8348004F110008DF83170C3498DF835600DF13102086040F2034041463B
:20134C0008F0D8FB40F2064041460DF1320208F0D1FB4FF4806041460CAA08F0CBFB40F271
:20136C000D4041460DF1330208F0C4FB40F2074041460DF1350208F0BDFB4FF48360414611
:20138C000DAA08F0B7FB0C2009F000FC071C0AD0414604220AF042F91C34BC6009F006FC79
:2013AC00394609F04DF9A64C84F800A004F114000AF003F9E06004F120000AF0FEF8206190
:2013CC004D4806780A2009F0E1FB071C0CD0022112220AF023F9304609F001FB387209F075
:2013EC00E5FB394609F02CF90220102108F03AFE944A5046152109F0BBFF032008F0FEFD6E
:20140C00042008F0FBFD9048904A132108F094F909F01CFB3848564641465246534680F8E5
:20142C000CA05520009607F07DFDDFF8CC8008F124083148406851464FF040424FF0FF3346
:20144C0004F07CFF504606900827ADF808700926ADF80A6002A808F0E7FEDDF81090002837
:20146C00CDF8189062D1BDF80C00102851D122489DF80E10007888424BD14D46287891382E
:20148C003ED0401E34D01E3843D128791E2815D07F2827D168882F898DF8260051460422EB
:2014AC000DF126038DF8287000128DF8270038128DF82900202006F085F913E0688800F09F
:2014CC00FF0100F47F404018ADF8090068780DF1090702AA022389218DF808005520009745
:2014EC0007F020FD297905F1080009F0DBFD10E068780E280AD00CE0080200202010002015
:20150C00484647780E3F02D0F13F02D1484600F0A3FE069850B10820ADF80800CDF80C905C
:20152C000327ADF80A7002A808F07EFE484880680AF0B4FA00287FF47CAF4548806809F0E4
:20154C008BFD051CF2D02878401E70D0401E31D00E386FD168688446E14699F8030081110A
:20156C004FEAA01E03291CD0821158F82270C7B1374A89180F7D514604E0C04615A400007B
:20158C00491CC9B28F420CDD08EB8E031E68CA00965B8642F4D1186880184168604688471D
:2015AC0002E0484608F04EFA48460AF0ABF941E05C110020687894F82D7001283AD1A3684D
:2015CC003846123803D0801F15D0E63832D1ABB187208DF82A008E278DF82BA0514603224C
:2015EC000DF12A038DF82C704FF4004006F0EAF809F02CFAA36853B994F82D700097606B77
:20160C00E16BE28D238F05F083F9E06B0CE0587900905969DA88D8681B8A05F079F9A068D0
:20162C0080F804A0A068406909F030FD02E0687800F088FF284609F059FD77E7D80500205A
:20164C0034120020E4C10000FC0B0020E0C20000080200202DE9F84F8046DC480122A0F185
:20166C0030010A60D6490F68002FFCD0D64CD54AC02704F1040B1760DBF80010890804D245
:20168C002168090C41F0F00100E07221E24AE34D4FF0000A82F85412A5F1D407C0F800A0BD
:2016AC00A66838683146C0F304601628A8BF203800EB2170401C162805DA10F10A0FB8BF5F
:2016CC006FF0090000E01520E54AE64F00F01F0040F4F8501080386880083ABFE248C0F8FF
:2016EC0000A041F04061E14AA946C80E8F0EA9F13C0580F0010000F00100106087F00100BA
:20170C0000F0010090602868C0F38367C0F38F21B00C22D246F3072000280BD5424250461A
:20172C00490805D17F0806BF0127391C4FF6FF71521EF5D1002810DD4FF6FF72490041F07D
:20174C0001018A4207D27F0047F001070F2F92BF01210F27111C401EF0D141EA074118203A
:20176C0008F062FB28682F68C0F3870107F0030041EA002188B20090BE4840F2FF32534694
:20178C002C21403807F0AEFC4D46A5F110073868C0F30D011C2008F047FBB54957F8080C5F
:2017AC00014000F07C400143142008F03DFB57F80C1C01F47C000904090C0143102008F012
:2017CC0033FB57F8042CDBF80010C2F30350C2F30343490812D221680C0510EB247003D435
:2017EC001028A8BF0F2000E05046090413EB217303D4102BA8BF0F2300E0534643EA001396
:20180C0002F47F4002F0FF01B8F1220F40EA034041EA000124BF02F0804211430C2008F093
:20182C0003FBB8F1220F32BF01202868C0F30070904CB8F1220F4FEA400040F0200084F804
:20184C00090126BF2868C0F3407001208A4FB8F1200F40F0100084F8090138BF514606D39B
:20186C003968C80C00F44070C1F384510143282008F0DAFAB8F1200F26BF3868C0F3015001
:20188C005046B8F1220F4FEA400040F0600084F80C0126BF2868C0F3C0605046B8F1220F82
:2018AC004FEAC00040F0800084F8010126BF2868C0F345505046B8F1200F4FEA800040F4DD
:2018CC007C40A4F89C0138BF6C490AD3386801038A15920501F47C1100F00F00114341EAA4
:2018EC000031082008F0A0FA4F464FF480002060A7F1D000816D40F20F226FF31F418A42D2
:20190C0013D901680068C1F30363C0F3034003B15B1E072805D006280EBF0720801C00F00F
:20192C000F003D4943EA00100870C6F381435B1E02D05B1E27D022E03968880C1FD24FF4AE
:20194C00804020604E48D0F802204B0A03F0800322F08F021343C1F303321A43C0F80220D7
:20196C00D0F801300A0A62F30303C0F80130026801F0E70322F0E70243EA020102E04FF079
:20198C00004120460160DBF80000C0F3C0030BB94020A0624FF4007020642868C0F3C14049
:2019AC0040F0300084F8C800C6F38150394E4FF04008A8B3401E0BD0401E28D0022127E0CB
:2019CC009402224300600C40AC3F005040100940012009F055FA05460420294607F07CFACC
:2019EC00042009F04DFA8542FAD12648056825F07F4008F049FC3046143000680368072144
:201A0C004FF06022280E98474FF4806020600321042007F061FA0AE0026008408C13005024
:201A2C000420012107F058FA174808F02DFC203F38681649164B47F6180500F03F0084F8C7
:201A4C00CB0F32460D8018681068C168022088471248114FC0F8008001213960BDE8F88FB0
:201A6C006E6208400000094094042A4300002043FCFCFC0040A00C409813005000803F4077
:201A8C000A600840A83F0050BD37860070B00C402C200940A00100109404604200600C403F
:201AAC002DE9F04F41680E780D46ADF1340D710803D200210B91012103E001226D1C062181
:201ACC000B92B2084FEA660908D30B9A476801F11304521C7F1892B2E1B20B92F2084FEA17
:201AEC00A60A08D342680B9B4C1C02EB0108E1B25A1C92B20B92F2100992320908D342685A
:201B0C000B9BCC1D02EB010BE1B25A1C92B20B9236F07F040A941ED04068425C4C1C8DF8DF
:201B2C001620E1B20A18445C5378891CC9B204EB03220C186378445CADF81720891C04EB00
:201B4C000322C9B20B9CADF819204018CDF81B00601C80B20B90872016F0700F8DF81F0003
:201B6C0040F07B810DF11F0008F0C2FD002800F05581C34CA078064240F06D81700816D37D
:201B8C002878ED1C0222294606F0A8FB002800F045812178A0880125401800F0FF02491CF1
:201BAC0000F47F4021708018ADF80A0000E000255FEA590017D33878FF1C1022394606F08B
:201BCC008DFB002800F02A812178A0880DEB45076B1C4018DDB200F0FF02491C00F47F4032
:201BEC002170801878815FEA5A0060D398F8000020F03008182009F029F8DFF888A29AF824
:201C0C000090071C37D00021182205F01BFF9E4B022048F00102387009F10101981C78601E
:201C2C004FF000083A728800A7F80A8080B2388209F00CF87861B8B1011D52460160137827
:201C4C007869F8603BB17869FF2120F8041F5B1E80F80280F9D1E06841463A4607F0EAF8B2
:201C6C0038B9786909F066FA384609F063FA474602E0012700E00027A0882178A278002FB1
:201C8C0000F0CC80491C4FF6FF77C9B242F00402217040180DEB4503C119A2706F1CFF305A
:201CAC0001F47F4100F0FF00FDB2091859810998400874D39BF800008DF820009BF801705E
:201CCC008DF82170BBF80230ADF804309BF804208DF82220BBF80510ADF80610182008F0F3
:201CEC00B5FF071C40D00021182205F0ABFE0220654B3870181D78604FF0010987F8089011
:201D0C004FF00008A7F80A800620388208F09EFF0346E0687B6103B3FB6008AB7A691B782B
:201D2C000DF1210113700B7811464A1C137001AA13888A1C13800DF1220213780A1D13705B
:201D4C000DF106031A884B1D41461A803A4607F071F838B9786909F0EDF9384609F0EAF95A
:201D6C00474602E0C846FBE70027A0882178A278002F53D0491C4FF6FF77C9B242F00802CD
:201D8C00217040180DEB4503C119A2706F1CFF3001F47F4100F0FF00FDB2091859810A9878
:201DAC00002854D0182008F051FF071C31D00021182205F047FE0220334B38709DF816207F
:201DCC007B6002F0CF0038724FF00008A7F80A80BDF81700388208F039FFD4F80C9078614A
:201DEC0080B1F860DDF81B10BDF81920786905F0A7F8484641463A4607F01CF838B9786979
:201E0C0009F098F9384609F095F9474602E0012700E00027A0882178A2782FB906F0F0F8E8
:201E2C009DF81F00E0B91DE0491C4FF6FF77C9B242F08002217040180DEB4503C119A270E8
:201E4C0001F47F41FF3000F0FF000918598100208DF8096004E0862002E006F0D1F88420CB
:201E6C008DF8080002A80B9F009083210022781C400083B2752007F055F80DB0BDE8F08F5C
:201E8C0034120020B005002036C100002DE9FE4FC14A01884768157B891EBE1C002D89B2E5
:201EAC0040F0A181406800884FF602449046844220DB2546854200F0058141F20905401B2E
:201ECC0000F07E81B0F57F7000F06881A0F61240002800F04C81801F00F03B81401E00F034
:201EEC001281401E00F005814DF6E232801A00F0F48071E1E51C401B09280AD90C384FD0F5
:201F0C00C01E3AD0801F28D0C01E1BD0C01E0CD062E1DFE810F0C2006101B400A6009D008E
:201F2C008D00820072005F005500B54B002104F11E000A4607F0C3FB002840F04E8104F10B
:201F4C001E0542E1AF4B002104F11B000A4607F097FB00283CD012203FE1012940F02E819C
:201F6C003178A94B04F11800002207F089FB002840F0338104F1180527E1032940F01E81ED
:201F8C0070783178B278A14B01EB002104F1120007F076FB002840F0208104F1120514E118
:201FAC00012940F00B813178994B04F10F00002207F066FB002840F0108104F10F0504E14D
:201FCC00944904F10C0008F0D5FB002840F00581002002E1022940F0F180707831788E4B38
:201FEC00002201EB002104F10B0007F049FB002840F0F38004F10B05E7E0062940F0DE8017
:20200C00864B04F10A003146002207F058FB002840F0E38004F10A05D7E0814904F10900C3
:20202C0008F0A8FB002840F0D88004F10905CCE0012940F0C38031787A4B04F10800002270
:20204C0007F01EFB002840F0C88004F10805BCE07549E01D08F08EFB002840F0BE80E51D52
:20206C00B3E0022940F0AA80317872786F4BA01D07F006FB002840F0B080A51DA5E0012941
:20208C0040F09C8031786A4B601D002207F0F8FA002840F0A280651D97E0202940F08E8008
:2020AC00304608F04FFF06F1100008F04BFF614B06F110022846314607F001FB002800F06A
:2020CC0084808AE0012979D131785B4B2046002207F0D6FA002878D07FE001296ED1317893
:2020EC00564B601E002207F0CBFA002875D1651E6BE0534942F21F0008F03CFB00286CD118
:20210C0042F21F0561E0032958D196F800A07478B5780C2008F03AFD061C18D081203070D8
:20212C004FF0010B86F803B042F21E09A6F8049086F808A07472B57208F038FD414A314628
:20214C0007F044FC002848D158464D463EE0042043E0012932D131783B4B42F21D00002296
:20216C0007F08EFA002838D142F21D052DE0202924D1304608F0E6FE06F1100008F0E2FED1
:20218C00324B06F1100242F21700314607F097FA18BB42F2170518E00802002002290DD115
:2021AC00707831782A4B002201EB002141F2054007F066FA88B941F2054506E084200CE0DB
:2021CC002449284608F0D6FA38B9012088F80C001620A8F80E5000E08D2016288DF804002A
:2021EC0004D1BDE8FE8F85208DF8040000975520042101AA022306F095FEBDE8FE8FC046DC
:20220C00A3B70000D3B70000F3B70000CBB70000EBB7000093B70000FBB70000DBB7000072
:20222C009BB70000B3B70000ABB70000BBB70000E3B7000083B70000C3B7000003B80000F9
:20224C001BB8000023B8000013B800000BB8000033B800002BB800000246B0B58320ADF17A
:20226C00380D8DF83000B6489788047B4FF6054339468B421DDB8B4200F0948041F20903DB
:20228C00C91A00F03381B1F57F7100F00881A1F61241002900F0E080891F012940F2C780EE
:2022AC00891E00F0A0804DF6E233C91A01292ED944E19D1C491B072929D90A3927D0C91E5A
:2022CC0039D0891F23D0891F40F038812021FC278DF80410012C8DF805704FF0020140F027
:2022EC002281C4891B33A34240F01D810023926803739778002F40F01981D11C8DF8303074
:20230C000DF106000C2204F01BFE0E210EE139128DF82C70012C8DF82D1007D1C1898F4206
:20232C0004D1002197680173B87800E08C208DF830000BA88EE01421FC278DF80410012C78
:20234C008DF8057040F0FA80C1890F338B4240F0F580002192680173901C0778D7B98DF800
:20236C00301042788DF8062082788DF808108DF8072002798DF80A108DF8092082798DF821
:20238C000C108DF80B20007A8DF80E100B238DF80D0082E090788DF83000D07803238DF876
:2023AC0006007AE00521FC278DF80410012C8DF805704FF0020140F0B680C489A34240F09E
:2023CC00B280002392680373921C1778002F40F0AD8011468DF830300DF10600112204F0FC
:2023EC00AFFD1321A2E01F2120278DF82810012C8DF829704FF0020114D1C38942F21F0416
:20240C009C420FD100230373906807786FB9471C0BD08DF8303040788DF82B3004218DF855
:20242C002A0002E08C208DF830000AA87FE039128DF82070012C8DF8211007D1C1898F42DC
:20244C0004D1002197680173387800E08C208DF8300008A802236BE017212027012C8DF8C5
:20246C0004104FF002038DF8057013D1C18942F217048C420ED1002192680173177867B996
:20248C008DF83010511C0DF10600102204F058FD122302E08C208DF8300001A848E0142101
:2024AC0005258DF81910012C8DF818504FF0020117D1C38941F205449C4212D100230373D2
:2024CC009068077887B9471C0ED08DF8303041788DF81B308DF81A10C07829468DF81C0093
:2024EC0002E08C208DF8300006A820E0092110278DF80410012C8DF805704FF0020112D199
:20250C00C489A3420FD100230373906807786FB98DF83030401C02680DF106010A60808843
:20252C008880082102E08C208DF8300001A80B46009004210CAA552006F0F4FC0EB0B0BD30
:20254C0008020020F0B5AD4C61790746401EADF1340D7CD0801E63D0401E4DD0401E39D044
:20256C00401E7AD1012978D040F2153004A902F02FFF04F1080140F20E3002F029FF40F236
:20258C000E30694602F024FF0DF1020140F2163002F01EFF01A940F2173002F019FF0DF17A
:2025AC0006014FF4467002F013FF02A94FF4477002F00EFF04A90DF109000A6889880260CE
:2025CC006B4681800F2201200546002105F0FAF8657142E0002938D020898DF820000DF123
:2025EC00220100128DF8210040F21D3002F0F0FE08F02CFA08AB23E079B320898DF81C004B
:20260C000DF11E0100128DF81D0040F21D3002F0DFFE08F01BFA00250220032207ABD4E7A9
:20262C0099B120898DF818000DF11A0100128DF8190040F21D3002F0CBFE08F007FA06AB51
:20264C0002200021032205F0BDF80025C0E704F1080140F20E3002F0BBFEA179062F00F038
:20266C008F80E678072F00F08180042F10D0052F0ED0032F0CD0022F40F0BC80002E4FF07D
:20268C00010533D100220DF12D018DF82D2029E006292FD007292DD02079032F1BD0012EBB
:2026AC0040F0A880022909D0002840F0A380002210200BA98DF82C20154614E000251020BC
:2026CC000DF12B012A468DF82B50134605F07AF8E57025718EE058B900220DF12A010125B9
:2026EC008DF82A200820134605F06CF8E57081E00025EEE7607880081FD3A078012E0AD002
:20270C00012103288DF8281014BF40F2053040F21B300AAA20E0032820D0002001258DF852
:20272C0028000AAA2571294640F21B3000F068F829460AAA8DF828100CE000208DF8290045
:20274C0001210DF1290240F21B3000F059F801210DF1290240F2053000F052F804F138014A
:20276C00087A002846D008780A463DE0012E4FF00105BBD000220DF127018DF82720B1E7F5
:20278C00072923D0002560788DF8255040080BD240F2053001210DF1250200F031F88DF8A2
:2027AC0026500DF1260115E040F2053001210DF1250200F025F8012540F21B300DF12502FA
:2027CC008DF82550294600F01BF808E0002509A98DF824502A461020134604F0F3FFE57095
:2027EC0004F14002107828B15268014640F2073000F006F8A7710DB0F0BDC0465C110020C8
:20280C002DE9F0410E4614460146A24BA34DA24A9F480027A1F2013CBCF11A0F1CD8DFE838
:20282C001CF02B01270121011B00FF00FA00E300D000C900C200BA00B200AB001B001B006B
:20284C00A100940086007B006E001B001B001B001B0052001B002700282907DA022E05D190
:20286C000846218807F040FA07460EE102270CE1012E40F003810179012900F0F18042792F
:20288C002178417182B9002900F0FF808078012800F0D880042800F0D580062800F0D280C4
:2028AC00052800F0CF80F0E02178002940F0ED808078032800F0D180072800F0CE80052873
:2028CC0000F0CB80E1E0012E40F0D8802178012940F0D480044604F1F00008F015FE60B99F
:2028EC0004F13E01384604F0AFFF071C40F0CD8004F1CC0009F00AF8C7E01627C5E0022E63
:20290C0040F0BC8021880A29C0F2B880B1F5486F00F3B480184616E0022E40F0AF80218869
:20292C00B1F5FA7F80F2AA8018460180ADE0022E40F0A48021880629C0F2A080B1F5486FD9
:20294C0000F39C801046801CEFE7022E40F0968021880629C0F29280B1F5486F00F38E8024
:20296C001046E2E7012E40F089802178062980F2858028460C300CE0012E7FD121780429AA
:20298C007CDA0B3005E0012E78D12178082975DA0A30017079E0062E70D121682846016053
:2029AC00A688868071E0012E68D12178042965DA0930EEE7012E61D1217804295EDC083072
:2029CC00E7E7202E5ADA054605F1870839461F22404605F037F821463246404604F0B0FA5E
:2029EC00EE713846454611E0202E47DA804608F1680539461F22284605F024F821463246B9
:202A0C00284604F09DFA012088F8066031462A4606F020F928E7022E30D12188103084E720
:202A2C00012E2BD1417901291AD002792178017162B9002929D08078012803D0042818BFD7
:202A4C00052822D1012008F067FD1EE02178E1B98078022818BF052817D108F02DFD14E078
:202A6C00122712E0042E09D12168203001600CE0102E03D1583004E0102E01D0182704E03D
:202A8C0048302146102204F05BFA3846BDE8F081B0050020F4050020F0050020E205002032
:202AAC002DE9FE43974C0F460546F80B80F00081B80880F0ED80B80F6ED2A07A00284FD136
:202ACC0038094FD30025012665708F48267208F0B3FD8E492A4604F1600008F00AFF6079D9
:202AEC00012821D1A079F8B9DFF82482E669D4F81490D8F8000078B108F044FCA0EB0900E4
:202B0C004346000B3618A0611868B6EBC01F24BF281CE0610AD2E66104F1BC004FF00051FA
:202B2C0008F0E4FB284619E06671284640F60902A28694F8412002F0F00242F0010284F81B
:202B4C004120E58694F84020294602F0F00284F84020704BA16304F134061E60606118E05D
:202B6C00380914D2B80BC0F0C48004F1240008F0CBFE061C08D0706830B17568F068B6F9FA
:202B8C001C1000222023A84727F40057B1E00020A07227F00807ACE0A968088840F60208E1
:202BAC00804507D00A8B4FF61F60104040F43470088306E00A8A4FF61F60104040F43470FB
:202BCC0008826069D0B1042008F05AF9B0B108F0D9FB6169814226BF401A401E401A000BEA
:202BEC00E860E868698A401840F6C411E860814203D340F2EE22824200D9E960AE699EB16C
:202C0C004548B04210D094F8410010F00F0F0BD1698C08F10700884206D128466FF480712A
:202C2C0000224FF00073B0473C4904F16000002208F05FFEA07958B10220ADF800006846D5
:202C4C0007F02EFE0026A671BDF80800A4F85C000120607020794FF00008401C207104F1A0
:202C6C00200084F8078008F04FFE002808BF47F0020702D0192008F057FC6E692EB141461E
:202C8C0028464FF080630A46B04727F0005730E004F12C05284608F037FE03F05DFA28465A
:202CAC0008F032FE27F0020708B147F0020720E008F0F0FE014604F1280008F025FE064616
:202CCC00B569A80810D27EB125EA0500B061084608F0DCFE706850B12A46F068B6F91C1048
:202CEC0075680023A84702E0084608F0CFFE27F4804727B104F1BC00394608F0F7FABDE86C
:202D0C00FE83C0463009002055680000A1AA00005C2000200010044047720000655A000057
:202D2C002DE9F04F0128ADF1140D40F0F280DFF81492D9F8DC00012840F0E9800220C9F8D9
:202D4C00DC0008F09FFE0290012006F013FA20B101210646C9F8DC10D5E008F08FFE039087
:202D6C006E484FF00008C0F80080012008F088F8012818BFCDF8008004D1404605F09CFE4A
:202D8C000120009066486E4CC0F800801934D4F8FF0F112008F088FC00280CBF464601265C
:202DAC00102008F081FC08B146F002060F2008F07BFC08B146F004060B2008F075FC30B15F
:202DCC00584800685849006B0246088890470A2008F06AFC0028404618BF01204FF0805BDC
:202DEC000BF5DC7528B128685049006B0246088890474F480127076028688069014646F03E
:202E0C00200088474B48076008F048FC00F001010191400815D2484808F0C8FB8246BAF110
:202E2C00040FF8D0BAF1010F06D1DBF8D801406802464148032190474049086820F00300ED
:202E4C000860404600F080F82868D4F8FF1F806B8047019801280ED0BAF1010F06D1DBF8DF
:202E6C00D801406802463448394690473349086840F0030008602A480760286840690146CB
:202E8C00304688470B2008F00FFC28B128682649C06A0246088890470A2008F005FC28B106
:202EAC0028682249C06A024608889047204807600322C9F8DC201F4BC3F800802868406BA1
:202ECC000146304688470128F8D1042006F052F9124807601A48D4F8FF1F01688909FCD32C
:202EEC000098012802D1384605F0E6FD08F0D0FB082006F03FF906460398C9F8DC7008F0D7
:202F0C00B9FD05F0CBFB029808F0B0FD02E0042600E00126304605B0BDE8F08F0C400940FE
:202F2C0000022243B8010010CABF0000C6BF000028200860800104430040034024220840BE
:202F4C00141009402C0D00202DE9F84FDFF8F8B10746ABF13500794B0068800880F0DF8021
:202F6C0007F08AFC7C490831D1F8009000254FEA29715FEA995201F101010AD2C0F13E0284
:202F8C0010F10A0F4FEAE202D8BF08229142B8BF111C674CD4F87C21C2F30462162AA8BFD8
:202FAC00203A2468C4F30444162CA8BF203CA2465218162A05DA12F10A0FB8BF6FF00902AD
:202FCC0000E015225B4C5C4E02F01F0141F4F8512180316811F0030F18BF0125C90828BFEB
:202FEC0045F002050FB145F0040593F90710411A052904DA9979A94208BF99886FD0DFF886
:20300C0040E10F28A0F10F0829DB08EB0011A1F1F0084FEA28210091072984BF07210091D3
:20302C00062988BF06215EF821600424774604EB81043C594FEA950CA41BEE0804F0FF019F
:20304C0024BFC4F3072631446F08AE0824BFC4F3074631446E0828BF01EB146104E00021DC
:20306C004FEA950C6F080091009C5EF824E05FEA5C060EF0FF0424BFCEF3072634447E08F1
:20308C0024BFCEF3074634446E0828BF04EB1E64009E89B2A8EB06267143803104EB1124CC
:2030AC00AAEB02010029D8BF0121342209F0FF074A4391B24FF6FF727943B1FBF4F18A4296
:2030CC0038BF111C802889B2998005DA10F1800FB8BF6FF07F0000E07F20D8719D711948C9
:2030EC0000681F2918604FF0000008D340F2FF128A4206D24908401C8A42FBD301E01F2133
:20310C009980124F0F39090940EAC10047EA0001CBF8FB1F0026CBF8FF6FBDE8F88F08202A
:20312C009B1D0B4918700B4F0F60BDE8F88FC0463C1100506E620840242208406020002011
:20314C009C130050082009403500094000E7A48030100940FDFDA400AC3F00502DE9F04FB3
:20316C00754F1E46ADF1340D01914FEA960902923D680090710809F1020221F0010105EB8F
:20318C008200091D0390901805EB80000490501805EB80038018059305EB8000079026F014
:2031AC00030000F1080802EB080005EB800340180893801805EB80000990C6F39C0080002E
:2031CC00083002EB4000411805EB800305EB810B0A938918831805EB8104404405EB8303EE
:2031EC00C6F3990105EB80008900069038680B930A010021803204F025FC4849DFF820A187
:20320C0009682846AAF1880290470746B94518BF6FF001007ED128465546394605F168020E
:20322C0090470198314607F0A5FD002818BF012070D10298314607F09DFD002818BF0220DE
:20324C0068D103980199A84704980299A847009881680598A847334B0399059A20469946D4
:20326C00C847012802D1BD0066590EB1032051E020460021424604F0E5FB0499059A204623
:20328C00C847012801D166590EB1042042E0274B254D079803991E462A46B047089804992D
:2032AC002A46B047079909980A46B0470A980999079AB0471E4D0B9807992A46B0472046BC
:2032CC000021282204F0BEFB1A4B0A990B9A20469946C847203520462A460146C8470899A7
:2032EC0058460A46B04706980021424604F0AAFBFDB25846002D0CBF0122FAB20021635C09
:20330C00455CAB4218BF052004D1491C521EC9B2F5D100200DB0BDE8F08FC046484F00206E
:20332C00355A01105D5D0110A8130020815F0110BCC0000051650110444F00202DE9F0430B
:20334C0007460E4640F20E30ADF12C0D02A902F03FF8714C94F82C00002800F0D48000259F
:20336C00387884F82C50932800F0CA80002840F0B880E08DB042C0F2A98094F82D000838E1
:20338C006BD0801E34D0801E40F09580208E32460D212B4607F0EAFB0190F8B1D7F80710A0
:2033AC00ADF80060324603F0CBFD584A0D20694606F046F9002800F0A6808DF81C0087218F
:2033CC008DF81A108DF81B5003220DF11A034FF40040294604F0F6F90D2130E08DF8175003
:2033EC0087208DF816000DF116038DF818005BE0208E32460B212B4607F0B8FB019010B3CF
:20340C00D7F80710ADF80060324603F099FD404A0B20694606F014F9002874D087208DF8B5
:20342C00120001278DF81350294603220DF112038DF814704FF4004004F0C4F90B216846A0
:20344C0007F030FE5FE08DF80F5087208DF80E000DF10E038DF8100026E0B4F83080606B0D
:20346C00D7F807904489142007F090FB071C11D00421072208F0D2F8A7F80880C7F80C90C1
:20348C003E827C8207F092FB224A394606F09EFA08B938E004208DF81F5087218DF8200027
:2034AC000DF11E038DF81E104FF400402946032204F088F927E087208DF8235084278DF8CC
:2034CC0022000DF122038DF82470EDE787208DF80B5084278DF80A000DF10A038DF80C70E1
:2034EC00E2E794F82D10676B8DF8001079898DF804006846ADF8021007F0CEFFE56302E0E9
:20350C00E56307F0A3FA0BB0BDE8F0836FB8000075B80000E3B50000341200202DE9F04355
:20352C00684CA078ADF17C0D002840F0C88001204FF00008A0704146C4F81C80084608F04F
:20354C0091FAE0604146084608F08CFA20614146084608F087FAA0614146084608F082FA28
:20356C00594E6061B76B0197F56B029596F840308DF80C3096F841208DF80D20F08EADF8A3
:20358C00000006F144072CCF04A92CC12CCF2CC197E80D0081E80D004C480D904C4D0E95F1
:2035AC0007F03CFD4B4D0DA906C9814605F1240080E80600BDF80000688007F017FBE86075
:2035CC006A88E868414604F03DFABDF8000007F00DFB28616A882869414604F033FA3F4BF9
:2035EC003F4A434F07933C4908929DF80D00F96004A907F093F8B86020B101684B68424634
:20360C002021984701980299EA6A2F6B00F0FF00A86101F0FF01E9611043E8623943296384
:20362C0005F1380005F12C0103F0D8FC2D49286208F005F92C4AA9690A434FF4E02107F060
:20364C002BF8AA69286A4FF0C05142F0805207F023F8287E07F0AAFEC0B2287050B907F0E1
:20366C0025FB686A30B105F0EFFD286A297F424606F00EFC484607F0E7FE04F124004146BE
:20368C00202204F0DFF904F144004146202204F0D9F90FA841463C22082308F0DFF9B08E73
:2036AC0007F0B4FAA06050B11690B08E02270FA9424617900D48159708F0CCF960601FB017
:2036CC00BDE8F083FC0F002008020020A5B30000E1690000F011002025A300003D000000A9
:2036EC00DD9200004D77000000000780993A0000040F00202DE9F843814607F0C3FF00210C
:20370C0000B901216B4E30680028FCD06C4D01242D1DEF6A346009B107F0BAFFDFF898810E
:20372C00C7F3072008F1BC01086007F0ABFF002100B9214630680028FCD02F68346009B12B
:20374C0007F0A6FFC7F38440C8F8C00007F09AFF0146002001B92046014630680028FCD0D9
:20376C00ED69346009B107F093FFC5F38120C8F8D000B9F5C061C8F8B81000F0968098F83A
:20378C00D80068B9C8F8D410D8F8C000C8F8C800D8F8BC70C8F8C470D8F8D060C8F8CC608C
:2037AC00D8F8D410D8F8BC60002954BF02206FF00100454605F1C8031A6801EB410140184B
:2037CC00411000EB917002EBA0021A60D5F8C810C5F8C46000291CDD1E293DDDD5F8CC00F5
:2037EC0030B93429B4BF15391E21C5F8C81025E02A29BABFD5F8C8000B381E20C5F8C80076
:20380C00D5F8C4003F28B4BF401C3F20C5F8C4001FE0D5F8CC00032812D011F10B0FC6BFAF
:20382C00D5F8C8000B30201CC5F8C800D5F8C4000028CCBF401E0020C5F8C400032009E09C
:20384C0011F1150FC6BFD5F8C8001530201CC5F8C8000020C5F8CC00B5F8C400174E302146
:20386C004FF47F4208230090304605F03BFC009404214FF400321123304605F033FCB5F832
:20388C00C80004214FF4F80212230090304605F029FCB5F8CC0020214FF440620A23009041
:2038AC00304605F01FFCBDE8F883002088F8D800BDE8F88300800C402C0D002000A00C40AD
:2038CC0000A00C402DE9F04FADF1840D01F0A0FE05F0E4FB0026012804D107F067FC022861
:2038EC0008BF01265F490868C0F38150012806D151F80C0C0127010E07FA01F006435A48BD
:20390C00614F007807F12C00036805F0C7FB03F07F03012804D107F049FC022808BF5B1C16
:20392C00524D2B602C463BB1FF2104F140001F467F1E00F8011BFBD14D4800684FF0000977
:20394C0000F0FF01FE291BD0DFF824C100F0FF0749460122FF2F0CD0BB427FD902FA07F79C
:20396C003E427BD100F0FF0047EA0909201880F840105CF8040F491C00F0FF07FE2FE9D194
:20398C00092002F091FE3A48002124220823606017A808F05BF84FF0010804F1240017AA71
:2039AC008DF87480414608F04DF8236843B3002794354FF0040BBA4608FA07F0064219D1D4
:2039CC0019EA000F04BF07F0FF0141F4C04105D03819274990F8400051F82010254802F0A3
:2039EC0021FDF8B24FF0FF3107F074FA2368C5F800A001E0C5F800B07F1C2D1D9F42DBD375
:203A0C0001A800213022082308F018F80025FF20102101AB0990184A009504F1080008F0A5
:203A2C0009F80DA828220823294607F0FFFF2B4604F160000DAA13931049149307F0F2FFE0
:203A4C000F4951F80D0C20F4F85040F4005041F80D0C4746C1F8FF7F0A4E376021B0BDE845
:203A6C00F08FC046B43F00506E2000206C1E00205CC10000007FC767FDAE000021930000F1
:203A8C000D30094008000940181300502DE9F04FADF11C0D06F042F9694C6A4D08264FF0A2
:203AAC00000B1C3C04F11C0904F14408206A614A59464FF0FF3302F041FC071CF6D007F0E8
:203ACC00ADFA07F0C1FC78091BD307F0A7FA8246287E07F06BFC38B15B48037873B15649E2
:203AEC0068690968884209D105F0AEFB534901200870286A297F5A4606F0CAF9504607F0E1
:203B0C00A3FC380905D3D9F8000007F0FBFAC4F81CB0B8081AD3626907F0C0F9B0B91046B5
:203B2C0007F0BCFF28B994F90000002803D460690AE094F9000007F00401084306D1E068B4
:203B4C0007F0ACFF10B9E06802F00EF9ADF800600920ADF80200684606F066FBDDF808C036
:203B6C00CDF810C0C0B9BDF80400A8F10801042211F8083F83420CD0521EF9D1ADF800607A
:203B8C000320ADF80200CDF804C0684606F04CFB02E0496860468847F80826D394F900004D
:203BAC00002802DDF8081CD21FE007F037FA0590A06907F040FA8246059807F045FCBAF1C6
:203BCC00000F0AD094F90000401C2070504606F07BFE10B1504607F095FEA06907F05EFF34
:203BEC0018B9206A042104F0C5F87808FFF45EAF94F9000000287FF459AF07F00FFA824610
:203C0C00206907F018FA0746504607F01DFC37B1384606F059FE10B1384607F073FE206930
:203C2C0007F03CFF00287FF441AF206A012104F0A1F83BE71F0000804414002042140020D3
:203C4C0018100020F0110020411400202DE9F04F44680088ADF11C0D801F00B2069060796A
:203C6C0010F0030F00F0B58000F00300032800F0B080634E306907F0D1FE42F6021B002539
:203C8C00ABF1FF0A80465FE0D8F80800B4F802908189494554DCC189494551DB0679D0F845
:203CAC0000C0002E4CD000200CEB0012518989453DD152F80C1C4B78097801EB03218A457A
:203CCC003CD152F8041C94F805E009781EEA211F32D0411CC9B28E4229DD0CEB01135A68AA
:203CEC0057785A68127802EB0722934509D0924505D0E5B9491CC9B28E42EEDC17E091206A
:203D0C0068E040490F784FB1D96822880968091F31F8043F9A4203D07F1EF9D125B106E07D
:203D2C0089781EEA010F01D18F2053E00125401CC0B28642B8DC03E090204BE0832049E0D0
:203D4C00404607F067FE80462D48006940459BD1002D3CD020881B214FF6FF7205AB06F067
:203D6C0005FF039088B36188BDF81420069FADF808109742D4BF391CBDF81410BDF81420AE
:203D8C00ADF80A1039469142D4BF3A1CBDF81420A11D03F0D5F86079410809D2800818D346
:203DAC002088227902A907F0D9FA051C07D10AE02088227902A906F0ECFF051C03D002A8EF
:203DCC001B2107F06FF9284604E0872002E0882000E084208DF8100010B9607940080BD3D8
:203DEC0020880DF11107ADF81100892104AA02235520009705F096F807B0BDE8F08FC04656
:203E0C0034120020B00500202DE9F04F6B4CE2680746880FADF1140DC0F0C1805068406811
:203E2C0008B18047E26851685E4E886808B9CD687DB13568002DFCD00022326010B1804761
:203E4C00E0684168C86800B180475D48503806F027FD4FF00008C6F80080534846F81C0CF0
:203E6C00524807F0E9FB40F60A09A4F834906379A4F83680BD6894F84000C34604F1340ABD
:203E8C0000F0F00084F84000012BC4F838B094F84100A5F8028000F0F00040F0010084F831
:203EAC00410001D17B7C93B1B8680088A9F10801814205D0298B4FF60F400840288304E0A6
:203ECC00298A4FF60F400840288287F811803848016883680193C368406B009110226946DD
:203EEC0020F0784040F0805003903248029303F027F8494600E01D466B6813B1188881426E
:203F0C00F9D1C5F804A0687B00F0F000687304F1200007F0F9FC80680088CA1F824220D0BE
:203F2C00891F81421DD03B8CEBB197F82C0097F82D30C7F824B000F0F00087F82C0003F002
:203F4C00F00040F0010087F82D0007F12002A2639AF80D00A7F8228000F0F0008AF80D001A
:203F6C0001E0C4F8148030680028FCD0C6F80080012006F085FF012808D0687B00F0F000DB
:203F8C0040F0010068730C4807F056FBB9680A8A4FF6FF3010400882B86846F81C0C05B02F
:203FAC00BDE8F08F1C10044001010E04AD2A00004C1300501800002161870000300900204D
:203FCC00510007062DE9F84F994692468B46064607F060FD604C0090B4F93210B4F93000EA
:203FEC000AAF401A40F6F8710140082980F29E80B4F9300004F59475401C6FF31F3020866F
:20400C000820B4F93080EB7F33F07F0304D0401E05F12005F7D1002506F1700006F08AFEE1
:20402C00C5F808B085F81EA0C5F80490A5F81C804A48EE6097E80C002021002719401040BE
:20404C0005F1100383E8030004F12000EF770368002B5ED1294605F04FFF00285FD0A6F8F6
:20406C00B880E87F40F08000E87796F8BA00012804BF86F8BA70A771607A40B1607830B10E
:20408C000120A0726772A7712079401C2071009807F0FCFC606A00285BD16078002834D1C0
:2040AC00E079012855D007F0F5FC0646207A40BBA86805F031FC2B49294AE368096810603F
:2040CC00B0B1DD681068401BB0FBF1F0012898BF012104D9DB681068C01AB0FBF1F1983462
:2040EC00204607F093FC204607F08CFC30462EE0304607F0CBFC04F1BC00042107F0F6F870
:20410C0027E0194901200870F0E7192007F00CFA1FE004F12000294605F0EEFE48B9B4F972
:20412C00300000F6FF706FF31F3020866FF001080CE0A6F8B880E87F40F08000E87796F859
:20414C00BA00012804BF86F8BA70A771009807F09DFC4046BDE8F88F30090020F1EFFF9F3C
:20416C005C20002058C30000582000202DE9F04F0746ADF1140D0393002F02920E980191F2
:20418C000F9C049000F0B680081C00F0B380101C00F0B080181C00F0AD800498002800F016
:2041AC00A980002C00F0AB80206A002800F0A280564D666A281D0068002E00F09B80A16A5B
:2041CC0007F01CFC40B2002808BF6FF0020700F08D8084F82C002078618800EB80000918C9
:2041EC00143188B2216A88474749086030B92846406807F0FFFB4FF0FF3777E08B4662886B
:20420C0023786088DBF8001025789E1800EB010A701800F1040805EB450002EB4306851856
:20422C0076186D18C01805F10C098018401800F11005204604F00EFF2078C01C8010CAF859
:20424C0000002078C01C8010C8F8000020780836C01C801030602078C01C8010C9F80000F7
:20426C002078C01C80102860227839460AF1040002F066FE2278019908F1040002F060FEB7
:20428C0022780299301D02F05BFE2378204641463246FEF763FF071C12D100955046414636
:2042AC0032464B4607F0A2FB47B22278039809F1040102F045FE22780498291D02F040FE47
:2042CC0021786288DBF8000001EB81015218002103F0B8FB616ADBF8000088470B48406875
:2042EC0007F088FBF8B2992808BF002784F82C70384606E01CB16FF0010084F82C006FF02F
:20430C00010005B0BDE8F08F444F0020A0130020F0B541680026ADF1140D8DF81060087889
:20432C00634C8DF802008A78487800EB0220ADF80300C8780A7900EB0220ADF805002078B2
:20434C008DF80700487B8DF80F0004F04BF99DF80200012800F09D8040F21A300DF11101DD
:20436C0001F036F89DF81100022800F090809DF81100032800F08B809DF81100072800F0B1
:20438C008680BDF80300002808BF351C14D0BDF803004FF47A716A46B0FBF1F0ADF8000068
:2043AC0002210120FEF72CFA054602210DF103023046FEF725FA0543BDF80500B0B10146ED
:2043CC00062005F091FCBDF805100543072005F08BFCBDF805100543082005F085FCBDF80F
:2043EC0005100543092005F07FFC0543224640F20D300121FEF704FA40EA050701210DF131
:20440C00020240F20930FEF7FBF938433BD19DF802709DF80F00032FA77000F003006070FA
:20442C0013D0012540F21A300DF111018DF8135000F0CEFF9DF8110006281CBF40F2053020
:20444C000DF113021BD186201EE0012540F21A300DF111018DF8125000F0BAFF9DF81100C5
:20446C00062808D13834207A28B12178626840F20730FEF7C5F940F21B300DF112022946CD
:20448C00FEF7BEF906E087208DF8100007E08A2000E084208DF810009DF8100028B13246A2
:2044AC00082004A9134603F08DF905B0F0BDC0465C1100202DE9F04304466668A7680D4691
:2044CC00ADF1340D07F0E6FA3178012903D107F0DDFA0020A9E04FF0010886F8008007F0BF
:2044EC00D5FA287870706878B07068687060A868B060E868F06028693061287D3075687DB0
:20450C007075A87DB075A869B061287F3077687F7077A87FB0774FF00009C6F820904B468D
:20452C0033631D4675627563B562B56386F82C50102286F83C2086F82D5086F83D507868AC
:20454C0002F0B2F8204602F0A3FA204602F092FD70B937480068C16838688847786802F05D
:20456C0039F807F097FA357007F090FA2C465BE001A829463022082307F060FA0694387B70
:20458C00CDF800902B4A0990B96801AB06F1800007F050FA01A829462822082307F046FA63
:2045AC0005942549386901AA2B46079006F19C0007F038FA01A829462422082307F046FA18
:2045CC008DF81C80B07838B906F1D000294601AA07F038FA19483061707838B906F1EC00DD
:2045EC00294601AA07F02EFA1548F06001A829462422082307F0F6F90695ADF8145011495C
:20460C00079406F584700A2201AB07F0E7F9B969FA6906F1400006F029FF0B4A06F16C00C3
:20462C000421234606F078F920460DB0BDE8F083D001001051580000399B000043B80000E5
:20464C003BB80000DD72000045B500002DE9F04F044661680878ADF1240D8DF808008A78CC
:20466C00487800EB0220ADF80900C8788DF80B004A79087900EB0220891D2288ADF80C0091
:20468C00921F0DF10E0002F05BFC4FF087098DF81F9020888DF80490801F00245FFA80FBAD
:2046AC00ADF805400DF11F0006F022F800287CD09DF809008DF82000182006F0C7FA071C0E
:2046CC0070D02146182203F0BDF902203870424E7E604FF0010887F808807C814046A7F89B
:2046EC00108006F0B3FA3D4D0646E8687E61002E55D0FE6008AA796912780A7021463A4646
:20470C0004F098FB002847D09DF808A0182006F09DFA2AF0300A071C21D02146182203F0C9
:20472C0091F90DF10E0059460DF12102FBF758FF061C11D09DF8210038707E6087F808A068
:20474C00E86821463A4604F075FB48B9B6F5801F02DB304606F0EEFC384606F0EBFCA046F3
:20476C00A9882878B8F1000F04D103F049FC8DF8049022E0801CC0B24FF6FF7728700918FA
:20478C00A146AC70C81900F47F40FF3101F0FF014018ADF805000EE0786906F0CBFC384649
:2047AC0006F0C8FC03F02CFC07E003F029FC9DF81F409DF81F908DF804408DF81E900DF1E7
:2047CC00050082210DF11E0202230090752004F0A9FB09B0BDE8F08F34C1000034120020ED
:2047EC002DE9FC415E4C574D574EDFF860815A4F94F8E410481E0B2861D8DFE800F07B2C56
:20480C0043062343062343067664042907D001220A2945F8212C14BF0220032004E0202170
:20482C00012045F8211C024684F8E200002045F8390C0827C5F8FF7FC5F8F37F45F8392C4E
:20484C00BDE8FC81052914BF09200620002584F8E400356070E094F8E1700120383D002FCE
:20486C00C5F81B0004BF0620002102D00021F160032084F8E400032045F8010C31603068ED
:20488C00800859D294F8E400012503280DD00021404660220523009104F024FC94F8E40055
:2048AC00062814BF0A200720D1E702200090002160220523404604F015FC0420C7E707F011
:2048CC0089F8BDE8FC812249002622480E60012505600E2001F07EFE022005F04DFD84F8BD
:2048EC00E45084F8E360BDE8FC81002038600C2578601FE019480068006801462020884750
:20490C002C3D41F61D560F2000214FF4C072072345F8010C4046C5F803600225009504F0E9
:20492C00E1FB404600214FF4C072072304F028FE0120386084F8E45004F1780007F062F808
:20494C00BDE8FC8139400C4038600C4000A00C402C500C4004800C4034600C40A00100106B
:20496C002C0D00202DE9FF41456828786C780026B046401E4AD0401E70D1201C08D0401EA6
:20498C00062803D9C01F65D1072602E0152600E00826304606F05AF95FEA00085CD04F4BBE
:2049AC0059681A78082C4FF0000706D8DFE804F0241D1A1714110E2007C0022722E0083393
:2049CC0098884446A0809A79A27119E003F18E010DE003F179010AE003F1640107E003F1E6
:2049EC004F0104E003F13A0101E003F125011422404602F0A5FA05E00F33586844466060CF
:204A0C00186820603846022824D028E0687890B1401E0ED0401E06D0401E08D0401E04D0ED
:204A2C00401E032816D8012606E0082604E0062602E0022600E01526304606F007F95FEACE
:204A4C00000809D0264B20464146032205F0C2F8022804D1842002E0872000E089208DF8FD
:204A6C000800B01C80B2074606F0B0F8041C18BFB8F1000F18D187202F788DF808006E78E0
:204A8C008DF804708D2102AA02238DF8056001AF7520009704F046FAB8F1000F02D0404688
:204AAC0006F024FBB4B112E0287820706878414632466070A01C02F043FA00943B4675200A
:204ACC008D2102AA04F02EFA404606F00FFB204606F00CFB0090BDE8FF81C046580B00202D
:204AEC0093B800002DE9F8435C4C04F1200006F00BFF15460E46009006F0CCFF05F0010754
:204B0C008146B6F1FF3F0CD1606A20B9B4F93200401C06B202E0606AB0F91C60002084F8FD
:204B2C005F00304605F010FE0326002800F08A80616ADFF81C81814256D0009988421FD1CB
:204B4C0004F1980006F0F6F86E10A8083ABF206A006800202062484606F098FF0099C87F22
:204B6C0040F00400C877684606F05CFB0146404605F0C2F9009808B17008EFD283261BE010
:204B8C000F1C02D1832E17D013E03968884228D104F1980006F0CEF800980168AA0802D24C
:204BAC000A6802600846002202600091009860B98326484606F06AFFE079012845D004F1DF
:204BCC00BC00022106F092FB3FE0C17F41F00401C177684606F026FB0146404605F08CF98E
:204BEC00E4E739680091CBE7A9084FEA650603D3216A009100252562C27F0121B940114357
:204C0C00C17706F03BFF0446002F14BF1148124805F046FE484606F039FF700801D3009848
:204C2C0020B9204606F026FF83260EE0C17F41F00401C177684606F0F5FA0146404605F074
:204C4C005BF9ECE7484606F021FF3046BDE8F8835C090020010002040100010430090020FC
:204C6C002DE9F041534C014694F82C00ADF1180D002800F09A800878228E932800F0918062
:204C8C00002840F08180B1F8010082426CD194F82D00A168123832D0801F02D0E6382CD06B
:204CAC0034E029B9002084F82C0006F0FDFB2DE00F460EE0386858B9002584F82C5006F028
:204CCC00F3FBE06B06F0E2F9E56305F0BFFE1DE0074638790028EDD0182000907969FA88B8
:204CEC003B8AF86801F014FE00203871786906F0CDF9012084F82C0008E00020FAE7002147
:204D0C0013202D4A84F82C1004F09AFC616B48684278007842F6021700EB0220874220D1D5
:204D2C00C86894F840700268977094F82D30208EFE2B108015D04E89957880460E2005F088
:204D4C0025FF071C0DD00321432206F04DFBA7F808807E81BD8105F029FF184A394604F006
:204D6C0035FE0020E06320E08820002184278DF8100003228DF8111004AB8DF812704FF4C4
:204D8C00004002F01FFD10E094F82D10676B8DF8081079898DF80C0002A8ADF80A1006F09F
:204DAC007BFB0020E06305F051FE06B00020BDE8F081C046341200207BB800008DB80000FA
:204DCC00F8B5414C201D0368B3F1FF3F08BF002304F064F9002876D13C4E20683468070F95
:204DEC0004F0FF04802C28BF002404F057F94FF0FF3578B1401E07D0401E012802D9801EE4
:204E0C0013D014E08FB112E0381C5CD0801E0ED114340BE03846401E55D0801E53D0001F6C
:204E2C0051D0401E03D1163400E00A3465B2162D49DB27482749002501270560264E0F60B9
:204E4C00264C376020680028FCD1274A161D2449244F306820F0030001433868C0080CD207
:204E6C00106810F0030F0AD041F003003060106800F003000328FAD101E041F001011B4826
:204E8C003160006820B11A4800681846FCF7E2FB184819490560194F0A686FF35B4247EA13
:204EAC000200086016490868C0F30130012806D10A681448104040F400320A6008602068EB
:204ECC000028FCD1F8BDFEE718130050A0100050840460425C600C40082204430C00684263
:204EEC0004000020B03F00500040034080012843000120438C210840482003400000390196
:204F0C0004000940FFFFFCFC2DE9F0478720ADF1180D8DF808004FF0000AADF809A00DF169
:204F2C001101ADF80BA040F21A3000F051FA9DF81100002877D1454C6078012873D1102030
:204F4C0005F084FE061C55D02078000105F07EFE5FEA00094BD02078800005F077FE074641
:204F6C00A088002F08BF4F463ED0C6F800902178B7605546B08108183171401EF081E068C1
:204F8C0006F06AF8A1885FEA000839D120695146324603F04FFF20B3A08800F0FF0200F470
:204FAC007F418918ADF8091021784FF6FF774018C21902F47F42FF3000F0FF001218ADF89B
:204FCC000B20214A84F801A0484604F0B5FB8DF8080018B103F014F89DF8080084F800A0D2
:204FEC000CE0484606F0A6F8384606F0A3F8304606F0A0F803F004F89DF80800074615E0B6
:20500C00A80049193952B8F810101022C019418009EB0510414601F093FF404606F08AF842
:20502C006D1CADB2ABE786278DF808708DF810700DF10900842104AA04230090752003F0A2
:20504C0071FF06B0BDE8F087D8C10000341200202DE9FF47466800880DF10701401E5FFAB4
:20506C0080F940F21A3000F0B3F99DF8070000286FD13F4C607801286BD001251820657095
:20508C0005F0E4FD071C61D00021182202F0DAFC4FF0020887F8008036493078401E06D014
:2050AC00401E18BF842055D10846801C00E0084678603D724FF0080A00257D815046A7F89D
:2050CC0010A005F0C3FD002878613AD0701C494602AAFBF785FA002833D09DF80810ADF89F
:2050EC0004507A691170796948607869F860504605F04CFD061C0CD00521062206F074F9A6
:20510C0005F054FD01A943461B4A0091314604F07BFCBDF80400A0802078401C2070E0688D
:20512C0029463A4603F086FE88B978694168B1F5801F03DB084605F0FDFF786908B105F041
:20514C00F9FF384605F0F6FF872003E08725284600E086208DF80600002381210DF1060263
:20516C007520009303F0DEFE0090BDE8FF87C0463412002030C10000E1B800002DE9F04332
:20518C00456801882F78ADF11C0D891E89B27F1E74D07F1E70D14068CEB24178404C4148C8
:2051AC00AD1C0027082964D8DFE801F05B4D4945413D380F05C0072E55D1A8880834A08027
:2051CC00AE79A6712868206054E00420ADF80A0003964FF00809ADF8089002A805F024F88D
:2051EC00D0B904988046B8B1606804F11701814209D0ADF80890606803900521ADF80A1061
:20520C0002A805F011F840462946324601F098FEC4F8048026702DE013272BE0142E22DC7E
:20522C000446153412E0142E1DDC04460EE0142E19DC64340AE0142E15DC4F3406E0142ED3
:20524C0011DC3A3402E0142E0DDC253420463946152202F0F7FB20462946324601F070FED5
:20526C0008E0082E01D0182704E068680F346060A8E70227384606E0892004E06878C9B239
:20528C00AA1C06F075F88DF8180000238C2106AA7520009303F046FE07B0BDE8F083C04688
:2052AC00580B0020D10B00202DE9F84F5FEA00091C46924600917DD0081C7BD0BAF1000F73
:2052CC0078D0002C7BD0206A002873D03F4D616A281D006800296DD0A16A06F08FFB40B227
:2052EC00002808BF6FF002055FD084F82C002078618800EB400009180C3188B2216A8847D8
:20530C003149AB46086030B9DBF8040006F072FB4FF0FF3549E08846668865882178D8F8DD
:20532C0000008F192D183F1806EB41063618204603F090FE2078C01C8010286020783F1D30
:20534C00C01C8010386020780836C01C8010306022784946281D01F0F3FD28463A463346B5
:20536C00014606F033FB45B2227800983B1D194601F0E6FD22785046311D01F0E1FD21781C
:20538C006288D8F8000001EB41015218002102F059FB616AD8F800008847DBF8040006F011
:2053AC0029FBE8B2992808BF002584F82C502846BDE8F88F1CB16FF0010084F82C006FF0B0
:2053CC000100BDE8F88FC046444F0020A01300202DE9F04F0C464549CA7AADF12C0D8446EE
:2053EC000592487B09900D7900958A7A088B0B8A0E7B91F805A091F802800492B1F846E040
:20540C0008904A7AC88A0392CD7807900A7A888A02920F6A0690CA79488A01928A79E14656
:20542C00A9F54079B9F11D0F10D8DFE809F05B5553514F4D4B494643413F3C3A380F3431DC
:20544C002E2B2923201E1C0F19181716BCF1280F49DA604604F052F921E0099EB246D04632
:20546C00CDF814801DE00898079007980690DDF818E005E03831086820608888A08032E011
:20548C0070460AE0B1F8440009E0B1F8420004E0B1F8400001E091F83E00034612E020804F
:2054AC0021E0059804900498039001E03231E2E7039802900298009006E0019A87310DE0F5
:2054CC0068310BE01846EAE7009D0BE02C31D2E7276008E0583100E048311022204601F095
:2054EC002FFD00E025700BB0BDE8F08FB00500202DE9F0413F483E490860FEF7E3F94FF07E
:20550C008055D5F8D8013C4C036801210A4620469847D5F8D8014268012120469047D5F8DE
:20552C00D801036801210A4620469847D5F8D8014268012120469047D5F8B4010368202187
:20554C0000221D209847314900240420183141F80C4F401E8C60FAD1284D082005F1680151
:20556C000A46401E22F80C4BFBD10820244F0880244A8F602449121D22F00303CF1A6F6345
:20558C00EB622B63EE6A05F13008944618460A4601E026F8024BB142FBD8B910E82700EB41
:2055AC00810121F8044C4FF6FC761F8006EA0C0300F1E807D21A6F6206EA0201EC39A0F852
:2055CC00E810204600F0CCFAA862D8F80000686202202881E880AC8102F004FC03F08CFF37
:2055EC0004F05EF906F0EEF92046BDE8F081C046A411002011920000004003403C0E002090
:20560C0079AC00006F200020983D0020500E00202DE9F041444C94F8E700ADF1280D0028F2
:20562C006FD1394F387B01250021242284F8E7507E6884F8E6000823C4F80C6101A806F068
:20564C00D1F9002604F10C00069601ABADF814602E490796324606F0C1F92D4904F1300015
:20566C0001AB324606F0BAF92A4904F1540001AB324606F0B3F9B868014628468847DFF854
:20568C009C8025487B7B0078D8F80410C1F381571BB1032F03D184F8E150032F16D0022FCF
:2056AC0014D0012F26D103201D4C009031464FF040521C23204603F015FD009531464FF476
:2056CC0000720923204603F00DFD13E0022004F06BFE032F0CBF4FF47A7142F21071114812
:2056EC0000685434B1FBF0F1204606F08FF9204606F088F9D8F80000C00802D2304604F08A
:20570C0053FE0AB0BDE8F081ECC20000C37A000091740000517900006E200020B03F0050B5
:20572C0000A00C4058C300002C0D00202DE9FC410746BE6833687D68986B20F4FA6098634B
:20574C00AC6B44B13168886B40F4FA6088634FF0FF30BDE8FC81AA6329630024EC776C63AD
:20576C000CE09DF80000296B08706B6B286BAA6B401C2863581C6863501EA863A86B90B917
:20578C003168886B40F4FA6088636A6B6878296B0128A1EB0201296303D1EB6838469847E7
:2057AC006A6B144646E005F14000694603F028FF0028D6D506F06EF9204F8046387820B99B
:2057CC00022004F0F1FD01203870404606F05EF91B49086840F4007008603168886B40F47D
:2057EC00FA6088636878D8B9696805F1EC0006F005F990B9AC6306F04DF90646387818B1E7
:20580C00022004F0B9FD3C70304606F03FF91027696B286BEF77401A2863686BBDE8FC8182
:20582C0095F82D0030B1686B20B1AC6305F19C0006F0C4F82046BDE8FC81C0466C20002090
:20584C00301000402DE9F8438146D9F808703868066CD9F8045046646A6CAB6CA86B16F470
:20586C00F06F0146A2EB03082AD1F00911D270095DD301B395F83C40641EA14298BF0C1CBD
:20588C004846214604F084F8A86B001BA8630DD04DE081B1484604F07BF895F82D10A86358
:2058AC0011B9002843D101E00020A86305F19C0006F084F83BE04846414604F0B9FB36E0D8
:2058CC00F20A19D24FF00008444602E0A86B401EA86340B34846012104F05AF83868446871
:2058EC0014F00F04C0F80480F0D0286B401E2863686B401E686316E0386844680022202964
:20590C0004F00F044260CCBF20270F1C4846394604F03EF8C7F12007B845C8BFB8464846AF
:20592C00414604F085FBEC77484602F007FCB0090BD3A96A49B10F46484604F083F9A86279
:20594C0018B94846391D03F04DFABDE8F88370472DE9FF470CAF3D883E791C4680469146E3
:20596C008A462819B0F5007FC8BF18206FDC394F97F82C00012808BF0E2068D0B968B6F17B
:20598C00120007D0001F19D0801E53D03A3845D0AC3858D181B1872000218E278DF8080079
:2059AC0003228DF8091002AB8DF80A704FF4004001F008FF05F04AF830463CE021B9182016
:2059CC0005F044F9B86006E00F46386820BB182005F03CF93860071C11D187208DF80C0084
:2059EC0000218DF80E00032203AB8DF80D104FF4004001F0E7FE05F029F8132027E00020A9
:205A0C003860C7F8149001233B71FC803D82C7F80CA0A7F8088016E00746D6E752201A4610
:205A2C00009049462B46504600F072FF484605F02DFB08E0182000950190234651464A4652
:205A4C00404601F0ADFD522E0CBF002016200090BDE8FF87341200202DE9F04105F0BEFB62
:205A6C003D4E3C4F04464FEA5408A0081ED3796AE1B13D46002068628A69086906F1080344
:205A8C002040104340F0020088610A691868904318604A6930689043306005F12C0004F02A
:205AAC002BFA022105F1BC0005F020FC786A5FEA580114D200F110020CCA002122400B40BE
:205ACC0008BF002A0BD0016985690C40B8622C434FF48041846107F1BC0005F007FC786A4A
:205AEC00002835D107F12004204605F00DFF051C2ED0F868E968884224D1A86803F00CFF4C
:205B0C0016490860C8B906F1080128690A6810430860686931680843306000233361A86867
:205B2C0046F80C0C06F1100000680028FAD0204605F078FB7D62BDE8F081086802F032FB50
:205B4C00BDE8F08107F1BC004FF4805105F0CEFBBDE8F081300900200C1004405C20002032
:205B6C002DE9F041001D84B214F0030002D0241A241DA4B205F01EFA84463948102C476A8C
:205B8C00C0F820C0C8BF876A398800252E46CA0BD30317D1C288038926B98C421BDD3D46FE
:205BAC00012613E0521E5B1E92B2C2809AB202813B882A88D21892B294422A8006DC2F4607
:205BCC00114608E081F40041002689B27F1839880029DCD100278289002F38D0B0F800E044
:205BEC00056B4689B0F80480C388091B89B27246042913DA39888A18714401800189491E28
:205C0C0001813B887C1B92B2E11889B2B142C8BF4181398841F40041398012E039535B1C03
:205C2C0044F400419BB239804345C380C8BF83801219791B92B2091989B20280B142C8BF28
:205C4C00418141888A42C8BF42803F1D02E0521C91B28181604605F055FB3846BDE8F08128
:205C6C003C0E00202DE9F0410446ADF1180D05F0A1FE04F0CFFC4FF000080746CDF80C8022
:205C8C0005F03CFD30F0010014BF002F6FF0040067D0606858B1B0F1FF3F05D004A904F0E7
:205CAC00DBFA30B106465BE04FF0FF3000E04046049005F07BFE04990126451802E00A4672
:205CCC0044E004907868049B41464FF0004200F035FB002831D0684602F046FE00BB9DF8FC
:205CEC00040005A904F034F888B9A368BDF814009DF80610029A984748B19DF80660A6737E
:205D0C00BDF81400A081029D2561464615E0029903A804F053FC78684FF0004102F02AF8EA
:205D2C000498B0F1FF3FCDD00028CBD005F03EFE281A02D004998142C3D205F093F807F1CA
:205D4C000805039F05F036F947B13A4652F80C1C0029B4D1296842F80C1C2F6005F0D2FA89
:205D6C00304606B0BDE8F0812DE9F84F054605F055F90446284605F05EF90746204605F03E
:205D8C0063FB002F66D03888001D80B204F03EFF041C0DD038782070388800126070B878E5
:205DAC00A070F878E07079683A88201D01F0C8F82B4D002CEC614AD03888001D86B205F061
:205DCC002DF9254AB2F80290834605F067F8A84678BB1546D5F814A0B1452ADB28692146D9
:205DEC003246401C01F0ACF80AF101042E811B486C614FF0010980F8009005F00FF92C696C
:205E0C008246FE20207028693146401C05F0F2F9311948701348B41CC48080F8019004F04E
:205E2C00F1FD504605F010FB286A297F002204F02FF8584605F008FBB8784011012818BF44
:205E4C00032804D198F90000401E88F80000384605F058FDBDE8F88FF0110020411400203D
:205E6C00FC0F0020040F002030B541684A780878ADF11C0D00EB0220ADF804008878CA7829
:205E8C0000EB0220ADF8060008794A7900EB0220ADF808008879CA79012500EB0220ADF824
:205EAC000A00087A4A7A8DF8135000EB022029460DF11302ADF80C004FF44470FCF7A0FCD8
:205ECC00044602210DF1060240F21130FCF798FC0221044302AA40F21230FCF791FC02211C
:205EEC0004430DF10A0240F21330FCF789FC0221044303AA4FF44570FCF782FC0443182C4D
:205F0C001AD0BCB940F21A3005A9FFF761FA9DF81400062805D09DF81400072818BF92248A
:205F2C000BD140F2193029460DF11302FCF768FC18B101E0832400E084248DF81240BDF8C0
:205F4C0004008DF80E000DF10E0545210DF11202022300128DF80F005520009502F0E2FF6D
:205F6C0007B030BD2DE9F04707467D68D7F8089090460E4605F08EFD8246A86A002864D1AA
:205F8C0005F5847004F0D6FE0024EC772E6250466C6205F07BFD05F07DFD2F4E33788246F8
:205FAC0023B9022004F000FA01203070504605F06DFD2A49086840F48070086038464146BF
:205FCC0003F040FEA862C0B93846414602F00AFFA878D0B9A96805F1D00005F00FFDE8B9DF
:205FEC00AC621020E8774946284600F063FE05F051FD8246307840B323E0D9F80010886B2D
:20600C0040F020008863A87810B12046BDE8F087A96805F1D00005F0F1FC10B1686ABDE8E5
:20602C00F0873846414602F0DDFE1020AC624946E877284600F03EFE05F02CFD82463078B7
:20604C0018B1022004F098F93470504605F01EFD4FF0FF30BDE8F0876D20002030100040C3
:20606C00F8B5364C0D46A80846D2E80865D304F1200005F049FC00280EBFE068C068E060AE
:20608C0041682F4A09781160416812680978914207D087692FB16FF0FF0100224FF000738F
:2060AC00B847022004F080F9112000F0FDFA0120E071E168087C10B16079012803D00E202B
:2060CC0000F0F2FAE16849681E488F680FB9CF681FB10021C1611C4F07601C4A40F2FF7195
:2060EC001160002787611A4941611A4805F0A4FA192005F057FCF8BD04F12C06304605F052
:20610C0003FC00F029F8304605F0FEFB25F0020504F1200158B9E80803D2084605F0F4FBC5
:20612C0058B104F1980004F005FE042101E045F0020104F1BC0005F0D9F8F8BD3009002003
:20614C00D021084000100440510007060000046002000040153E0000F8B5071C72D0B8681D
:20616C0040F6030120264A1C02E04068761EF6B260B15EB10388994218BF9A42F5D1F96807
:20618C001CC820311CC149C881E849007868BA690025BD61C8B1F87F42F00202002300F09F
:2061AC000700401E09D0401E04D0801E08D14FF0805304E04FF0804301E04FF000532A4611
:2061CC007C68F868B7F91C10A04705F063FC1E4C0646B4F93200401C6FF31F30608604F1DB
:2061EC002C000168CD7705F01DF8304605F04EFCF868B0F9B810B4F93220914222D12178CC
:20620C0001291FD090F8BA60BEB90668AEB1E2680E4912680968B2F1FF3F13D0B6FBF1F28F
:20622C00012A8CBFB6FBF1F10121703005F0EEFBF868703005F0E6FBF8BD80F8BA5028462E
:20624C0001F0B0FFF8BDC0463009002058C30000F0B5ADF1340DFFF7DBF9304908682822E2
:20626C00082340F00200086001A8002105F0DEFB2B4E2C490524002301AA079406F1BC0082
:20628C0005F0D0FB00213022082301A805F0D6FB0025FF271921244AADF81C5001AB0997D5
:2062AC0006F16000009505F0C5FB2822082301A8294605F0BBFB1D49079406F1F00001AA66
:2062CC002B4605F0AFFB01A829463022082305F0B5FB0124ADF81C40099706F17C001A21F4
:2062EC0001AB134A009505F0A5FB12492A4606F19800134605F072FB0F4805F09DF986F8EA
:20630C005F507571F57135727572B5727561B4714FF6FF70A6F85C000DB0F0BD0020094045
:20632C0030090020C1B20000A1AA0000CD790000198B00009DA900006D6000002DE9F047F0
:20634C001E46904689460746B6F1FF3FADF1480D09D046B1314909AB6846324605F01EFBD1
:20636C000220694601E0002103200C918DF834002B4DCDF83C902C68CDF8408005F01AFB99
:20638C00EFF3118A2025E4190B9085F3118842464946384604F0DEFC031C33D1002E04BF0F
:2063AC008AF31188002036D005F06CFB0B99064609A88861204609A905F0ECFA0B9805F024
:2063CC00E5FA9DF834000024022802D10C9805F0D9FA8AF31188304605F048FBEFF3118342
:2063EC0085F311880C9810B105F0C8FA0C940B98846183F311889DF83400002814BF0E9BC0
:20640C00231C07E00C9818B105F0B8FA00200C908AF31188184612B0BDE8F08705A800007B
:20642C0060C300002DE9F0470D4606465FFA85FA280824BF2E4845402E494FEA8A03C858FE
:20644C0085EA00023240C2F300672B4A06EA0504B043224006F4E0240243B4F5E02F01D1A1
:20646C00500E14D306F4E020074310D002F4E027B7F5A02707D0B7F5803704BF22F40032F2
:20648C0042F4A02203E022F4803242F4C022DFF86C80CA5008F1D00739680122002002FAA8
:2064AC000AF40C4218BF101C5FEA000906D1F00D04D34146C5F3805001F80A00300E0BD356
:2064CC0005F0E8FA290E34BF0021211C3A68A2431143396005F0DAFAB9F1000F06D0F00D88
:2064EC0004D34046C5F3805100F80A10BDE8F087006000A000100840FF7F077F00200240BE
:20650C00F8B505F0BFF801F0B1FD05F0C7F8044604F00C000C284FD0E0081ED204F056F90B
:20652C00274E376805460120014604F05FFC31686943884211D2234C8220B0FBF7F0291A61
:20654C00204605F063FA204605F05CFA0120FCF7E7FB204604F0EEFB2FE020092CD21A48F5
:20656C0005F024F80428FAD01849620906D228B10A460846016821F0010104E00A460846EF
:20658C00016841F001010160D2F898004FF0805440F00300C2F89800D4F8B8018069014643
:2065AC0020208847D4F8B801094C806B2168804701202060206800E030BF05F069F8F8BDA8
:2065CC0058C30000380D0020004003408C2108402C2009402DE9F843044605F05BFA814676
:2065EC002D48021992F8ED10491ECFB2002F82F8ED704BD12B4D05EB84052E78698836F0C0
:20660C007F0788461AD1F10911D24FF08054D4F8B801806901464046884704F5DC74206864
:20662C00406B0146404688470228F8D121E000EB8800D0F80011002088471AE04FF08054CB
:20664C00D4F8B801006A014640468847D4F8B801806A014640468847D4F8B801006B014661
:20666C004046884701210D4A0D48116001688908FCD306F03F003F2801D0FFF7ABFF6878C4
:20668C0000F03F003F2801D0FFF7A4FF484605F0FDF9BDE8F883C0462C0D00202820086046
:2066AC00282008409CBF00002DE9F041064605F0F1F92D4D8046A91991F8ED00421C002873
:2066CC0081F8ED204AD1294C04EB8604277807F03F003F2801D0FFF7E7FF607800F03F002F
:2066EC003F2801D0FFF7E0FF668837F07F001AD1F80911D24FF08054D4F8B8014069014696
:20670C003046884704F5DC742068406B0146304688470128F8D121E005EB8605D5F80011D4
:20672C00012088471AE04FF08054D4F8B801C069014630468847D4F8B801406A014630462A
:20674C008847D4F8B801C06A0146304688470121074A0848116001688908FCD3404605F0AB
