:20000000203F0020394F000001CA011001CA011001CA011001CA011001CA011001CA0110B1
:1C00200001CA011001CA011001CA011001CA011001CA011001CA01103FCA011082
:20003C002DE9F0472C4D002850D0401E4AD0401E44D0401E0AD0401E4CD105294AD1106838
:20005C000C35286017792F71BDE8F087012941D1AF681078002FE8703CD0204801780024FC
:20007C004FF6FF7A8046A14234DDA000C619385A82451ED0B078E0B105F11400EB1C11212A
:20009C00C268934204D0491E00F11000F8D110E08146B078410805D3308801214A4603F0E3
:2000BC00D1FDB078800804D3308802214A4603F0C9FD98F80010641CE4B2D4E7012909D136
:2000DC00AD1C05E0012905D16D1C01E0012901D110782870BDE8F087EC0C00200802002072
:0400FC0006F06FBBE0
:200100003C000000000000000000000034010000000000000000000001000000000000006D
:1C01200000000000000000000000000001000000000000000800000000000000BA
:20013C00340000000000000000000000680100000000000000000000010000000000000005
:14015C00010000000000000000000000080000000000000086
:2001700030000000000000000000000098010000040000000000000001000000FFFFFFFFA5
:10019000FF00000001000000080000000000000057
:2001A0002C0000000000000000000000C4010000040000000000000001000000FFFFFFFF4D
:0C01C000FFFFFFFF08000000000000002F
:2001CC0034050000E401000099A1011095A70110A5C2011009B2011045B80110000000000B
:0801EC00000000002F000000DC
:2001F400280000000000000000000000140200000000000000000000FFFFFFFF00000000B1
:080214000800000000000000DA
:20021C00300500003002000069C201106DC101101FC2011095BA011000000000000000008E
:04023C002D00000091
:20024000300500005402000075C20110A9B601109DBF011049B601100000000000000000DE
:040260002E0000006C
:200264002400000000000000000000008002000000000000000000000000000008000000CC
:040284000000000076
:20028800240000000000000000000000A40200000000000000000000000000000800000084
:0402A8000000000052
:2002AC00240000000000000000000000C8020000000000000100000000000000080000003B
:0402CC00000000002E
:2002D0000000000068120020040000000000000000000000200000007001000030000000AF
:2002F0001C020000701200200400000000000000000000000C0000003004000018000000D2
:20031000400200007812002004000000000000000000000024000000480400001800000055
:20033000000000008012002004000000000000000000000010000000A00100002C0000001A
:20035000CC0100008812002004000000000000000000000020000000640200002400000058
:20037000FFFFFFFF90120020040000000000000000000000280000008802000024000000D5
:20039000FFFFFFFF98120020040000000000000000000000580000003C01000034000000BA
:2003B000FFFFFFFFA0120020040000000000000000000000100000006004000018000000CF
:2003D000FFFFFFFFA81200200400000000000000000000001C000000AC0200002400000045
:2003F000FFFFFFFFB012002004000000000000000000000038000000F401000028000000B6
:20041000FFFFFFFFB812002004000000000000000000000054000000000100003C00000051
:1804300018000000000000000000000040040000080000000000000050
:1804480018000000000000000000000058040000080000000000000020
:18046000180000000000000000000000700400000800000000000000F0
:0804780001000000886C000087
:040480000068704759
:040484000100000073
:0404880000000E0062
:04048C0000000F005D
:040490003200000036
:040494000100000063
:04049800B811002077
:04049C00000200005A
:0404A0000000000058
:0404A40001CA011078
:0404A8000000000050
:0404AC00000000004C
:0404B0000800000040
:0404B4000000230021
:0404B800A010002070
:0404BC00010000003B
:0404C000D011002037
:0404C400080000002C
:0404C8000000000030
:0404CC00000000002C
:0404D0000000000028
:0404D4000000000024
:0404D8000000000020
:0404DC00010000001B
:0404E00008110020DF
:0404E400060000000E
:0404E800010000000F
:0404EC000C100020D0
:0404F0000000000008
:0404F4000000000004
:0404F80000020000FE
:0404FC0000000000FC
:02050000704742
:020502002900CE
:020504000100F4
:020506002500CE
:020508002D00C4
:02050A002E00C1
:02050C002F00BE
:02050E000100EA
:0105100001E9
:0805140003000000506C000020
:08051C000000000000000000D7
:0405240000000100D2
:0405280000000300CC
:04052C0087C401106F
:04053000380500008A
:040534003805000086
:0405380000000000BF
:04053C00900000002B
:040540009000000027
:0405440000000000B3
:04054800D0110020AE
:04054C00D764000070
:040550002000000087
:04055400F86B000040
:04055800C06B000074
:04055C000DC30110BA
:040560001B59000023
:040564000B61000027
:0405680099C801101D
:04056C009BC8011017
:040570000000000087
:04057400BF6B000059
:04057800106B000004
:04057C00286B0000E8
:04058000F86A000015
:0205840008006D
:0205860009006A
:02058800010070
:02058A0000006F
:01058C00016D
:040590000000000067
:040594000000000063
:04059800000000005F
:04059C00000000005B
:0405A000E767000009
:0405A4000D540000F2
:0405A800AD5F000043
:0405AC00BD57000037
:0405B00045540000AE
:0405B400FD5A0000EC
:0405B80035420000C8
:0405BC002B660000AA
:0405C000A54700004B
:0405C40011C8011049
:0405C80021C8011035
:0405CC000800000023
:0405D0002400000003
:0405D400180000000B
:0405D80028000000F7
:0405DC0020000000FB
:0405E0003C000000DB
:0405E4000C00000007
:0405E80034000000DB
:2005EC002DE9F04F0120ADF1240DADF80A004FF00808ADF8088002A805F0A2F900263546A4
:20060C00D84C8DF81C509DF80C006070A6700498E0614FF6FF70A082404605F0D3FC071C12
:20062C000CD00121122205F0F3FF05F0DBFC07A90123D54A0091394604F0A8FE9DF81C007B
:20064C00D74F324601232070394604F1A80004F09BFB04F1CC0032460223394604F094FB36
:20066C0004F1F00032460423394604F08DFB042031461022E07004F1480003F0B3FC04F1FE
:20068C0058003146102203F0ADFC2562267266720720E67204F148021021A072022005F0A2
:2006AC001FF804F158020320102105F019F8042004F12002014605F013F819E0A078B4F82F
:2006CC004050B4F84230B4F84420B4F8461006280ED1ADF80A50ADF80C30ADF80E20C8487E
:2006EC00ADF8101006F073F8012002A903F0FAFB0A20ADF80A00ADF808804FF0FF370397FF
:20070C0002A805F01DF9002840F0D38130460690ADF808800927ADF80A7002A805F010F93C
:20072C00DDF810A00028CDF818A040F0C281BDF80C00102840F0B18160789DF80E10884260
:20074C0040F0AB81554628884FF6FF71814200F09C812F78A23F00F081812E3F40F09D812C
:20076C00A878B146002800F04D81801E00F02581401E012840F2F880801E00F0AC80401EF3
:20078C0073D0401E60D0083800F05981801E40F05B8194F83E70A888052FADF808004BD062
:2007AC0001208DF81200964806F011F894F83E00012820D004281ED003280DD002280BD08E
:2007CC000698C188ADF80A100189ADF80C104189ADF80E1080892BE0B4F84000B4F8427031
:2007EC00ADF80A00B4F84450ADF80C70B4F84600ADF80E501CE0B4F84000E9888842D8BF2E
:20080C00081CADF80A002989B4F842008842D8BF081CADF80C006989B4F844008842D8BFE0
:20082C00081CADF80E00B4F84610A889814200DC0146ADF8101001E08DF81260AA4A02A881
:20084C00122104F0E8FFFFE0A84805F0C0FF6878002840F0F980E888E08228892083688933
:20086C006083674805F062FEEEE0B5F804900A2005F0A8FB071C0AD00121152205F0C8FEA3
:20088C00A7F8089005F0AEFB394605F0CFF9B9483146062203F0A6FBE68226836683A879EC
:2008AC006073574805F093FF904805F090FF4FF001094FF6FF706779A0824FB9A87908287F
:2008CC0014BF04200520A070484605F065FDBBE00320A070B8E0687800283DD1A549281D4C
:2008EC0002680A60808888800627A7706889A082E889E082288A2083688A6083E8782073C1
:20090C0094F83E00012818BF022808D11F2004F0F3FB4FF47A714143394804F055FD95F8D7
:20092C0003B0B5F80A90142005F04CFB071C00F08E800121142205F06BFE87F808B02D1DE9
:20094C00FD60A7F810900420B87405F04BFB824A394604F0FDFC7AE0687831286CD12671C5
:20096C00042024E0080200206878002864D1A878618AA278032815D02079677931B901281B
:20098C0014BF6671267107E00F660000074303D0744804F019FDA278072AE1D1062006E0C2
:2009AC00A5630000062A06D0207910B90320A0704DE00220FBE70720F9E7687800283BD13C
:2009CC00EF78A078E17997B9022815D0072813D0062802D1617901290ED103280CD061482D
:2009EC0005F0A4FD40B9012005F0D6FC04E0624A484604F027F868706878E8B924E0C046E0
:200A0C00D40200206878B8B9574A0220102104F081FE564A0320102104F07CFE5748ED1C12
:200A2C00AF88878029680160554A01231846A179A37004F007F850B184F8028007E0A88823
:200A4C00464A102104F0CEFEB9F1010F25D1606A18B3016809B3A07888471EE0687913289E
:200A6C001BD12889012808D1A07B022805D11F4805F0ADFE04F01CF90FE0052004F03CFB61
:200A8C0001461A4804F0A0FC07E06888C00B04D3374A0420014604F03DFE069848B1ADF841
:200AAC0008800320ADF80A00CDF80CA002A804F047FF208A67792179420832D320F00100F7
:200ACC0057EA010520822CD097B92E49207A8DF80800677A8DF809700A680DF10A052A604F
:200AEC008988A98007E0C04681670000F802002003208DF80800A07AE77A194A8DF810009E
:200B0C0006218DF8117002A804F032FA616A38B184F8028021B1086810B109684046884757
:200B2C00208A810807D3184920F002002082304603F0D8F9208AC108FFF4DAAD20F004004C
:200B4C00A77B2082781E3FF4B9AD401E7FF4D0AD04F0AEF8CCE5C046D7650000A5670000AF
:200B6C0099670000B0020020500200206002002028020020400200208F02002034020020F0
:200B8C00700200203A020020460200202DE9F04F08260127ADF1340DADF800606846ADF811
:200BAC00027004F0CDFED34C9DF804002070029804F12C050021A060284605F0E1FECE4976
:200BCC0041F28832042304F16C00E56004F0DCF800251F200621656004F07EFC5020ADF8B4
:200BEC001A008DF82270A846ADF8188039468DF823700DF12202ADF81E804FF44870ADF8F1
:200C0C001C004FF47A70ADF8200040F2053000F06FFD40F20630022106AA00F069FD4FF423
:200C2C0042701E2104F14D0200F062FD40F20730072104F11C0200F05BFD4FF444703946C2
:200C4C000DF1230200F054FD40F2113002210DF11A0200F04DFD40F21230022107AA00F002
:200C6C0047FD40F2133002210DF11E0200F040FD4FF44570022108AA00F03AFDCA49032017
:200C8C0004F048FB0620A02104F026FC0720A02104F022FC3046A02104F01EFC0920A021EB
:200CAC0004F01AFCCDF81480B9468DF826804FF481608DF8249004218DF8259005AA8DF8AB
:200CCC00279004F0EFFB4FF48060394609AA04F0E9FB40F2024039460DF1250204F0E2FB5D
:200CEC0040F2034039460DF1260204F0DBFB40F2064039460DF1270204F0D4FB032004F00C
:200D0C0023FD042004F020FDBD48BE4A132104F011FA4FF0040ABC4DADF800602878ADF892
:200D2C0002A080000190684604F00AFE00280CBF029F4746B5488346876087B12B7843B1AD
:200D4C004FF6FF713F1F404627F8041F5B1EB870FAD1AF4A0BF11400112104F0EBF9022308
:200D6C008DF82BA048468DF8293003228DF828006F468DF82A20A74B0C9719681879396015
:200D8C000AAA387149464046FFF752F9484649460DF12902FFF74CF9022049460DF12A0238
:200DAC00FFF746F9032049460DF12B02FFF740F9504605216A46FFF73BF904F11800AF781C
:200DCC00CBF8040037BB04F1140095F801B095F803906862182005F0F5F8071C1AD051465F
:200DEC00424605F04BFB584605F080F8387287F8099087F80A8005F14800F86005F1580367
:200E0C003B6105F120027A6105F0ECF8824A394604F09EFA0C2005F0D5F8071C0BD0012179
:200E2C00524605F0F5FB04F12400B86005F0DAF8394604F0FBFE0120102104F09FFC0220C2
:200E4C00102104F09BFC754942F22F0004F030FF0A20ADF80200ADF800604FF0FF370197A3
:200E6C00684604F06DFD002840F0B18000200490ADF800600927ADF80270684604F060FDD2
:200E8C00DDF808800028CDF8108040F09B80BDF804004FF0010910285ED120789DF8061075
:200EAC00884259D1454628884FF6FF71814225D02F78913F17D01F3F4ED1687816280CD1B4
:200ECC006888314604F05AFE38B9484604F0C4FE04984FF0000920613EE0297905F10800FB
:200EEC0005F0A6F938E06878102835D1304603F0B7FF31E0880500202965000068880009B8
:200F0C002AD3256945B36078B5F802B0401C607095F804A0102005F055F80835071C1BD0F1
:200F2C000221152205F074FBA7F808B087F80AA0FD6005F057F83A4A394604F009FA054681
:200F4C00162D09D0042D07D020694088002104F015FE284604F080FE0498002832D0B9F198
:200F6C00000F2FD0404605F093F92BE0E068054605F002FD854208BF002702D0876805F053
:200F8C007BF9381C1ED03888401E0FD0401E10D1B87818B1801E0CD1022000E000200BA909
:200FAC0003F0A2FF05E0C0467B670000B87801F09FFFADF800600520ADF8020001976846EE
:200FCC0004F0BEFCE06805F0D3FC0028CED06088C108FFF43DAF20F00400608005F068FBA9
:200FEC0002200DF12D0103F07FFF00287FF430AF032001210DF12D02FFF71AF828E7C0461D
:20100C00BC0B00202C6C000008020020EC0C0020386C0000726C00008767000067670000C5
:20102C00E56500002DE9F84F8046DC480122A0F130010A60D6490F68002FFCD0D64CD54AF2
:20104C00C02704F1040B1760DBF80010890804D22168090C41F0F00100E07221E24AE34D49
:20106C004FF0000A82F85412A5F1D407C0F800A0A66838683146C0F304601628A8BF203839
:20108C0000EB2170401C162805DA10F10A0FB8BF6FF0090000E01520E54AE64F00F01F00CE
:2010AC0040F4F8501080386880083ABFE248C0F800A041F04061E14AA946C80E8F0EA9F17C
:2010CC003C0580F0010000F00100106087F0010000F0010090602868C0F38367C0F38F2108
:2010EC00B00C22D246F3072000280BD542425046490805D17F0806BF0127391C4FF6FF710D
:20110C00521EF5D1002810DD4FF6FF72490041F001018A4207D27F0047F001070F2F92BF54
:20112C0001210F27111C401EF0D141EA0741182004F054FA28682F68C0F3870107F00300B6
:20114C0041EA002188B20090BE4840F2FF3253462C21403803F0F4FD4D46A5F110073868E2
:20116C00C0F30D011C2004F039FAB54957F8080C014000F07C400143142004F02FFA57F80D
:20118C000C1C01F47C000904090C0143102004F025FA57F8042CDBF80010C2F30350C2F3E2
:2011AC000343490812D221680C0510EB247003D41028A8BF0F2000E05046090413EB2173C5
:2011CC0003D4102BA8BF0F2300E0534643EA001302F47F4002F0FF01B8F1220F40EA0340B1
:2011EC0041EA000124BF02F0804211430C2004F0F5F9B8F1220F32BF01202868C0F300701F
:20120C00904CB8F1220F4FEA400040F0200084F8090126BF2868C0F3407001208A4FB8F142
:20122C00200F40F0100084F8090138BF514606D33968C80C00F44070C1F384510143282018
:20124C0004F0CCF9B8F1200F26BF3868C0F301505046B8F1220F4FEA400040F0600084F873
:20126C000C0126BF2868C0F3C0605046B8F1220F4FEAC00040F0800084F8010126BF286801
:20128C00C0F345505046B8F1200F4FEA800040F47C40A4F89C0138BF6C490AD3386801037D
:2012AC008A15920501F47C1100F00F00114341EA0031082004F092F94F464FF4800020603C
:2012CC00A7F1D000816D40F20F226FF31F418A4213D901680068C1F30363C0F3034003B13A
:2012EC005B1E072805D006280EBF0720801C00F00F003D4943EA00100870C6F381435B1E77
:20130C0002D05B1E27D022E03968880C1FD24FF4804020604E48D0F802204B0A03F0800389
:20132C0022F08F021343C1F303321A43C0F80220D0F801300A0A62F30303C0F801300268CD
:20134C0001F0E70322F0E70243EA020102E04FF0004120460160DBF80000C0F3C0030BB945
:20136C004020A0624FF4007020642868C0F3C14040F0300084F8C800C6F38150394E4FF090
:20138C004008A8B3401E0BD0401E28D0022127E09402224300600C40AC3F0050401009406A
:2013AC00012004F0ADFE05460420294603F00EFC042004F0A5FE8542FAD12648056825F049
:2013CC007F4004F005FB304614300068036807214FF06022280E98474FF4806020600321FC
:2013EC00042003F0F3FB0AE0026008408C1300500420012103F0EAFB174804F0E9FA203FA6
:20140C0038681649164B47F6180500F03F0084F8CB0F32460D8018681068C168022088476A
:20142C001248114FC0F8008001213960BDE8F88F6E6208400000094094042A4300002043FE
:20144C00FCFCFC0040A00C409813005000803F400A600840A83F0050BD37860070B00C4097
:20146C002C200940A00100109404604200600C402DE9FE43974C0F460546F80B80F0008166
:20148C00B80880F0ED80B80F6ED2A07A00284FD138094FD30025012665708F48267205F052
:2014AC00C5F88E492A4604F1600005F087F96079012821D1A079F8B9DFF82482E669D4F8FC
:2014CC001490D8F8000078B104F0CEFFA0EB09004346000B3618A0611868B6EBC01F24BF48
:2014EC00281CE0610AD2E66104F1BC004FF0005104F082FF284619E06671284640F6090295
:20150C00A28694F8412002F0F00242F0010284F84120E58694F84020294602F0F00284F88E
:20152C004020704BA16304F134061E60606118E0380914D2B80BC0F0C48004F1240005F02E
:20154C0044F9061C08D0706830B17568F068B6F91C1000222023A84727F40057B1E0002008
:20156C00A07227F00807ACE0A968088840F60208804507D00A8B4FF61F60104040F434709D
:20158C00088306E00A8A4FF61F60104040F4347008826069D0B1042004F0B2FDB0B104F05E
:2015AC0063FF6169814226BF401A401E401A000BE860E868698A401840F6C411E860814235
:2015CC0003D340F2EE22824200D9E960AE699EB14548B04210D094F8410010F00F0F0BD175
:2015EC00698C08F10700884206D128466FF4807100224FF00073B0473C4904F160000022C0
:20160C0005F0DCF8A07958B10220ADF80000684604F0CEFB0026A671BDF80800A4F85C00AF
:20162C000120607020794FF00008401C207104F1200084F8078005F0C8F8002808BF47F0ED
:20164C00020702D0192004F079FF6E692EB1414628464FF080630A46B04727F0005730E06C
:20166C0004F12C05284605F0B0F801F0C5FB284605F0ABF827F0020708B147F0020720E05D
:20168C0005F072F9014604F1280005F09EF80646B569A80810D27EB125EA0500B061084651
:2016AC0005F05EF9706850B12A46F068B6F91C1075680023A84702E0084605F051F927F4DD
:2016CC00804727B104F1BC00394604F095FEBDE8FE83C046F0080020B5360000415F0000D9
:2016EC00481D0020001004403B3B0000012B0000F8B5A0F2013517460E46022D40F2148147
:20170C008A4A8B498B4B2D1F0F2D04D9143D4AD0AD1E1CD011E0DFE815F0C300BC00F40088
:20172C00E400B300AB000701A2009A00100010009200880079006F006300282880F2F4805C
:20174C00022E40F0F180398803F0C6FEF8BD012E40F0EA8015462879012800F0E580517972
:20176C003878507181B9002800F0DE809078012800F0A980042800F0A680062800F0A3806F
:20178C00052800F0A080F8BD3878002840F0CC809078032800F0A280072800F09F80052847
:2017AC0000F09C80F8BD012E40F0BE803878012840F0BA80154605F1F00004F0B7FE00286A
:2017CC0040F0B2802C46002004F13E0102F08AFB002840F0A98004F1CC0004F0F8FFF8BD7C
:2017EC00022E40F0A18038880A28C0F29D80B0F5486F00F3998015E0022E40F09580388809
:20180C00B0F5FA7F80F290800880F8BD022E40F08B8038880628C0F28780B0F5486F00F37E
:20182C0083801946891C0D4638E0022E7CD13888062879DBB0F5486F76DC1946F3E7012E55
:20184C0072D1387806286FDA891F0D460EE0012E6AD13878042867DA15460B3506E0012EF2
:20186C0062D1387808285FDA15460A352870F8BD012E59D13878042856DA1546093506E045
:20188C00012E51D1387804284EDC154608352946DBE7022E48D13888154612352946B3E768
:2018AC00012E41D11546687901283DD011793878107161B9002837D09078012803D0042835
:2018CC0018BF052830D1012004F066FDF8BD387850BB9078022818BF052825D104F0FEFDF4
:2018EC00F8BD154605F1870400211F22204602F079FB39463246204602F034F80020EE7123
:20190C000EE0154605F1680400211F22204602F069FB39463246204602F024F80120AE7147
:20192C003146224603F08EF8F8BDC046080200204C020020480200202DE9F04F0128ADF16A
:20194C00140D40F0F280DFF81492D9F8DC00012840F0E9800220C9F8DC0004F0FDFF02908B
:20196C00012003F059FA20B101210646C9F8DC10D5E004F0EDFF03906E484FF00008C0F82B
:20198C000080012004F0BCFB012818BFCDF8008004D1404602F0AEFF0120009066486E4C97
:2019AC00C0F800801934D4F8FF0F112004F074FE00280CBF46460126102004F06DFE08B137
:2019CC0046F002060F2004F067FE08B146F004060B2004F061FE30B1584800685849006BC9
:2019EC000246088890470A2004F056FE0028404618BF01204FF0805B0BF5DC7528B1286840
:201A0C005049006B0246088890474F480127076028688069014646F0200088474B48076002
:201A2C0004F034FE00F001010191400815D2484804F0B6FD8246BAF1040FF8D0BAF1010F81
:201A4C0006D1DBF8D801406802464148032190474049086820F003000860404600F080F821
:201A6C002868D4F8FF1F806B8047019801280ED0BAF1010F06D1DBF8D801406802463448E4
:201A8C00394690473349086840F0030008602A480760286840690146304688470B2004F0A0
:201AAC00FBFD28B128682649C06A0246088890470A2004F0F1FD28B128682249C06A02461F
:201ACC0008889047204807600322C9F8DC201F4BC3F800802868406B01463046884701284D
:201AEC00F8D1042003F098F9124807601A48D4F8FF1F01688909FCD30098012802D1384680
:201B0C0002F0F8FE04F0BCFD082003F085F906460398C9F8DC7004F017FF02F0B3FD029851
:201B2C0004F00EFF02E0042600E00126304605B0BDE8F08F0C40094000022243B801001071
:201B4C008E6A00008A6A00002820086080010443004003402422084014100940100E002059
:201B6C002DE9F84FDFF8F8B10746ABF13500794B0068800880F0DF8004F006F97C490831EA
:201B8C00D1F8009000254FEA29715FEA995201F101010AD2C0F13E0210F10A0F4FEAE202BC
:201BAC00D8BF08229142B8BF111C674CD4F87C21C2F30462162AA8BF203A2468C4F304441E
:201BCC00162CA8BF203CA2465218162A05DA12F10A0FB8BF6FF0090200E015225B4C5C4E1E
:201BEC0002F01F0141F4F8512180316811F0030F18BF0125C90828BF45F002050FB145F016
:201C0C00040593F90710411A052904DA9979A94208BF99886FD0DFF840E10F28A0F10F08AA
:201C2C0029DB08EB0011A1F1F0084FEA28210091072984BF07210091062988BF06215EF8D4
:201C4C0021600424774604EB81043C594FEA950CA41BEE0804F0FF0124BFC4F3072631444A
:201C6C006F08AE0824BFC4F3074631446E0828BF01EB146104E000214FEA950C6F0800912A
:201C8C00009C5EF824E05FEA5C060EF0FF0424BFCEF3072634447E0824BFCEF3074634445E
:201CAC006E0828BF04EB1E64009E89B2A8EB06267143803104EB1124AAEB02010029D8BFD1
:201CCC000121342209F0FF074A4391B24FF6FF727943B1FBF4F18A4238BF111C802889B2DB
:201CEC00998005DA10F1800FB8BF6FF07F0000E07F20D8719D71194800681F2918604FF05D
:201D0C00000008D340F2FF128A4206D24908401C8A42FBD301E01F219980124F0F390909B9
:201D2C0040EAC10047EA0001CBF8FB1F0026CBF8FF6FBDE8F88F08209B1D0B4918700B4F04
:201D4C000F60BDE8F88FC0463C1100506E620840242208404C1D00209C130050082009409A
:201D6C003500094000E7A48030100940FDFDA400AC3F00502DE9F843814604F07BFC0021C8
:201D8C0000B901216B4E30680028FCD06C4D01242D1DEF6A346009B104F072FCDFF89881F6
:201DAC00C7F3072008F1BC01086004F063FC002100B9214630680028FCD02F68346009B113
:201DCC0004F05EFCC7F38440C8F8C00004F052FC0146002001B92046014630680028FCD00F
:201DEC00ED69346009B104F04BFCC5F38120C8F8D000B9F5C061C8F8B81000F0968098F822
:201E0C00D80068B9C8F8D410D8F8C000C8F8C800D8F8BC70C8F8C470D8F8D060C8F8CC6025
:201E2C00D8F8D410D8F8BC60002954BF02206FF00100454605F1C8031A6801EB41014018E4
:201E4C00411000EB917002EBA0021A60D5F8C810C5F8C46000291CDD1E293DDDD5F8CC008E
:201E6C0030B93429B4BF15391E21C5F8C81025E02A29BABFD5F8C8000B381E20C5F8C8000F
:201E8C00D5F8C4003F28B4BF401C3F20C5F8C4001FE0D5F8CC00032812D011F10B0FC6BF49
:201EAC00D5F8C8000B30201CC5F8C800D5F8C4000028CCBF401E0020C5F8C400032009E036
:201ECC0011F1150FC6BFD5F8C8001530201CC5F8C8000020C5F8CC00B5F8C400174E3021E0
:201EEC004FF47F4208230090304602F029FF009404214FF400321123304602F021FFB5F8F0
:201F0C00C80004214FF4F80212230090304602F017FFB5F8CC0020214FF440620A230090EC
:201F2C00304602F00DFFBDE8F883002088F8D800BDE8F88300800C40100E002000A00C4073
:201F4C0000A00C402DE9F04FADF1840D00F044FD02F0D2FE0026012804D104F0C9F902280E
:201F6C0008BF01265F490868C0F38150012806D151F80C0C0127010E07FA01F006435A4856
:201F8C00614F007807F12C00036802F0B5FE03F07F03012804D104F0ABF9022808BF5B1C66
:201FAC00524D2B602C463BB1FF2104F140001F467F1E00F8011BFBD14D4800684FF0000911
:201FCC0000F0FF01FE291BD0DFF824C100F0FF0749460122FF2F0CD0BB427FD902FA07F736
:201FEC003E427BD100F0FF0047EA0909201880F840105CF8040F491C00F0FF07FE2FE9D12E
:20200C00092001F081FA3A48002124220823606017A804F091FC4FF0010804F1240017AAE9
:20202C008DF87480414604F083FC236843B3002794354FF0040BBA4608FA07F0064219D137
:20204C0019EA000F04BF07F0FF0141F4C04105D03819274990F8400051F82010254801F03D
:20206C0035F8F8B24FF0FF3104F058F82368C5F800A001E0C5F800B07F1C2D1D9F42DBD320
:20208C0001A800213022082304F04EFC0025FF20102101AB0990184A009504F1080004F00D
:2020AC003FFC0DA828220823294604F035FC2B4604F160000DAA13931049149304F028FCE0
:2020CC000F4951F80D0C20F4F85040F4005041F80D0C4746C1F8FF7F0A4E376021B0BDE8DF
:2020EC00F08FC046B43F0050581D0020581B00206C6B0000007FC76745610000B14E0000BB
:20210C000D30094008000940181300502DE9F04F6B4CE2680746880FADF1140DC0F0C18077
:20212C005068406808B18047E26851685E4E886808B9CD687DB13568002DFCD000223260A6
:20214C0010B18047E0684168C86800B180475D48503803F02DFE4FF00008C6F800805348E7
:20216C0046F81C0C524804F061FA40F60A09A4F834906379A4F83680BD6894F84000C34633
:20218C0004F1340A00F0F00084F84000012BC4F838B094F84100A5F8028000F0F00040F098
:2021AC00010084F8410001D17B7C93B1B8680088A9F10801814205D0298B4FF60F400840D5
:2021CC00288304E0298A4FF60F400840288287F811803848016883680193C368406B00914C
:2021EC001022694620F0784040F0805003903248029301F0B7FB494600E01D466B6813B17C
:20220C0018888142F9D1C5F804A0687B00F0F000687304F1200004F0D8FA80680088CA1F52
:20222C00824220D0891F81421DD03B8CEBB197F82C0097F82D30C7F824B000F0F00087F88A
:20224C002C0003F0F00040F0010087F82D0007F12002A2639AF80D00A7F8228000F0F000A7
:20226C008AF80D0001E0C4F8148030680028FCD0C6F80080012003F043FF012808D0687B8E
:20228C0000F0F00040F0010068730C4804F0CEF9B9680A8A4FF6FF3010400882B86846F8D6
:2022AC001C0C05B0BDE8F08F1C10044001010E047D1400004C13005018000021ED460000E1
:2022CC00F0080020510007062DE9F84F994692468B46064604F048FB604C0090B4F93210E9
:2022EC00B4F930000AAF401A40F6F8710140082980F29E80B4F9300004F59475401C6FF3A4
:20230C001F3020860820B4F93080EB7F33F07F0304D0401E05F12005F7D1002506F1700087
:20232C0003F0B0FEC5F808B085F81EA0C5F80490A5F81C804A48EE6097E80C0020210027E3
:20234C001940104005F1100383E8030004F12000EF770368002B5ED1294603F08DF9002801
:20236C005FD0A6F8B880E87F40F08000E87796F8BA00012804BF86F8BA70A771607A40B117
:20238C00607830B10120A0726772A7712079401C2071009804F0E4FA606A00285BD160786E
:2023AC00002834D1E079012855D004F0DDFA0646207A40BBA86802F071FF2B49294AE368ED
:2023CC0009681060B0B1DD681068401BB0FBF1F0012898BF012104D9DB681068C01AB0FB4C
:2023EC00F1F19834204604F08FFA204604F088FA30462EE0304604F0B3FA04F1BC000421F3
:20240C0003F0FAFF27E0194901200870F0E7192004F094F81FE004F12000294603F02CF997
:20242C0048B9B4F9300000F6FF706FF31F3020866FF001080CE0A6F8B880E87F40F08000B5
:20244C00E87796F8BA00012804BF86F8BA70A771009804F085FA4046BDE8F88FF008002048
:20246C00F1EFFF9F481D0020806C0000441D00202DE9FC415E4C574D574EDFF860815A4F39
:20248C0094F8E410481E0B2861D8DFE800F07B2C43062343062343067664042907D001225E
:2024AC000A2945F8212C14BF0220032004E02021012045F8211C024684F8E200002045F878
:2024CC00390C0827C5F8FF7FC5F8F37F45F8392CBDE8FC81052914BF09200620002584F85D
:2024EC00E400356070E094F8E1700120383D002FC5F81B0004BF0620002102D00021F1603F
:20250C00032084F8E400032045F8010C31603068800859D294F8E400012503280DD0002124
:20252C00404660220523009102F00AFC94F8E400062814BF0A200720D1E702200090002189
:20254C0060220523404602F0FBFB0420C7E704F0D3F9BDE8FC812249002622480E60012514
:20256C0005600E2000F066FF022003F061FA84F8E45084F8E360BDE8FC81002038600C257D
:20258C0078601FE01948006800680146202088472C3D41F61D560F2000214FF4C0720723CF
:2025AC0045F8010C4046C5F803600225009502F0C7FB404600214FF4C072072302F03CFD3E
:2025CC000120386084F8E45004F1780004F098F9BDE8FC8139400C4038600C4000A00C40DD
:2025EC002C500C4004800C4034600C40A0010010100E00202DE9F8435C4C04F1200004F066
:20260C00E4F815460E46009004F0AEF905F001078146B6F1FF3F0CD1606A20B9B4F93200F0
:20262C00401C06B202E0606AB0F91C60002084F85F00304603F026FB0326002800F08A80D9
:20264C00616ADFF81C81814256D0009988421FD104F1980003F016FD6E10A8083ABF206AAF
:20266C00006800202062484604F07AF90099C87F40F00400C877684603F06AFE0146404626
:20268C0002F0FAFF009808B17008EFD283261BE00F1C02D1832E17D013E03968884228D128
:2026AC0004F1980003F0EEFC00980168AA0802D20A6802600846002202600091009860B935
:2026CC008326484604F04CF9E079012845D004F1BC00022103F090FE3FE0C17F41F00401FD
:2026EC00C177684603F034FE0146404602F0C4FFE4E739680091CBE7A9084FEA650603D367
:20270C00216A009100252562C27F0121B9401143C17704F01DF90446002F14BF11481248F4
:20272C0003F046FB484604F01BF9700801D3009820B9204604F008F983260EE0C17F41F0A3
:20274C000401C177684603F003FE0146404602F093FFECE7484604F003F93046BDE8F88356
:20276C001C0900200100020401000104F0080020F8B5414C201D0368B3F1FF3F08BF002335
:20278C0002F0BAFA002876D13C4E20683468070F04F0FF04802C28BF002402F0ADFA4FF0CE
:2027AC00FF3578B1401E07D0401E012802D9801E13D014E08FB112E0381C5CD0801E0ED175
:2027CC0014340BE03846401E55D0801E53D0001F51D0401E03D1163400E00A3465B2162DC4
:2027EC0049DB27482749002501270560264E0F60264C376020680028FCD1274A161D24499E
:20280C00244F306820F0030001433868C0080CD2106810F0030F0AD041F003003060106864
:20282C0000F003000328FAD101E041F001011B483160006820B11A4800681846FEF7F2FB58
:20284C00184819490560194F0A686FF35B4247EA0200086016490868C0F30130012806D11E
:20286C000A681448104040F400320A60086020680028FCD1F8BDFEE718130050A010005064
:20288C00840460425C600C40082204430C00684204000020B03F0050004003408001284301
:2028AC00000120438C210840482003400000390104000940FFFFFCFC2DE9F04F0C46454956
:2028CC00CA7AADF12C0D84460592487B09900D7900958A7A488B4B8A0E7B91F805A091F80D
:2028EC0002800492B1F846E008904A7A088B0392CD7807900A7AC88A02920F6A0690CA79C9
:20290C00888A01928A79E146A9F54079B9F11D0F10D8DFE809F05B5553514F4D4B494643FA
:20292C00413F3C3A380F34312E2B2923201E1C0F19181716BCF1280F49DA604602F0DCFB07
:20294C0021E0099EB246D046CDF814801DE00898079007980690DDF818E005E03831086868
:20296C0020608888A08032E070460AE0B1F8440009E0B1F8420004E0B1F8400001E091F8F1
:20298C003E00034612E0208021E0059804900498039001E03231E2E703980290029800904D
:2029AC0006E0019A87310DE068310BE01846EAE7009D0BE02C31D2E7276008E0583100E0BC
:2029CC0048311022204600F0CDFF00E025700BB0BDE8F08F080200202DE9F041444C94F83D
:2029EC00E700ADF1280D00286FD1394F387B01250021242284F8E7507E6884F8E6000823BB
:202A0C00C4F80C6101A803F073FF002604F10C00069601ABADF814602E490796324603F06C
:202A2C0063FF2D4904F1300001AB324603F05CFF2A4904F1540001AB324603F055FFB868D4
:202A4C00014628468847DFF89C8025487B7B0078D8F80410C1F381571BB1032F03D184F85A
:202A6C00E150032F16D0022F14D0012F26D103201D4C009031464FF040521C23204602F0CA
:202A8C005FF9009531464FF400720923204602F057F913E0022002F0E3FF032F0CBF4FF414
:202AAC007A7142F21071114800685434B1FBF0F1204603F029FF204603F022FFD8F80000C9
:202ACC00C00802D2304602F0CBFF0AB0BDE8F0810C6C000063400000D13B0000753E000072
:202AEC00581D0020B03F005000A00C40806C0000100E00202DE9F04103F012FC3D4E3C4F82
:202B0C0004464FEA5408A0081ED3796AE1B13D46002068628A69086906F108032040104336
:202B2C0040F0020088610A691868904318604A6930689043306005F12C0002F09DFD0221B1
:202B4C0005F1BC0003F058FC786A5FEA580114D200F110020CCA002122400B4008BF002A6E
:202B6C000BD0016985690C40B8622C434FF48041846107F1BC0003F03FFC786A002835D166
:202B8C0007F12004204603F020FE051C2ED0F868E968884224D1A86802F080FB16490860C3
:202BAC00C8B906F1080128690A6810430860686931680843306000233361A86846F80C0C68
:202BCC0006F1100000680028FAD0204603F0C0FB7D62BDE8F081086801F000FCBDE8F0810C
:202BEC0007F1BC004FF4805103F006FCBDE8F081F00800200C100440481D00202DE9F043B0
:202C0C000546ADF11C0D03F06BFE02F0C9FE4FF000090746CDF80C9003F068FD30F0010012
:202C2C0014BF002F6FF0040066D068684C4658B1B0F1FF3F05D004A902F09AFE30B18046F0
:202C4C0059E04FF0FF3000E02046049003F044FE04994FF00108461802E00A463BE004938B
:202C6C007868049903F034FE00282DD0684601F0EDFDD8B99DF8040005A902F047FC88B9AA
:202C8C00AB68BDF814009DF80610029A984748B1BDF814009DF80660A881029BAE73C84674
:202CAC002B6111E0029903A802F094FF0498641CB0F1FF3FD4D00028D2D003F00DFE331A0C
:202CCC0002D004989842CAD2039E03F089FA07F1080546B1324652F80C1C0029BDD12968BF
:202CEC0042F80C1C2E6003F093FB24B1786803F0EBFD641EFAD1404607B0BDE8F08370476E
:202D0C00F8B5364C0D46A80846D2E80865D304F1200003F05AFD00280EBFE068C068E06031
:202D2C0041682F4A09781160416812680978914207D087692FB16FF0FF0100224FF0007322
:202D4C00B847022002F08CFE112000F0DDFB0120E071E168087C10B16079012803D00E20CE
:202D6C0000F0D2FBE16849681E488F680FB9CF681FB10021C1611C4F07601C4A40F2FF7147
:202D8C001160002787611A4941611A4803F04EFC192003F095FDF8BD04F12C06304603F000
:202DAC0014FD00F029F8304603F00FFD25F0020504F1200158B9E80803D2084603F005FD25
:202DCC0058B104F1980003F05DF9042101E045F0020104F1BC0003F00FFBF8BDF00800204F
:202DEC00D02108400010044051000706000004600200004019210000F8B5071C72D0B868CA
:202E0C0040F6030120264A1C02E04068761EF6B260B15EB10388994218BF9A42F5D1F9689A
:202E2C001CC820311CC149C881E849007868BA690025BD61C8B1F87F42F00202002300F032
:202E4C000700401E09D0401E04D0801E08D14FF0805304E04FF0804301E04FF000532A46A4
:202E6C007C68F868B7F91C10A04703F07DFD1E4C0646B4F93200401C6FF31F30608604F155
:202E8C002C000168CD7703F063FA304603F068FDF868B0F9B810B4F93220914222D1217800
:202EAC0001291FD090F8BA60BEB90668AEB1E2680E4912680968B2F1FF3F13D0B6FBF1F223
:202ECC00012A8CBFB6FBF1F10121703003F01CFDF868703003F014FDF8BD80F8BA50284666
:202EEC0001F07CFAF8BDC046F0080020806C000010B5401EADF1380D3FD0C01E36D0401E49
:202F0C0037D0401E61D103F0D3FB00208DF83000082003F057F8041C0CD00121182203F0C3
:202F2C0077FB03F05FF80CA90123294A0091214602F02CFA102003F045F8041C10D00121EB
:202F4C00192203F065FB9DF83000401E208102AAE26003F047F81F4A214602F0F9F9A0B3EC
:202F6C0007A940F21530FFF7A7FC2EE01A4803F02EFC142002F070FE27E04FF441700AA9B6
:202F8C00FFF79AFC9DF829408DF809409DF82A308DF80A3000228DF80C209DF82D108DF8F5
:202FAC000B209DF828008DF80F109DF82C408DF808009DF82B308DF80E4008498DF80D3015
:202FCC0002AC22680A60606848600EB010BDC04601660000F3650000F4050020270B002018
:202FEC00F0B5ADF1340DFFF7F7FC304908682822082340F00200086001A8002103F08CFC1B
:20300C002B4E2C490524002301AA079406F1BC0003F07EFC00213022082301A803F084FC4A
:20302C000025FF271921244AADF81C5001AB099706F16000009503F073FC2822082301A8C8
:20304C00294603F069FC1D49079406F1F00001AA2B4603F05DFC01A829463022082303F0C5
:20306C0063FC0124ADF81C40099706F17C001A2101AB134A009503F053FC12492A4606F1CF
:20308C009800134603F030FC0F4803F0CFFA86F85F507571F57135727572B5727561B471D8
:2030AC004FF6FF70A6F85C000DB0F0BD00200940F0080020D5630000415F00006D3F0000E7
:2030CC0055490000855E00000D2D00002DE9F0470D4606465FFA85FA280824BF2E48454057
:2030EC002E494FEA8A03C85885EA00023240C2F300672B4A06EA0504B043224006F4E024A7
:20310C000243B4F5E02F01D1500E14D306F4E020074310D002F4E027B7F5A02707D0B7F578
:20312C00803704BF22F4003242F4A02203E022F4803242F4C022DFF86C80CA5008F1D00759
:20314C0039680122002002FA0AF40C4218BF101C5FEA000906D1F00D04D34146C5F3805028
:20316C0001F80A00300E0BD303F0FEFB290E34BF0021211C3A68A2431143396003F0F0FB5E
:20318C00B9F1000F06D0F00D04D34046C5F3805100F80A10BDE8F087006000A0001008402B
:2031AC00FF7F077F002002402DE9F0412E482D490860FEF7C7FE2D48006842682C4801212B
:2031CC0090472F4C0025032004F1180141F80C5F401E8D60FAD1241F062004F14C010A4686
:2031EC00401E22F80C5BFBD10820224F0880224A8F602249121D22F00303CF1A6762E361F4
:20320C002362E66904F12008944618460A4601E026F8025BB142FBD8B910E82700EB8101C2
:20322C0021F8045C4FF6FC761F8006EA0C0300F1E807D21A676106EA0201EC39A0F8E81078
:20324C00284600F091FDA061D8F80000606101F025F801F0D1FE02F003F803F02DFB2846A0
:20326C00BDE8F081EC0800206D4E0000D80100100040034011600000591D0020203F00206B
:20328C00240F00202DE9F04104469C4606AF0878DFF8C8803B8802284FF0FF0750D1486805
:2032AC004578007842F6021600EB0520801B16D04DF2EF64001B18BFB0F102003ED1002B8B
:2032CC003AD1BCF1010F35D11078CA681070C968474600248F4214BF0227271C33E05BBBBF
:2032EC00BCF1020F26D15078157805EB002535F001061DD1C86806682046314602F092FE8C
:20330C0000280CBF0020807885420FD02046314602F088FE48B931464FF6FF7002F082FEFD
:20332C00002808BF11240CD004808570002408E0802406E00D2404E00B2402E00A2400E03E
:20334C000124FF2F07D04046001D006818B1016809B1384688472046BDE8F081EC0C00205F
:20336C00F8B503F087F901F005F803F08FF9044604F00C000C284FD0E0081ED202F0C4FC91
:20338C00274E376805460120014602F09AFE31686943884211D2234C8220B0FBF7F0291AF8
:2033AC00204603F0B1FA204603F0AAFA0120FEF7C3FA204602F066FE2FE020092CD21A48D9
:2033CC0003F0EEF80428FAD01849620906D228B10A460846016821F0010104E00A460846F9
:2033EC00016841F001010160D2F898004FF0805440F00300C2F89800D4F8B8018069014615
:20340C0020208847D4F8B801094C806B2168804701202060206800E030BF03F031F9F8BDB2
:20342C00806C00001C0E0020004003408C2108402C2009402DE9F843044603F095FA814659
:20344C002D48021992F8ED10491ECFB2002F82F8ED704BD12B4D05EB84052E78698836F091
:20346C007F0788461AD1F10911D24FF08054D4F8B801806901464046884704F5DC74206836
:20348C00406B0146404688470228F8D121E000EB8800D0F80011002088471AE04FF080549D
:2034AC00D4F8B801006A014640468847D4F8B801806A014640468847D4F8B801006B014633
:2034CC004046884701210D4A0D48116001688908FCD306F03F003F2801D0FFF7ABFF687896
:2034EC0000F03F003F2801D0FFF7A4FF484603F037FABDE8F883C046100E002028200860FA
:20350C0028200840606A00002DE9F041064603F02BFA2D4D8046A91991F8ED00421C00289C
:20352C0081F8ED204AD1294C04EB8604277807F03F003F2801D0FFF7E7FF607800F03F0000
:20354C003F2801D0FFF7E0FF668837F07F001AD1F80911D24FF08054D4F8B8014069014667
:20356C003046884704F5DC742068406B0146304688470128F8D121E005EB8605D5F80011A6
:20358C00012088471AE04FF08054D4F8B801C069014630468847D4F8B801406A01463046FC
:2035AC008847D4F8B801C06A0146304688470121074A0848116001688908FCD3404603F07F
:2035CC00CFF9BDE8F081C046100E0020606A000028200860282008402DE9F041314C0546A4
:2035EC00A0781F4616468846ADF1380D012803D0FFF7F6FC0120A070B8F1000F09D0C5F8D2
:20360C00048036B1AE6003F0AFF9E17819B103F0A7F900203FE0491CC9B2E17003F0A0F9D8
:20362C0001243FB91D494CC909A84CC006C909AF80E80600386828607868E860387C287494
:20364C00B8686C746861788A6882F86800B1A8610021A02205F1200000F0C4FC6846002117
:20366C002422082303F068F98DF8184005F1380000216A4603F05CF9684600212422082315
:20368C0003F036F90649069505F1700000226B4603F02AF928460EB0BDE8F081E46B000032
:2036AC006F670000F0080020F8B52F4D0C460646A0083AD2A00F4FD3284F3868284C20F029
:2036CC00020040F400703860032144F8041C41F23003A360012121605022A26021604FF4DC
:2036EC00CA60A06021601F4844F80C1C02F09EFFA81C0078012803D006F1380003F0E4F883
:20370C00002402203C6002F093F91120FFF792FE307C10B90E20FFF78DFE14492C720878E7
:20372C006C72C8B10C70042112E005F12C06304603F04BF8FFF760FB304603F046F830B9DE
:20374C0024F00204A00F07D34FF0005100E0022105F1BC0002F050FEF8BDC0460000046016
:20376C000C4104400D2D0000F0080020441D00202DE9F0410E462A4990461C4606AF8C460C
:20378C0072680878BB8851783F881278002502EB012242F62321521A2AD0521E052A19D9BE
:2037AC00921F0DD0263A35D1072F31D8C7F10700984298BF83B20CEB070000F1080121E0AC
:2037CC00B84225DBC01B9842D8BF83B22380DCF804100BE0F06802F05BFE80B2B84217DB2B
:2037EC00C01B9842D8BF83B22380F168C9190AE0082F0DD8C7F10800984298BF83B20CEB3B
:20380C0007010F31238040461A4600F0ABF803E0072501E025800A252846BDE8F081C046EA
:20382C00180B00202DE9F04114460F4603F09CF81FFA80F81F480068007808B902F0C2FC73
:20384C00E7B138684FF0FF3518B140280AD3810B08D17E681EB1310A04D0310E02D1B96847
:20386C000F2908D93DB10CB1284620700820FFF7E1FD002418E07968BA6803E04FF4807049
:20388C000122014602F0BCF80B49012008600B4908684008FCD30A48006841680220884700
:2038AC000CB1002121700446404603F059F82046BDE8F0811C6C0000A8025042088002406F
:2038CC00CC010010F0B520480127F84201D001F0A3F9204D204F214EBD4206D203CD0478C4
:2038EC00A4003459401CA047F6E71D48002800D08047164D164FBD4202D210CDA047FAE707
:20390C00F0BD03251BE0416808300A1C2A400BD11A1C2A40AB4305D0046804300C600431DA
:20392C00043BF9D1131C05D0047801300C700131013BF9D1021C2A4001D0A843043003682A
:20394C00002BE0D17047C046FFFFFFFF0000000000000000F070000050710000AC70000089
:20396C0059C50110002A4AD05FEA000C8B071CD1830722D1102A08D370B4103A78C978C07B
:20398C00103AFBD270BC103238D0042A2CD3082A05D30C2A24BF08C908C008C908C008C93B
:2039AC0008C092072AD0920F22E00B780370491C401C521E22D08B07F7D1C30714D1830751
:2039CC00D8D0121F12D308C903801B0C4380001D121FF8D20AE008C903701B0A43701B0A9C
:2039EC0083701B0AC370001D121FF4D2121D05D00B780370491C401C521EF9D1604670470A
:203A0C002DE9F8432020EFF3118780F31188214CA068012102F04CFF4FF001094FF000081F
:203A2C0065692168A4F81C906A1A2168A4F81E80461B401A904227D387F3118840462D182F
:203A4C00361A4846294602F02FFFB042F7D92021EFF3118781F31188E18B012903D1404673
:203A6C00294602F021FFB0F1FF3F06D0A169801B814238BF081C291801E0A069411902F00A
:203A8C000FFFA4F820902560A4F81C8087F31188BDE8F883780100208B4208BF824204D902
:203AAC000B1C021C002100207047002B08BF002A0BD10B1C021C00210020002B08BF002A23
:203ACC001CBFC943C04300F0BCBFF0B51C4615460B46024600200021B4FA84F6202E04BF10
:203AEC00B5FA85F62036B3FA83F7202F04BFB2FA82F72037F61BB6F1200727BF05FA07F4C6
:203B0C0000257F42B4403EBF25FA07F73C43B540A34208BFAA4201D3521BA3414041494169
:203B2C006D0845EAC4756408761EF1D5F0BDFEE7B0B50446A768ADF1280D5FBB0C2000F07D
:203B4C0013F9071C1DD0684600212422082302F0CFFE002306976A466168ADF810301848C0
:203B6C00059302F099FE386070B90820ADF824000C25ADF8265009A801F0E2FE384602F028
:203B8C0013F86FF0030018E0E06878602069B860A7600AE002F024FB0546386802F072FAA8
:203BAC002069B860284602F033FC3868616802F0ABFE386802F0A4FE00200AB0B0BDC04644
:203BCC00456600002DE9984302F0CEFE1F4CDFF87880814604F1E000007850B94446A06896
:203BEC000146022088470746102001F015F92FB320E000F019FD002820460FD114490968E1
:203C0C003222B2FBF1F101B9012100F13004204602F07AFE204602F073FE0FE04446002280
:203C2C00A16880F8E020022088470746102001F0F3F81FB1A068014603208847484602F01C
:203C4C008FFEBDE89883C0460C6C0000100E0020806C00002DE9F04180462048001F076860
:203C6C0015460E46ADF1200D002F08BF002208D006A8009042464FF6FF711B230120B847F5
:203C8C00024605922AB300200090BDF81800FF270DF11203294601904046029700F04EFD4C
:203CAC00041C11D16889ADF81000700804D302F099F91B23074600E01D23404604A93A461F
:203CCC0001F086F8041C05D004A81B2102F0B0FA00E01524204608B0BDE8F0814812002029
:203CEC0070B51E4DAC68064602F0F6FA4FF47A71001B4843030C02F047F82969401A48BFDF
:203D0C00404240F6B831F618B14210D306280EDAE9688C420BD8286848B1114A091B51435E
:203D2C008A0C02EB1141884288BF011C08E00D49486840080ED208687D2100F0FF004143DD
:203D4C00C82905D3B1F57A6F88BF4FF47A6103E0C82101E04FF4FA61084670BD301D002067
:203D6C0040420F00AC3F0050F8B5001D84B214F0030002D0241A241DA4B202F031FA1A493D
:203D8C00102C02464F690A61C8BF8F69388800231E46C10BCD0319D126B984420ADD3B4617
:203DAC00012617E01988091889B28C42198011DC1F4608469FB1001B80B20428B4BF3C88D5
:203DCC00385344F400443C803F1D08E080F40040002680B23F1838880028DAD1002710465D
:203DEC0002F016FB3846F8BD200F0020F8B50E46044602F0ADFD0546304601F043FF071C34
:203E0C0003D1284602F0A0FD28E0F87F10F0070F1DD114487968884202D079682166786029
:203E2C0002214FF0E04204F1580080E80600284602F08AFD04F138004FF0FF3102F048FD7D
:203E4C0004F168070020206697E80300F8BD284602F07AFDF87F10F0070FFBD102200021A2
:203E6C00F8BDC046714C00001CB5042002F048F9022818D0032816D016480068C0F3815029
:203E8C00032814BF41F288324FF47A721248144C016854342046B2FBF1F102F035FD2046D2
:203EAC0002F02EFD1CBD03200C4C009000214FF040521C23204600F043FF012000214FF4A7
:203ECC00007209230090204600F03AFF022001F0AFFD1CBDB43F0050806C000000A00C4066
:203EEC00100E00202DE9FF410E4605461A4C7188E08A81420CDCB188814209DBF088218B0B
:203F0C00884205D13089618B884208BF18271FD0052001F0F1F877888046F188B388ADF874
:203F2C000270A08AADF806100C4AADF800003789ADF8043011216846ADF8087001F06BFC35
:203F4C00071C05D1A57304F1F000414601F03CFA38460090BDE8FF8108020020B767000036
:203F6C00F8B502F001FD1C4C0746A06D10F4602F27D0A06D400CC6B2700807D2B00803D29D
:203F8C00F00828BF022602E0012600E00026751D68B200F003FDA36D06F111010120884061
:203FAC0023EA00013846A16502F0DAFC04EB8600C76C4FB1A06C294600224FF00063B847B5
:203FCC0002E0384602F0CCFCA06D20B104F1F000002102F011FAF8BDF00800200022134692
:203FEC000A46194671B510F0030F0BD0002A82BF00F8011BB2F1010210F0030FF6D1002ACB
:20400C0008BF71BD11F0FF0141EA0121042A18D341EA0141082A0FD30E46102A08D30C46FC
:20402C000D46B2F10F0312F00F0272C0103BFCD812F0080F18BF42C012F0040F18BF40F8F2
:20404C00041B12F0020F18BF20F8021B12F0010F18BF017071BD704738B5054601201A4C18
:20406C0068712879B0B902F0BBF82178002904BF6FF00704051C15D0491EC9B2217039B952
:20408C0002F0C6F9606801F04BFD0020687118E0054613E002F0A4F805462078FF2805D1C5
:2040AC006FF00604284602F0B3F90BE0401CC0B20128207002D1606801F049FD284602F0DB
:2040CC00A7F90024204638BD5812002070B50646B079F4680628A4F10C042CDA3079062885
:2040EC0029DA02F07DF8154DB27991000C3501EBC20149194968E1B102F08AF930792071E8
:20410C00B0796071307AA071B179880000EBC1004019F1684068083001F05CFDB1798800F2
:20412C0000EBC10040194068406802F0CDFB002070BD02F06DF96FF0020070BD600F0020A2
:20414C0038B519491A4C00204822C1F8F30F94F8E200C1F8FF2F20B3012817D0022807D020
:20416C0003281ED151F8310C00F024F80B2016E051F8315C2846FDF7FDFD40F2FF50A842C9
:20418C0002D8801CA842F1D2082008E051F8310C00F0ECF9054800780028E7D0052084F840
:2041AC00E400FEF765F938BD39400C401A6C0000100E002038B51A4CA0F5C060D4F8B810A2
:2041CC00C4F8D4000029B8BF49420028B8BF4042814220DAB4F8BC00124D30214FF47F421E
:2041EC0008230090284600F0ABFDB4F8C00004214FF4F80212230090284600F0A1FDB4F8B7
:20420C00D00020214FF440620A230090284600F097FD012000E0002084F8D80038BDC0467D
:20422C00100E002000A00C402DE9F8438146EFF31188202080F31188174D154C134F01261B
:20424C0005F11C000660A4F114000660F86A016A14208847D9F81000810C14BF000C04208A
:20426C002060386802682321002090470948066054F8180C20F4C02040F4803044F8180C0E
:20428C002E6088F31188BDE8F883C04684010010182009408002244300002443B0B5ADF1E1
:2042AC00400D02F059FB044600213C220823684602F0EEFA11484168069181680068049065
:2042CC000F480068002205900E480891694602F0DBFA071C0DD001F083FF0546384600F0CB
:2042EC0029FC30B1284602F093F8204602F028FB01E002F06EFA10B0B0BDC04694690000DB
:20430C00240F00201965000030B5401E4FF00004ADF12C0D0AD0401E04D0401E20D1FEF713
:20432C00A7F81DE000F066FA044619E001A821462422082302F0DCFA06940D4DADF814400C
:20434C0009490794012201AB05F1780002F0CCFA064A23462C2105F19C00009302F0E0FA78
:20436C0020460BB030BDC046194500004D410000100E0020164880B507683FB315498B68AE
:20438C0003EA5300C00E21D2134A106880081DD2486880081AD21068096810F0050F4FEA6A
:2043AC00114101F0F00101F5E0710AD1B9420DD2190F38BF40F00100D90E38BF40F004005F
:2043CC0003E0B94202D920F00500106080BDC04628500940AC3F005000000940B0B5074659
:2043EC0002F0C2FA154C0546207918B3401EC0B22071F8B904F1BC00082101F0FDFFCFB19A
:20440C00E068703001F03EFEE1680D48CA680068BA1AB2FBF0F2012A98BF012103D9C9682F
:20442C007F1AB7FBF0F19834204602F06DFA204602F066FA284602F093FAB0BDF00800208F
:20444C00806C0000F8B5844640F6FF741CF8013B002210E0481B401E10F8015B7F1E01F827
:20446C00015BF9D103E01CF8010B01F8010B521C5B08082AEADA5808F5D21CF8010B1CF8E0
:20448C00015B05F00F07FF1CC5F30315122F45EA001508D11CF8016B300A24BF1CF8010BA3
:2044AC0060F3DF16BF19AC42D4D1F8BDD0B5044602F016FA00F03EFB071C08BF6FF002043F
:2044CC001FD001F08DFE0146A2880F480023243030F80C6F5EB902804760A26882602373C1
:2044EC00786820610024084601F092FF09E0964208BF6FF00204F6D05B1C062BE8D302F053
:20450C0068F92046D0BDC0463C0F00201648144A144908B5E4300078801E0A2807D8DFE8F2
:20452C0000F01814100614100614100609C002F0E3F911E010688008FCD250688008FCD285
:20454C000AE008688008FCD306E008688008FCD202E010688008FCD3FDF78AFF08BDC046F9
:20456C0034600C4038600C40100E0020134910B50A684BF2F5214843040AC2F3814001280F
:20458C0006D101F001FC00F04DFE604304EB90540C4901F1E500007830B90948006820F043
:2045AC007F402418640802E0002081F8E50006480460210C41600123836010BDB43F005091
:2045CC0010200940100E00203C600C40B0B5044602F08CF830F0010008BF6FF004041ED0CE
:2045EC0002F07EF9054601F0FBFD01460D480622403030F80C7F6FB1A388BB4208D1406862
:20460C0000680022854208BF0122A260002403E0521EEED14FF0FF34084601F0F9FE20460D
:20462C00B0BDC046200F002008B5012001F068FD01281DD00F4834210122002300F0FCFC88
:20464C00002808BF002014D00B48006801F0ECFB01F042FE0A4A93681168D060C01A074B73
:20466C00A1EB91014343180C884228BF011C1160012008BD00A00C408000001040420F0034
:20468C00301D002098B5154B1B1D18680004070C21D001F079FB104991F90720824205DD1F
:2046AC0010F1800FB8BF6FF07F00C8718C88BC4210D80A68D3F8D40F801A801C1F2888BFF2
:2046CC001F203F1B4008C7404FF6FF70E719B84238BF071C8F8098BD4C1D002030100940A8
:2046EC00084610B500F0005100F0040008431CD0012001F005FD104C012811D00B480168F9
:20470C003220B0FBF1F2012A8CBFB0FBF1F101216434204602F0F8F8204602F0F1F810BD9A
:20472C00034801F083FF0348046010BD806C00007D1400000010044024090020B0B504AFFD
:20474C003F88002F18BF0B2025D1087802281FD14D686C782F7800204FF6F17507EB04279D
:20476C007F1B012F0ED9FF1E0CD07F1E1CBF011C0A200FD105241C80C9680B681360097986
:20478C001171B0BD01241C80C96809781170B0BD002101201980B0BD1549096821280ADC77
:2047AC00212819D00C380FD00D380FD0001F0FD0C01E0FD01AE0253810D0001F10D0401E25
:2047CC0010D0401E10D011E0086870474868704788687047C8687047086970474869704712
:2047EC0088697047C8697047086A704700207047F001002038B5134D95F8E100002410B964
:20480C001148007860B102F0AFF895F8E310002906BF012185F8E310012402F0A1F80CB1A4
:20482C00002038BD022001F01BF90E20FEF76CFE01F06EFB01280EBF0120002085F8E200B3
:20484C0038BDC046100E00201A6C0000D0B5044602F046F801F0A4F8061C08BF6FF00400B5
:20486C001DD001F0BDFCB168002908BF002709D051F80C2C0023B2600F4641F80C3CFF26DB
:20488C0001F8026C01F0C4FDA7603FB117F8080C207117F8070CA0710020D0BD0220D0BDB9
:2048AC0010B502F061F8114C611C097829B10E490C6802F055F8224614E002F051F801F015
:2048CC00D3FD0B4A002301F073FD626C002314001B184FF07A0244EB01044FF09051C918FB
:2048EC0042EB0402104610BD04300440F008002000093D00012838B51ED1012001F000FC6D
:20490C0001281BD001F000FD0D4D0E480122322305F1E00100680A70B3FBF0F404B91446FF
:20492C003035284601F0AEFB2846214601F0ECFF284601F0E5FF01E000F06AFE002038BDBC
:20494C00100E0020806C000038B51248104C0168114D0C40E1430160A10908D34068800930
:20496C0005D328464FF40051BC3001F045FD14F4602F0BD0284600F158010A6804F460241A
:20498C00F03014430C60002101F036FD38BDC04620000E0008100440F008002098B50446AF
:2049AC0001F0E2FF8446104890F85F10C90803D390F85E10A14213D0B0F85C300B4F0122EC
:2049CC0002FA04F11943A0F85C10391D0B6804F10C07BA4093430B600F680FB9002101709D
:2049EC00604601F0BDFF98BDF008002008100440DCB5044601F074FF00F0D2FF064601F052
:204A0C0075FE30F0010014BF002E6FF0040017D0606858B1B0F1FF3F05D0694600F0A8FFE0
:204A2C0030B107460BE04FF0FF3000E0002000907068009901F04CFF002700B90127384620
:204A4C00DCBD70472DE9F04106461148401C90F8008014460D46102001F0B4FA071C12D029
:204A6C000421072201F00AFD404601F03FFA38727E72BD72FC6001F0B5FA044A394600F0B2
:204A8C0067FCBDE8F0810420BDE8F081B167000008020020F8B5044601F022FF00F04AF8DA
:204AAC00071C19D001F09CFB84460D480021243030F80C6F6EB94FF6F872028047600025FB
:204ACC00856021717868A060604601F0A1FC2846F8BD491C0629EBD301F07BFEF8BDC046A5
:204AEC003C0F0020F8B516460C4601F03DFF02460F484178832554B1641E02D0641E10D0FC
:204B0C000DE08179012904D0B0F85C1005E0476A0FB9802506E0406A818B318002E0032536
:204B2C0000E03170104601F01BFF2846F8BDC046F00800202DE9F843804601F051FB0F4C97
:204B4C0003250026814654F80C7F5FB93046C4F800800146A6600A4601F092FE606018B9E4
:204B6C0001F037FE474501D1264601E06D1EEAD1484601F04DFC3046BDE8F8833C0F002049
:204B8C00B0B5054601F0ACFE044601F0AFFD30F0010008BF6FF0040414D001F021FB0A4A43
:204BAC00002132F80C7F4FB153681B689C4204BF2971002404D0491C0629F2D36FF00404E2
:204BCC0001F026FC2046B0BD600F00207CB5114D04460E46600807D3B0B2002100900122AF
:204BEC000B46284600F0ACF8A00807D3B0B20090002102220123284600F0A2F8E00807D3BF
:204C0C00B0B2009000210C220223284600F098F87CBDC04600A00C40F8B506460F4D104F55
:204C2C007388002417E0A20002EBC402921951689068D26852B9AF420BD00A7855F822207F
:204C4C000346491C08461946904701E0FEF78AFE7388641CA4B2A342E5DCF8BDAC70000070
:204C6C00B87000002DE998430446276E9946904607B1B8470220002100EA080011EA09018A
:204C8C0008BF002809D104F1580003C808EA000019EA010108BF002807D004F1680080E8A5
:204CAC00000304F1380001F00FFEBDE89883FEE70F48B0B58178062918BF072917D1457885
:204CCC00848A0E2001F07EF9071C10D004210A2201F0D4FB284601F009F938727C811320D5
:204CEC00387301F07FF9034A394600F031FBB0BD08020020AB670000104A1068C0F30F313E
:204D0C004BF69A10884207D111680B20B0EB117F14BF0020042070472430884208BF012057
:204D2C000BD04BF64130884208BF032005D0213888420CBF02204FF0FF30704718130050A1
:204D4C00B0B500EB4100102B04AF00F5007403D3103B00F50174120C3D889D4045EA02459E
:204D6C0001F088FC002700B90127064A394610680028FCD025600120106009B101F080FC32
:204D8C00B0BDC04600800C40F0B50D4614461F460646002124220823ADF1240D684601F0C5
:204DAC00A7FD00200590ADF8100008484FF47A71A2B26B4600680697B1FBF0F080B2294624
:204DCC004243304601F090FD09B0F0BD806C00002DE9F04105461E4690460C46142001F0B9
:204DEC00F1F8071C13D03246032101F047FB3D81002038744046FC6001F078F8787401F03F
:204E0C00F1F8044A394600F0A3FABDE8F0810420BDE8F0812162000070B5104C064620463D
:204E2C0001F086FC0025B0B92046FBF723FB0446A06806420AD0E0682269002103463046C8
:204E4C0098470546012D08BF012005D0204601F0BAFC041CECD1284670BDC046100E002068
:204E6C000F4A01465068ADF1080D08B9002050600846801E12D0801E10D0401E07D00120E8
:204E8C008DF801009DF801000028FBD106E001208DF800009DF800000028FBD102B0704778
:204EAC00880500202DE9F04101F02CFC0D4D2B688046A3B105F194070024012606FA04F002
:204ECC0018EA000F07D057F8240020B1026812B1214690472B68641CE4B29C42EED3BDE842
:204EEC00F081C046581B0020F8B50B460E49CF788D784E780C78002298B1401E10D0401EAA
:204F0C000DD0401E0AD0401E18BF02220AD108460C30016819600079187103E03D462E46F4
:204F2C0034461C701046F8BDEC0C00200C4885460C4885446F4607208743BD460A486F4650
:204F4C0007600A48002803D07946491D8E460047FEF7B8FC01F008FA01F08EFCFEE7C0464F
:204F6C00203F002000040000C8120020EF6700002DE9F04104460E48057890460E46102094
:204F8C0001F020F8071C10D03246042101F076FA284600F0ABFF3872FC6001F023F8394662
:204FAC00424600F0D5F9BDE8F0810420BDE8F08109020020D0B504463C20FEF7D5FE071C0E
:204FCC0014D000213C22082301F062FC207AB86160893862E068386160683946002201F077
:204FEC0053FC0646384600F0DFFD16B96FF00300D0BD0020D0BD704700B500213C2208233F
:20500C00ADF13C0D684601F043FC094800F5B27107914FF40771089103210691054900233E
:20502C006A4600F58A7001F023FC0FB000BDC04608020020ED050000F8B51E464018144654
:20504C00102E02D3103E801C240C054601F012FB002700B9012707483B460768002FFCD08C
:20506C002D88012101600BB101F00AFB2C403441A0B2F8BD00800C400E4938B5CA6882424C
:20508C0010D1487801280DD101F06EFC0546084800F08EFE0446284601F062FC04F0FF00F0
:2050AC00012802D06FF07F0038BD4FFAA4F038BD01000304F00800202DE9F04180461C46B5
:2050CC0015460E460E2000F07DFF071C10D0812038700123FB70A7F804803E817D81BC8183
:2050EC0000F080FF069A394600F032F9BDE8F0810420BDE8F08170473EB505460020ADF8F1
:20510C0004000A2000F05EFF041C0DD00421312201F0B4F9258100F065FF01A90223044ADE
:20512C000091214600F032F9BDF804003EBDC04693670000F8B5064614460D46142000F0D2
:20514C0041FF071C0FD00421022201F061FABE60BD811020B8733C6100F044FF034A394619
:20516C0000F0F6F8F8BD0420F8BDC046C965000070B50446606810F07F4F18BF6FF0020046
:20518C0011D101F02DF8084D0646287828B1686800F0C6FC606800F0DAFC606868603046DB
:2051AC0001F036F9002070BD581200203EB50546FFF74CFB041C15D1287902A900F0A6F990
:2051CC0068B10821ADF80010A86801900321ADF80210684600F0B4FB6FF005003EBDBDF8EF
:2051EC000800A88020463EBD10B504460C4800680023D907024650080143D007801A4FF4AC
:20520C007A7299410023FEF747FC002908BFB0F1004F28BF6FF000406060002010BDC04648
:20522C00806C00000D4938B5091DD1F8EC3209681B3800FB00F409060A161906091604FB07
:20524C0001F543F307214143C910604301EBA521424301EBA24000EB234038BDA0100050A6
:20526C0000B500213C220823ADF13C0D684601F00FFB084800F1E00107914FF4217108910B
:20528C0001210691044900236A46903001F0F0FA0FB000BD88050020990B000010B50446B2
:2052AC00207B00F00F00022811D1FFF7F9FAA168084C081A04F10C010968C968800801F5B2
:2052CC007A71814203D26FF05041814200D2002010BDC046F008002038B5044601F044FB48
:2052EC0005460B48401C007868B1204600F060FD0446284601F034FB04F0FF04012C0CBF9D
:20530C008120022038BD284601F02AFB012038BDF0080020B0B504460D46102000F052FEA5
:20532C00071C10D02146062201F072F90020388115247C81054AFA6000F054FE39462A468A
:20534C0000F006F8B0BD0420B0BDC046C00500201CB51446CA78012A02D18A880A4B1A80FE
:20536C0000F064FC30B9002000906946204600F07EF818B100F018FF044603E0009844786C
:20538C0000F092FF20461CBD4012002038B51C46154600F04BFCB0B90020009069462846B8
:2053AC0000F065F878B90099487848B90846C1798C4205D10146049889682246FEF7D2FAE0
:2053CC00009800F071FF38BD38B50D46044601F006FA10B1204600F055FE084800684FF4F4
:2053EC007A71B1FBF0F080B205FB00F1204601F08BFA204601F084FA38BDC046806C00006F
:20540C002DE9F0410F46044601F0E7F904F1280292E8600033462A46FEF73EFB80460B46A2
:20542C0042462846314600F0C3FF17B1303484E803004046BDE8F08170B5044604F128007E
:20544C0090E80C000D460021284600F0B1FF04F1300292E860002D1846EB0106290C300453
:20546C00014300F045FB383484E8600070BD3EB5054608200C46ADF800002020ADF8020003
:20548C001020ADF80400684600F05AFA28B90298002818BF6FF0040003D12846214600F0BF
:2054AC0049FC3EBDF8B5064614460D46102000F089FD071C0CD00421362200F0DFFF3E814B
:2054CC007D81FC6000F08EFD024A3946FFF740FFF8BDC0467567000070B506460D460C2064
:2054EC0000F070FD041C0CD00421302200F0C6FF2681658100F076FD034A2146FFF728FF5A
:20550C0070BD042070BDC0469F670000062880B50CDA0A4F820002EBC00207F10C00875A3D
:20552C0013181FB14FF6F870B84202D14FF0FF3080BD18880880002080BDC046600F002025
:20554C0010B5044600212C220823ADF1300D684601F0D2F8E0200890A168606800236A4616
:20556C0001F082F9002818BF002001D101F031F90CB010BD10B5044600212C220823ADF1D7
:20558C00300D684601F0B8F8E068A1680890606800236A4601F068F9002818BF002001D1AC
:2055AC0001F017F90CB010BD10B5044600F018FE094B0022014633F80C0F30B1A04208BFB3
:2055CC00D4B203D0521C062AF5D3FF24084600F01FFF204610BDC046600F0020B0B50D4601
:2055EC000949441801F046F8002700B90127074A394610680028FCD025600120106009B1AE
:20560C0001F03EF8B0BDC04600A00C4000800C4008B503200021FFF7D9FA012000F070FDE4
:20562C0018B10648006800F0FFFB00F055FE044B083B586000F0A8FB186108BD8000001007
:20564C00381D002038B501F08FF905460948E030007838B106480024342101222346FFF70D
:20566C00EBFC00B10124284601F07AF9204638BD00A00C40100E0020F8B5064637680D461F
:20568C0000242C601FB901F06FF9374608E001F06BF900E03F6839680029FBD1BD4201D076
:2056AC003D60012401F05CF92046F8BDF0B5044605AFADF10C0D03B9084B97E860008DE8FE
:2056CC006000FCF701FE011C44BF00204FF0004102D42046FEF78AFB03B0F0BD714C0000D9
:2056EC00F8B5064614460D46102000F06BFC071C0CD00521012200F0C1FE3E727D72FC607F
:20570C0000F070FC024A3946FFF722FEF8BDC046BD670000F8B5064614460D46102000F09B
:20572C0051FC071C0CD00521022200F0A7FE3E727D72FC6000F056FC024A3946FFF708FE2E
:20574C00F8BDC046C367000038B505460C2000F039FC041C0DD02946002200F059FF4FF0BA
:20576C00FF30A06000F03EFC034A2146FFF7F0FD38BD042038BDC046E95C0000F8B50646DB
:20578C000A4804780D460A2000F01CFC071C0CD031462A4600F03CFF204600F0A7FB3872F7
:2057AC0000F020FC394600F041FAF8BD88050020094910B500200A4C08600120C86114343E
:2057CC002060216844F8280C04480068016A14208847206810BDC04600002443B00100109F
:2057EC0018200940F8B5044616460D460C2000F0E9FB071C0DD02A46042100F03FFE3C81F7
:20580C000520B87200F0EEFB39463246FFF7A0FDF8BD0420F8BDF8B5044616460D46102066
:20582C0000F0D0FB071C0DD02A46042100F026FEBC600020F86000F0D5FB39463246FFF7B7
:20584C0087FDF8BD0420F8BD1078802811D1508840F27F6181420CD190883F21B1EBA02FAB
:20586C0007D1C0F3C211042903D100F07F00834201D000207047012070471078802811D1F7
:20588C00508840F27F6181420CD190883F21B1EBA02F07D1C0F3C211032903D100F07F00C2
:2058AC00834201D000207047012070471078802811D1508840F27F6181420CD190883F2183
:2058CC00B1EBA02F07D1C0F3C211052903D100F07F00834201D0002070470120704710B578
:2058EC00401E14460DD0401E09D0801E05D0001F01D000F06EFF052004E0002002E00420E1
:20590C0000E00220226821469047002010BDFEE710B50446A168606808601420FEF724FA50
:20592C0038B10549A368054A096800F069FA002010BD6FF0030010BD7C6C0000EB580000BF
:20594C0010B504462088FFF72FFEFF2808BF4FF0FF300AD0054B810001EBC000195811B17B
:20596C002046884710BD6FF0010010BD740F00200A4A10B512680C464FF47A710023A1FB77
:20598C000001FEF789F8002908BFB0F1004F2EBF6FF002002060002010BDC046806C0000F7
:2059AC0038B5054600F01CFC084C03220146243C54F80C0F18B1A84202D0521EF8D1002432
:2059CC00084600F025FD204638BDC046600F00200949020480B5120C41F8082CC0F3074059
:2059EC0041F8040C0120086004480768002FFCD00020086080BDC04644600C4084088C43FD
:205A0C0010B50A4C2368C1F30F2102F00F02C0F38710090440EA022023F4806323601B04AE
:205A2C001B0C0B4323600143616010BD1480024010B5044600F098FF084BE21892F8E81055
:205A4C00491EC9B282F8E81021B99A680121A1408A439A6000F084FF10BDC046100E0020BC
:205A6C0038B5044600F080FF084A02F108031D680121A14012192943196092F8E810491CA5
:205A8C0082F8E81000F06CFF38BDC046100E002010B500F05DFF00F05FFF032000F0E0FEA4
:205AAC0006481030006830B1034C204600F006FE204600F009FE10BD0B2D0000A401002033
:205ACC0008B500F025FE012801D0FFF7F0F8074800F0C2FE00F040FA00F0BAFE00F0B4FE9F
:205AEC0000F0AEFE00F0A8FE08BDC0469D5A000010B50C4600F0F0FB211AB1F1004F08D8A8
:205B0C00011B091DC90F05D1001DA04288BF041C00E0041D0148046010BDC0461820094021
:205B2C0038B5044601250DE0C0F11F0005FA00F1052881EA040403DB401FFDF77BFC01E026
:205B4C00FFF776FFB4FA84F02028EDD138BD38B5044601250DE0C0F11F0005FA00F105287A
:205B6C0081EA040403DB401FFDF7CEFC01E0FFF777FFB4FA84F02028EDD138BD38B5054609
:205B8C00084800780C4600F0B1F9C2B204482946234600904FF61840FFF78EFA38BDC04607
:205BAC005F6700008805002010B5044600F018FB074934F8042C6FF3DF3224F8042C4A6936
:205BCC000861241F944238BF4C6100F021FC10BD200F002038B50C46054600F001FB0021D3
:205BEC0044F80C1C296811B92C6006E0114651F80C2C002AFAD141F80C4C00F009FC38BD20
:205C0C0010B5044660680C3080B2FEF7ADF850B1A18800230181FF22036000F10C01827254
:205C2C001846A16010BD6FF0030010BD00B5ADF1140D8DF8040003910822ADF80020ADF8D8
:205C4C0002201020ADF8060002208DF808006846FFF776FE05B000BD10B5094C04F11001E2
:205C6C00096859B120B101F10800097900F0E0FA206900F00DFB00202061607010BDC046C1
:205C8C0088050020094902460823C87F30F07F0005D0B1F91C00824208BF081C04D05B1E09
:205CAC0001F12001F1D100207047C046180A0020B0B504460D46082000F084F9071C0BD04F
:205CCC00812038700123FB70BC8000F08BF939462A46FFF73DFBB0BD0420B0BD10788028E5
:205CEC0010D1508840F27F6181420BD19088032818BF042806D1917931F0100014BF1129C9
:205D0C00012000D00020704738B52020EFF3118580F31188064CA068002100F0C9FD616903
:205D2C00081AA169814238BF002085F3118838BD7801002010B50C46ADF1180D029008211D
:205D4C00ADF8001019216846ADF802104FF0FF310191FFF7F5FD0499216006B010BD80B524
:205D6C00107802AF80280DD1508840F27F61814208D19088834205D138789179884208BFD4
:205D8C00012000D0002080BD0748816841F31002064991F900100068A0F5407041430811F8
:205DAC00121A803210127047285009400C130050084910B50246A1F11C0318680028FCD16C
:205DCC0000240C601A60D8690028FCD00C60586810BDC0461C10044038B500F0C5FD074C17
:205DEC00054694F8E000012804D1FEF71DFC002084F8E000284600F0B3FD38BD100E002017
:205E0C0010B5044610460A46211C14BF0028022006D0C8608A6003480B6100F041F800207F
:205E2C0010BDC046100E002070B5054600F022FC002400B90124054E30680028FCD0A847F7
:205E4C00012030600CB100F01BFC70BD00800C4008B500F089FD064A117880B229B905495A
:205E6C00096800230B700123137000F079FD08BD3D1200201C6C000010B5084C064920694D
:205E8C00814202D100F0F0FA606104F1BC00042100F0B2FA10BDC0460D2D0000F00800202E
:205EAC0038B50D46044600F08CFC00212A462346116059685160596801B921460A605A60F1
:205ECC0000F04EFD38BD3EB505460820ADF800000420ADF802000C4601906846FFF730FDFC
:205EEC0018B9029808B1058084703EBD0EB58DF806005021ADF8001068460021ADF8021004
:205F0C00FFF71EFD002814BFFF209DF807000EBD06490868002818BF012005D1044B40207F
:205F2C00012218600020CA617047C04604800C402C500C4008B500F0F3F900F0804100F0E0
:205F4C000200084305D003484FF00051BC3000F053FA08BDF0080020074808B5103000687E
:205F6C0028B1034800F0AAFB024800F0ADFB08BD51600000ED630000A4010020074810B5DB
:205F8C001030006830B1044C204600F097FB204600F09AFB10BDC04603500000A40100205E
:205FAC00074908B5283090E80C000020FDF774FD002908BFB0F1FF3F88BF4FF0FF3008BD1E
:205FCC00907E00000EB501900821ADF8001068460221ADF80210FFF7B3FC002814BF00202D
:205FEC0002980EBD0EB50820ADF800001A20ADF802006846FFF7A4FC002814BFFF209DF8CC
:20600C0004000EBD08B542882D2A28BF6FF0010004D203490C3151F82210884708BDC0460C
:20602C00A0690000064A127842B1091F31F8043F984208BF081C02D0521EF7D10020704744
:20604C000802002010B5064C206900F0F1FB0146A06800B9E160A068401CA06010BDC0460E
:20606C00A4010020054808B54168054801220838026048698969884708BDC046E401002048
:20608C000C200940002181820449C0684969814203D10348006800F033BC704778010020BB
:2060AC00846C000010B50446E088FFF77DFAFF2808BF4FF0FF3003D0A0712046FEF706F867
:2060CC0010BD02294FF0000204D0012808BF4FF47A7203E0012808BF40F2EE221046704766
:2060EC001078802809D1508840F27F61814204D19088834208BF012000D0002070477047E5
:20610C00042807BF4FF0C0421D234FF080521C2301483421FEF790BF00A00C40002948BFB2
:20612C000021044A02EB8000026861F3050202607047C046001008400348016803480160DB
:20614C00034800F059B9C046E0200240E0200260B81B0020054A0C321268824218BF032084
:20616C0002D10846FFF7B8B87047C046F0080020054A0C321268824218BF032002D10846D1
:20618C00FFF7AAB87047C046F008002010B500F0EBFB84B200F016F8204600F0E1FB01487C
:2061AC0010BDC0461C6C000050B110F1040F08BF042006D010F1030F0CBF022001207047CA
:2061CC000020704705490A68107828B90120107048680068FDF798B97047C0461C6C000070
:2061EC0010B500F0B9FB80B260F30F0400F0BCFB80B260F31F44204610BD1CB504466068ED
:20620C006946FFF7B5FB20B9009860602046FDF78FFC1CBD10B51D23FFF72FFB012420B90B
:20622C001B23FFF72AFB00B90024204610BD000010B50446034803681BB10A460120214680
:20624C00984710BD4812002008B5406810F07F4F18BF6FF0020002D1FFF762FC002008BD95
:20626C0008B5406810F07F4F18BF6FF0020002D1FFF76DFC002008BD0EB501900821ADF86E
:20628C00001068460521ADF80210FFF759FB0EBD0EB501900821ADF8001068460321ADF899
:2062AC000210FFF74DFB0EBD0EB501900821ADF8001068460321ADF80210FFF741FB0EBDFF
:2062CC0010B50446A088FDF74FFD0028A06014BF00206FF0030010BD044801684368026827
:2062EC008A42FAD1080440EA1340704708200940044884380068C0F302400428C8BF4FF0F3
:20630C00FF3070471813005008B503200121FEF75DFCFFF7E1FF0149086008BD381D0020FE
:20632C00044908310868C3430B600A681042FBD17047C04608100440044908B591F8E600C8
:20634C0018B1D1F80C0100B1804708BD100E002038B5054600F008FB2C680CB12168296089
:20636C0000F0FEFA204638BD0449B1F1FF3F07BF0020011C0868091DFCF716BFFFFFFFFF44
:20638C00012814BF002140F2FF71024A002011607047C04600000460044B03F11002118846
:2063AC0008431080D86900F08FBAC0460802002030B502FB01F403FB00444FF00005E2FB12
:2063CC0000542146284630BD38B5044CE56800F099F9226901462846904738BDF00800206B
:2063EC0004498868401E886003D10869C96800F01BBA7047A40100202022EFF3118382F32A
:20640C001188426A1143416283F3118800F008BA08B50090BDF8020000F0A2FABDF800002E
:20642C0000F08EFA08BD08B5406820B10068FFF729FE002008BD6FF0020008BDADF1080D9A
:20644C0001208DF800009DF800000028FBD102B0704710B50446FFF791FD032000F000FAF8
:20646C00204600F009FA10BD034A1168506813688B42FAD17047C04608200940812342EA5B
:20648C00C112037042F47C4282800023C37070474FF0FF31421E12F8010F491C0028FAD166
:2064AC000846704708B500F0B7F90248006800F0B7F908BD8401002008B50846FFF7E2FBD4
:2064CC00002814BF8068002008BD00B50921ADF1240D684600F09CF909B000BD024A002025
:2064EC000821FEF745BDC0468D67000010B504466068FDF7F5FBA060002010BD0249096812
:20650C00416000207047C046806C00000246024808B5904708BDC046A0690000024A5188E6
:20652C00084350807047C0468805002010B500F056F9002400B10124204610BD102802D38C
:20654C00014910380860704700EF00E010B5044600F0A8F86060002010BD10B50446FFF75E
:20656C0071F82071002010BD08B500F0F5F900F0FBF9002008BD08B500F046F900F040F9AF
:20658C00002008BD08B540680C38FFF70DFB002008BD10B5044600F09FF96060002010BD3A
:2065AC00006801092CBF042000F003007047D0F80320C31D08461946FDF7D4B908B50220CC
:2065CC0004230090FFF7CBFB08BD08B5142001230090FFF7C4FB08BD08B5152002230090B1
:2065EC00FFF7BDFB08BD08B5192001230090FFF7B6FB08BD08B5182001230090FFF7AFFBBD
:20660C0008BD08B5122001230090FFF7A8FB08BD82230370818082710023C370704708B5D2
:20662C0000F0DBF8000C0904084308BD0149103108607047F008002008B5014688684968FB
:20664C00884708BD08B5406800F0D6F8002008BD08B5406800F0CCF8002008BD08B540682F
:20666C00FFF7A2FA002008BD08B5406800F02CF9002008BDEFF3108072B670470020704710
:20668C00EFF3108062B67047002070470148083000687047100E00200149ED31085C704775
:2066AC00100E00200148DC3000687047100E0020014800F025B9C046F40500200149091F36
:2066CC000860704764120020014908607047C04664120020D0F8032008460021FDF782BC68
:2066EC0008B506200090FFF73AFB08BD0148007D7047C046A401002001B9014900F074B8C3
:20670C00A0010000014880687047C046C80100200148C0887047C046F001002008B5FFF7E3
:20672C005BFB002008BD01460879891DFEF7EEBE0168002001B90120704742F00202FBF7C0
:20674C0059BF01460220FFF7BEBB01460120FFF7BABB4FF61843FFF7C3BC42F22F03FFF7F9
