:20000000203F0020B166000001CA011001CA011001CA011001CA011001CA011001CA011022
:1C00200001CA011001CA011001CA011001CA011001CA011001CA01103FCA011082
:20003C002DE9F0472C4D002850D0401E4AD0401E44D0401E0AD0401E4CD105294AD1106838
:20005C000C35286017792F71BDE8F087012941D1AF681078002FE8703CD0204801780024FC
:20007C004FF6FF7A8046A14234DDA000C619385A82451ED0B078E0B105F11400EB1C11212A
:20009C00C268934204D0491E00F11000F8D110E08146B078410805D3308801214A4604F0E2
:2000BC00AFFEB078800804D3308802214A4604F0A7FE98F80010641CE4B2D4E7012909D177
:2000DC00AD1C05E0012905D16D1C01E0012901D110782870BDE8F08704100020200500203B
:0400FC0008F0F8B957
:200100003C000000000000000000000034010000000000000000000001000000000000006D
:1C01200000000000000000000000000001000000000000000800000000000000BA
:20013C00340000000000000000000000680100000000000000000000010000000000000005
:14015C00010000000000000000000000080000000000000086
:2001700030000000000000000000000098010000040000000000000001000000FFFFFFFFA5
:10019000FF00000001000000080000000000000057
:2001A0002C0000000000000000000000C4010000040000000000000001000000FFFFFFFF4D
:0C01C000FFFFFFFF08000000000000002F
:2001CC0034050000E401000099A1011095A70110A5C2011009B2011045B80110000000000B
:0801EC00000000002F000000DC
:2001F400280000000000000000000000140200000000000000000000FFFFFFFF00000000B1
:080214000800000000000000DA
:20021C00300500003002000069C201106DC101101FC2011095BA011000000000000000008E
:04023C002D00000091
:20024000300500005402000075C20110A9B601109DBF011049B601100000000000000000DE
:040260002E0000006C
:200264002400000000000000000000008002000000000000000000000000000008000000CC
:040284000000000076
:20028800240000000000000000000000A40200000000000000000000000000000800000084
:0402A8000000000052
:2002AC00240000000000000000000000C8020000000000000100000000000000080000003B
:0402CC00000000002E
:2002D000000000008015002004000000000000000000000020000000700100003000000094
:2002F0001C020000881500200400000000000000000000000C0000003004000018000000B7
:2003100040020000901500200400000000000000000000002400000048040000180000003A
:20033000000000009815002004000000000000000000000010000000A00100002C000000FF
:20035000CC010000A01500200400000000000000000000002000000064020000240000003D
:20037000FFFFFFFFA8150020040000000000000000000000280000008802000024000000BA
:20039000FFFFFFFFB0150020040000000000000000000000580000003C010000340000009F
:2003B000FFFFFFFFB8150020040000000000000000000000100000006004000018000000B4
:2003D000FFFFFFFFC01500200400000000000000000000001C000000AC020000240000002A
:2003F000FFFFFFFFC815002004000000000000000000000038000000F4010000280000009B
:20041000FFFFFFFFD015002004000000000000000000000054000000000100003C00000036
:1804300018000000000000000000000040040000080000000000000050
:1804480018000000000000000000000058040000080000000000000020
:18046000180000000000000000000000700400000800000000000000F0
:0804780001000000148D0000DA
:040480000068704759
:040484000100000073
:0404880000000E0062
:04048C0000000F005D
:040490003200000036
:040494000100000063
:04049800D01400205C
:04049C00000200005A
:0404A0000000000058
:0404A40001CA011078
:0404A8000000000050
:0404AC00000000004C
:0404B0000800000040
:0404B4000000230021
:0404B800B813002055
:0404BC00010000003B
:0404C000E81400201C
:0404C400080000002C
:0404C8000000000030
:0404CC00000000002C
:0404D0000000000028
:0404D4000000000024
:0404D8000000000020
:0404DC00010000001B
:0404E00020140020C4
:0404E400060000000E
:0404E800010000000F
:0404EC0024130020B5
:0404F0000000000008
:0404F4000000000004
:0404F80000020000FE
:0404FC0000000000FC
:02050000704742
:020502002900CE
:020504000100F4
:020506002500CE
:020508002D00C4
:02050A002E00C1
:02050C002F00BE
:02050E000100EA
:0105100001E9
:0805140003000000BC8C000094
:08051C000000000000000000D7
:0405240000000100D2
:0405280000000300CC
:04052C0087C401106F
:04053000380500008A
:040534003805000086
:0405380000000000BF
:04053C00900000002B
:040540009000000027
:0405440000000000B3
:04054800E814002093
:04054C0057810000D3
:040550002000000087
:04055400348C0000E3
:040558008C8B000088
:04055C000DC30110BA
:04056000BF67000071
:04056400576E0000CE
:0405680099C801101D
:04056C009BC8011017
:040570000000000087
:04057400038D0000F3
:04057800748A000081
:04057C008C8A000065
:040580005C8A000091
:0205840008006D
:0205860009006A
:02058800010070
:02058A0000006F
:01058C00016D
:040590000000000067
:040594000000000063
:04059800000000005F
:04059C00000000005B
:0405A000F9840000DA
:0405A4007D6D000069
:0405A800E57A0000F0
:0405AC009971000041
:0405B000EB6D0000EF
:0405B40009750000C5
:0405B8006555000085
:0405BC00E9820000D0
:0405C000595D000081
:0405C40011C8011049
:0405C80021C8011035
:0405CC000800000023
:0405D0002400000003
:0405D400180000000B
:0405D80028000000F7
:0405DC0020000000FB
:0405E0003C000000DB
:0405E4000C00000007
:0405E80034000000DB
:2005EC002DE9F04F0120ADF1240DADF80A004FF00808ADF8088002A806F090FE00263546B0
:20060C00D84C8DF81C509DF80C006070A6700498E0614FF6FF70A082404607F080FA071C65
:20062C000CD00121122207F052FE07F088FA07A90123D54A0091394606F060FB9DF81C00B7
:20064C00D74F324601232070394604F1A80005F079FF04F1CC0032460223394605F072FF70
:20066C0004F1F00032460423394605F06BFF042031461022E07004F1480004F0D3FD04F1F9
:20068C0058003146102204F0CDFD2562267266720720E67204F148021021A072022006F07F
:2006AC000DFD04F158020320102106F007FD042004F12002014606F001FD19E0A078B4F854
:2006CC004050B4F84230B4F84420B4F8461006280ED1ADF80A50ADF80C30ADF80E20C8487E
:2006EC00ADF8101007F0FCFE012002A904F01AFD0A20ADF80A00ADF808804FF0FF3703974C
:20070C0002A806F00BFE002840F0D38130460690ADF808800927ADF80A7002A806F0FEFD55
:20072C00DDF810A00028CDF818A040F0C281BDF80C00102840F0B18160789DF80E10884260
:20074C0040F0AB81554628884FF6FF71814200F09C812F78A23F00F081812E3F40F09D812C
:20076C00A878B146002800F04D81801E00F02581401E012840F2F880801E00F0AC80401EF3
:20078C0073D0401E60D0083800F05981801E40F05B8194F83E70A888052FADF808004BD062
:2007AC0001208DF81200964807F09AFE94F83E00012820D004281ED003280DD002280BD0FE
:2007CC000698C188ADF80A100189ADF80C104189ADF80E1080892BE0B4F84000B4F8427031
:2007EC00ADF80A00B4F84450ADF80C70B4F84600ADF80E501CE0B4F84000E9888842D8BF2E
:20080C00081CADF80A002989B4F842008842D8BF081CADF80C006989B4F844008842D8BFE0
:20082C00081CADF80E00B4F84610A889814200DC0146ADF8101001E08DF81260AA4A02A881
:20084C00122106F0D6FCFFE0A84807F049FE6878002840F0F980E888E082288920836889BC
:20086C006083674807F0A2FCEEE0B5F804900A2007F055F9071C0AD00121152207F027FD56
:20088C00A7F8089007F05BF9394606F0EDFEB9483146062204F0C6FCE68226836683A879F9
:2008AC006073574807F01CFE904807F019FE4FF001094FF6FF706779A0824FB9A87908286B
:2008CC0014BF04200520A070484607F07FFBBBE00320A070B8E0687800283DD1A549281D32
:2008EC0002680A60808888800627A7706889A082E889E082288A2083688A6083E8782073C1
:20090C0094F83E00012818BF022808D11F2006F06FF84FF47A714143394806F00DFA95F8A5
:20092C0003B0B5F80A90142007F0F9F8071C00F08E800121142207F0CAFC87F808B02D1DDE
:20094C00FD60A7F810900420B87407F0F8F8824A394606F0B5F97AE0687831286CD1267162
:20096C00042024E0200500206878002864D1A878618AA278032815D02079677931B9012800
:20098C0014BF6671267107E0CD820000074303D0744806F0D1F9A278072AE1D1062006E032
:2009AC00D97F0000062A06D0207910B90320A0704DE00220FBE70720F9E7687800283BD1EC
:2009CC00EF78A078E17997B9022815D0072813D0062802D1617901290ED103280CD061482D
:2009EC0007F0E4FB40B9012007F0F0FA04E0624A484605F0DDFB68706878E8B924E0C046CC
:200A0C00EC0500206878B8B9574A0220102106F06FFB564A0320102106F06AFB5748ED1C1D
:200A2C00AF88878029680160554A01231846A179A37005F0BDFB50B184F8028007E0A88869
:200A4C00464A102106F0BCFBB9F1010F25D1606A18B3016809B3A07888471EE068791328B1
:200A6C001BD12889012808D1A07B022805D11F4807F036FD05F0FAFC0FE0052005F0B8FF74
:200A8C0001461A4806F058F907E06888C00B04D3374A0420014606F02BFB069848B1ADF89D
:200AAC0008800320ADF80A00CDF80CA002A806F035FC208A67792179420832D320F001000A
:200ACC0057EA010520822CD097B92E49207A8DF80800677A8DF809700A680DF10A052A604F
:200AEC008988A98007E0C046938400001006002003208DF80800A07AE77A194A8DF8100053
:200B0C0006218DF8117002A805F0EEFD616A38B184F8028021B1086810B109684046884797
:200B2C00208A810807D3184920F002002082304604F0F8FA208AC108FFF4DAAD20F004002A
:200B4C00A77B2082781E3FF4B9AD401E7FF4D0AD05F08CFCCCE5C04695820000B7840000C2
:200B6C00AB840000C805002068050020780500204005002058050020A70500204C05002004
:200B8C0088050020520500205E0500202DE9F04F08260125ADF1340DADF800606846ADF8C2
:200BAC00025006F0BBFBDB4C9DF804002070029804F12C070021A060384607F081FDDB49E1
:200BCC0041F28832042304F16C00E76005F0BAFC05F0F0FD062160601F2006F051F95021E9
:200BEC00ADF81A100020ADF818008DF8225080468DF823500DF12202ADF81E804FF4487127
:200C0C00ADF81C104FF47A70ADF8200040F20530294600F067FF40F20630022106AA00F0AE
:200C2C0061FF4FF442701E2104F14D0200F05AFF40F20730072104F11C0200F053FF4FF45E
:200C4C00447029460DF1230200F04CFF40F2113002210DF11A0200F045FF40F2123002218C
:200C6C0007AA00F03FFF40F2133002210DF11E0200F038FF4FF44570022108AA00F032FFBE
:200C8C00CB49032005F0FEFF0620A02106F0F8F80720A02106F0F4F83046A02106F0F0F873
:200CAC000920A02106F0ECF8CDF81480A9468DF826804FF481608DF8249004218DF8259035
:200CCC0005AA8DF8279006F0C1F84FF48060294609AA06F0BBF840F2024029460DF1250278
:200CEC0006F0B4F840F2034029460DF1260206F0ADF840F2064029460DF1270206F0A6F8FF
:200D0C00032006F00FFA042006F00CFABE48BF4A132105F08BFE4FF0040AD24DADF8006053
:200D2C002878ADF802A080000190684606F0F6FA00280CBF029F4746CB488346876087B1FF
:200D4C002B7843B14FF6FF713F1F404627F8041F5B1EB870FAD1C54A0BF11400112105F063
:200D6C0065FE022348468DF8293003228DF8280051468DF82A206F468DF82B10D34B0C9705
:200D8C001968187939600AAA387149464046FFF74FF9484649460DF12902FFF749F902204C
:200DAC0049460DF12A02FFF743F9032049460DF12B02FFF73DF9504605216A46FFF738F9A0
:200DCC0004F11800AF78CBF8040037BB04F1140095F801A095F803906862182006F09FFE2E
:200DEC00071C1AD00421424607F076F9504606F018FE387287F8099087F80A8005F148001C
:200E0C00F86005F158033B6105F120027A6106F096FEAF4A394605F053FF0C2006F07FFEA6
:200E2C00071C0BD00121042207F051FA04F12400B86006F084FE394606F016FC012010219C
:200E4C0006F08AF90220102106F086F9A14942F22F0006F077FC6068414685A20B4606F0D2
:200E6C004DFE0A20ADF80200ADF800604FF0FF370197684606F052FA002840F0DB80002075
:200E8C000490ADF800600927ADF80270684606F045FADDF808800028CDF8108040F0C58034
:200EAC00BDF804004FF00109102876D120789DF80610884271D1454628884FF6FF718142A3
:200ECC0036D02B784F46913B26D01F3B2BD1687816280ED0297960687E2907D07F2913D140
:200EEC002B8976A2052106F009FE0DE02B7A6FA2F8E76888314606F05FFB28B9484604F05B
:200F0C007DFD002725610EE0297905F1080006F0A9FF08E0A00800206878102803D1304660
:200F2C00002102F0F5F9B94637E0C046A98100006888000931D325697DB36078B5F802B06C
:200F4C00401C607095F804A0102006F0E8FD0835071C1CD00221152207F0B9F9A7F808B077
:200F6C0087F80AA0FD6006F0EAFD5B4A394605F0A7FE0546162D0AD0042D08D02069408882
:200F8C00002106F019FB284604F038FD05E060686378052140A206F0B1FD0498002844D077
:200FAC00B9F1000F41D0404606F08CFF3DE0C0468D840000E068054607F07EFB854208BF8F
:200FCC00002702D0876806F071FF381CB8462CD007887F1E1CD07F1E1DD18078656838B118
:200FEC00801E18D102200BA905F03AFB27A204E000200BA905F034FB21A29DF82C30284697
:20100C00042106F07BFD06E0D40E0020988C0000807801F0A9F8ADF800600520ADF80200CA
:20102C00CDF80480684606F079F9E06807F040FB0028BFD06088C108FFF413AF20F004009A
:20104C00608007F09BF902200DF12D0105F008FB00287FF406AF032001210DF12D02FEF71C
:20106C00E7FFFEE62005002004100020A48C0000424C45205065726970686572616C00C032
:20108C004368617220313A20256400C04368617220333A20256400C05273702073656E645F
:2010AC002072657472793A20256400C046432056696F6C617465643A202564004D54552051
:2010CC0053697A653A20246400C046C0FE8C00009984000065840000A38200002DE9F84FAF
:2010EC008046DC480122A0F130010A60D6490F68002FFCD0D64CD54AC02704F1040B176077
:20110C00DBF80010890804D22168090C41F0F00100E07221E24AE34D4FF0000A82F85412C1
:20112C00A5F1D407C0F800A0A66838683146C0F304601628A8BF203800EB2170401C16288B
:20114C0005DA10F10A0FB8BF6FF0090000E01520E54AE64F00F01F0040F4F8501080386877
:20116C0080083ABFE248C0F800A041F04061E14AA946C80E8F0EA9F13C0580F0010000F0C5
:20118C000100106087F0010000F0010090602868C0F38367C0F38F21B00C22D246F30720D9
:2011AC0000280BD542425046490805D17F0806BF0127391C4FF6FF71521EF5D1002810DD11
:2011CC004FF6FF72490041F001018A4207D27F0047F001070F2F92BF01210F27111C401EFC
:2011EC00F0D141EA0741182005F0CCFE28682F68C0F3870107F0030041EA002188B2009046
:20120C00BE4840F2FF3253462C21403805F076F94D46A5F110073868C0F30D011C2005F0C5
:20122C00B1FEB54957F8080C014000F07C400143142005F0A7FE57F80C1C01F47C0009049E
:20124C00090C0143102005F09DFE57F8042CDBF80010C2F30350C2F30343490812D2216846
:20126C000C0510EB247003D41028A8BF0F2000E05046090413EB217303D4102BA8BF0F235D
:20128C0000E0534643EA001302F47F4002F0FF01B8F1220F40EA034041EA000124BF02F09A
:2012AC00804211430C2005F06DFEB8F1220F32BF01202868C0F30070904CB8F1220F4FEAF2
:2012CC00400040F0200084F8090126BF2868C0F3407001208A4FB8F1200F40F0100084F886
:2012EC00090138BF514606D33968C80C00F44070C1F384510143282005F044FEB8F1200F34
:20130C0026BF3868C0F301505046B8F1220F4FEA400040F0600084F80C0126BF2868C0F30E
:20132C00C0605046B8F1220F4FEAC00040F0800084F8010126BF2868C0F345505046B8F1EE
:20134C00200F4FEA800040F47C40A4F89C0138BF6C490AD3386801038A15920501F47C118B
:20136C0000F00F00114341EA0031082005F00AFE4F464FF480002060A7F1D000816D40F22D
:20138C000F226FF31F418A4213D901680068C1F30363C0F3034003B15B1E072805D0062856
:2013AC000EBF0720801C00F00F003D4943EA00100870C6F381435B1E02D05B1E27D022E01D
:2013CC003968880C1FD24FF4804020604E48D0F802204B0A03F0800322F08F021343C1F360
:2013EC0003321A43C0F80220D0F801300A0A62F30303C0F80130026801F0E70322F0E702E4
:20140C0043EA020102E04FF0004120460160DBF80000C0F3C0030BB94020A0624FF4007045
:20142C0020642868C0F3C14040F0300084F8C800C6F38150394E4FF04008A8B3401E0BD008
:20144C00401E28D0022127E09402224300600C40AC3F005040100940012006F02BFC0546FC
:20146C000420294604F090FF042006F023FC8542FAD12648056825F07F4005F097FF3046CF
:20148C0014300068036807214FF06022280E98474FF4806020600321042004F075FF0AE0EE
:2014AC00026008408C1300500420012104F06CFF174805F07BFF203F38681649164B47F618
:2014CC00180500F03F0084F8CB0F32460D8018681068C168022088471248114FC0F8008055
:2014EC0001213960BDE8F88F6E6208400000094094042A4300002043FCFCFC0040A00C4010
:20150C009813005000803F400A600840A83F0050BD37860070B00C402C200940A0010010B0
:20152C009404604200600C402DE9F04F09AFADF13C0D08900A92388809911E46ADF8180016
:20154C00101C08BF002000F08481002700F101094FF0FF3A4FF0010BB8466CE1252940F0C9
:20156C0063811078521C0A922D2818BFADF8068005D15846551CADF8060010780A95302883
:20158C001CBF4246434605D10A9908785A465B46491C0A912A28CDF80080554616D1306868
:2015AC0004930A99CDF808A0C01C4B1C20F00300001D306050F8044C0A93002C0878009400
:2015CC0018D5ADF806B06442009413E044460AE0610001EBC4010918A1F130040A990878FA
:2015EC000094491C0A91302801DB3A28F0DBCDF808A004932E282BD10A9908782A2801F12D
:20160C0001010A9111D13068CDF80880C01C20F00300001D306050F8045C002D48BF454657
:20162C0008782B46491C0A9111E0454643460AE0690001EBC5010918A1F130050A99087898
:20164C002B46491C0A91302801DB3A28F0DB02930AB1224604926C2804D04C2818BFADF806
:20166C00048005D10A990878ADF804B0491C0A910BA9CDF80C800FAB07916428059300F01D
:20168C008B80692800F08880BDF818C0752872D078286ED06F286AD0702850D063283DD03F
:2016AC0073281ED009980A990128A1F101010A9115D96B490C68B5F1FF3F03D0A84288BFFB
:2016CC006D1C00D8099D029508A80AA932466B46A0473F180A99039801F1010974E0404682
:2016EC002AE030680A99C01C20F00300001D306050F8040CBCF1000F01F10109014608B9E5
:20170C0055A00146079106F0F1FC0390B5F1FF3F5BD0A842C4BF281C039056E03068C01C76
:20172C0020F00300001D306010F8040C5D468DF82C000A990395584601F1010945E008204F
:20174C0035680490E81C20F00300001D306050F8041C082210230FA803F072FF401E0790B3
:20176C00402101700A99079801F1010929E0082302E0102300E00A230A99306801F10109C0
:20178C00C01C20F00300001D306050F8041CAA42BCBF2A1C049210E00A99306801F10109CF
:2017AC00C01C20F00300001D306050F8041CAA42BCBF2A1C04926FF009030FA803F040FF82
:2017CC000790059D281A0390009C241ABDF8065000945DB906E008A8202109AA06F01EF8CA
:2017EC007F1C009C641E0094F5D503980546401E039075B9BDF80600E8B10098401E0090E7
:20180C0019D408A8202109AA06F008F800987F1CF4E70798411C0791017809AA08A805F0C2
:20182C00FDFF03987F1CE1E708A809AA05F0F6FF7F1C09F101094A460A9812F8011C401C01
:20184C0000290A907FF48AAE089808B14146017038460FB0BDE8F08F286E756C6C2900C090
:20186C00208D00002DE9FE43974C0F460546F80B80F00081B80880F0ED80B80F6ED2A07A23
:20188C0000284FD138094FD30025012665708F48267206F031FD8E492A4604F1600006F04B
:2018AC0016FE6079012821D1A079F8B9DFF82482E669D4F81490D8F8000078B106F0F8FB2C
:2018CC00A0EB09004346000B3618A0611868B6EBC01F24BF281CE0610AD2E66104F1BC0049
:2018EC004FF0005106F0A2FB284619E06671284640F60902A28694F8412002F0F00242F0A1
:20190C00010284F84120E58694F84020294602F0F00284F84020704BA16304F134061E60E9
:20192C00606118E0380914D2B80BC0F0C48004F1240006F0D3FD061C08D0706830B1756895
:20194C00F068B6F91C1000222023A84727F40057B1E00020A07227F00807ACE0A96808886C
:20196C0040F60208804507D00A8B4FF61F60104040F43470088306E00A8A4FF61F601040E5
:20198C0040F4347008826069D0B1042006F092F9B0B106F08DFB6169814226BF401A401EE1
:2019AC00401A000BE860E868698A401840F6C411E860814203D340F2EE22824200D9E960BF
:2019CC00AE699EB14548B04210D094F8410010F00F0F0BD1698C08F10700884206D128466B
:2019EC006FF4807100224FF00073B0473C4904F16000002206F06BFDA07958B10220ADF879
:201A0C000000684605F048FF0026A671BDF80800A4F85C000120607020794FF00008401CB1
:201A2C00207104F1200084F8078006F057FD002808BF47F0020702D0192006F0BFFB6E69E6
:201A4C002EB1414628464FF080630A46B04727F0005730E004F12C05284606F03FFD01F008
:201A6C008BFF284606F03AFD27F0020708B147F0020720E006F018FE014604F1280006F0B6
:201A8C002DFD0646B569A80810D27EB125EA0500B061084606F004FE706850B12A46F068D9
:201AAC00B6F91C1075680023A84702E0084606F0F7FD27F4804727B104F1BC00394606F056
:201ACC00B5FABDE8FE83C046080C002005440000797A0000E426002000100440CF4B000017
:201AEC0081360000F8B5A0F2013517460E46022D40F214818A4A8B498B4B2D1F0F2D04D924
:201B0C00143D4AD0AD1E1CD011E0DFE815F0C300BC00F400E400B300AB000701A2009A00E1
:201B2C00100010009200880079006F006300282880F2F480022E40F0F180398805F0A0F9BE
:201B4C00F8BD012E40F0EA8015462879012800F0E58051793878507181B9002800F0DE8096
:201B6C009078012800F0A980042800F0A680062800F0A380052800F0A080F8BD38780028C2
:201B8C0040F0CC809078032800F0A280072800F09F80052800F09C80F8BD012E40F0BE80AF
:201BAC003878012840F0BA80154605F1F00006F0FDFA002840F0B2802C46002004F13E0158
:201BCC0003F0B0FA002840F0A98004F1CC0006F087FCF8BD022E40F0A18038880A28C0F2C7
:201BEC009D80B0F5486F00F3998015E0022E40F095803888B0F5FA7F80F290800880F8BD4D
:201C0C00022E40F08B8038880628C0F28780B0F5486F00F383801946891C0D4638E0022EB5
:201C2C007CD13888062879DBB0F5486F76DC1946F3E7012E72D1387806286FDA891F0D468E
:201C4C000EE0012E6AD13878042867DA15460B3506E0012E62D1387808285FDA15460A356D
:201C6C002870F8BD012E59D13878042856DA1546093506E0012E51D1387804284EDC154675
:201C8C0008352946DBE7022E48D13888154612352946B3E7012E41D11546687901283DD063
:201CAC0011793878107161B9002837D09078012803D0042818BF052830D1012006F086F949
:201CCC00F8BD387850BB9078022818BF052825D106F044FAF8BD154605F1870400211F2235
:201CEC00204603F09FFA39463246204602F037FE0020EE710EE0154605F1680400211F22D6
:201D0C00204603F08FFA39463246204602F027FE0120AE713146224604F04AFAF8BDC0464F
:201D2C002005002064050020600500202DE9F04F0128ADF1140D40F0F280DFF81492D9F817
:201D4C00DC00012840F0E9800220C9F8DC0006F0A3FC0290012004F03DFC20B10121064666
:201D6C00C9F8DC10D5E006F093FC03906E484FF00008C0F80080012005F09CFF012818BFF7
:201D8C00CDF8008004D1404604F042F90120009066486E4CC0F800801934D4F8FF0F1120BF
:201DAC0006F0E0FA00280CBF46460126102006F0D9FA08B146F002060F2006F0D3FA08B106
:201DCC0046F004060B2006F0CDFA30B1584800685849006B0246088890470A2006F0C2FA4F
:201DEC000028404618BF01204FF0805B0BF5DC7528B128685049006B0246088890474F4813
:201E0C000127076028688069014646F0200088474B48076006F0A0FA00F0010101914008EC
:201E2C0015D2484806F014FA8246BAF1040FF8D0BAF1010F06D1DBF8D80140680246414816
:201E4C00032190474049086820F003000860404600F080F82868D4F8FF1F806B8047019854
:201E6C0001280ED0BAF1010F06D1DBF8D801406802463448394690473349086840F0030030
:201E8C0008602A480760286840690146304688470B2006F067FA28B128682649C06A024664
:201EAC00088890470A2006F05DFA28B128682249C06A024608889047204807600322C9F8D6
:201ECC00DC201F4BC3F800802868406B0146304688470128F8D1042004F07CFB124807604C
:201EEC001A48D4F8FF1F01688909FCD30098012802D1384604F08CF806F028FA082004F002
:201F0C0069FB06460398C9F8DC7006F0BDFB03F093FE029806F0B4FB02E0042600E00126D9
:201F2C00304605B0BDE8F08F0C40094000022243B8010010F2890000EE89000028200860DF
:201F4C0080010443004003402422084014100940281100202DE9F84FDFF8F8B10746ABF110
:201F6C003500794B0068800880F0DF8005F080FC7C490831D1F8009000254FEA29715FEA94
:201F8C00995201F101010AD2C0F13E0210F10A0F4FEAE202D8BF08229142B8BF111C674C67
:201FAC00D4F87C21C2F30462162AA8BF203A2468C4F30444162CA8BF203CA2465218162A6E
:201FCC0005DA12F10A0FB8BF6FF0090200E015225B4C5C4E02F01F0141F4F85121803168E7
:201FEC0011F0030F18BF0125C90828BF45F002050FB145F0040593F90710411A052904DAC9
:20200C009979A94208BF99886FD0DFF840E10F28A0F10F0829DB08EB0011A1F1F0084FEAEE
:20202C0028210091072984BF07210091062988BF06215EF821600424774604EB81043C592C
:20204C004FEA950CA41BEE0804F0FF0124BFC4F3072631446F08AE0824BFC4F3074631442C
:20206C006E0828BF01EB146104E000214FEA950C6F080091009C5EF824E05FEA5C060EF010
:20208C00FF0424BFCEF3072634447E0824BFCEF3074634446E0828BF04EB1E64009E89B252
:2020AC00A8EB06267143803104EB1124AAEB02010029D8BF0121342209F0FF074A4391B22D
:2020CC004FF6FF727943B1FBF4F18A4238BF111C802889B2998005DA10F1800FB8BF6FF0C0
:2020EC007F0000E07F20D8719D71194800681F2918604FF0000008D340F2FF128A4206D2F5
:20210C004908401C8A42FBD301E01F219980124F0F39090940EAC10047EA0001CBF8FB1F7D
:20212C000026CBF8FF6FBDE8F88F08209B1D0B4918700B4F0F60BDE8F88FC0463C110050BC
:20214C006E62084024220840E82600209C130050082009403500094000E7A480301009401D
:20216C00FDFDA400AC3F0050F0B57F4C01466068491EADF1340D00F08480491E7BD0891E68
:20218C0065D0491E61D0491E04D0491E59D0491E55D051E006F0F2F8002508208DF83050AC
:2021AC0005F0BDFC071C0CD00121182206F08FF805F0C5FC0CA901236C4A0091394604F044
:2021CC009DFD102005F0ABFC071C21D00121192206F07DF89DF83000401E388102AEFE60C7
:2021EC0005F0ADFC624A394604F06AFD80B960689DF8303040A2022105F080FC64680DF179
:20220C000A0004F04DF803212B46024620466EE007AE40F21530314601F00EF960683AA29F
:20222C0002212B4605F06AFC6468304604F038F802460321204659E00221002218E035A21E
:20224C0000E036A20221002351E03AA504E004F16C0006F045F93AA5142003F0CFFB606853
:20226C0002212A46002305F049FC60680321052206F03BF83DE036A204460221002310464B
:20228C00C3E74FF441700AA901F0D6F89DF8297000258DF809709DF82A608DF80C509DF83C
:2022AC0028008DF80B509DF82D308DF80A609DF82C208DF808002F498DF80F309DF82B704F
:2022CC008DF80E2002AE8DF80D7032680A607068486066680AA803F0E3FF024601212B46D9
:2022EC00304605F00BFC60681CA202212B4605F005FC0DB0F0BDC0464E756D20436F6E6E02
:20230C00733A20256400C046436F6E6E656374656400C0464572726F7200C046436F6E6E1E
:20232C006563746564204164766572746973696E6700C04654696D6564204F757400C04695
:20234C00446973636F6E6E656374656400C046C04164766572746973696E6700496E6974C4
:20236C0069616C697A656400A0080020BF820000B18200003F0E00202DE9F843814605F0B9
:20238C00DFFF002100B901216B4E30680028FCD06C4D01242D1DEF6A346009B105F0D6FF79
:2023AC00DFF89881C7F3072008F1BC01086005F0C7FF002100B9214630680028FCD02F6803
:2023CC00346009B105F0C2FFC7F38440C8F8C00005F0B6FF0146002001B9204601463068DF
:2023EC000028FCD0ED69346009B105F0AFFFC5F38120C8F8D000B9F5C061C8F8B81000F066
:20240C00968098F8D80068B9C8F8D410D8F8C000C8F8C800D8F8BC70C8F8C470D8F8D06065
:20242C00C8F8CC60D8F8D410D8F8BC60002954BF02206FF00100454605F1C8031A6801EB8C
:20244C0041014018411000EB917002EBA0021A60D5F8C810C5F8C46000291CDD1E293DDD87
:20246C00D5F8CC0030B93429B4BF15391E21C5F8C81025E02A29BABFD5F8C8000B381E20F5
:20248C00C5F8C800D5F8C4003F28B4BF401C3F20C5F8C4001FE0D5F8CC00032812D011F15D
:2024AC000B0FC6BFD5F8C8000B30201CC5F8C800D5F8C4000028CCBF401E0020C5F8C4009D
:2024CC00032009E011F1150FC6BFD5F8C8001530201CC5F8C8000020C5F8CC00B5F8C40084
:2024EC00174E30214FF47F4208230090304604F005F8009404214FF400321123304603F029
:20250C00FDFFB5F8C80004214FF4F80212230090304603F0F3FFB5F8CC0020214FF440621D
:20252C000A230090304603F0E9FFBDE8F883002088F8D800BDE8F88300800C4028110020A4
:20254C0000A00C4000A00C402DE9F04FADF1840D01F002F803F0AEFF0026012804D105F06F
:20256C00E1FC022808BF01265F490868C0F38150012806D151F80C0C0127010E07FA01F034
:20258C0006435A48614F007807F12C00036803F091FF03F07F03012804D105F0C3FC0228B9
:2025AC0008BF5B1C524D2B602C463BB1FF2104F140001F467F1E00F8011BFBD14D48006815
:2025CC004FF0000900F0FF01FE291BD0DFF824C100F0FF0749460122FF2F0CD0BB427FD9E2
:2025EC0002FA07F73E427BD100F0FF0047EA0909201880F840105CF8040F491C00F0FF0715
:20260C00FE2FE9D1092001F027FE3A48002124220823606017A806F02FF84FF0010804F19B
:20262C00240017AA8DF87480414606F021F8236843B3002794354FF0040BBA4608FA07F0E2
:20264C00064219D119EA000F04BF07F0FF0141F4C04105D03819274990F8400051F8201063
:20266C00254801F06FFBF8B24FF0FF3105F030FB2368C5F800A001E0C5F800B07F1C2D1D32
:20268C009F42DBD301A800213022082305F0ECFF0025FF20102101AB0990184A009504F1D2
:2026AC00080005F0DDFF0DA828220823294605F0D3FF2B4604F160000DAA139310491493B2
:2026CC0005F0C6FF0F4951F80D0C20F4F85040F4005041F80D0C4746C1F8FF7F0A4E376095
:2026EC0021B0BDE8F08FC046B43F0050F82600208824002078890000007FC767F97C000063
:20270C00296600000D30094008000940181300502DE9F04F6B4CE2680746880FADF1140DD3
:20272C00C0F0C1805068406808B18047E26851685E4E886808B9CD687DB13568002DFCD063
:20274C000022326010B18047E0684168C86800B180475D48503805F09FF84FF00008C6F8DA
:20276C000080534846F81C0C524805F0C5FD40F60A09A4F834906379A4F83680BD6894F8F3
:20278C004000C34604F1340A00F0F00084F84000012BC4F838B094F84100A5F8028000F069
:2027AC00F00040F0010084F8410001D17B7C93B1B8680088A9F10801814205D0298B4FF646
:2027CC000F400840288304E0298A4FF60F400840288287F811803848016883680193C368EB
:2027EC00406B00911022694620F0784040F0805003903248029302F0B2F8494600E01D46D8
:20280C006B6813B118888142F9D1C5F804A0687B00F0F000687304F1200005F05FFE80689A
:20282C000088CA1F824220D0891F81421DD03B8CEBB197F82C0097F82D30C7F824B000F082
:20284C00F00087F82C0003F0F00040F0010087F82D0007F12002A2639AF80D00A7F8228012
:20286C0000F0F0008AF80D0001E0C4F8148030680028FCD0C6F80080012005F01BFA01288E
:20288C0008D0687B00F0F00040F0010068730C4805F032FDB9680A8A4FF6FF30104008820A
:2028AC00B86846F81C0C05B0BDE8F08F1C10044001010E04711800004C13005018000021B8
:2028CC00A15C0000080C0020510007062DE9FE4F83460D46DBF80800DBF8044000902868CC
:2028EC00002800F0C08005F0DFFED4F8881021B105F0D6FE03202874B5E001212974C4F8D4
:20290C00885005F0CDFE6F6805F0CEFE064694F8D80060B917F0704F03D117B1042004F038
:20292C00A5FD022004F0A2FD012084F8D800304605F0B6FE0098D0F800A0DAF8040040F09A
:20294C000200CAF80400DBF80460DBF80830D5F800C01F6896F88C101FFA8CF0B7F1804F17
:20296C0000FA01F080B2019014BF404F404F4148A96849B996F88C104FEA810909EB00012E
:20298C008A6906F1A6010AE096F88C20DDF804E04FEA820909EB000212697144491EBA6052
:2029AC0080467960186800F1080EC7F800E0B9684FEA0C1243F6F07CA2F110000CEA000090
:2029CC000143B9601A68B2F1804F14BF2A492B496F68B7B9D88909EB0807A6F8A600B869D0
:2029EC0006F1A6028860009F0A60D7F800A01A682F6802F1080E3D01103D674607EA05007C
:202A0C0007E009EB0805AD688D60019D7F197F1E0F60C1F804E08D6828438860D6F8A070BB
:202A2C00586919690843796809688862506A40F003005062DAF8140040F00100CAF8140034
:202A4C00207830B9616804F16C05284605F0FCFD10B10120BDE8FE8F584601F085F82846D0
:202A6C00002105F0F1FD0020BDE8FE8F0005002030040020A48A00001005002040040020B4
:202A8C002DE9F84F994692468B46064605F00CFE604C0090B4F93210B4F930000AAF401ADF
:202AAC0040F6F8710140082980F29E80B4F9300004F59475401C6FF31F3020860820B4F902
:202ACC003080EB7F33F07F0304D0401E05F12005F7D1002506F1700005F092F8C5F808B096
:202AEC0085F81EA0C5F80490A5F81C804A48EE6097E80C00202100271940104005F1100380
:202B0C0083E8030004F12000EF770368002B5ED1294604F09FFA00285FD0A6F8B880E87F6B
:202B2C0040F08000E87796F8BA00012804BF86F8BA70A771607A40B1607830B10120A072CF
:202B4C006772A7712079401C2071009805F0A8FD606A00285BD16078002834D1E07901281B
:202B6C0055D005F0A1FD0646207A40BBA86804F04DF82B49294AE36809681060B0B1DD68AE
:202B8C001068401BB0FBF1F0012898BF012104D9DB681068C01AB0FBF1F19834204605F002
:202BAC004FFD204605F048FD30462EE0304605F077FD04F1BC00042105F038FA27E0194954
:202BCC0001200870F0E7192005F0F8FA1FE004F12000294604F03EFA48B9B4F9300000F6D6
:202BEC00FF706FF31F3020866FF001080CE0A6F8B880E87F40F08000E87796F8BA000128F2
:202C0C0004BF86F8BA70A771009805F049FD4046BDE8F88F080C0020F1EFFF9FE4260020C4
:202C2C000C8D0000E02600202DE9FC415E4C574D574EDFF860815A4F94F8E410481E0B2809
:202C4C0061D8DFE800F07B2C43062343062343067664042907D001220A2945F8212C14BF1F
:202C6C000220032004E02021012045F8211C024684F8E200002045F8390C0827C5F8FF7F91
:202C8C00C5F8F37F45F8392CBDE8FC81052914BF09200620002584F8E400356070E094F8EF
:202CAC00E1700120383D002FC5F81B0004BF0620002102D00021F160032084F8E400032026
:202CCC0045F8010C31603068800859D294F8E400012503280DD00021404660220523009142
:202CEC0003F00CFC94F8E400062814BF0A200720D1E702200090002160220523404603F05D
:202D0C00FDFB0420C7E705F093FCBDE8FC812249002622480E60012505600E2001F032FAF8
:202D2C00022004F08BFB84F8E45084F8E360BDE8FC81002038600C2578601FE019480068D1
:202D4C0000680146202088472C3D41F61D560F2000214FF4C072072345F8010C4046C5F81A
:202D6C0003600225009503F0C9FB404600214FF4C072072303F09EFD0120386084F8E45034
:202D8C0004F1780005F058FCBDE8FC8139400C4038600C4000A00C402C500C4004800C4022
:202DAC0034600C40A0010010281100202DE9F8435C4C04F1200005F091FB15460E4600904F
:202DCC0005F072FC05F001078146B6F1FF3F0CD1606A20B9B4F93200401C06B202E0606ABC
:202DEC00B0F91C60002084F85F00304604F094FC0326002800F08A80616ADFF81C81814260
:202E0C0056D0009988421FD104F1980004F0F8FE6E10A8083ABF206A00680020206248466D
:202E2C0005F03EFC0099C87F40F00400C877684605F0A8F80146404604F00CF9009808B1AA
:202E4C007008EFD283261BE00F1C02D1832E17D013E03968884228D104F1980004F0D0FE4D
:202E6C0000980168AA0802D20A6802600846002202600091009860B98326484605F010FC9F
:202E8C00E079012845D004F1BC00022105F0CEF83FE0C17F41F00401C177684605F072F826
:202EAC000146404604F0D6F8E4E739680091CBE7A9084FEA650603D3216A009100252562D5
:202ECC00C27F0121B9401143C17705F0E1FB0446002F14BF1148124804F0DEFC484605F0DD
:202EEC00DFFB700801D3009820B9204605F0CCFB83260EE0C17F41F00401C177684605F025
:202F0C0041F80146404604F0A5F8ECE7484605F0C7FB3046BDE8F883340C002001000204F9
:202F2C0001000104080C0020B0B5456884684F48297BADF1180D012916D0217E627E4C4B29
:202F4C002F7E0143009143EA02010191494937F0010718BF081CA27E1043029095F88D0046
:202F6C000322FF2811D00DE0677E217E3843A37E019041F00041009143F000403E490290EB
:202F8C0095F88D00014304220391FE204DF82200694605F1900001F031FDC5F89C000028B3
:202FAC0008BF00205FD0287B344951F8200001282BD02068B0F1804F14BF22220A22217E68
:202FCC00D5F89C0004F066FB2068B0F1804F14BF21220922617ED5F89C0004F05BFB2068D4
:202FEC00B0F1804F14BF24220C22A17ED5F89C0004F050FB95F88D10FF2933D02068B0F1C9
:20300C00804F14BF23220B2228E02068B0F1804F14BF21220922217ED5F89C0004F03AFB1E
:20302C002068B0F1804F14BF22220A22617ED5F89C0004F02FFB2068B0F1804F14BF2422D2
:20304C000C22A17ED5F89C0004F024FB2068B0F1804F14BF23220B2295F88D10D5F89C00CB
:20306C0004F018FB012006B0B0BDC046000480A0004000800004C0A000200080A48A0000DD
:20308C00F8B5414C201D0368B3F1FF3F08BF002303F010FA002876D13C4E20683468070F46
:2030AC0004F0FF04802C28BF002403F003FA4FF0FF3578B1401E07D0401E012802D9801E95
:2030CC0013D014E08FB112E0381C5CD0801E0ED114340BE03846401E55D0801E53D0001FCA
:2030EC0051D0401E03D1163400E00A3465B2162D49DB27482749002501270560264E0F6017
:20310C00264C376020680028FCD1274A161D2449244F306820F0030001433868C0080CD264
:20312C00106810F0030F0AD041F003003060106800F003000328FAD101E041F001011B4883
:20314C003160006820B11A4800681846FDF7C6FF184819490560194F0A686FF35B4247EA87
:20316C000200086016490868C0F30130012806D10A681448104040F400320A600860206848
:20318C000028FCD1F8BDFEE718130050A0100050840460425C600C40082204430C006842C0
:2031AC0004000020B03F00500040034080012843000120438C2108404820034000003901F3
:2031CC0004000940FFFFFCFC2DE9F04304466568A7680E46ADF1340D05F066FA95F8D91033
:2031EC00012903D105F05CFA002084E04FF0010985F8D99005F054FA4FF00008C5F8888078
:20320C003069286170696861307E2876307B287330782870706885F8A4806860706941466B
:20322C00092828BF494685F88C10387B01F014F8204602F06DFEF87E85F88D002046FFF773
:20324C0073FE50B9387B00F09DFF05F02DFA85F8D98005F025FA44464CE001A8414630226B
:20326C00082305F001FA06947879CDF80080234A0990397901AB05F11C0005F0F1F901A859
:20328C0041462822082305F0E7F905941C49B86801AA4346079005F1380005F0D9F92878D3
:2032AC0078B901A841462422082305F0E5F98DF81C9005F16C00414601AA05F0D9F9114878
:2032CC0000E0B068A86002F095FAC5F8A000287B012808D1D5F89C0028B10B490160D5F89B
:2032EC009C0000B18460094A05F1C4000421234604F0FAFA20460DB0BDE8F083ED460000A0
:20330C006B610000458400001D530000C5830000BCB5484C074660680D4610B903F04AFAE7
:20332C006060002122A20B4604F0E8FB384624A2801E04D0801E2ED0401E19D005E060686E
:20334C00012D14BF21A526A527E0606800210B4604F0D4FB606828A20221002304F0CEFB36
:20336C0001208DF801009DF801000028FBD1BCBD606800210B4604F0C1FB606824A20221FC
:20338C00002304F0BBFB01208DF800009DF800000028FBD1BCBD606821A500210B4604F0B8
:2033AC00ADFB606802212A46002304F0A7FBBCBD3E3E3E535441434B2041535345525400AA
:2033CC002A2A2A4552524F522A2A2A003E3E20494E5445524E414C204552524F522100C0D7
:2033EC003E3E20494E5445524E414C204657204552524F522100C0463E3E20444546415539
:20340C004C54205350494E4C4F434B2100C046C03E3E204943414C4C2041424F52542100DC
:20342C003E3E204F5554204F46204D454D4F52592100C046A00800202DE9F04F0C4645491A
:20344C00CA7AADF12C0D84460592487B09900D7900958A7A488B4B8A0E7B91F805A091F881
:20346C0002800492B1F846E008904A7A088B0392CD7807900A7AC88A02920F6A0690CA793D
:20348C00888A01928A79E146A9F54079B9F11D0F10D8DFE809F05B5553514F4D4B4946436F
:2034AC00413F3C3A380F34312E2B2923201E1C0F19181716BCF1280F49DA604603F098FAC0
:2034CC0021E0099EB246D046CDF814801DE00898079007980690DDF818E005E038310868DD
:2034EC0020608888A08032E070460AE0B1F8440009E0B1F8420004E0B1F8400001E091F866
:20350C003E00034612E0208021E0059804900498039001E03231E2E70398029002980090C1
:20352C0006E0019A87310DE068310BE01846EAE7009D0BE02C31D2E7276008E0583100E030
:20354C0048311022204601F00AFA00E025700BB0BDE8F08F200500202DE9F041444C94F85D
:20356C00E700ADF1280D00286FD1394F387B01250021242284F8E7507E6884F8E60008232F
:20358C00C4F80C6101A805F04FF8002604F10C00069601ABADF814602E490796324605F008
:2035AC003FF82D4904F1300001AB324605F038F82A4904F1540001AB324605F031F8B868C6
:2035CC00014628468847DFF89C8025487B7B0078D8F80410C1F381571BB1032F03D184F8CF
:2035EC00E150032F16D0022F14D0012F26D103201D4C009031464FF040521C23204602F03F
:20360C007DFF009531464FF400720923204602F075FF13E0022003F029FF032F0CBF4FF4F9
:20362C007A7142F21071114800685434B1FBF0F1204605F005F8204604F0FEFFD8F8000089
:20364C00C00802D2304603F011FF0AB0BDE8F081688C00001B5300008D4D0000B550000038
:20366C00F8260020B03F005000A00C400C8D0000281100202DE9F04104F06CFC3D4E3C4F2A
:20368C0004464FEA5408A0081ED3796AE1B13D46002068628A69086906F1080320401043AB
:2036AC0040F0020088610A691868904318604A6930689043306005F12C0003F0CBFC0221F8
:2036CC0005F1BC0004F0B2FC786A5FEA580114D200F110020CCA002122400B4008BF002A88
:2036EC000BD0016985690C40B8622C434FF48041846107F1BC0004F099FC786A002835D180
:20370C0007F12004204604F0E9FE051C2ED0F868E968884224D1A86803F078FA1649086075
:20372C00C8B906F1080128690A6810430860686931680843306000233361A86846F80C0CDC
:20374C0006F1100000680028FAD0204604F01AFC7D62BDE8F081086802F0B6F8BDE8F08171
:20376C0007F1BC004FF4805104F060FCBDE8F081080C00200C100440E42600202DE9F04308
:20378C000546ADF11C0D04F047FF03F0F7FD4FF000090746CDF80C9004F014FE30F00100CD
:2037AC0014BF002F6FF0040066D068684C4658B1B0F1FF3F05D004A903F0C8FD30B1804637
:2037CC0059E04FF0FF3000E02046049004F020FF04994FF00108461802E00A463BE0049322
:2037EC007868049904F030FF00282DD0684602F0BBFBD8B99DF8040005A903F05BFB88B940
:20380C00AB68BDF814009DF80610029A984748B1BDF814009DF80660A881029BAE73C846E8
:20382C002B6111E0029903A803F0F2FE0498641CB0F1FF3FD4D00028D2D004F0E9FE331A45
:20384C0002D004989842CAD2039E04F0BEFA07F1080546B1324652F80C1C0029BDD12968FD
:20386C0042F80C1C2E6004F0EDFB24B1786804F0CBFE641EFAD1404607B0BDE8F0837047A5
:20388C00F8B5364C0D46A80846D2E80865D304F1200004F023FE00280EBFE068C068E060DB
:2038AC0041682F4A09781160416812680978914207D087692FB16FF0FF0100224FF0007397
:2038CC00B847022003F0D2FD112000F0C5FC0120E071E168087C10B16079012803D00E2014
:2038EC0000F0BAFCE16849681E488F680FB9CF681FB10021C1611C4F07601C4A40F2FF71D3
:20390C001160002787611A4941611A4804F0F4FC192004F075FEF8BD04F12C06304604F0EA
:20392C00DDFD00F029F8304604F0D8FD25F0020504F1200158B9E80803D2084604F0CEFD3C
:20394C0058B104F1980004F05BF9042101E045F0020104F1BC0004F069FBF8BD080C00204D
:20396C00D0210840001004405100070600000460020000401D270000F8B5071C72D0B86834
:20398C0040F6030120264A1C02E04068761EF6B260B15EB10388994218BF9A42F5D1F9680F
:2039AC001CC820311CC149C881E849007868BA690025BD61C8B1F87F42F00202002300F0A7
:2039CC000700401E09D0401E04D0801E08D14FF0805304E04FF0804301E04FF000532A4619
:2039EC007C68F868B7F91C10A04704F05DFE1E4C0646B4F93200401C6FF31F30608604F1E8
:203A0C002C000168CD7704F0BDFA304604F048FEF868B0F9B810B4F93220914222D1217837
:203A2C0001291FD090F8BA60BEB90668AEB1E2680E4912680968B2F1FF3F13D0B6FBF1F297
:203A4C00012A8CBFB6FBF1F10121703004F0F8FDF868703004F0F0FDF8BD80F8BA50284620
:203A6C0001F032FFF8BDC046080C00200C8D00002DE9F04390460A68D8F80040167881469A
:203A8C0000271D463846ADF1140D531C242E0B6053D112F8016F5B1C4C2E0B600ED1AA683C
:203AAC00E41C24F00304241D54F8040C494602F07BF92968EF600127091A2960462E1AD13A
:203ACC00E41C24F00304241D54F8040CE41C029024F00304241D54F8040C0027494603908F
:203AEC00AA68ADF8047001A800F0EAFE2968EF600127091A2960532E1FD1E41C24F00304CE
:203B0C00241D54F8040CE861C8F80040288B0090A968EA69D9F800004346FDF705FDD9F8EB
:203B2C000040002714B12418C9F800402968D8F80040091AEF6001272960662E0AD12B8B27
:203B4C0023B9E41D24F00704083403E0E41C24F00304241D1FB9E9690E700127EF60C8F803
:203B6C00004005B0BDE8F0832DE9F84306467468B56804F099FDD4F88810002963D004F058
:203B8C008FFD2968486820F0020048602968486A20F003004862D4F8A07068692969084308
:203BAC0079680968C1F804052968486920F00100486128684FF00108C0F82080304603F050
:203BCC00A7FED4F88800476804F06EFD814694F8D80060B117F0704F03D117B1042003F01D
:203BEC002DFC022003F02AFC002084F8D800484604F056FDD4F88810087C042803D0032002
:203C0C000874D4F888102A696869D4F8A0304746104307FA00F258680068C2622868B0F168
:203C2C00804F14BF0A480B480F68806800258204A7EB9250401E08603046A268C4F88850D9
:203C4C009047BDE8F88304F02BFDBDE8F883C0460005002030040020F0B5ADF1340DFFF72C
:203C6C007BFC304908682822082340F00200086001A8002104F0F0FC2B4E2C4905240023E5
:203C8C0001AA079406F1BC0004F0E2FC00213022082301A804F0E8FC0025FF271921244A3B
:203CAC00ADF81C5001AB099706F16000009504F0D7FC2822082301A8294604F0CDFC1D4938
:203CCC00079406F1F00001AA2B4604F0C1FC01A829463022082304F0C7FC0124ADF81C4017
:203CEC00099706F17C001A2101AB134A009504F0B7FC12492A4606F19800134604F090FCF2
:203D0C000F4804F0F9FA86F85F507571F57135727572B5727561B4714FF6FF70A6F85C0082
:203D2C000DB0F0BD00200940080C002009800000797A0000AD510000716000009579000017
:203D4C008D3800002DE9F0470D4606465FFA85FA280824BF2E4845402E494FEA8A03C85863
:203D6C0085EA00023240C2F300672B4A06EA0504B043224006F4E0240243B4F5E02F01D1A8
:203D8C00500E14D306F4E020074310D002F4E027B7F5A02707D0B7F5803704BF22F40032F9
:203DAC0042F4A02203E022F4803242F4C022DFF86C80CA5008F1D00739680122002002FAAF
:203DCC000AF40C4218BF101C5FEA000906D1F00D04D34146C5F3805001F80A00300E0BD35D
:203DEC0004F062FC290E34BF0021211C3A68A2431143396004F054FCB9F1000F06D0F00D99
:203E0C0004D34046C5F3805100F80A10BDE8F087006000A000100840FF7F077F00200240C4
:203E2C002DE9F0412E482D490860FEF78DFB2D48006842682C48012190472F4C00250320A7
:203E4C0004F1180141F80C5F401E8D60FAD1241F062004F14C010A46401E22F80C5BFBD1E8
:203E6C000820224F0880224A8F602249121D22F00303CF1A6762E3612362E66904F1200821
:203E8C00944618460A4601E026F8025BB142FBD8B910E82700EB810121F8045C4FF6FC76F7
:203EAC001F8006EA0C0300F1E807D21A676106EA0201EC39A0F8E810284601F075F8A0614F
:203ECC00D8F80000606101F0F3FB02F093FC02F07FFE04F091FB2846BDE8F081040C002042
:203EEC001D330000D8010010004003406D7B0000F9260020203F00203C1200202DE9F0419F
:203F0C0004469C4606AF0878DFF8C8803B8802284FF0FF0750D148684578007842F602168D
:203F2C0000EB0520801B16D04DF2EF64001B18BFB0F102003ED1002B3AD1BCF1010F35D1B5
:203F4C001078CA681070C968474600248F4214BF0227271C33E05BBBBCF1020F26D1507883
:203F6C00157805EB002535F001061DD1C86806682046314603F014FE00280CBF00208078EE
:203F8C0085420FD02046314603F00AFE48B931464FF6FF7003F004FE002808BF11240CD076
:203FAC0004808570002408E0802406E00D2404E00B2402E00A2400E00124FF2F07D0404602
:203FCC00001D006818B1016809B1384688472046BDE8F08104100020F8B50F460146334C9F
:203FEC008E684D68384620383ED0401E4CD0401E47D1287B1778012814BF2A492A49FF2FF4
:20400C0041EA070125D0D5F89C0001F0C5FC70BB3068B0F1804F14BF23220B22D5F89C0070
:20402C00394603F037FBD5F89C0095F88D1001F017FF287B85F88D70012813D195F8A400DB
:20404C0001280FD1D5F89C002146394303F0DEF908E0D5F89C0095F88D1001F001FFFF20AA
:20406C0085F88D0000241BE0287B012802D04FF0FF3415E095F88D202146012000241143CC
:20408C0008E06FF001040BE095F88D100020044641F0004185F8A400D5F89C0003F0B6F9AB
:2040AC002046F8BD0004C0A00020008000000680F8B504F045F901F0D3FB04F04DF904462D
:2040CC0004F00C000C284FD0E0081ED203F066FB274E376805460120014603F0BFFD316846
:2040EC006943884211D2234C8220B0FBF7F0291A204604F0A5FA204604F09EFA0120FDF775
:20410C0015FE204603F07CFD2FE020092CD21A4804F09EF80428FAD01849620906D228B119
:20412C000A460846016821F0010104E00A460846016841F001010160D2F898004FF0805465
:20414C0040F00300C2F89800D4F8B8018069014620208847D4F8B801094C806B21688047F5
:20416C0001202060206800E030BF04F0EFF8F8BD0C8D000034110020004003408C21084035
:20418C002C2009402DE9F843044604F08DFA81462D48021992F8ED10491ECFB2002F82F8F9
:2041AC00ED704BD12B4D05EB84052E78698836F07F0788461AD1F10911D24FF08054D4F8D1
:2041CC00B801806901464046884704F5DC742068406B0146404688470228F8D121E000EB9E
:2041EC008800D0F80011002088471AE04FF08054D4F8B801006A014640468847D4F8B80146
:20420C00806A014640468847D4F8B801006B01464046884701210D4A0D4811600168890847
:20422C00FCD306F03F003F2801D0FFF7ABFF687800F03F003F2801D0FFF7A4FF484604F034
:20424C002FFABDE8F883C046281100202820086028200840C48900002DE9F041064604F096
:20426C0023FA2D4D8046A91991F8ED00421C002881F8ED204AD1294C04EB8604277807F0F2
:20428C003F003F2801D0FFF7E7FF607800F03F003F2801D0FFF7E0FF668837F07F001AD12C
:2042AC00F80911D24FF08054D4F8B801406901463046884704F5DC742068406B0146304608
:2042CC0088470128F8D121E005EB8605D5F80011012088471AE04FF08054D4F8B801C0690C
:2042EC00014630468847D4F8B801406A014630468847D4F8B801C06A01463046884701210E
:20430C00074A0848116001688908FCD3404604F0C7F9BDE8F081C04628110020C4890000BA
:20432C0028200860282008402DE9F041314C0546A0781F4616468846ADF1380D012803D09C
:20434C00FFF78AFC0120A070B8F1000F09D0C5F8048036B1AE6004F0A7F9E17819B104F032
:20436C009FF900203FE0491CC9B2E17004F098F901243FB91D494CC909A84CC006C909AFC8
:20438C0080E80600386828607868E860387C2874B8686C746861788A6882F86800B1A86134
:2043AC000021A02205F1200000F03CFF684600212422082304F060F98DF8184005F1380035
:2043CC0000216A4604F054F9684600212422082304F02AF90649069505F1700000226B4645
:2043EC0004F01EF928460EB0BDE8F081208C000081840000080C0020F8B52F4D0C460646B8
:20440C00A0083AD2A00F4FD3284F3868284C20F0020040F400703860032144F8041C41F27F
:20442C003003A360012121605022A26021604FF4CA60A06021601F4844F80C1C03F05CFF9B
:20444C00A81C0078012803D006F1380004F0DCF8002402203C6002F0F1FF1120FFF792FEA6
:20446C00307C10B90E20FFF78DFE14492C7208786C72C8B10C70042112E005F12C06304609
:20448C0004F02CF8FFF778FA304604F027F830B924F00204A00F07D34FF0005100E00221E8
:2044AC0005F1BC0003F0C2FDF8BDC046000004600C4104408D380000080C0020E0260020BD
:2044CC002DE9F0472E4C2568D4F80490174688460646ADF1500D04F0E7F82988012902D129
:2044EC0004F0DEF847E04FF0010AA5F800A004F0D7F81FB9684603F0D1FD6F46002E3AD041
:20450C00B8F1000F37D003A803F0DCFD7868397A079099F807008DF8241003A903F0E6F861
:20452C0048B3686038680021AE62242285F82C800823A8600BA804F09FF8474608363046BA
:20454C0051460BAA04F094F824367F1EF7D105F10C008DF844A051460BAA04F089F8204632
:20456C0001F0DCF838B1D9F800102046112202F061F9204600E0002014B0BDE8F087C0466F
:20458C00C88C00002DE9F0410E462A4990461C4606AF8C4672680878BB8851783F88127837
:2045AC00002502EB012242F62321521A2AD0521E052A19D9921F0DD0263A35D1072F31D814
:2045CC00C7F10700984298BF83B20CEB070000F1080121E0B84225DBC01B9842D8BF83B236
:2045EC002380DCF804100BE0F06803F07FFD80B2B84217DBC01B9842D8BF83B22380F168D7
:20460C00C9190AE0082F0DD8C7F10800984298BF83B20CEB07010F31238040461A4600F0C8
:20462C009EF903E0072501E025800A252846BDE8F081C046300E00202DE9F04708AF97F898
:20464C000490824698460C461546104603F062FD064650460268936A2046810001EB401152
:20466C005B181C683978B9F1000F03F1080308EBC1189A4604D09168504603F0E5FF58B3DD
:20468C0026B3DFF858E0A5F1010C404600231CF8012F202A10D002EB82020119A53A0527D6
:2046AC0095B2491D0219754415F8018B7F1E02F8018BF9D10B7005E0011906277F1E01F8AA
:2046CC00013BFBD1761E00F10600E0D1B9F1000F02D0504603F098FFBDE8F087D486000069
:2046EC00B0B501468B681C68E26948682262520824D2D0F8A01049680A685D69D2F8041578
:20470C00294206D01C68616A21F002016162C2F80455D2F8042519690A4230D01A68516A15
:20472C0021F001015162D0F8A0205268196912683830C2F8041503F05BFFB0BD1C68626925
:20474C0022F001026261D0F88870AFB9626822F0020262601C68626A22F003026262D0F8B8
:20476C00A0005A6940681C6900682243C0F80425084603F0CDF8B0BD0846FFF7F5F9B0BDDD
:20478C002DE9F04114460F4603F08EFF1FFA80F81F480068007808B903F0EEFAE7B13868EB
:2047AC004FF0FF3518B140280AD3810B08D17E681EB1310A04D0310E02D1B9680F2908D9F7
:2047CC003DB10CB1284620700820FFF7DBFC002418E07968BA6803E04FF480700122014690
:2047EC0002F0FCFD0B49012008600B4908684008FCD30A4800684168022088470CB10021D8
:20480C0021700446404603F04BFF2046BDE8F081788C0000A802504208800240CC0100108B
:20482C00F0B520480127F84201D001F0D3FD204D204F214EBD4206D203CD0478A4003459CC
:20484C00401CA047F6E71D48002800D08047164D164FBD4202D210CDA047FAE7F0BD0325F3
:20486C001BE0416808300A1C2A400BD11A1C2A40AB4305D0046804300C600431043BF9D137
:20488C00131C05D0047801300C700131013BF9D1021C2A4001D0A84304300368002BE0D1E8
:2048AC007047C046FFFFFFFF0000000000000000B0910000309200005091000059C5011020
:2048CC002DE9F843002A894607464CBF47F6FF75151C002F08BF002033D03888002808BF80
:2048EC00002403D02A4600F001FA0446281B002826DD388828B1291B484613A201F016FF7C
:20490C002418B868E0B1D7F804802E1BB8F1000F0DD0404603F0EAFB401DB04207DC291B99
:20492C0048460AA2434601F001FF24182E1B122E06DBBB68291B484606A201F0F7FE241852
:20494C002046BDE8F883C0463A2000C0222573222C2000C06C696E652025643A2000002AE8
:20496C004AD05FEA000C8B071CD1830722D1102A08D370B4103A78C978C0103AFBD270BC81
:20498C00103238D0042A2CD3082A05D30C2A24BF08C908C008C908C008C908C092072AD013
:2049AC00920F22E00B780370491C401C521E22D08B07F7D1C30714D18307D8D0121F12D3DE
:2049CC0008C903801B0C4380001D121FF8D20AE008C903701B0A43701B0A83701B0AC370FF
:2049EC00001D121FF4D2121D05D00B780370491C401C521EF9D16046704770472DE9F8433D
:204A0C00234D884606464FF0FF3105F12400814603F01AFE00200CE0FF2909D02A688A423A
:204A2C0004D905EB8101D1F894700FB1002627E0401CB8F1000F03D018F82010FE29EBD157
:204A4C000024346074600127B46011E0FF280ED005EB80000B787268C0F8946007FA03F01F
:204A6C00104370600A680949304602F029FE641CB8F1000F04D008EB84010878FE28E5D1D4
:204A8C00484603F0C1FD3046BDE8F883007FC767882400202DE9F8432020EFF3118780F33E
:204AAC001188214CA068012103F09EFD4FF001094FF0000865692168A4F81C906A1A2168F0
:204ACC00A4F81E80461B401A904227D387F3118840462D18361A4846294603F081FDB0427B
:204AEC00F7D92021EFF3118781F31188E18B012903D14046294603F073FDB0F1FF3F06D09B
:204B0C00A169801B814238BF081C291801E0A069411903F061FDA4F820902560A4F81C8027
:204B2C0087F31188BDE8F883780100208B4208BF824204D90B1C021C002100207047002B00
:204B4C0008BF002A0BD10B1C021C00210020002B08BF002A1CBFC943C04300F070BDF0B52E
:204B6C001C4615460B46024600200021B4FA84F6202E04BFB5FA85F62036B3FA83F7202F63
:204B8C0004BFB2FA82F72037F61BB6F1200727BF05FA07F400257F42B4403EBF25FA07F717
:204BAC003C43B540A34208BFAA4201D3521BA341404149416D0845EAC4756408761EF1D50A
:204BCC00F0BDFEE7F0B505460E46A8686C680179ADF1140DFE2908BF002003D01D48084345
:204BEC0003900120FE210DEB8000C160204603A9FFF704FFE06048B3307804F13407C4F863
:204C0C00347420754FF48066C4F8386404F11800CCC804F23C41CCC10DC881E80D00684630
:204C2C0003F03CFA04F2344001216A46FFF748FC206140B1002101F09DFE2069002103F00D
:204C4C0072FA284603E0E06802F0F9FF002005B0F0BDC0460008C080B0B50446A768ADF12D
:204C6C00280D5FBB0C2000F09FF9071C1DD0684600212422082303F0D7FC002306976A469F
:204C8C006168ADF810301848059303F0A1FC386070B90820ADF824000C25ADF8265009A823
:204CAC0002F03CFB384602F09DFC6FF0030018E0E06878602069B860A7600AE003F085F83A
:204CCC000546386802F09CFF2069B860284603F0B9F93868616803F0B3FC386803F0ACFC56
:204CEC0000200AB0B0BDC046118300009EB513460C461F4A1D4912880988824206DB13A275
:204D0C0019460346204601F011FD9EBD194A1788814207DB03F03EF842681946204601F0EF
:204D2C0005FD9EBD002F08BF0BA2E9D00094002B48BF47F6FF73104F002101933C680291EE
:204D4C000E496A46A04702989EBDC0467B6D6F64756C652325647D007B6D6F64756C652D06
:204D6C00726F70653A25787D00C046C04A8D00004C8D00008A050000248D000039750000B9
:204D8C002DE9984303F090FC1F4CDFF87880814604F1E000007850B94446A0680146022045
:204DAC0088470746102001F015FC2FB320E000F015FF002820460FD1144909683222B2FB76
:204DCC00F1F101B9012100F13004204603F038FC204603F031FC0FE044460022A16880F8B5
:204DEC00E020022088470746102001F0F3FB1FB1A068014603208847484603F051FCBDE8D6
:204E0C009883C046688C0000281100200C8D00002DE9F04180462048001F076815460E46CD
:204E2C00ADF1200D002F08BF002208D006A8009042464FF6FF711B230120B84702460592F3
:204E4C002AB300200090BDF81800FF270DF11203294601904046029700F04AFF041C11D159
:204E6C006889ADF81000700804D302F068FE1B23074600E01D23404604A93A4601F086FB09
:204E8C00041C05D004A81B2102F0ECFF00E01524204608B0BDE8F0816015002070B51E4DDA
:204EAC00AC68064603F032F84FF47A71001B4843030C02F0DDFC2969401A48BF404240F610
:204ECC00B831F618B14210D306280EDAE9688C420BD8286848B1114A091B51438A0C02EBC2
:204EEC001141884288BF011C08E00D49486840080ED208687D2100F0FF004143C82905D3C6
:204F0C00B1F57A6F88BF4FF47A6103E0C82101E04FF4FA61084670BDB026002040420F0044
:204F2C00AC3F0050F0B544680E4615461F4600211622ADF12C0D04A800F074F9680000EB39
:204F4C008500C5B2207D2B462A46401E08D0401E04D0401E05D100227F2304E07F2300E005
:204F6C000022934205D0009601962069002100F092F91198129B139A0090162101931498FD
:204F8C00109B02923A46039004A802F052FF00962069002104AA2B4602F07EFE206900214D
:204FAC0003F0C1F80BB0F0BDF8B5001D84B214F0030002D0241A241DA4B202F006FF1A49C9
:204FCC00102C02464F690A61C8BF8F69388800231E46C10BCD0319D126B984420ADD3B46C5
:204FEC00012617E01988091889B28C42198011DC1F4608469FB1001B80B20428B4BF3C8883
:20500C00385344F400443C803F1D08E080F40040002680B23F1838880028DAD1002710460A
:20502C0003F010F83846F8BD38120020F8B50E46044603F02DFB0546304602F06DFB071C28
:20504C0003D1284603F020FB28E0F87F10F0070F1DD114487968884202D079682166786058
:20506C0002214FF0E04204F1580080E80600284603F00AFB04F138004FF0FF3103F0E4FA12
:20508C0004F168070020206697E80300F8BD284603F0FAFAF87F10F0070FFBD102200021D2
:2050AC00F8BDC0462D6400001CB5042002F002FE022818D0032816D016480068C0F3815044
:2050CC00032814BF41F288324FF47A721248144C016854342046B2FBF1F103F0B1FA204606
:2050EC0003F0AAFA1CBD03200C4C009000214FF040521C23204601F001FA012000214FF421
:20510C00007209230090204601F0F8F9022002F095F91CBDB43F00500C8D000000A00C40CA
:20512C00281100202DE9FF410E4605461A4C7188E08A81420CDCB188814209DBF088218B9D
:20514C00884205D13089618B884208BF18271FD0052001F04DFC77888046F188B388ADF8C2
:20516C000270A08AADF806100C4AADF800003789ADF8043011216846ADF8087002F039F818
:20518C00071C05D1A57304F1F000414601F0D4FD38460090BDE8FF8120050020C9840000FF
:2051AC00F8B503F081FA1C4C0746A06D10F4602F27D0A06D400CC6B2700807D2B00803D2CD
:2051CC00F00828BF022602E0012600E00026751D68B200F071FFA36D06F11101012088409F
:2051EC0023EA00013846A16503F05AFA04EB8600C76C4FB1A06C294600224FF00063B847E4
:20520C0002E0384603F04CFAA06D20B104F1F000002102F00BFFF8BD080C002000221346A5
:20522C000A46194671B510F0030F0BD0002A82BF00F8011BB2F1010210F0030FF6D1002A78
:20524C0008BF71BD11F0FF0141EA0121042A18D341EA0141082A0FD30E46102A08D30C46AA
:20526C000D46B2F10F0312F00F0272C0103BFCD812F0080F18BF42C012F0040F18BF40F8A0
:20528C00041B12F0020F18BF20F8021B12F0010F18BF017071BD2DE9F8439046026808AFF4
:2052AC0092F82C003E781D4688422ED9946A880000EB411091682418D4F8009004F10800F2
:2052CC0003F0C2F9A5EB08055FFA85FC04F1080ED8B1387900242346801BC2B2F001521C5D
:2052EC0000EBC3150CF10107214608EB05067518491C7F1E09F80540C9B2F8D15B1C521E75
:20530C00DBB2EDD1704603F07FF9BDE8F8837047F8B586687568174995F88D3051F8232090
:20532C0015491140154AA2F150073F684FF0010C43EA01040CFA03F1394218BF44F480043C
:20534C00126861469940114218BF44F4000495F88D1002F05BF80B4809492043084081425F
:20536C0007D1D5F8880008B1042101743046FEF7FBFBF8BD00100840007F077FD0200240FC
:20538C00000006800000F8FF38B5054601201A4C68712879B0B902F018FD2178002904BF56
:2053AC006FF00704051C15D0491EC9B2217039B902F048FE606802F0D1F80020687118E060
:2053CC00054613E002F001FD05462078FF2805D16FF00604284602F035FE0BE0401CC0B2FE
:2053EC000128207002D1606802F0CFF8284602F029FE0024204638BD7015002070B5064678
:20540C00B079F4680628A4F10C042CDA3079062829DA02F0DAFC154DB27991000C3501EB35
:20542C00C20149194968E1B102F00CFE30792071B0796071307AA071B179880000EBC100AF
:20544C004019F1684068083002F0E2F8B179880000EBC10040194068406803F0D5F80020FB
:20546C0070BD02F0EFFD6FF0020070BD7812002038B519491A4C00204822C1F8F30F94F857
:20548C00E200C1F8FF2F20B3012817D0022807D003281ED151F8310C00F024F80B2016E086
:2054AC0051F8315C2846FCF767FF40F2FF50A84202D8801CA842F1D2082008E051F8310C1F
:2054CC0000F02EFB054800780028E7D0052084F8E400FDF7A9FB38BD39400C40768C00002A
:2054EC002811002038B51A4CA0F5C060D4F8B810C4F8D4000029B8BF49420028B8BF4042CF
:20550C00814220DAB4F8BC00124D30214FF47F4208230090284600F0F1FFB4F8C00004210C
:20552C004FF4F80212230090284600F0E7FFB4F8D00020214FF440620A230090284600F05C
:20554C00DDFF012000E0002084F8D80038BDC0462811002000A00C402DE9F8438146EFF3B4
:20556C001188202080F31188174D154C134F012605F11C000660A4F114000660F86A016A98
:20558C0014208847D9F81000810C14BF000C0420206038680268232100209047094806600F
:2055AC0054F8180C20F4C02040F4803044F8180C2E6088F31188BDE8F883C04684010010DA
:2055CC001820094080022443000024432DE9F843064630685FEA02080C46054604D081680C
:2055EC000C3003F031F840B3A86AA10001EB441140180468B8F1000F00F10800814603D051
:20560C00A96803F021F8A0B10027304600213A4601F0A2FA30462146802201F02BF97F1C16
:20562C008034082FF1DBB8F1000F06D0484602F0EBFF05F10C0002F0E7FFBDE8F8837047FE
:20564C002DE9F8430024002B16460F468046254606D5002FC3F1000302D57F42761E2D257D
:20566C0099463846494601F065F90CA0405CB7FBF9F7002F04F1010408F8010DF1D1A64218
:20568C0005DD3021301B401E08F8011DFBD10DB108F8015D4046BDE8F883C04630313233AA
:2056AC003435363738396162636465660000FEE7B0B5ADF1400D02F0EFFF044600213C2264
:2056CC000823684602F080FF1148416806918168006804900F480068002205900E48089191
:2056EC00694602F06DFF071C0DD002F06EFB0546384600F0FDFD30B1284602F0A3FC20463D
:20570C0002F0BEFF01E002F0EDFE10B0B0BDC046AC8800003C1200209981000030B545688F
:20572C001349FE23ADF1140D124AA8792C79039308436B79019021431A4300910E4802926D
:20574C006946FFF75BF90D4C206068B10D480C490068B1FBF0F002F02FFF69792068012207
:20576C0001F044FC012000E0002005B030BDC0460000C08000008080D4260020F026002093
:20578C00A08601000C8D000030B5401E4FF00004ADF12C0D0AD0401E04D0401E20D1FDF791
:2057AC0043FA1DE000F088FB044619E001A821462422082302F038FF06940D4DADF8144056
:2057CC0009490794012201AB05F1780002F028FF064A23462C2105F19C00009302F040FF1E
:2057EC0020460BB030BDC046CD5A00007D540000281100202DE9F041164D6C682079ADF183
:20580C00380DFEF729FD02F04FFF2F6880463878C8B901A800213022082302F025FF069556
:20582C00A079002609900C4A0096617901AB381D02F016FF012038702168084ACE62216859
:20584C008A6021684860404602F02AFF28460EB0BDE8F081888C000033840000000400204F
:20586C00164880B507683FB315498B6803EA5300C00E21D2134A106880081DD24868800852
:20588C001AD21068096810F0050F4FEA114101F0F00101F5E0710AD1B9420DD2190F38BF8B
:2058AC0040F00100D90E38BF40F0040003E0B94202D920F00500106080BDC0462850094057
:2058CC00AC3F005000000940B0B5074602F0ECFE154C0546207918B3401EC0B22071F8B988
:2058EC0004F1BC00082102F0A1FBCFB1E068703002F086F9E1680D48CA680068BA1AB2FBA2
:20590C00F0F2012A98BF012103D9C9687F1AB7FBF0F19834204602F093FE204602F08CFE25
:20592C00284602F0BDFEB0BD080C00200C8D0000F8B5844640F6FF741CF8013B002210E084
:20594C00481B401E10F8015B7F1E01F8015BF9D103E01CF8010B01F8010B521C5B08082A4F
:20596C00EADA5808F5D21CF8010B1CF8015B05F00F07FF1CC5F30315122F45EA001508D14C
:20598C001CF8016B300A24BF1CF8010B60F3DF16BF19AC42D4D1F8BD2DE9F041071C0E4618
:2059AC0004D0144C2068F5B2A84202D80220BDE8F08104F124004FF0FF31804602F044FEFA
:2059CC0004EB85049434206860B979680120A84027603246084308497860384601F070FEA0
:2059EC00002400E00124404602F00EFE2046BDE8F081C04688240020007FC76710B5174CCB
:205A0C002169A1B1002808BF09A205D001F10800097902F027FA0BA260686378052102F038
:205A2C006DF8206902F04EFA00202061607010BD5273702073656E742072657472793A2035
:205A4C00256400C0527370207265747279206661696C65643A20256400C046C0A008002070
:205A6C00D0B5044602F0D8FD00F042FC071C08BF6FF002041FD002F0A8F90146A2880F48BD
:205A8C000023243030F80C6F5EB902804760A26882602373786820610024084602F0D2FA8D
:205AAC0009E0964208BF6FF00204F6D05B1C062BE8D302F017FD2046D0BDC046541200203F
:205ACC001648144A144908B5E4300078801E0A2807D8DFE800F0181410061410061410065C
:205AEC0009C002F0A5FD11E010688008FCD250688008FCD20AE008688008FCD306E0086869
:205B0C008008FCD202E010688008FCD3FDF78CF808BDC04634600C4038600C402811002012
:205B2C00134910B50A684BF2F5214843040AC2F38140012806D101F09BFE01F02BF8604323
:205B4C0004EB90540C4901F1E500007830B90948006820F07F402418640802E0002081F82E
:205B6C00E50006480460210C41600123836010BDB43F005010200940281100203C600C40E3
:205B8C00B0B5044602F01EFC30F0010008BF6FF004041ED002F040FD054602F016F901463F
:205BAC000D480622403030F80C7F6FB1A388BB4208D1406800680022854208BF0122A26033
:205BCC00002403E0521EEED14FF0FF34084602F039FA2046B0BDC0463812002008B501207D
:205BEC0002F068F801281DD00F4834210122002300F060FE002808BF002014D00B48006843
:205C0C0001F09AFE02F082F90A4A93681168D060C01A074BA1EB91014343180C884228BFE5
:205C2C00011C1160012008BD00A00C408000001040420F00B026002098B5154B1B1D18687C
:205C4C000004070C21D001F013FE104991F90720824205DD10F1800FB8BF6FF07F00C87160
:205C6C008C88BC4210D80A68D3F8D40F801A801C1F2888BF1F203F1B4008C7404FF6FF709E
:205C8C00E719B84238BF071C8F8098BDE826002030100940084610B500F0005100F0040081
:205CAC0008431CD0012002F005F8104C012811D00B4801683220B0FBF1F2012A8CBFB0FB6E
:205CCC00F1F101216434204602F0BAFC204602F0B3FC10BD034802F00FFB0348046010BD77
:205CEC000C8D000071180000001004403C0C0020B0B504AF3F88002F18BF0B2025D1087834
:205D0C0002281FD14D686C782F7800204FF6F17507EB04277F1B012F0ED9FF1E0CD07F1EEE
:205D2C001CBF011C0A200FD105241C80C9680B68136009791171B0BD01241C80C968097895
:205D4C001170B0BD002101201980B0BD1549096821280ADC212819D00C380FD00D380FD08A
:205D6C00001F0FD0C01E0FD01AE0253810D0001F10D0401E10D0401E10D011E00868704792
:205D8C004868704788687047C8687047086970474869704788697047C8697047086A7047B9
:205DAC0000207047F0010020F8B50646B08815460F46FEF79BFF0446002D02D4281B0A28BD
:205DCC0006DB3368291B38460BA200F0AFFC2418B08978B1002D06D4B06802F087F9291BBE
:205DEC00401D884206DCB368291B384603A200F09DFC24182046F8BD257000C028272573F0
:205E0C002729000038B544688568D4F8A00000F0CBFFD4F89C0001F012FF2968486820F0BF
:205E2C000200486004F11C0002F0C2FB04F1380002F0BAFB287BFEF7A5F9207818B904F184
:205E4C006C0002F0ADFB04F1C40001F099FE02F02BFC002184F8D91002F022FC38BD704794
:205E6C0038B50C4620B141680122A240114201D1022038BD914341600D480025031900EB26
:205E8C008401C1F8945003F140010978FF291ABF406850F8211044F020410648FDF752FFD4
:205EAC0020464FF0FF3101F013FF284638BDC04688240020007FC76738B5134D95F8E10061
:205ECC00002410B91148007860B102F0EDFB95F8E310002906BF012185F8E310012402F0F6
:205EEC00DFFB0CB1002038BD022001F0BFFA0E20FEF7B2F901F0A8FD01280EBF0120002083
:205F0C0085F8E20038BDC04628110020768C00007FB5866831684568486820F002004860EE
:205F2C003168486920F00F00486130680321016202A802F031FB0B48006804682869009014
:205F4C006869074B0190297E03EB81010A6A297B306853F821300399A04700907FBDC046C9
:205F6C00A48A0000C4010010D0B5044602F054FB01F004FA061C08BF6FF004001DD001F0E9
:205F8C0024FFB168002908BF002709D051F80C2C0023B2600F4641F80C3CFF2601F8026CB1
:205FAC0002F050F8A7603FB117F8080C207117F8070CA0710020D0BD0220D0BD10B502F0AA
:205FCC0073FB114C611C097829B10E490C6802F067FB224614E002F063FB02F069F80B4A9F
:205FEC00002301F0FFFF626C002314001B184FF07A0244EB01044FF09051C91842EB040228
:20600C00104610BD04300440080C002000093D00012838B51ED1012001F04CFE01281BD0EA
:20602C0001F08CFF0D4D0E480122322305F1E00100680A70B3FBF0F404B91446303528467B
:20604C0001F0DEFD2846214602F0FAFA284602F0F3FA01E000F0B0FF002038BD2811002072
:20606C000C8D000038B51248104C0168114D0C40E1430160A10908D34068800905D3284644
:20608C004FF40051BC3001F0D1FF14F4602F0BD0284600F158010A6804F46024F030144324
:2060AC000C60002101F0C2FF38BDC04620000E0008100440080C002098B5044602F0F4FA65
:2060CC008446104890F85F10C90803D390F85E10A14213D0B0F85C300B4F012202FA04F196
:2060EC001943A0F85C10391D0B6804F10C07BA4093430B600F680FB900210170604602F0BF
:20610C00CFFA98BD080C002008100440DCB5044602F082FA01F032F9064602F053F930F0B6
:20612C00010014BF002E6FF0040017D0606858B1B0F1FF3F05D0694601F008F930B10746B3
:20614C000BE04FF0FF3000E0002000907068009902F07AFA002700B901273846DCBD2DE93E
:20616C00F8438046D8F80440D4F8880000250574D4F88860776802F097FA814694F8D800CB
:20618C0058B117F0704F03D117B1042001F056F9022001F053F984F8D850484602F080FA27
:2061AC00A268C4F88850404631469047BDE8F8832DE9F04106461148401C90F80080144697
:2061CC000D46102001F0ABFC071C12D00421072201F082FF404601F024FC38727E72BD7273
:2061EC00FC6001F0ACFC044A394600F069FDBDE8F0810420BDE8F081C3840000200500209F
:20620C00F8B5044602F008FA00F072F8071C19D001F0DBFD84460D480021243030F80C6F21
:20622C006EB94FF6F872028047600025856021717868A060604601F005FF2846F8BD491CB4
:20624C000629EBD302F04EF9F8BDC04654120020F8B516460C4602F027FA02460F48417805
:20626C00832554B1641E02D0641E10D00DE08179012904D0B0F85C1005E0476A0FB98025B3
:20628C0006E0406A818B318002E0032500E03170104602F005FA2846F8BDC046080C002076
:2062AC00114990B504461122ADF1140D6846FEF756FB0E48A41D302106270170821C7821C6
:2062CC00417014F8011D09111DF80110237802F8011B03F00F011DF801107F1E02F8011B0A
:2062EC00EFD105B090BDC046468C0000C42600202DE9F843804601F068FD0F4C03250026D8
:20630C00814654F80C7F5FB93046C4F800800146A6600A4602F03CF9606018B902F0E2F8E8
:20632C00474501D1264601E06D1EEAD1484601F089FE3046BDE8F88354120020B0B505468E
:20634C0002F06AF9044602F03DF830F0010008BF6FF0040414D001F038FD0A4A002132F873
:20636C000C7F4FB153681B689C4204BF2971002404D0491C0629F2D36FF0040401F062FE04
:20638C002046B0BD781200207CB5114D04460E46600807D3B0B20021009001220B46284610
:2063AC0000F0ACF8A00807D3B0B20090002102220123284600F0A2F8E00807D3B0B20090B4
:2063CC0000210C220223284600F098F87CBDC04600A00C40F8B506460F4D104F7388002451
:2063EC0017E0A20002EBC402921951689068D26852B9AF420BD00A7855F822200346491C19
:20640C0008461946904701E0FEF7A9FA7388641CA4B2A342E5DCF8BD509100005C91000079
:20642C002DE998430446276E9946904607B1B8470220002100EA080011EA090108BF0028EB
:20644C0009D104F1580003C808EA000019EA010108BF002807D004F1680080E8000304F1C4
:20646C00380002F0D1F8BDE8988370470F48B0B58178062918BF072917D14578848A0E20DA
:20648C0001F04DFB071C10D004210A2201F024FE284601F0C6FA38727C811320387301F0BB
:2064AC004EFB034A394600F00BFCB0BD20050020BD840000104A1068C0F30F314BF69A1021
:2064CC00884207D111680B20B0EB117F14BF0020042070472430884208BF01200BD04BF64F
:2064EC004130884208BF032005D0213888420CBF02204FF0FF30704718130050B0B500EB96
:20650C004100102B04AF00F5007403D3103B00F50174120C3D889D4045EA024501F010FF16
:20652C00002700B90127064A394610680028FCD025600120106009B101F008FFB0BDC046D1
:20654C0000800C40F0B50D4614461F460646002124220823ADF1240D684602F065F80020E2
:20656C000590ADF8100008484FF47A71A2B26B4600680697B1FBF0F080B229464243304615
:20658C0002F04EF809B0F0BD0C8D00002DE9F04105461E4690460C46142001F0C0FA071C98
:2065AC0013D03246032101F097FD3D81002038744046FC6001F035FA787401F0C0FA044A5A
:2065CC00394600F07DFBBDE8F0810420BDE8F081257E000070B5104C0646204601F014FF9E
:2065EC000025B0B92046F9F745FF0446A06806420AD0E06822690021034630469847054616
:20660C00012D08BF012005D0204601F065FF041CECD1284670BDC046281100202DE9F041AA
:20662C0001F0DCFE0D4D2B688046A3B105F194070024012606FA04F018EA000F07D057F875
:20664C00240020B1026812B1214690472B68641CE4B29C42EED3BDE8F081C046882400209E
:20666C00F8B50B460E49CF788D784E780C78002298B1401E10D0401E0DD0401E0AD0401EA9
:20668C0018BF02220AD108460C30016819600079187103E03D462E4634461C701046F8BDBF
:2066AC00041000200C4885460C4885446F4607208743BD460A486F4607600A48002803D0FA
:2066CC007946491D8E460047FEF7AAF801F066FC01F05AFFFEE7C046203F002000040000CC
:2066EC00E8150020018500002DE9F04104460E48057890460E46102001F011FA071C10D02E
:20670C003246042101F0E8FC284601F08AF93872FC6001F014FA3946424600F0D1FABDE8AD
:20672C00F0810420BDE8F081210500200CB4F0B505AF061C0C4627F00303ADF1040D03F10F
:20674C00040304D03068002818BF051C00D100253A68284601F04AFD844238BF601E15B15B
