:20000000403F00209D51000001CA011001CA011001CA011001CA011001CA011001CA01102B
:1C00200001CA011001CA011001CA011001CA011001CA011001CA01103FCA011082
:20003C00F0B52B4D05F12C0158C9ADF11C0D02AA58C20AC94FF0805682E80A0047688468BF
:20005C00D6F8D001C16820688847216821488A6B10408863206840F2F271416497F83C00B6
:20007C0097F83D10C0100DEB80008068084321684863684600F032F8D6F8D001397F46680C
:20009C0005EB8101BA698B68797F206855F821101943BB7F05EB8305AB690B430199B047BD
:2000BC000D490A1F106840F010001060086840F001000860A07D0027FF2802D0E07DFF28B3
:2000DC0000D11FB1086840F44040086007B0F0BDDC6C00000DF8FFFF30100040DFF800F0E1
:0400FC00F9BF011037
:200100003C000000000000000000000034010000000000000000000001000000000000006D
:1C01200000000000000000000000000001000000000000000800000000000000BA
:20013C00340000000000000000000000680100000000000000000000010000000000000005
:14015C00010000000000000000000000080000000000000086
:2001700030000000000000000000000098010000040000000000000001000000FFFFFFFFA5
:10019000FF00000001000000080000000000000057
:2001A0002C0000000000000000000000C4010000040000000000000001000000FFFFFFFF4D
:0C01C000FFFFFFFF08000000000000002F
:2001CC0034050000E401000099A1011095A70110A5C2011009B2011045B80110000000000B
:0801EC00000000002F000000DC
:2001F400280000000000000000000000140200000000000000000000FFFFFFFF00000000B1
:080214000800000000000000DA
:20021C00300500003002000069C201106DC101101FC2011095BA011000000000000000008E
:04023C002D00000091
:20024000300500005402000075C20110A9B601109DBF011049B601100000000000000000DE
:040260002E0000006C
:200264002400000000000000000000008002000000000000000000000000000008000000CC
:040284000000000076
:20028800240000000000000000000000A40200000000000000000000000000000800000084
:0402A8000000000052
:2002AC00240000000000000000000000C8020000000000000100000000000000080000003B
:0402CC00000000002E
:2002D000000000003C110020040000000000000000000000200000007001000030000000DC
:2002F0001C020000441100200400000000000000000000000C0000003004000018000000FF
:20031000400200004C11002004000000000000000000000024000000480400001800000082
:20033000000000005411002004000000000000000000000010000000A00100002C00000047
:20035000CC0100005C11002004000000000000000000000020000000640200002400000085
:20037000FFFFFFFF6411002004000000000000000000000028000000880200002400000002
:20039000FFFFFFFF6C110020040000000000000000000000580000003C01000034000000E7
:2003B000FFFFFFFF74110020040000000000000000000000100000006004000018000000FC
:2003D000FFFFFFFF7C1100200400000000000000000000001C000000AC0200002400000072
:2003F000FFFFFFFF8411002004000000000000000000000038000000F401000028000000E3
:20041000FFFFFFFF8C11002004000000000000000000000054000000000100003C0000007E
:1804300018000000000000000000000040040000080000000000000050
:1804480018000000000000000000000058040000080000000000000020
:18046000180000000000000000000000700400000800000000000000F0
:0804780001000000906E00007D
:0404800006F0DABAEE
:040484000100000073
:0404880000000E0062
:04048C0000000F005D
:040490003200000036
:040494000100000063
:04049800F010002040
:04049C00000200005A
:0404A0000000000058
:0404A40001CA011078
:0404A8000000000050
:0404AC00000000004C
:0404B0000800000040
:0404B4000000230021
:0404B800880F002089
:0404BC00010000003B
:0404C00008110020FF
:0404C400080000002C
:0404C8000000000030
:0404CC00000000002C
:0404D0000000000028
:0404D4000000000024
:0404D8000000000020
:0404DC00010000001B
:0404E00024100020C4
:0404E400060000000E
:0404E800010000000F
:0404EC00F00E0020EE
:0404F0000000000008
:0404F4000000000004
:0404F80000020000FE
:0404FC0000000000FC
:02050000704742
:020502002900CE
:020504000100F4
:020506002500CE
:020508002D00C4
:02050A002E00C1
:02050C002F00BE
:02050E000100EA
:0105100001E9
:08051400030000006C6E000002
:08051C000000000000000000D7
:0405240000000100D2
:0405280000000300CC
:04052C0087C401106F
:04053000380500008A
:040534003805000086
:0405380000000000BF
:04053C00900000002B
:040540009000000027
:0405440000000000B3
:040548000811002076
:04054C00A56700009F
:040550002000000087
:040554002C6E000009
:04055800BC6D000076
:04055C000DC30110BA
:04056000CF50000078
:040564002B52000016
:0405680099C801101D
:04056C009BC8011017
:040570000000000087
:04057400976D00007F
:04057800AC6C000067
:04057C00C46C00004B
:04058000946C000077
:0205840008006D
:0205860009006A
:02058800010070
:02058A0000006F
:01058C00016D
:040590000000000067
:040594000000000063
:04059800000000005F
:04059C00000000005B
:0405A000416A0000AC
:0405A400F555000009
:0405A8006961000085
:0405AC00B159000041
:0405B000655600008C
:0405B400895C00005E
:0405B800C542000038
:0405BC00AD68000026
:0405C0008949000065
:0405C40011C8011049
:0405C80021C8011035
:0405CC000800000023
:0405D0002400000003
:0405D400180000000B
:0405D80028000000F7
:0405DC0020000000FB
:0405E0003C000000DB
:0405E4000C00000007
:0405E80034000000DB
:2005EC002DE9F04FD24D00263046ADF11C0DAE800146AE6106F092FA28613046014606F0D6
:20060C008DFA686105F05EF828781022314605F07BFBCD4CCD4804F10C07386005F022FF9B
:20062C008046CC49CA48C160CB49016103F042FA404606F033F807F1080BA7F1060A07F1A9
:20064C000408E8694FF0FF3106F064FA05F00AFF2F89E9882E816B89EE80AA886E811143C1
:20066C0047EA010243EA0201A98006F017F8A888010A24BF20F08000A8800927ADF80270BF
:20068C000820ADF80000684605F0F0F9029B039378BB29789DF8062091422AD1184603F014
:2006AC0083FE071C25D00C2005F0AAFD5FEA00091CD005F0D7FEC9F808703B7805905BB930
:2006CC002869494606F022FAA88840F01000A880E86906F017FA05E0484605F002FF384605
:2006EC0005F0FFFE059805F0D9FF02E0384605F0F8FEAB88580930D3286906F0FFF9F8B980
:20070C0006F00EF9E0B905F0ADFE8146286906F0F5F990B9286906F0EDF9071C0DD0B86885
:20072C004068A861B9684868498803F01FFBB86805F0D7FE384605F0D4FE484605F0AEFFEE
:20074C00286906F0DBF920B9E86906F0DBF9AB8803E0AB8823F01003AB809808C0F0428191
:20076C002EE104A8012105F067F820780A2800F22781DFE810F0F30020011801A9007600C5
:20078C0013010A010401410013000B006089401E80B20028608100F0EB8011E16769A17812
:2007AC009DF81000FA685054A078401CC3B2A37005F046FDA1888146C91A494507DAF868AC
:2007CC0089B2C01805F038F8A088C1B208E0F8684946C01805F030F8A0784844C1B2A0882F
:2007EC008842A17040F0EC80E368002B00F0C080DBF80010103063E09DF81010A088A67077
:20080C0040EA0120B0F5877FA08027DC103005F0D7FC606100B303210170FF2747706178EC
:20082C00817021896FF31F3181802189C1F301318171A18809230181DBF80010A788237060
:20084C0001F11002002FC26040F0BA80E368002B00F08E80102034E02670B6E060810A20DE
:20086C0089E02769A078796840189DF810100171A078401CC3B2A37005F0E2FCA18881463C
:20088C00C91A494508DA786889B2C018001D04F0D3FFA088C1B209E078684946C018001D3B
:2008AC0004F0CAFFA0784844C1B2A0888842A17040F08680E368002B5AD0D8F800100C3063
:2008CC00C0B23246984753E09DF81000A6709DF81070A08007F10C0005F072FC206148B33D
:2008EC00D8F800100831416062780A709AF80010426851709AF8011042689170A7884168AB
:20090C00CF70FF234370E1883F23B3EBA12F0AD1C1F3C2133BB1932101704168887800F070
:20092C000300887001E0022101700420207002E00C050020A788002F42D1E368C3B1D8F874
:20094C0000100C20BDE7C046D4100020E549000084070020B5600000D54000009DF81000F9
:20096C009DF810706070781E07D0401E012801D9267025E00520207022E00120FBE7082734
:20098C0027709DF81000A0801AE007279DF810102089277040EA0120208111E006219DF839
:2009AC0010002170F8E703279DF81010E088277040EA012003E0022121709DF81000E080E6
:2009CC0005F03EFC00287FF4CCAEAB8805F038FC002804BF23F00203AB8003D0E86906F023
:2009EC0091F8AB8818091BD3686906F087F850B9686906F07BF8071C05D0B86804F024FD6A
:200A0C00384605F06EFD686906F078F820B9E86906F078F8AB8803E0AB8823F00803AB8093
:200A2C00D808FFF40EAE23F004032869AB8006F065F800287FF405AEA88840F01000A8800C
:200A4C00E86906F05FF8FCE52DE9F84F8046DC480122A0F130010A60D6490F68002FFCD0E4
:200A6C00D64CD54AC02704F1040B1760DBF80010890804D22168090C41F0F00100E072214A
:200A8C00E24AE34D4FF0000A82F85412A5F1D407C0F800A0A66838683146C0F30460162882
:200AAC00A8BF203800EB2170401C162805DA10F10A0FB8BF6FF0090000E01520E54AE64F04
:200ACC0000F01F0040F4F8501080386880083ABFE248C0F800A041F04061E14AA946C80E8A
:200AEC008F0EA9F13C0580F0010000F00100106087F0010000F0010090602868C0F383671A
:200B0C00C0F38F21B00C22D246F3072000280BD542425046490805D17F0806BF0127391C44
:200B2C004FF6FF71521EF5D1002810DD4FF6FF72490041F001018A4207D27F0047F0010714
:200B4C000F2F92BF01210F27111C401EF0D141EA0741182004F03CFE28682F68C0F387011B
:200B6C0007F0030041EA002188B20090BE4840F2FF3253462C21403804F038FA4D46A5F143
:200B8C0010073868C0F30D011C2004F021FEB54957F8080C014000F07C400143142004F0C8
:200BAC0017FE57F80C1C01F47C000904090C0143102004F00DFE57F8042CDBF80010C2F380
:200BCC000350C2F30343490812D221680C0510EB247003D41028A8BF0F2000E05046090435
:200BEC0013EB217303D4102BA8BF0F2300E0534643EA001302F47F4002F0FF01B8F1220F72
:200C0C0040EA034041EA000124BF02F0804211430C2004F0DDFDB8F1220F32BF01202868CE
:200C2C00C0F30070904CB8F1220F4FEA400040F0200084F8090126BF2868C0F34070012087
:200C4C008A4FB8F1200F40F0100084F8090138BF514606D33968C80C00F44070C1F3845108
:200C6C000143282004F0B4FDB8F1200F26BF3868C0F301505046B8F1220F4FEA400040F0BD
:200C8C00600084F80C0126BF2868C0F3C0605046B8F1220F4FEAC00040F0800084F8010180
:200CAC0026BF2868C0F345505046B8F1200F4FEA800040F47C40A4F89C0138BF6C490AD392
:200CCC00386801038A15920501F47C1100F00F00114341EA0031082004F07AFD4F464FF492
:200CEC0080002060A7F1D000816D40F20F226FF31F418A4213D901680068C1F30363C0F317
:200D0C00034003B15B1E072805D006280EBF0720801C00F00F003D4943EA00100870C6F3A2
:200D2C0081435B1E02D05B1E27D022E03968880C1FD24FF4804020604E48D0F802204B0AA8
:200D4C0003F0800322F08F021343C1F303321A43C0F80220D0F801300A0A62F30303C0F8D8
:200D6C000130026801F0E70322F0E70243EA020102E04FF0004120460160DBF80000C0F317
:200D8C00C0030BB94020A0624FF4007020642868C0F3C14040F0300084F8C800C6F38150B5
:200DAC00394E4FF04008A8B3401E0BD0401E28D0022127E09402224300600C40AC3F005023
:200DCC0040100940012005F0DDFA05460420294604F076F8042005F0D5FA8542FAD1264859
:200DEC00056825F07F4004F089FE304614300068036807214FF06022280E98474FF480607D
:200E0C0020600321042004F05BF80AE0026008408C1300500420012104F052F8174804F05D
:200E2C006DFE203F38681649164B47F6180500F03F0084F8CB0F32460D8018681068C16877
:200E4C00022088471248114FC0F8008001213960BDE8F88F6E6208400000094094042A4356
:200E6C0000002043FCFCFC0040A00C409813005000803F400A600840A83F0050BD37860086
:200E8C0070B00C402C200940A00100109404604200600C402DE9F04F0120ADF11C0DADF8CC
:200EAC0002000827ADF80070684604F0DFFD00259F4C029965609DF80400A1601022207096
:200ECC00012104F021FF384605F06AF9061C09D00221112205F0DDFC05F082F9954A314615
:200EEC0004F02AFB0C2005F05BF9061C0CD00521042205F01DFC04F10C00B06005F070F991
:200F0C008D4A314604F018FB032004F017FD042004F014FDE08A00EA5001C9080FD20109BB
:200F2C0006D2C00838BF72A103D375A1112201E078A10E2204F1180002F09AFB08E079A11C
:200F4C000A6804F1180002604E6846600B89038104F11803184605F0F5FBC1B21A4628469C
:200F6C0005F0C8FBA21C0120022105F0C3FBDFF8CCB104264FF0FF0A0A20ADF80200ADF8BC
:200F8C0000704FF0FF350195684604F06FFD0028F2D100200490ADF800700925ADF80250E5
:200FAC00684604F063FDDDF808800028BDF804209DF80610CDF81080DED1102A40F08C80A0
:200FCC002078884240F0888041460878912840F083804A78BBF800000E3A67D0521E3CD008
:200FEC00521E76D02E3A07D0C13A75D18B8883426AD08A78504661E088780C286CD10C2027
:20100C008DF81400CD788DF815508B888DF816308A798DF8182018128DF81700CD798DF8CD
:20102C001950112005F0ACF8002855D0067080F801A00921418000F10805456006724168E6
:20104C003E224A704168062305AD8B7041682B68C91C0B60AA888A8025E08D88854233D03F
:20106C0042F23200A84237D191F802900F2005F087F888B3067080F801A00721418000F1AA
:20108C0008034360067241680F224A7041688E70416881F80390416801230B7141684D717E
:2010AC0042682B12937104F02FF815E08B8883420AD031F8040C0C38C2B20E201D468B6802
:2010CC00294602F0E1F907E04FF6FF70ABF8000002E0384603F0F6FFADF800700320ADF866
:2010EC000200CDF80480684604F0C0FC44E7C046544920424C4520556E6B6E6F776E00C0AA
:20110C00544920424C45205065726970686572616C00C046544920424C452043656E747255
:20112C00616C00C0544920424C4520416C6C00C008020020916800001D6A00002011002092
:20114C002DE9FE43974C0F460546F80B80F00081B80880F0ED80B80F6ED2A07A00284FD1AF
:20116C0038094FD30025012665708F48267205F09FFB8E492A4604F1600005F04CFC60792F
:20118C00012821D1A079F8B9DFF82482E669D4F81490D8F8000078B105F0B6FAA0EB0900F0
:2011AC004346000B3618A0611868B6EBC01F24BF281CE0610AD2E66104F1BC004FF0005174
:2011CC0005F060FA284619E06671284640F60902A28694F8412002F0F00242F0010284F81D
:2011EC004120E58694F84020294602F0F00284F84020704BA16304F134061E60606118E0D7
:20120C00380914D2B80BC0F0C48004F1240005F00BFC061C08D0706830B17568F068B6F938
:20122C001C1000222023A84727F40057B1E00020A07227F00807ACE0A968088840F602085A
:20124C00804507D00A8B4FF61F60104040F43470088306E00A8A4FF61F60104040F4347074
:20126C0008826069D0B1042005F08CF8B0B105F04BFA6169814226BF401A401E401A000BC7
:20128C00E860E868698A401840F6C411E860814203D340F2EE22824200D9E960AE699EB1E5
:2012AC004548B04210D094F8410010F00F0F0BD1698C08F10700884206D128466FF48071A4
:2012CC0000224FF00073B0473C4904F16000002205F0A1FBA07958B10220ADF80000684613
:2012EC0004F044FE0026A671BDF80800A4F85C000120607020794FF00008401C207104F107
:20130C00200084F8078005F08FFB002808BF47F0020702D0192005F065FA6E692EB1414654
:20132C0028464FF080630A46B04727F0005730E004F12C05284605F077FB01F0E9FC28460D
:20134C0005F072FB27F0020708B147F0020720E005F0C8FB014604F1280005F065FB064649
:20136C00B569A80810D27EB125EA0500B061084605F0B4FB706850B12A46F068B6F91C10EF
:20138C0075680023A84702E0084605F0A7FB27F4804727B104F1BC00394605F073F9BDE89B
:2013AC00FE83C046B809002025330000FD600000441D0020001004402F2A00002528000089
:2013CC002DE9F04F0128ADF1140D40F0F280DFF81492D9F8DC00012840F0E9800220C9F853
:2013EC00DC0005F077FB0290012003F023FE20B101210646C9F8DC10D5E005F067FB03904C
:20140C006E484FF00008C0F80080012004F0BAFF012818BFCDF8008004D1404603F0B4FB7B
:20142C000120009066486E4CC0F800801934D4F8FF0F112005F080FA00280CBF46460126E2
:20144C00102005F079FA08B146F002060F2005F073FA08B146F004060B2005F06DFA30B1FF
:20146C00584800685849006B0246088890470A2005F062FA0028404618BF01204FF0805B62
:20148C000BF5DC7528B128685049006B0246088890474F480127076028688069014646F0B7
:2014AC00200088474B48076005F040FA00F001010191400815D2484805F0D6F98246BAF18E
:2014CC00040FF8D0BAF1010F06D1DBF8D801406802464148032190474049086820F0030067
:2014EC000860404600F080F82868D4F8FF1F806B8047019801280ED0BAF1010F06D1DBF859
:20150C00D801406802463448394690473349086840F0030008602A48076028684069014644
:20152C00304688470B2005F007FA28B128682649C06A0246088890470A2005F0FDF928B19A
:20154C0028682249C06A024608889047204807600322C9F8DC201F4BC3F800802868406B1A
:20156C000146304688470128F8D1042003F062FD124807601A48D4F8FF1F01688909FCD394
:20158C000098012802D1384603F0FEFA05F0C2F9082003F04FFD06460398C9F8DC7005F042
:2015AC0091FA03F08FF9029805F088FA02E0042600E00126304605B0BDE8F08F0C40094011
:2015CC0000022243B80100102A6C0000266C0000282008608001044300400340242208401E
:2015EC0014100940F40C00202DE9F84FDFF8F8B10746ABF13500794B0068800880F0DF80D4
:20160C0004F0A0FC7C490831D1F8009000254FEA29715FEA995201F101010AD2C0F13E02EA
:20162C0010F10A0F4FEAE202D8BF08229142B8BF111C674CD4F87C21C2F30462162AA8BF51
:20164C00203A2468C4F30444162CA8BF203CA2465218162A05DA12F10A0FB8BF6FF0090226
:20166C0000E015225B4C5C4E02F01F0141F4F8512180316811F0030F18BF0125C90828BF64
:20168C0045F002050FB145F0040593F90710411A052904DA9979A94208BF99886FD0DFF8FF
:2016AC0040E10F28A0F10F0829DB08EB0011A1F1F0084FEA28210091072984BF072100914D
:2016CC00062988BF06215EF821600424774604EB81043C594FEA950CA41BEE0804F0FF0119
:2016EC0024BFC4F3072631446F08AE0824BFC4F3074631446E0828BF01EB146104E0002156
:20170C004FEA950C6F080091009C5EF824E05FEA5C060EF0FF0424BFCEF3072634447E086A
:20172C0024BFCEF3074634446E0828BF04EB1E64009E89B2A8EB06267143803104EB112445
:20174C00AAEB02010029D8BF0121342209F0FF074A4391B24FF6FF727943B1FBF4F18A420F
:20176C0038BF111C802889B2998005DA10F1800FB8BF6FF07F0000E07F20D8719D71194842
:20178C0000681F2918604FF0000008D340F2FF128A4206D24908401C8A42FBD301E01F21AC
:2017AC009980124F0F39090940EAC10047EA0001CBF8FB1F0026CBF8FF6FBDE8F88F0820A4
:2017CC009B1D0B4918700B4F0F60BDE8F88FC0463C1100506E62084024220840481D0020A6
:2017EC009C130050082009403500094000E7A48030100940FDFDA400AC3F00502DE9F84331
:20180C00814605F081F8002100B901216B4E30680028FCD06C4D01242D1DEF6A346009B177
:20182C0005F078F8DFF89881C7F3072008F1BC01086005F069F8002100B9214630680028F1
:20184C00FCD02F68346009B105F064F8C7F38440C8F8C00005F058F80146002001B92046B0
:20186C00014630680028FCD0ED69346009B105F051F8C5F38120C8F8D000B9F5C061C8F82F
:20188C00B81000F0968098F8D80068B9C8F8D410D8F8C000C8F8C800D8F8BC70C8F8C47039
:2018AC00D8F8D060C8F8CC60D8F8D410D8F8BC60002954BF02206FF00100454605F1C80386
:2018CC001A6801EB41014018411000EB917002EBA0021A60D5F8C810C5F8C46000291CDD06
:2018EC001E293DDDD5F8CC0030B93429B4BF15391E21C5F8C81025E02A29BABFD5F8C800A1
:20190C000B381E20C5F8C800D5F8C4003F28B4BF401C3F20C5F8C4001FE0D5F8CC0003284B
:20192C0012D011F10B0FC6BFD5F8C8000B30201CC5F8C800D5F8C4000028CCBF401E0020C5
:20194C00C5F8C400032009E011F1150FC6BFD5F8C8001530201CC5F8C8000020C5F8CC00FF
:20196C00B5F8C400174E30214FF47F4208230090304603F03BFB009404214FF40032112374
:20198C00304603F033FBB5F8C80004214FF4F80212230090304603F029FBB5F8CC002021C1
:2019AC004FF440620A230090304603F01FFBBDE8F883002088F8D800BDE8F88300800C4072
:2019CC00F40C002000A00C4000A00C402DE9F04FADF1840D00F080FD03F0E4FA00260128F2
:2019EC0004D104F0BBFD022808BF01265F490868C0F38150012806D151F80C0C0127010E0E
:201A0C0007FA01F006435A48614F007807F12C00036803F0C7FA03F07F03012804D104F00B
:201A2C009DFD022808BF5B1C524D2B602C463BB1FF2104F140001F467F1E00F8011BFBD1D9
:201A4C004D4800684FF0000900F0FF01FE291BD0DFF824C100F0FF0749460122FF2F0CD0C5
:201A6C00BB427FD902FA07F73E427BD100F0FF0047EA0909201880F840105CF8040F491C41
:201A8C0000F0FF07FE2FE9D1092001F075FB3A48002124220823606017A805F00BF84FF009
:201AAC00010804F1240017AA8DF87480414604F0FDFF236843B3002794354FF0040BBA4688
:201ACC0008FA07F0064219D119EA000F04BF07F0FF0141F4C04105D03819274990F840006F
:201AEC0051F82010254801F005FAF8B24FF0FF3104F056FC2368C5F800A001E0C5F800B06F
:201B0C007F1C2D1D9F42DBD301A800213022082304F0C8FF0025FF20102101AB0990184A27
:201B2C00009504F1080004F0B9FF0DA828220823294604F0AFFF2B4604F160000DAA1393FD
:201B4C001049149304F0A2FF0F4951F80D0C20F4F85040F4005041F80D0C4746C1F8FF7F34
:201B6C000A4E376021B0BDE8F08FC046B43F0050561D0020541B00201C6D0000007FC767D4
:201B8C00C9630000595100000D30094008000940181300502DE9F04F6B4CE2680746880FD7
:201BAC00ADF1140DC0F0C1805068406808B18047E26851685E4E886808B9CD687DB1356829
:201BCC00002DFCD00022326010B18047E0684168C86800B180475D48503804F0C7F94FF00B
:201BEC000008C6F80080534846F81C0C524804F05FFE40F60A09A4F834906379A4F83680D0
:201C0C00BD6894F84000C34604F1340A00F0F00084F84000012BC4F838B094F84100A5F8B5
:201C2C00028000F0F00040F0010084F8410001D17B7C93B1B8680088A9F10801814205D058
:201C4C00298B4FF60F400840288304E0298A4FF60F400840288287F811803848016883683C
:201C6C000193C368406B00911022694620F0784040F0805003903248029301F0F9FC49469D
:201C8C0000E01D466B6813B118888142F9D1C5F804A0687B00F0F000687304F1200004F029
:201CAC00C3FE80680088CA1F824220D0891F81421DD03B8CEBB197F82C0097F82D30C7F829
:201CCC0024B000F0F00087F82C0003F0F00040F0010087F82D0007F12002A2639AF80D001B
:201CEC00A7F8228000F0F0008AF80D0001E0C4F8148030680028FCD0C6F80080012004F018
:201D0C0041FB012808D0687B00F0F00040F0010068730C4804F0CCFDB9680A8A4FF6FF3071
:201D2C0010400882B86846F81C0C05B0BDE8F08F1C10044001010E044D1100004C130050CD
:201D4C00180000212D490000B8090020510007062DE9F84F994692468B46064604F0C2FEA4
:201D6C00604C0090B4F93210B4F930000AAF401A40F6F8710140082980F29E80B4F93000BE
:201D8C0004F59475401C6FF31F3020860820B4F93080EB7F33F07F0304D0401E05F12005A1
:201DAC00F7D1002506F1700004F0AEFAC5F808B085F81EA0C5F80490A5F81C804A48EE600D
:201DCC0097E80C00202100271940104005F1100383E8030004F12000EF770368002B5ED1A4
:201DEC00294603F077FD00285FD0A6F8B880E87F40F08000E87796F8BA00012804BF86F8AC
:201E0C00BA70A771607A40B1607830B10120A0726772A7712079401C2071009804F05EFE5E
:201E2C00606A00285BD16078002834D1E079012855D004F057FE0646207A40BBA86803F09F
:201E4C0021FB2B49294AE36809681060B0B1DD681068401BB0FBF1F0012898BF012104D9C3
:201E6C00DB681068C01AB0FBF1F19834204604F009FE204604F002FE30462EE0304604F0BF
:201E8C002DFE04F1BC00042104F0FCFB27E0194901200870F0E7192004F0A4FC1FE004F1B0
:201EAC002000294603F016FD48B9B4F9300000F6FF706FF31F3020866FF001080CE0A6F8F5
:201ECC00B880E87F40F08000E87796F8BA00012804BF86F8BA70A771009804F0FFFD404646
:201EEC00BDE8F88FB8090020F1EFFF9F441D0020886E0000401D00202DE9F04304466668F6
:201F0C00A7680D46ADF1340D04F0ECFD3178012903D104F0E3FD0020A9E04FF0010886F8AD
:201F2C00008004F0DBFD287870706878B07068687060A868B060E868F06028693061287DA2
:201F4C003075687D7075A87DB075A869B061287F3077687F7077A87FB0774FF00009C6F82A
:201F6C0020904B4633631D4675627563B562B56386F82C50102286F83C2086F82D5086F8BE
:201F8C003D50786801F0F8F82046FEF751F8204601F008FC70B937480068C1683868884740
:201FAC00786801F07FF804F09DFD357004F096FD2C465BE001A829463022082304F072FD6E
:201FCC000694387BCDF800902B4A0990B96801AB06F1800004F062FD01A829462822082321
:201FEC0004F058FD05942549386901AA2B46079006F19C0004F04AFD01A8294624220823DA
:20200C0004F058FD8DF81C80B07838B906F1D000294601AA04F04AFD19483061707838B94A
:20202C0006F1EC00294601AA04F040FD1548F06001A829462422082304F01CFD0695ADF8E3
:20204C0014501149079406F584700A2201AB04F00DFDB969FA6906F1400004F094FB0B4AC2
:20206C0006F16C000421234603F0A8FF20460DB0BDE8F083D001001019270000BD5500005B
:20208C00FD690000F56900002D3A0000016800002DE9FC415E4C574D574EDFF860815A4FF9
:2020AC0094F8E410481E0B2861D8DFE800F07B2C43062343062343067664042907D0012242
:2020CC000A2945F8212C14BF0220032004E02021012045F8211C024684F8E200002045F85C
:2020EC00390C0827C5F8FF7FC5F8F37F45F8392CBDE8FC81052914BF09200620002584F841
:20210C00E400356070E094F8E1700120383D002FC5F81B0004BF0620002102D00021F16022
:20212C00032084F8E400032045F8010C31603068800859D294F8E400012503280DD0002108
:20214C00404660220523009102F050FF94F8E400062814BF0A200720D1E702200090002124
:20216C0060220523404602F041FF0420C7E704F079FCBDE8FC812249002622480E60012505
:20218C0005600E2000F08EFF022003F0FFFC84F8E45084F8E360BDE8FC81002038600C2599
:2021AC0078601FE01948006800680146202088472C3D41F61D560F2000214FF4C0720723B3
:2021CC0045F8010C4046C5F803600225009502F00DFF404600214FF4C072072303F020F8F8
:2021EC000120386084F8E45004F1780004F046FCBDE8FC8139400C4038600C4000A00C4010
:20220C002C500C4004800C4034600C40A0010010F40C00202DE9F8435C4C04F1200004F067
:20222C0003FC15460E46009004F05CFC05F001078146B6F1FF3F0CD1606A20B9B4F9320000
:20224C00401C06B202E0606AB0F91C60002084F85F00304603F00AFE0326002800F08A80D6
:20226C00616ADFF81C81814256D0009988421FD104F1980004F048F86E10A8083ABF206A65
:20228C00006800202062484604F028FC0099C87F40F00400C877684604F090F90146404637
:2022AC0003F018FB009808B17008EFD283261BE00F1C02D1832E17D013E03968884228D1F1
:2022CC0004F1980004F020F800980168AA0802D20A6802600846002202600091009860B9EA
:2022EC008326484604F0FAFBE079012845D004F1BC00022104F0C6F93FE0C17F41F00401FF
:20230C00C177684604F05AF90146404603F0E2FAE4E739680091CBE7A9084FEA650603D30E
:20232C00216A009100252562C27F0121B9401143C17704F0CBFB0446002F14BF1148124828
:20234C0003F014FE484604F0C9FB700801D3009820B9204604F0B6FB83260EE0C17F41F056
:20236C000401C177684604F029F90146404603F0B1FAECE7484604F0B1FB3046BDE8F8834E
:20238C00E40900200100020401000104B8090020F8B5414C201D0368B3F1FF3F08BF002388
:2023AC0002F000FE002876D13C4E20683468070F04F0FF04802C28BF002402F0F3FD4FF01F
:2023CC00FF3578B1401E07D0401E012802D9801E13D014E08FB112E0381C5CD0801E0ED159
:2023EC0014340BE03846401E55D0801E53D0001F51D0401E03D1163400E00A3465B2162DA8
:20240C0049DB27482749002501270560264E0F60264C376020680028FCD1274A161D244981
:20242C00244F306820F0030001433868C0080CD2106810F0030F0AD041F003003060106848
:20244C0000F003000328FAD101E041F001011B483160006820B11A4800681846FEF7F4FA3B
:20246C00184819490560194F0A686FF35B4247EA0200086016490868C0F30130012806D102
:20248C000A681448104040F400320A60086020680028FCD1F8BDFEE718130050A010005048
:2024AC00840460425C600C40082204430C00684204000020B03F00500040034080012843E5
:2024CC00000120438C210840482003400000390104000940FFFFFCFC2DE9F041444C94F80C
:2024EC00E700ADF1280D00286FD1394F387B01250021242284F8E7507E6884F8E6000823C0
:20250C00C4F80C6101A804F0B5FA002604F10C00069601ABADF814602E490796324604F032
:20252C00A5FA2D4904F1300001AB324604F09EFA2A4904F1540001AB324604F097FAB86820
:20254C00014628468847DFF89C8025487B7B0078D8F80410C1F381571BB1032F03D184F85F
:20256C00E150032F16D0022F14D0012F26D103201D4C009031464FF040521C23204602F0CF
:20258C0035FD009531464FF400720923204602F02DFD13E0022003F011FB032F0CBF4FF43A
:2025AC007A7142F21071114800685434B1FBF0F1204604F067FA204604F060FAD8F800005A
:2025CC00C00802D2304603F0F9FA0AB0BDE8F081406E00003B350000513B0000793E0000C6
:2025EC00561D0020B03F005000A00C40886E0000F40C00202DE9FC410746BE6833687D68B5
:20260C00986B20F4FA609863AC6B44B13168886B40F4FA6088634FF0FF30BDE8FC81AA6394
:20262C0029630024EC776C630CE09DF80000296B08706B6B286BAA6B401C2863581C68637B
:20264C00501EA863A86B90B93168886B40F4FA6088636A6B6878296B0128A1EB0201296307
:20266C0003D1EB68384698476A6B144646E005F14000694602F014FE0028D6D504F032FA99
:20268C00204F8046387820B9022003F097FA01203870404604F022FA1B49086840F40070F3
:2026AC0008603168886B40F4FA6088636878D8B9696805F1EC0004F02DFA90B9AC6304F016
:2026CC0011FA0646387818B1022003F05FFA3C70304604F003FA1027696B286BEF77401A3F
:2026EC002863686BBDE8FC8195F82D0030B1686B20B1AC6305F19C0004F0B0F92046BDE8C6
:20270C00FC81C046541D0020301000402DE9F8438146D9F808703868066CD9F804504664D7
:20272C006A6CAB6CA86B16F4F06F0146A2EB03082AD1F00911D270095DD301B395F83C4008
:20274C00641EA14298BF0C1C4846214602F0D6FEA86B001BA8630DD04DE081B1484602F0D9
:20276C00CDFE95F82D10A86311B9002843D101E00020A86305F19C0004F070F93BE0484603
:20278C00414603F0F5F836E0F20A19D24FF00008444602E0A86B401EA86340B348460121F7
:2027AC0002F0ACFE3868446814F00F04C0F80480F0D0286B401E2863686B401E686316E0A4
:2027CC00386844680022202904F00F044260CCBF20270F1C4846394602F090FEC7F1200724
:2027EC00B845C8BFB8464846414603F0C1F8EC77484601F0AFFEB0090BD3A96A49B10F4602
:20280C00484602F00DFFA86218B94846391D02F0DFFABDE8F88370472DE9F04103F0B6FED1
:20282C003D4E3C4F04464FEA5408A0081ED3796AE1B13D46002068628A69086906F10803B6
:20284C002040104340F0020088610A691868904318604A6930689043306005F12C0003F09D
:20286C0039F8022105F1BC0003F00CFF786A5FEA580114D200F110020CCA002122400B4037
:20288C0008BF002A0BD0016985690C40B8622C434FF48041846107F1BC0003F0F3FE786AD0
:2028AC00002835D107F12004204604F0BDF8051C2ED0F868E968884224D1A86802F0E2FD43
:2028CC0016490860C8B906F1080128690A6810430860686931680843306000233361A868DA
:2028EC0046F80C0C06F1100000680028FAD0204603F064FE7D62BDE8F081086801F05EFEA8
:20290C00BDE8F08107F1BC004FF4805103F0BAFEBDE8F081B80900200C100440441D00204A
:20292C002DE9F0430546ADF11C0D04F093F803F0CDF84FF000090746CDF80C9004F020F8F7
:20294C0030F0010014BF002F6FF0040066D068684C4658B1B0F1FF3F05D004A903F09EF85A
:20296C0030B1804659E04FF0FF3000E02046049004F06CF804994FF00108461802E00A4656
:20298C003BE004937868049904F0C4F800282DD0684602F0A5F8D8B99DF8040005A902F020
:2029AC00ABFE88B9AB68BDF814009DF80610029A984748B1BDF814009DF80660A881029B9C
:2029CC00AE73C8462B6111E0029903A803F0CAF90498641CB0F1FF3FD4D00028D2D004F0E6
:2029EC0035F8331A02D004989842CAD2039E03F039FD07F1080546B1324652F80C1C002994
:202A0C00BDD1296842F80C1C2E6003F047FE24B1786804F077F8641EFAD1404607B0BDE81C
:202A2C00F083FEE72DE9F04707467D68D7F8089090460E4604F056F88246A86A002864D1A9
:202A4C0005F5847003F060FC0024EC772E6250466C6204F043F804F045F82F4E3378824662
:202A6C0023B9022003F0AAF801203070504604F035F82A49086840F48070086038464146CB
:202A8C0002F0CEFDA862C0B93846414602F0A0F9A878D0B9A96805F1D00004F03BF8E8B912
:202AAC00AC621020E8774946284600F099FC04F019F88246307840B323E0D9F80010886BAC
:202ACC0040F020008863A87810B12046BDE8F087A96805F1D00004F01DF810B1686ABDE834
:202AEC00F0873846414602F073F91020AC624946E877284600F074FC03F0F4FF82463078A0
:202B0C0018B1022003F042F83470504603F0E6FF4FF0FF30BDE8F087551D002030100040E3
:202B2C00F8B5364C0D46A80846D2E80865D304F1200003F079FF00280EBFE068C068E060F2
:202B4C0041682F4A09781160416812680978914207D087692FB16FF0FF0100224FF0007304
:202B6C00B847022003F02AF8112000F005FB0120E071E168087C10B16079012803D00E20EF
:202B8C0000F0FAFAE16849681E488F680FB9CF681FB10021C1611C4F07601C4A40F2FF7102
:202BAC001160002787611A4941611A4803F080FE192003F047FFF8BD04F12C06304603F0FA
:202BCC0033FF00F0A5F8304603F02EFF25F0020504F1200158B9E80803D2084603F024FF28
:202BEC0058B104F1980003F08FFB042101E045F0020104F1BC0003F045FDF8BDB8090020FC
:202C0C00D021084000100440510007060000046002000040A11B00002DE9F0413648354918
:202C2C000860FEF7D3FE4FF08055D5F8D801334C036801210A4620469847D5F8D8014268AF
:202C4C00012120469047022002F0B8FF032002F0B5FF2E4C0025032004F1180141F80C5F01
:202C6C00401E8D60FAD1241F062004F14C010A46401E22F80C5BFBD10820214F0880214A01
:202C8C008F602149121D22F00303CF1A6762E3612362E66904F12008944618460A4601E038
:202CAC0026F8025BB142FBD8B910E82700EB810121F8045C4FF6FC761F8006EA0C0300F1C3
:202CCC00E807D21A676106EA0201EC39A0F8E810284601F009F8A061D8F80000606101F0BA
:202CEC0025FB02F0FDFA02F01FF803F0A7FE2846BDE8F0813C0F0020D1500000004003408B
:202D0C002D620000571D0020403F0020080E0020F8B5071C72D0B86840F6030120264A1C97
:202D2C0002E04068761EF6B260B15EB10388994218BF9A42F5D1F9681CC820311CC149C83E
:202D4C0081E849007868BA690025BD61C8B1F87F42F00202002300F00700401E09D0401E9A
:202D6C0004D0801E08D14FF0805304E04FF0804301E04FF000532A467C68F868B7F91C1001
:202D8C00A04703F0AFFE1E4C0646B4F93200401C6FF31F30608604F12C000168CD7703F057
:202DAC000DFC304603F09AFEF868B0F9B810B4F93220914222D1217801291FD090F8BA6013
:202DCC00BEB90668AEB1E2680E4912680968B2F1FF3F13D0B6FBF1F2012A8CBFB6FBF1F1B6
:202DEC000121703003F04EFEF868703003F046FEF8BD80F8BA50284601F0E0FBF8BDC04663
:202E0C00B8090020886E0000F0B5ADF1340DFFF763FB304908682822082340F002000860FF
:202E2C0001A8002103F036FE2B4E2C490524002301AA079406F1BC0003F028FE00213022D6
:202E4C00082301A803F02EFE0025FF271921244AADF81C5001AB099706F16000009503F044
:202E6C001DFE2822082301A8294603F013FE1D49079406F1F00001AA2B4603F007FE01A8F5
:202E8C0029463022082303F00DFE0124ADF81C40099706F17C001A2101AB134A009503F037
:202EAC00FDFD12492A4606F19800134603F0DEFD0F4803F0FDFC86F85F507571F571357228
:202ECC007572B5727561B4714FF6FF70A6F85C000DB0F0BD00200940B809002059660000BC
:202EEC00FD600000F53E0000E94B0000416000002D2B00002DE9F0470D4606465FFA85FA45
:202F0C00280824BF2E4845402E494FEA8A03C85885EA00023240C2F300672B4A06EA0504CD
:202F2C00B043224006F4E0240243B4F5E02F01D1500E14D306F4E020074310D002F4E027FD
:202F4C00B7F5A02707D0B7F5803704BF22F4003242F4A02203E022F4803242F4C022DFF81B
:202F6C006C80CA5008F1D00739680122002002FA0AF40C4218BF101C5FEA000906D1F00D1A
:202F8C0004D34146C5F3805001F80A00300E0BD303F0A8FD290E34BF0021211C3A68A24379
:202FAC001143396003F09AFDB9F1000F06D0F00D04D34046C5F3805100F80A10BDE8F087EE
:202FCC00006000A000100840FF7F077F00200240F8B503F099FC01F089FA03F0A7FC04469E
:202FEC0004F00C000C284FD0E0081ED202F06AFF274E376805460120014603F0B3F9316840
:20300C006943884211D2234C8220B0FBF7F0291A204603F037FD204603F030FD0120FEF73C
:20302C00CFF9204603F070F92FE020092CD21A4803F01AFC0428FAD01849620906D228B1E6
:20304C000A460846016821F0010104E00A460846016841F001010160D2F898004FF0805456
:20306C0040F00300C2F89800D4F8B8018069014620208847D4F8B801094C806B21688047E6
:20308C0001202060206800E030BF03F043FCF8BD886E0000000D0020004003408C210840AA
:2030AC002C2009402DE9F843044603F01BFD81462D48021992F8ED10491ECFB2002F82F85A
:2030CC00ED704BD12B4D05EB84052E78698836F07F0788461AD1F10911D24FF08054D4F8C2
:2030EC00B801806901464046884704F5DC742068406B0146404688470228F8D121E000EB8F
:20310C008800D0F80011002088471AE04FF08054D4F8B801006A014640468847D4F8B80136
:20312C00806A014640468847D4F8B801006B01464046884701210D4A0D4811600168890838
:20314C00FCD306F03F003F2801D0FFF7ABFF687800F03F003F2801D0FFF7A4FF484603F026
:20316C00BDFCBDE8F883C046F40C00202820086028200840FC6B00002DE9F041064603F017
:20318C00B1FC2D4D8046A91991F8ED00421C002881F8ED204AD1294C04EB8604277807F053
:2031AC003F003F2801D0FFF7E7FF607800F03F003F2801D0FFF7E0FF668837F07F001AD11D
:2031CC00F80911D24FF08054D4F8B801406901463046884704F5DC742068406B01463046F9
:2031EC0088470128F8D121E005EB8605D5F80011012088471AE04FF08054D4F8B801C069FD
:20320C00014630468847D4F8B801406A014630468847D4F8B801C06A0146304688470121FE
:20322C00074A0848116001688908FCD3404603F055FCBDE8F081C046F40C0020FC6B00003A
:20324C0028200860282008402DE9F041314C0546A0781F4616468846ADF1380D012803D08D
:20326C00FFF7D2FD0120A070B8F1000F09D0C5F8048036B1AE6003F035FCE17819B103F04B
:20328C002DFC00203FE0491CC9B2E17003F026FC01243FB91D494CC909A84CC006C909AF98
:2032AC0080E80600386828607868E860387C2874B8686C746861788A6882F86800B1A86125
:2032CC000021A02205F1200000F050FE684600212422082303F0EEFB8DF8184005F1380084
:2032EC0000216A4603F0E2FB684600212422082303F0C0FB0649069505F1700000226B4610
:20330C0003F0B4FB28460EB0BDE8F081186E0000116A0000B8090020F8B52F4D0C46064614
:20332C00A0083AD2A00F4FD3284F3868284C20F0020040F400703860032144F8041C41F270
:20334C003003A360012121605022A26021604FF4CA60A06021601F4844F80C1C03F0A8FA45
:20336C00A81C0078012803D006F1380003F0CAFB002402203C6002F009FC1120FFF792FE92
:20338C00307C10B90E20FFF78DFE14492C7208786C72C8B10C70042112E005F12C063046FA
:2033AC0003F042FBFFF7B4FC304603F03DFB30B924F00204A00F07D34FF0005100E002216B
:2033CC0005F1BC0003F05EF9F8BDC046000004600C4104402D2B0000B8090020401D00207F
:2033EC0070B50D4629680646886B20F02000886323482C7D0168A14213D900EB8400736EC2
:20340C00D0F894108B420CD103F06CFB1D4BD0331A680121A1408A431143196003F05EFB5A
:20342C002C7D706E2146012202F020FA706E297D002202F0D9FC706EA97D002202F0D4FC0E
:20344C00B078012806D006F1D0004FF0FF3103F061FB03E0296888690009FCD2706E297DF4
:20346C00102202F0C1FCA97D0020FF2902D0EA7DFF2A00D118B1706E112202F0B5FC70BD14
:20348C00541B0020002002402DE9F041164680461C460D4606F10B00B8F1FF0FC0B214BF13
:2034AC00032102214018C0B202F06AFE071C3CD004213970FF20787007F108037B60397208
:2034CC007868B8F1FF0F80F8018017D17968B01C887020787968C870607879680871A078C8
:2034EC00796848717868857179682B12CB717868F21EE41C751D164608300DE07968F01C06
:20350C00887078680123C3707868057179682A124A717868B51D801D2146324600F0A8F884
:20352C00E8B27880384601F0EFFDBDE8F08170472DE9F04114460F4603F0D4FA1FFA80F87D
:20354C001F480068007808B902F07EFFE7B138684FF0FF3518B140280AD3810B08D17E68E4
:20356C001EB1310A04D0310E02D1B9680F2908D93DB10CB1284620700820FFF793FD00249A
:20358C0018E07968BA6803E04FF480700122014602F0CCFA0B49012008600B490868400803
:2035AC00FCD30A4800684168022088470CB1002121700446404603F091FA2046BDE8F081A3
:2035CC00506E0000A802504208800240CC010010F0B520480127F84201D001F097FC204D0D
:2035EC00204F214EBD4206D203CD0478A4003459401CA047F6E71D48002800D08047164DE6
:20360C00164FBD4202D210CDA047FAE7F0BD03251BE0416808300A1C2A400BD11A1C2A4004
:20362C00AB4305D0046804300C600431043BF9D1131C05D0047801300C700131013BF9D10C
:20364C00021C2A4001D0A84304300368002BE0D17047C046FFFFFFFF0000000000000000E6
:20366C0088F20100E8F2010044F2010059C50110002A4AD05FEA000C8B071CD1830722D1ED
:20368C00102A08D370B4103A78C978C0103AFBD270BC103238D0042A2CD3082A05D30C2A28
:2036AC0024BF08C908C008C908C008C908C092072AD0920F22E00B780370491C401C521EF3
:2036CC0022D08B07F7D1C30714D18307D8D0121F12D308C903801B0C4380001D121FF8D245
:2036EC000AE008C903701B0A43701B0A83701B0AC370001D121FF4D2121D05D00B7803703A
:20370C00491C401C521EF9D1604670472DE9F843234D884606464FF0FF3105F1240081461A
:20372C0003F0F8F900200CE0FF2909D02A688A4204D905EB8101D1F894700FB1002627E025
:20374C00401CB8F1000F03D018F82010FE29EBD10024346074600127B46011E0FF280ED095
:20376C0005EB80000B787268C0F8946007FA03F0104370600A680949304602F04BFB641CBB
:20378C00B8F1000F04D008EB84010878FE28E5D1484603F0B7F93046BDE8F883007FC76749
:2037AC00541B0020B0B5456884682349607DA27DADF1180D40F000400090207D0027FF2A58
:2037CC0041EA000001904FF0020002D0E27DFF2A00D13FB1E37DA07D1943039140F00040E8
:2037EC0002900420FE214DF8201005F158006946FFF78CFF6866002808BF381C1AD0617D1C
:20380C000F2202F0F1FA686E217D102202F0ECFAA17D3846FF2902D0E27DFF2A00D140B130
:20382C00686E112202F0E0FA686EE17D122202F0DBFA012006B0B0BD0000C0A02DE9F84383
:20384C002020EFF3118780F31188214CA068012100F040F84FF001094FF0000865692168F0
:20386C00A4F81C906A1A2168A4F81E80461B401A904227D387F3118840462D18361A48466A
:20388C00294600F02BF8B042F7D92021EFF3118781F31188E18B012903D14046294600F0C1
:2038AC001DF8B0F1FF3F06D0A169801B814238BF081C291801E0A069411900F013F8A4F893
:2038CC0020902560A4F81C8087F31188BDE8F88378010020DFF800F095C00110DFF800F0AF
:2038EC000DA80110DFF800F0BDBE01108B4208BF824204D90B1C021C002100207047002B06
:20390C0008BF002A0BD10B1C021C00210020002B08BF002A1CBFC943C04300F032B8F0B5C3
:20392C001C4615460B46024600200021B4FA84F6202E04BFB5FA85F62036B3FA83F7202FB5
:20394C0004BFB2FA82F72037F61BB6F1200727BF05FA07F400257F42B4403EBF25FA07F769
:20396C003C43B540A34208BFAA4201D3521BA341404149416D0845EAC4756408761EF1D55C
:20398C00F0BD7047B0B50446A768ADF1280D5FBB0C2000F0A9F9071C1DD068460021242229
:2039AC00082303F067F8002306976A466168ADF810301848059300F02FF8386070B9082068
:2039CC00ADF824000C25ADF8265009A802F04EF8384602F0B1F96FF0030018E0E068786049
:2039EC002069B860A7600AE002F03CFD0546386802F08AFC2069B860284602F04FFE3868AD
:203A0C00616803F03FF8386803F038F800200AB0B0BDC046C9680000DFF800F0EDB30110EE
:203A2C002DE9F04107467868BE68044600F5847002F06AFC30681C4980690968C0F3C0008B
:203A4C0008BB03F04FF8194D8046287820B1022002F09CF800202870404603F03FF8316817
:203A6C00134D886B20F020008863286820F480702860606A216A091A21622369626A3846DF
:203A8C009847BDE8F0814FF4FA70B0FBF1F1012998BF012104F58474204602F0F3FF2046A7
:203AAC0002F0ECFFBDE8F081886E0000551D00203010004070B51F481D4CE06000F58770DE
:203ACC0020611D48ADF1280DA060684602F08EFD4FF4E130069003208DF81C0000258DF89E
:203AEC0015508DF816508DF81D5001208DF800008DF801001148039011488DF8175069466C
:203B0C000490284602F09CF9606020B101684B682A462021984702F0A5FC06466068258087
:203B2C0002F0FCFD304602F0B9FD0AB070BDC046C00F00209C0700201954000021440000FF
:203B4C006D6200002DE9984302F0CCFF1F4CDFF87880814604F1E000007850B94446A068F3
:203B6C000146022088470746102001F063FA2FB320E000F079FE002820460FD114490968B1
:203B8C003222B2FBF1F101B9012100F13004204602F078FF204602F071FF0FE04446002203
:203BAC00A16880F8E020022088470746102001F041FA1FB1A068014603208847484602F04D
:203BCC008DFFBDE89883C046406E0000F40C0020886E00002DE9F04106467568B46802F045
:203BEC0081FFA96A39B921688969090903D202F075FFBDE8F0810027AF6202F06FFFA17DA0
:203C0C003846FF2902D0E17DFF2900D118B128462146FFF7E5FB2168886B20F020008863BE
:203C2C000D49086820F48070086002F05BFF0B4C8046207818B1022001F0A8FF27704046A5
:203C4C0002F04CFF686A296A091A29622B696A6A30469847BDE8F08130100040551D002023
:203C6C0070B51E4DAC68064602F06CFC4FF47A71001B4843030C02F065F92969401A48BFC8
:203C8C00404240F6B831F618B14210D306280EDAE9688C420BD8286848B1114A091B5143DF
:203CAC008A0C02EB1141884288BF011C08E00D49486840080ED208687D2100F0FF0041435E
:203CCC00C82905D3B1F57A6F88BF4FF47A6103E0C82101E04FF4FA61084670BD2C1D0020EC
:203CEC0040420F00AC3F0050F8B5001D84B214F0030002D0241A241DA4B202F0B3FB1A493B
:203D0C00102C02464F690A61C8BF8F69388800231E46C10BCD0319D126B984420ADD3B4697
:203D2C00012617E01988091889B28C42198011DC1F4608469FB1001B80B20428B4BF3C8855
:203D4C00385344F400443C803F1D08E080F40040002680B23F1838880028DAD100271046DD
:203D6C0002F09CFC3846F8BD040E0020F8B50D46074602F077FB064602F0D2FD68BBB5F5BD
:203D8C00877FDCBF0021081C05DDA5F5877007F587714FF48775134C61612A463946E0801B
:203DAC0004F59370FFF764FC01200F49A580A7680870781CA06002F055FB0C4C07462A4695
:203DCC0021696068658002F006FEB0F1FF3F04BF00206080384602F061FC304602F05EFC79
:203DEC00F8BDC04684070020A7110020C00F0020F8B50E46044602F069FE0546304602F033
:203E0C0035F8071C03D1284602F05CFE28E0F87F10F0070F1DD114487968884202D079687B
:203E2C002166786002214FF0E04204F1580080E80600284602F046FE04F138004FF0FF3198
:203E4C0002F068FE04F168070020206697E80300F8BD284602F036FEF87F10F0070FFBD1D0
:203E6C0002200021F8BDC046654F00001CB5042002F088FA022818D0032816D01648006832
:203E8C00C0F38150032814BF41F288324FF47A721248144C016854342046B2FBF1F102F0E6
:203EAC00F1FD204602F0EAFD1CBD03200C4C009000214FF040521C23204601F097F80120AD
:203ECC0000214FF4007209230090204601F08EF8022001F05BFE1CBDB43F0050886E0000E9
:203EEC0000A00C40F40C0020F8B502F0FBFD1C4C0746A06D10F4602F27D0A06D400CC6B2F6
:203F0C00700807D2B00803D2F00828BF022602E0012600E00026751D68B200F089FEA36D6E
:203F2C0006F111010120884023EA00013846A16502F0D4FD04EB8600C76C4FB1A06C29460B
:203F4C0000224FF00063B84702E0384602F0C6FDA06D20B104F1F000002102F093FBF8BD64
:203F6C00B8090020002213460A46194671B510F0030F0BD0002A82BF00F8011BB2F10102F2
:203F8C0010F0030FF6D1002A08BF71BD11F0FF0141EA0121042A18D341EA0141082A0FD335
:203FAC000E46102A08D30C460D46B2F10F0312F00F0272C0103BFCD812F0080F18BF42C0DC
:203FCC0012F0040F18BF40F8041B12F0020F18BF20F8021B12F0010F18BF017071BDFEE706
:203FEC0038B5054601201A4C68712879B0B902F039FA2178002904BF6FF00704051C15D0F9
:20400C00491EC9B2217039B902F048FB606801F04DFE0020687118E0054613E002F022FAB9
:20402C0005462078FF2805D16FF00604284602F035FB0BE0401CC0B20128207002D160688E
:20404C0001F04BFE284602F029FB0024204638BD2C11002070B50646B079F4680628A4F101
:20406C000C042CDA3079062829DA02F0FBF9154DB27991000C3501EBC20149194968E1B1AB
:20408C0002F00CFB30792071B0796071307AA071B179880000EBC1004019F168406808303C
:2040AC0001F060FEB179880000EBC10040194068406802F027FD002070BD02F0EFFA6FF001
:2040CC00020070BD440E002070B5054602F0B8F8194CC0F5877081B26088A94229DDAEB2A4
:2040EC003118B1F5877F0EDD0319C0F587711A1D8EB2C0F5877399B2104601F02FFDAD1B5F
:20410C00AEB20020608000193146001D01F026FD6088084D4FF48772801980B290FBF2F1C0
:20412C005143401A02216080E869698102F0EAFC70BDFEE70C050020E00B002038B51949D2
:20414C001A4C00204822C1F8F30F94F8E200C1F8FF2F20B3012817D0022807D003281ED155
:20416C0051F8310C00F06EF80B2016E051F8315C2846FDF743FB40F2FF50A84202D8801CDF
:20418C00A842F1D2082008E051F8310C00F00EFB054800780028E7D0052084F8E400FDF7BA
:2041AC0077FF38BD39400C404E6E0000F40C002038B544688568606E02F0C5F829681748F4
:2041CC008A6B1040886316480068C168286888476868FEF767FF04F1800000F023F804F1B5
:2041EC009C0000F023F8A07818B904F1D00000F021F8607818B904F1EC0000F01BF804F5CF
:20420C00847000F01BF802F06DFC0021217002F065FC04F16C0002F043F838BD0DF8FFFFB5
:20422C00D0010010DFF800F061C20110DFF800F0E9C20110DFF800F0E1C20110DFF800F0D1
:20424C00B9C2011038B51A4CA0F5C060D4F8B810C4F8D4000029B8BF49420028B8BF40424E
:20426C00814220DAB4F8BC00124D30214FF47F4208230090284600F0B9FEB4F8C0000421F8
:20428C004FF4F80212230090284600F0AFFEB4F8D00020214FF440620A230090284600F048
:2042AC00A5FE012000E0002084F8D80038BDC046F40C002000A00C402DE9F8438146EFF3D9
:2042CC001188202080F31188174D154C134F012605F11C000660A4F114000660F86A016A4B
:2042EC0014208847D9F81000810C14BF000C042020603868026823210020904709480660C2
:20430C0054F8180C20F4C02040F4803044F8180C2E6088F31188BDE8F883C046840100108C
:20432C00182009408002244300002443B0B5ADF1400D02F0CFFB044600213C2208236846F2
:20434C0000F02AF81148416806918168006804900F480068002205900E480891694600F0BD
:20436C001FF8071C0DD002F07DF80546384600F057FD30B1284602F091F9204602F09EFBEA
:20438C0001E002F053FB10B0B0BDC046306B0000080E0020E1670000DFF800F0D9C1011032
:2043AC00DFF800F019AE0110F0B5194C0646082504F118000660ADF1140DADF80050019512
:2043CC000420ADF80200684601F050FB00280CBF029F00277FB100203870A069408801F0A7
:2043EC00EFFE7860A26950887880786818B151685288FFF73DF9ADF800500320ADF80200EA
:20440C000196684601F032FB384605B0F0BDC046D41000202DE9F041174602F023F8174C2F
:20442C008046002F08BF00251AD02188E668002504F114032846B1F5877F09DA1A5C725444
:20444C001D544A1C401C91B2C0B287422180F2D8A268B84205D042B161884FF4877090476E
:20446C00A26812B1B8B2294690472580606802F055F9404602F012F9BDE8F081C00F00207E
:20448C0030B5401E4FF00004ADF12C0D0AD0401E04D0401E20D1FDF7FBFD1DE000F0F4FA91
:2044AC00044619E001A821462422082302F0E2FA06940D4DADF8144009490794012201ABB5
:2044CC0005F1780002F0D2FA064A23462C2105F19C00009302F0E2FA20460BB030BDC04697
:2044EC00F946000049410000F40C0020164880B507683FB315498B6803EA5300C00E21D281
:20450C00134A106880081DD2486880081AD21068096810F0050F4FEA114101F0F00101F5BF
:20452C00E0710AD1B9420DD2190F38BF40F00100D90E38BF40F0040003E0B94202D920F03E
:20454C000500106080BDC04628500940AC3F005000000940F8B50646B06801687568886B08
:20456C0020F4FA6088631349086820F40070086002F0B8FA104C0746207820B1022001F055
:20458C0005FB00202070384602F0A8FA02F0AAFAA96B11B902F0A2FAF8BD0021A96302F077
:2045AC009DFA686B296BEB68091A29636A6B30469847F8BD30100040541D0020B0B507464D
:2045CC0002F090FA154C0546207918B3401EC0B22071F8B904F1BC00082102F053F8CFB19A
:2045EC00E068703001F090FEE1680D48CA680068BA1AB2FBF0F2012A98BF012103D9C968FC
:20460C007F1AB7FBF0F19834204602F03BFA204602F034FA284602F061FAB0BDB80900207A
:20462C00886E0000F8B5844640F6FF741CF8013B002210E0481B401E10F8015B7F1E01F83B
:20464C00015BF9D103E01CF8010B01F8010B521C5B08082AEADA5808F5D21CF8010B1CF8FE
:20466C00015B05F00F07FF1CC5F30315122F45EA001508D11CF8016B300A24BF1CF8010BC1
:20468C0060F3DF16BF19AC42D4D1F8BDD0B5044602F0E0F900F0C4FB071C08BF6FF002040E
:2046AC001FD001F0DFFE0146A2880F480023243030F80C6F5EB902804760A268826023738D
:2046CC00786820610024084601F0E8FF09E0964208BF6FF00204F6D05B1C062BE8D302F01B
:2046EC00A5F92046D0BDC046200E00201648144A144908B5E4300078801E0A2807D8DFE8F1
:20470C0000F01814100614100614100609C002F0A9F911E010688008FCD250688008FCD2DD
:20472C000AE008688008FCD306E008688008FCD202E010688008FCD3FDF7AAFC08BDC046FA
:20474C0034600C4038600C40F40C00200246F8B5084611464D68203821D0401E1CD0401E29
:20476C0018BF6FF001001ED18C6802F0BBF90E4E07463068016920688847B0F1FF3FF8D1C3
:20478C000024AC64686C401EE8642C653846AC6302F0A4F92046F8BD0021084601E0012121
:2047AC00002085F82D10F8BDD0010010134910B50A684BF2F5214843040AC2F3814001285F
:2047CC0006D101F0BFFB00F003FE604304EB90540C4901F1E500007830B90948006820F08E
:2047EC007F402418640802E0002081F8E50006480460210C41600123836010BDB43F00504F
:20480C0010200940F40C00203C600C40B0B5044602F0B6F830F0010008BF6FF004041ED07F
:20482C0002F018F9054601F01DFE01460D480622403030F80C7F6FB1A388BB4208D1406862
:20484C0000680022854208BF0122A260002403E0521EEED14FF0FF34084601F01FFF2046A4
:20486C00B0BDC046040E002008B5012001F08AFD01281DD00F4834210122002300F0D0FC6D
:20488C00002808BF002014D00B48006801F0AAFB01F058FE0A4A93681168D060C01A074B5D
:2048AC00A1EB91014343180C884228BF011C1160012008BD00A00C408000001040420F00F2
:2048CC002C1D002098B5154B1B1D18680004070C21D001F037FB104991F90720824205DD23
:2048EC0010F1800FB8BF6FF07F00C8718C88BC4210D80A68D3F8D40F801A801C1F2888BFB0
:20490C001F203F1B4008C7404FF6FF70E719B84238BF071C8F8098BD481D00203010094069
:20492C00084610B500F0005100F0040008431CD0012001F027FD104C012811D00B48016894
:20494C003220B0FBF1F2012A8CBFB0FBF1F101216434204602F096F8204602F08FF810BD1C
:20496C00034801F0A5FF0348046010BD886E00004D11000000100440EC0900201549096843
:20498C0021280ADC212819D00C380FD00D380FD0001F0FD0C01E0FD01AE0253810D0001F52
:2049AC0010D0401E10D0401E10D011E0086870474868704788687047C8687047086970475A
:2049CC004869704788697047C8697047086A704700207047F0010020F8B5054616460C461C
:2049EC000C2001F00DFC0746082001F009FCDFB1D0B144604580B86076B900210B4C017070
:204A0C006069394602F082F8A08840F00800A080E06902F077F8F8BD01F063FD384601F037
:204A2C0060FD204601F075FDF8BDC0460C05002038B50C4620B141680122A240114201D175
:204A4C00022038BD914341600D480025031900EB8401C1F8945003F140010978FF291ABF64
:204A6C00406850F8211044F020410648FEF742FA20464FF0FF3101F093FC284638BDC04637
:204A8C00541B0020007FC76738B5134D95F8E100002410B91148007860B102F023F895F8AA
:204AAC00E310002906BF012185F8E310012402F015F80CB1002038BD022001F07FF80E20C9
:204ACC00FEF75AFB01F002FB01280EBF0120002085F8E20038BDC046F40C00204E6E000025
:204AEC00D0B5044601F0B6FF00F0F0FF061C08BF6FF004001DD001F0B5FCB168002908BF72
:204B0C00002709D051F80C2C0023B2600F4641F80C3CFF2601F8026C01F0C0FDA7603FB1CC
:204B2C0017F8080C207117F8070CA0710020D0BD0220D0BD10B501F0D5FF114C611C097841
:204B4C0029B10E490C6801F0C9FF224614E001F0C5FF01F0D9FD0B4A002301F06BFD626C74
:204B6C00002314001B184FF07A0244EB01044FF09051C91842EB0402104610BD0430044001
:204B8C00B809002000093D00012838B51ED1012001F0F8FB01281BD001F0ECFC0D4D0E483B
:204BAC000122322305F1E00100680A70B3FBF0F404B914463035284601F0A6FB28462146D5
:204BCC0001F060FF284601F059FF01E000F01AFE002038BDF40C0020886E000038B5124867
:204BEC00104C0168114D0C40E1430160A10908D34068800905D328464FF40051BC3001F048
:204C0C0041FD14F4602F0BD0284600F158010A6804F46024F03014430C60002101F032FD0E
:204C2C0038BDC04620000E0008100440B809002098B5044601F056FF8446104890F85F100C
:204C4C00C90803D390F85E10A14213D0B0F85C300B4F012202FA04F11943A0F85C10391D8D
:204C6C000B6804F10C07BA4093430B600F680FB900210170604601F031FF98BDB8090020A4
:204C8C0008100440DCB5044601F0E4FE00F01EFF064601F075FE30F0010014BF002E6FF0C0
:204CAC00040017D0606858B1B0F1FF3F05D0694600F0F4FE30B107460BE04FF0FF3000E080
:204CCC00002000907068009901F024FF002700B901273846DCBD7047F8B5044601F0BAFE1D
:204CEC0000F09EF8071C19D001F0BCFB84460D480021243030F80C6F6EB94FF6F8720280DF
:204D0C0047600025856021717868A060604601F0C5FC2846F8BD491C0629EBD301F086FE22
:204D2C00F8BDC046200E002030B5114C1020DD214FF4007204F17805ADF13C0DE060284632
:204D4C00FFF714F900213C2208236846FFF724FB4FF400700023074908906A4607950220AB
:204D6C00069004F1280000F007F80FB030BDC0460C050020ED050000DFF800F025B1011002
:204D8C00F8B516460C4601F0ADFE02460F484178832554B1641E02D0641E10D00DE081796E
:204DAC00012904D0B0F85C1005E0476A0FB9802506E0406A818B318002E0032500E03170FA
:204DCC00104601F08BFE2846F8BDC046B809002070B540680C46054600F5847001F094FA1B
:204DEC000D486A7F0168287F8018AA69C01D80B244430A4805F584766043B0FBF2F0081882
:204E0C006330B0FBF1F1491C304601F03BFE304601F034FE70BDC046886E000040420F000E
:204E2C002DE9F843804601F01DFB0F4C03250026814654F80C7F5FB93046C4F800800146EE
:204E4C00A6600A4600F012F8606018B901F0EEFD474501D1264601E06D1EEAD1484601F019
:204E6C001DFC3046BDE8F883200E0020DFF800F0ADB50110B0B5054601F0ECFD044601F02A
:204E8C007FFD30F0010008BF6FF0040414D001F0E9FA0A4A002132F80C7F4FB153681B681B
:204EAC009C4204BF2971002404D0491C0629F2D36FF0040401F0F2FB2046B0BD440E0020D0
:204ECC007CB5114D04460E46600807D3B0B20021009001220B46284600F088F8A00807D370
:204EEC00B0B20090002102220123284600F07EF8E00807D3B0B2009000210C2202232846E1
:204F0C0000F074F87CBDC04600A00C40F8B506460F4D104F7388002417E0A20002EBC402DF
:204F2C00921951689068D26852B9AF420BD00A7855F822200346491C08461946904701E0D4
:204F4C00FEF796FB7388641CA4B2A342E5DCF8BD44F2010050F201002DE998430446276E49
:204F6C009946904607B1B8470220002100EA080011EA090108BF002809D104F1580003C89E
:204F8C0008EA000019EA010108BF002807D004F1680080E8000304F1380001F0B3FDBDE80D
:204FAC0098837047104A1068C0F30F314BF69A10884207D111680B20B0EB117F14BF0020FF
:204FCC00042070472430884208BF01200BD04BF64130884208BF032005D0213888420CBFE0
:204FEC0002204FF0FF30704718130050B0B500EB4100102B04AF00F5007403D3103B00F5E5
:20500C000174120C3D889D4045EA024501F07CFC002700B90127064A394610680028FCD02D
:20502C0025600120106009B101F074FCB0BDC04600800C4070B5104C0646204601F0C6FC0E
:20504C000025B0B9204601F0EBFC0446A06806420AD0E06822690021034630469847054627
:20506C00012D08BF012005D0204601F0DBFC041CECD1284670BDC046F40C002070B50D46F5
:20508C00044601F02FFD6668A1682B468E4204D101F024FD4FF0FF3070BDE1682568491CC8
:2050AC00B1FBF6F27243891A4B55A2686369E160521CA260934238BF626101F00FFDA0683D
:2050CC0070BDFEE70F4A01465068ADF1080D08B9002050600846801E12D0801E10D0401E6C
:2050EC0007D001208DF801009DF801000028FBD106E001208DF800009DF800000028FBD187
:20510C0002B0704708020020F8B5FFF74DF907460C2001F075F8064601F0A4F905467FB1DB
:20512C0076B1B760387858B9074C2069314601F0EDFCA08840F01000A080E06901F0E2FC97
:20514C00284601F0ABFAF8BD0C0500202DE9F04101F026FC0D4D2B688046A3B105F1940767
:20516C000024012606FA04F018EA000F07D057F8240020B1026812B1214690472B68641C3A
:20518C00E4B29C42EED3BDE8F081C046541B00200C4885460C4885446F4607208743BD463E
:2051AC000A486F4607600A48002803D07946491D8E460047FEF70CFA01F024FA00F00AF8EC
:2051CC00FEE7C046403F00200004000094110020456A0000DFF800F0D1C70110D0B5044682
:2051EC003C20FEF781FD071C14D000213C220823FFF7D2F8207AB86160893862E06838614C
:20520C00606839460022FFF7CBF80646384600F093FD16B96FF00300D0BD0020D0BD7047F4
:20522C00F8B51E4640181446102E02D3103E801C240C054601F068FB002700B9012707487C
:20524C003B460768002FFCD02D88012101600BB101F060FB2C403441A0B2F8BD00800C4063
:20526C000E4938B5CA68824210D1487801280DD101F038FC0546084800F078FE0446284662
:20528C0001F02CFC04F0FF00012802D06FF07F0038BD4FFAA4F038BD01000304B80900206D
:2052AC00B0B50D46044601F01DFCA768294697B1226923689A5C0A7021696568A268491CC4
:2052CC00521EB1FBF5F3A2606B43C91A216101F005FCA068B0BD01F001FC4FF0FF30B0BD79
:2052EC0000B500213C220823ADF13C0D6846FFF753F8084800F1800107914FF421710891A5
:20530C0001210691044900236A463030FFF734FD0FB000BD08020020A10E000070B504465D
:20532C00606810F07F4F18BF6FF0020011D101F099F8084D0646287828B1686800F0B6FCA3
:20534C00606800F0CAFC60686860304601F0A6F9002070BD2C1100203EB50546FFF7C0FB94
:20536C00041C15D1287902A900F0C6F968B10821ADF80010A86801900321ADF802106846FF
:20538C0000F074FB6FF005003EBDBDF80800A88020463EBD10B504460C4800680023D9072F
:2053AC00024650080143D007801A4FF47A7299410023FEF79BFA002908BFB0F1004F28BF0F
:2053CC006FF000406060002010BDC046886E00000D4938B5091DD1F8EC3209681B3800FB6A
:2053EC0000F409060A161906091604FB01F543F307214143C910604301EBA521424301EBCA
:20540C00A24000EB234038BDA0100050B0B50C4C002520800F46658010B1216901B18847D3
:20542C0047B1E2680748E188057022B121B9114638468847E18811B16069FEF797FCB0BDB7
:20544C0084070020A71100201FB508230446ADF800300B48ADF8023001788DF80410828958
:20546C00ADF806206068039000218DF80810684600F0FCFA204601F034F800901FBDC046B3
:20548C000C05002010B50446207B00F00F00022811D1FFF74FFBA168084C081A04F10C0159
:2054AC000968C968800801F57A71814203D26FF05041814200D2002010BDC046B8090020E4
:2054CC0038B5044601F00EFB05460B48401C007868B1204600F04AFD0446284601F0FEFAC6
:2054EC0004F0FF04012C0CBF8120022038BD284601F0F4FA012038BDB8090020F8B50D4EAD
:20550C00446885680F4608E0216B0870206B636B7F1E401C2063581C606347B106F10C009E
:20552C000068016928688847B0F1FF3FECD13846F8BDC046C40100101CB51446CA78012AEC
:20554C0002D18A880A4B1A8000F038FC30B9002000906946204600F09AF818B100F066FFF9
:20556C00044603E00098447800F0C7FF20461CBD201100202DE9F0410646984614460D463A
:20558C00102000F00DFE071C0ED04146062201F080F93E817D81FC6000F022FE069A394672
:2055AC00FFF7CAFFBDE8F0810420BDE8F0810000F8B50646756801F095FA0A4C074620783F
:2055CC0020B1022000F0E2FA00202070384601F085FA686B296BEB68091A29636A6B3046AE
:2055EC009847F8BD541D00202DE9F0410F46044601F020FA04F1280292E8600033462A46A7
:20560C00FEF774F980460B4642462846314601F011F817B1303484E803004046BDE8F08167
:20562C00F8B5446885680F1C11D00A4E3068216A826909782868904748B1206A636A7F1ED1
:20564C0000F10100206203F101006062EED13846F8BDC046D001001070B5044604F12800AE
:20566C0090E80C000D460021284600F0E3FF04F1300292E860002D1846EB0106290C3004FF
:20568C00014300F0FBFA383484E8600070BD3EB5054608200C46ADF800002020ADF802002C
:2056AC001020ADF80400684600F0E0F928B90298002818BF6FF0040003D12846214600F018
:2056CC0017FC3EBD00B50820ADF1140DADF800003821ADF804100020ADF802000290684656
:2056EC0000F0C4F903489DF80C1001700499C16105B000BD0C050020062880B50CDA0A4F80
:20570C00820002EBC00207F10C00875A13181FB14FF6F870B84202D14FF0FF3080BD1888A7
:20572C000880002080BDC046440E002010B5044600212C220823ADF1300D684601F026F9BE
:20574C00E0200890A168606800236A4600F008F8002818BF002001D101F068F90CB010BD45
:20576C00DFF800F079AB011010B5044600212C220823ADF1300D684601F008F9E068A168AC
:20578C000890606800236A46FFF7EAFF002818BF002001D101F04AF90CB010BD10B504462E
:2057AC0000F060FE094B0022014633F80C0F30B1A04208BFD4B203D0521C062AF5D3FF2420
:2057CC00084600F06BFF204610BDC046440E0020B0B50D460949441801F096F8002700B9A5
:2057EC000127074A394610680028FCD025600120106009B101F08EF8B0BDC04600A00C4093
:20580C0000800C4008B503200021FFF759FB012000F0B8FD18B10648006800F0E3FB00F062
:20582C0091FE044B083B586000F08CFB186108BD80000010341D002084460B4838B5028839
:20584C0081B1051D4FF48774AB5C521C491E0CF8013B92B292FBF4F303FB04F3A2EB03024F
:20586C00F2D1028038BDC046E00B002080B51746094A13688B4205D902EB8102D2F89420D8
:20588C00904201D0022080BD002007B10120034A5054002080BDC046541B002000200240BC
:2058AC0038B501F01FF905460948E030007838B106480024342101222346FFF7B1FC00B132
:2058CC000124284601F00AF9204638BD00A00C40F40C0020F8B5064637680D4600242C6033
:2058EC001FB901F0FFF8374608E001F0FBF800E03F6839680029FBD1BD4201D03D600124E4
:20590C0001F0ECF82046F8BDF0B5044605AFADF10C0D03B9084B97E860008DE86000FCF77B
:20592C0017FA011C44BF00204FF0004102D42046FEF75EFA03B0F0BD654F000038B50546B5
:20594C000C2000F02DFC041C0DD02946002200F0A0FF4FF0FF30A06000F042FC034A214689
:20596C00FFF7EAFD38BD042038BDC046A55E0000F8B50B4E456884680F4606E005F1400215
:20598C00C1B21046FFF77AFB7F1E47B106F10C000068016920688847B0F1FF3FEED1F8BDB3
:2059AC00C4010010094910B500200A4C08600120C86114342060216844F8280C0448006852
:2059CC00016A14208847206810BDC04600002443B0010010182009401078802811D150885F
:2059EC0040F27F6181420CD190883F21B1EBA02F07D1C0F3C211052903D100F07F00834272
:205A0C0001D0002070470120704710B5401E14460DD0401E09D0801E05D0001F01D001F015
:205A2C0005F8052004E0002002E0042000E00220226821469047002010BD000010B5044668
:205A4C00A168606808601420FEF74EF938B10549A368054A096800F0B1FA002010BD6FF0A8
:205A6C00030010BD846E0000175A000010B504462088FFF793FEFF2808BF4FF0FF300AD073
:205A8C00054B810001EBC000195811B12046884710BD6FF0010010BD580E00200A4A10B57C
:205AAC0012680C464FF47A710023A1FB0001FDF71DFF002908BFB0F1004F2EBF6FF00200E2
:205ACC002060002010BDC046886E000038B5054600F0C8FC084C03220146243C54F80C0FDE
:205AEC0018B1A84202D0521EF8D10024084600F0D5FD204638BDC046440E0020094902047D
:205B0C0080B5120C41F8082CC0F3074041F8040C0120086004480768002FFCD000200860AF
:205B2C0080BDC04644600C4084088C4310B50A4C2368C1F30F2102F00F02C0F387100904E7
:205B4C0040EA022023F4806323601B041B0C0B4323600143616010BD1480024070B5034643
:205B6C000E4600F08DFBB04202DA00F089FB0646054C65881846324661191831FDF778FD7F
:205B8C00AD19A8B2608070BD8407002010B5044600F0A8FF084BE21892F8E810491EC9B2CA
:205BAC0082F8E81021B99A680121A1408A439A6000F094FF10BDC046F40C002038B5044614
:205BCC0000F090FF084A02F108031D680121A14012192943196092F8E810491C82F8E810F9
:205BEC0000F07CFF38BDC046F40C002010B500F06DFF00F06FFF032000F010F806481030EB
:205C0C00006830B1034C204600F0A2FE204600F0A5FE10BD23280000A4010020DFF800F04D
:205C2C0045C0011008B500F0C1FE012801D0FEF7D6F9074800F00EF800F06CFA00F00EF887
:205C4C0000F010F800F012F800F014F808BDC046F95B0000DFF800F081C60110DFF800F045
:205C6C0095B70110DFF800F08DC20110DFF800F03DC20110DFF800F009C3011010B50C4602
:205C8C0000F060FC211AB1F1004F08D8011B091DC90F05D1001DA04288BF041C00E0041D49
:205CAC000148046010BDC0461820094038B5044601250DE0C0F11F0005FA00F1052881EA35
:205CCC00040403DB401FFDF7EDF901E0FFF75EFFB4FA84F02028EDD138BD38B504460125EB
:205CEC000DE0C0F11F0005FA00F1052881EA040403DB401FFDF740FA01E0FFF75FFFB4FAFD
:205D0C0084F02028EDD138BDF8B5074615460E460A2000F045FA041C0CD031462A4600F033
:205D2C00B8FD384600F0ADF9207200F059FA214600F044F8F8BD000010B5044600F092FBE5
:205D4C00074934F8042C6FF3DF3224F8042C4A690861241F944238BF4C6100F09FFC10BD9B
:205D6C00040E002038B50C46054600F07BFB002144F80C1C296811B92C6006E0114651F803
:205D8C000C2C002AFAD141F80C4C00F087FC38BD10B5044660680C3080B2FDF7A5FF50B1F3
:205DAC00A18800230181FF22036000F10C0182721846A16010BD6FF0030010BD00B5ADF1E5
:205DCC00140D8DF8040003910822ADF80020ADF802201020ADF8060002208DF8080068468B
:205DEC00FFF744FE05B000BD094B10B51C688C4205D903EB8103D3F89430984201D00220D6
:205E0C0010BD0846114600F0CBFA002010BDC046541B002038B5094B1C6802F0FF05AC4224
:205E2C000BD902F0FF0403EB8403D3F89430984203D108461146FDF75DF838BD541B002059
:205E4C0008B5B0F1FF3F28BF002009D201B90549054B820002EBC0001A58D268C0189047D6
:205E6C0008BDC046986D0000006E0000094902460823F431C87F30F07F0005D0B1F91C006D
:205E8C00824208BF081C04D05B1E01F12001F1D100207047EC0900201078802810D1508850
:205EAC0040F27F6181420BD19088032818BF042806D1917931F0100014BF1129012000D0CF
:205ECC000020704738B52020EFF3118580F31188064CA0680021FDF7FDFC6169081AA169D0
:205EEC00814238BF002085F3118838BD7801002010B50C46ADF1180D02900821ADF80010D3
:205F0C0019216846ADF802104FF0FF310191FFF7ADFD0499216006B010BD80B5107802AF26
:205F2C0080280DD1508840F27F61814208D19088834205D138789179884208BF012000D05A
:205F4C00002080BD0748816841F31002064991F900100068A0F5407041430811121A803249
:205F6C0010127047285009400C130050084910B50246A1F11C0318680028FCD100240C60F8
:205F8C001A60D8690028FCD00C60586810BDC0461C10044038B500F0A5FD074C054694F82E
:205FAC00E000012804D1FEF75FFC002084F8E000284600F093FD38BDF40C002010B5044619
:205FCC0010460A46211C14BF0028022006D0C8608A6003480B6100F041F8002010BDC046FA
:205FEC00F40C002070B5054600F08EFC002400B90124054E30680028FCD0A847012030600A
:20600C000CB100F087FC70BD00800C4008B500F069FD064A117880B229B905490968002369
:20602C000B700123137000F059FD08BDA6110020506E000010B5084C06492069814202D10B
:20604C0000F062FB606104F1BC00042100F01AFB10BDC0462D2B0000B809002038B50D46FF
:20606C00044600F0DBFC00212A462346116059685160596801B921460A605A6000F02EFD05
:20608C0038BD0EB58DF806005021ADF8001068460021ADF80210FFF7E9FC002814BFFF2010
:2060AC009DF807000EBD000010B5074CA06920B1A06900F02EFA0020A0610420E080E0696C
:2060CC0000F020FD10BDC0460C05002006490868002818BF012005D1044B402001221860A4
:2060EC000020CA617047C04604800C402C500C4008B500F04BFA00F0804100F00200084314
:20610C0005D003484FF00051BC3000F0BBFA08BDB8090020074808B51030006828B10348B4
:20612C0000F016FC024800F019FC08BDCD62000071660000A4010020074810B510300068B6
:20614C0030B1044C204600F003FC204600F006FC10BDC046E34C0000A4010020074908B581
:20616C00283090E80C000020FDF7C0FB002908BFB0F1FF3F88BF4FF0FF3008BD907E000011
:20618C000EB501900821ADF8001068460221ADF80210FFF76BFC002814BF002002980EBD5C
:2061AC000EB501900821ADF8001068460221ADF80210FFF75BFC002814BF002002980EBD4C
:2061CC000EB501900821ADF8001068460221ADF80210FFF74BFC002814BF002002980EBD3C
:2061EC000EB50820ADF800001A20ADF802006846FFF73CFC002814BFFF209DF804000EBDC8
:20620C000EB501900821ADF8001068460421ADF80210FFF72BFC002814BF002002980EBD19
:20622C0008B542882D2A28BF6FF0010004D203490C3151F82210884708BDC0463C6B000012
:20624C000648018840884FF48772401A00F5877090FBF2F15143401A80B27047E00B0020C1
:20626C0010B500F0FFF804460448826812B1418800209047204600F011FA10BDC00F002046
:20628C000648418800884FF48772401A00F5877090FBF2F15143401A80B2704784070020E1
:2062AC0038B5054600F01EFC04460448294600F0F3F8204600F012FC38BDC046F40C002031
:2062CC0010B5064C206900F00BF80146A06800B9E160A068401CA06010BDC046A4010020DA
:2062EC00DFF800F049C20110054808B54168054801220838026048698969884708BDC046AD
:20630C00E40100200C200940002181820449C0684969814203D10348006800F0AFBB704751
:20632C00780100208C6E000010B50446E088FFF735FAFF2808BF4FF0FF3003D0A07120467C
:20634C00FDF788FE10BD10B5044607E090FAA0F0B0FA80F0C1B22046FEF76AFB606800289D
:20636C00F4D110BD02294FF0000204D0012808BF4FF47A7203E0012808BF40F2EE221046B5
:20638C0070470000042807BF4FF0C0421D234FF080521C2301483421FEF742BF00A00C40F7
:2063AC00002948BF0021044A02EB8000026861F3050202607047C0460010084003480168D5
:2063CC0003480160034800F05DB9C046E0200240E0200260B41B0020054A0C321268824250
:2063EC0018BF032002D10846FFF76AB87047C046B8090020054A0C321268824218BF0320FB
:20640C0002D10846FFF75CB87047C046B809002010B500F067FB84B200F016F8204600F006
:20642C005DFB014810BDC046506E000050B110F1040F08BF042006D010F1030F0CBF022048
:20644C00012070470020704705490A68107828B90120107048680068FCF78EBE7047C046A3
:20646C00506E000010B500F035FB80B260F30F0400F038FB80B260F31F44204610BD1CB5C6
:20648C00044660686946FFF709FB20B9009860602046FDF777FA1CBD0A681AB94A684260C7
:2064AC000A6801E04B685360496801B901460A60704708B5406810F07F4F18BF6FF00200D9
:2064CC0002D1FFF7F3FB002008BD08B5406810F07F4F18BF6FF0020002D1FFF7FEFB0020C7
:2064EC0008BD0EB501900821ADF8001068460521ADF80210FFF7BAFA0EBD0EB5019008211C
:20650C00ADF8001068460321ADF80210FFF7AEFA0EBD0EB501900821ADF8001068460321C4
:20652C00ADF80210FFF7A2FA0EBD10B50446A088FDF7DAFB0028A06014BF00206FF00300BE
:20654C0010BD000004480168436802688A42FAD1080440EA13407047082009400448843848
:20656C000068C0F302400428C8BF4FF0FF3070471813005008B503200121FEF7A1FCFFF7D5
:20658C00E1FF0149086008BD341D0020044908310868C3430B600A681042FBD17047C04673
:2065AC0008100440044908B591F8E60018B1D1F80C0100B1804708BDF40C002038B50546C6
:2065CC0000F090FA2C680CB12168296000F086FA204638BD406800210170024801700248C8
:2065EC0001707047541D0020551D0020044910B51CC91CC01CC91CC00EC980E80E0010BD96
:20660C00986D00000449B1F1FF3F07BF0020011C0868091DFCF700BBFFFFFFFF012814BFFD
:20662C00002140F2FF71024A002011607047C0460000046030B502FB01F403FB00444FF035
:20664C000005E2FB00542146284630BD38B5044CE56800F0A5F9226901462846904738BD12
:20666C00B809002004498868401E886003D10869C96800F003B87047A4010020DFF800F046
:20668C004DC201102022EFF3118382F31188426A1143416283F3118800F0E0B908B5009080
:2066AC00BDF8020000F01AFABDF8000000F006FA08BD08B5406820B10068FFF725FE0020D2
:2066CC0008BD6FF0020008BDADF1080D01208DF800009DF800000028FBD102B0704710B5B3
:2066EC000446FFF729FD0320FFF798FA2046FEF771FD10BD08B5034B00930323FEF73AFFF5
:20670C0008BDC046176A0000034A1168506813688B42FAD17047C0460820094008B501683C
:20672C000B6902492022984708BDC046D40F0020812342EAC112037042F47C428280002370
:20674C00C37070474FF0FF31421E12F8010F491C0028FAD10846704708B500F007F8024807
